:020000040800F2
:10000000C807002041020008491E000831180008F6
:10001000451E0008231300081724000800000000F4
:100020000000000000000000000000005120000857
:100030008915000800000000D91E00086921000889
:100040005B0200085B0200085B0200085B0200081C
:100050005B0200085B0200085B0200085B0200080C
:100060005B0200085B0200085B0200085B020008FC
:100070005B0200085B0200085B0200085B020008EC
:100080005B0200085B0200085B0200085B020008DC
:100090005B0200085B0200085B0200085B020008CC
:1000A0005B0200085B0200085B0200085B020008BC
:1000B0005B0200085B0200085B0200085B020008AC
:1000C0005B0200085B0200085B0200085B0200089C
:1000D0005B020008D52100085B0200085B020008F3
:1000E0005B0200085B0200085B0200085B0200087C
:1000F0005B0200085B0200085B0200085B0200086C
:100100005B0200085B0200085B0200085B0200085B
:100110005B0200085B0200085B0200085B0200084B
:100120005B0200085B0200085B0200085B0200083B
:100130005B0200085B0200085B0200085B0200082B
:100140005B0200085B0200085B0200085B0200081B
:100150005B0200085B0200085B0200085B0200080B
:100160005B0200085B0200085B0200085B020008FB
:100170005B0200085B0200085B0200085B020008EB
:100180005B0200085B02000800F002F800F049F88A
:100190000AA090E8000C82448344AAF10107DA45E2
:1001A00001D100F03EF8AFF2090EBAE80F0013F0EB
:1001B000010F18BFFB1A43F00103184798370000DE
:1001C000B8370000103A24BF78C878C1FAD852076F
:1001D00024BF30C830C144BF04680C6070470000C1
:1001E0000023002400250026103A28BF78C1FBD840
:1001F000520728BF30C148BF0B607047662902F024
:10020000ED83002070471FB502F0E3FB00F060FBB8
:1002100004000020002102F04FFBE0601FBD10B57C
:1002200010BD00F055FC1146FFF7EDFF02F084F918
:1002300000F073FC03B4FFF7F2FF03BC02F00CF90B
:100240000948804709480047FEE7FEE7FEE7FEE76A
:10025000FEE7FEE7FEE7FEE7FEE7FEE704480549A6
:10026000054A064B704700006D210008890100080F
:10027000C8010020C8070020C8030020C8030020D0
:10028000704700000FB4044910B503AA029800F0AB
:100290000DFB10BC5DF814FB080000200FB41CB56A
:1002A000074B06AA7B4469460090059800F0E5FAE2
:1002B0000020694600F0F4FA1CBC5DF814FB000055
:1002C000F905000070B5044685690068C10601D5CE
:1002D000302600E02026C00707D070BDD4E90121F8
:1002E00030469047206A401C20626D1EF6D570BDD6
:1002F00070B5044685690078C00707D170BDD4E9A0
:10030000012120209047206A401C20626D1EF6D5F6
:1003100070BD00002DE9F05F894604464FF0000AE9
:10032000DFF824B1FB44C0F820A02046E1688847EC
:1003300000287DD0252806D0D4E901219047206AE5
:10034000401C2062F1E700255F462046E1688847AF
:100350002028064607DB312E05D2B81910F8200CEC
:1003600008B10543F1E7A80701D525F00405C4F855
:100370001CA00027C4F818A02A2E09D0304602F08D
:1003800064F838B304EB8708303EC8F8186019E009
:1003900059F8041B204604EB87029161E168884705
:1003A000012F064618D1E069002820DA25F0200543
:1003B0001DE0D8F8180000EB800006EB4000303854
:1003C000C8F818002046E1688847064602F03DF864
:1003D0000028EED1012F0AD02E2E08D12046E16848
:1003E00088477F1C0646022F45F02005C4DBA06924
:1003F000002803DA404245F00105A061E80701D07A
:1004000025F01005A6B1A6F14100192802D8203622
:1004100045F400654A463146204625604D46FFF7C3
:10042000EDFE60B1012807D0ED1D25F0070000E0CA
:1004300007E000F1080978E705F1040975E730469F
:100440007AE7206ABDE8F09F873500007047704763
:100450007047704770472DE9FF4F0C461E464FF01E
:10046000FF378BB0D2E90001DDF860800A908A4640
:10047000C1F30A5505B93D46002108464FF000007A
:10048000BAF1000F00F4400005DA00EB80004FF4F1
:10049000400101EA50004FEA9059B9F1010F00DD27
:1004A000B9460A9850EA4A000ED044F61050A5F218
:1004B000FF3545432F14B8F1000F1ED07542291E99
:1004C0001EDDC9F100021CE0B8F1010F4FF0000081
:1004D00001D0302103E0F24305E02154401CB0423A
:1004E000FBDB30460022002121540B99C1F8088023
:1004F000C1E900200FB0BDE8F08FBD1B6D1CDEE729
:100500004A4600DA694206A800F06CFA06AB93E8A6
:10051000070003AB83E8070050460A9900F046FB4A
:100520008DE80700A0F500501F3800900398002DBB
:1005300009DD42F21F014A46084403A903906846B8
:1005400000F0A5FD08E0A0F500504A461F3803A9B9
:100550000390684600F0AFFD8DE807000004000C32
:1005600003D04FF0FF30410800E01046B8F1000F13
:1005700003D00022009215461EE0751E05D400F03F
:10058000ABF9303262556D1EF9D5B34601220843EE
:1005900002D000227F1C04E02078302801D1002204
:1005A0007F1E002A099786D01DE0112D07DA00F082
:1005B00093F9303262556D1C50EA0102F5D10843BF
:1005C00002D00098C8B10EE00021681E05E0235C4F
:1005D000625C63542254401E491C8142F7DBAB46E7
:1005E000A81B401E0990002004F80B000B98099AE4
:1005F000C0F80880C0E9002B7CE711264FF0000806
:1006000059E72DE9F04F88460446D21D22F0070134
:1006100091B0D1E90001CDE90A0101F0FEFE0246E8
:100620000B98C00F01D02D2007E02068810701D56D
:100630002B2002E0202101EAC000032A099001D00A
:10064000072A05DB03464146204600F08BF90BE103
:100650002078800601D5E06900E00620B8F1650F3A
:10066000814606D0B8F1660F18D0B8F1670F70D187
:1006700031E00020B9F1110F009001DB112301E0FE
:1006800009F101030AAA01A90CA8FFF7E4FEDDE9BC
:100690000C70002609F10105834647E001204B4616
:1006A00000904FF000470AAA01A90CA8FFF7D3FE5B
:1006B000DDE90DB00C995D46002610B909F1010085
:1006C0000D18B9EB050003D4C0F1FF3609F101059F
:1006D000A5EB09002BE0B9F1010F01DA4FF0010998
:1006E0000020B9F1110F0090484601DD112300E010
:1006F00003460AAA01A90CA8FFF7ADFEDDE90C70BC
:100700004D4600268346207800070AD4AB4500DA20
:100710005D4601A8012D04DD411911F8011C3029A5
:1007200007D04F4502DA17F1040F04DA01208246A0
:100730000FE06D1EEEE7002F02DCED1B3E4403E0F0
:10074000781CA84200DD7D1CB81B00F1010A4FF0A7
:1007500000472078000703D4AA4501DB4FF0FF3A99
:100760000021B7F1004F0DF143088DF8431024D05C
:1007700002202B23002F01DA7F422D230A21021EA3
:10078000A0F1010000DC5FB197FBF1FC97FBF1F2F7
:1007900001FB1C7C17460CF1300C08F801CDEEE78C
:1007A000A8F1010003702188090501D5452100E069
:1007B0006521A0F1010800F8011C09980FA9A1EB1F
:1007C0000807FF1D00B10120411901EBEA70A16982
:1007D0003844081A401EA0612078C00602D4204682
:1007E000FFF770FD099828B1D4E901219047206AEC
:1007F000401C20622078C00622D52046FFF762FD0B
:100800001EE0002E04DBB34502DD01A8805D00E0A0
:100810003020D4E901219047206A401C2062761CD8
:10082000AAF101005FEA000A0AD100F051F8C0689D
:100830000168405CD4E901219047206A401C206295
:10084000281EA5F10105DCDC07E0D4E9012118F838
:10085000010B9047206A401C2062381EA7F1010757
:10086000F3DC2046FFF744FD032011B043E600000F
:1008700001694A1C02610878704700B58FB0CDE964
:1008800001310021059105497944CDE90310114654
:100890006846FFF73FFD0FB000BD0000E5FFFFFF1A
:1008A0000A6802F8010B0A6070470000074B70B538
:1008B0000D467B44FFF7E1FF0446284600F000F9AF
:1008C00010B14FF0FF3070BD204670BD671C0000B6
:1008D000004870478801002030B5B0F10A024FEAA5
:1008E000900E71F100034EEA817EB0EB0E0061EBD9
:1008F00091014FEA101E4EEA017E10EB0E0041EB13
:1009000011114FEA102E4EEA016E10EB0E0041EB72
:1009100011214FEA104E4EEA014E10EB0E0041EB52
:100920001141401841F100014FEAD00040EA417006
:100930004FEAD10110EB80054FEA810444EA90743C
:1009400044EB01046D1944EB0404521BA3414FF026
:10095000000348BF0A3200D530BD401C41F1000100
:1009600030BD00002DE9F0411F4604460326016812
:10097000072A01F4006004DB08B116A505E016A5FE
:1009800003E008B115A500E015A521F010002060D6
:10099000A069C01EA0610FB1401EA0612046FFF7F4
:1009A00091FC4FB1D4E9012138469047206A401CA0
:1009B0002062C01C206206E0206AFAE7D4E9012127
:1009C00015F8010B9047761EF8D22046FFF790FCF1
:1009D000BDE8F0814E414E006E616E00494E46000A
:1009E000696E66002DE9F047814616468AB03348A5
:1009F00078440DC88DE80D0030487844801C03AC65
:100A00000DC884E80D0041F69B300844372190FB67
:100A1000F1F290FBF1F5A5F1800501FB12041B3CFE
:100A200002D56442012000E00020DFF890A080465B
:100A30000027FA44AAF1BE0A0DE0E00709D03246C9
:100A4000684607EB47010AEB810100F034FB8DE8B3
:100A5000070064107F1C002CEFD1184F7F44AC3F7F
:100A600018E0E80714D007EB04100DF1180A90E81D
:100A70000E008AE80E00C068F04201D19819089073
:100A8000324606A903A800F016FB03AB83E8070073
:100A90006D10641C002DE4D132466946B8F1000F98
:100AA00003A802D000F0F3FA01E000F004FBC9E96A
:100AB0000001C9F808200AB0BDE8F087482F0000FF
:100AC000007B00F0800070470048704768010020FC
:100AD0007546FFF7F9FFAE4605006946534620F01C
:100AE0000700854618B020B5FFF7B8FBBDE82040E9
:100AF0004FF000064FF000074FF000084FF0000BDA
:100B000021F00701AC46ACE8C009ACE8C009ACE88C
:100B1000C009ACE8C0098D46704710B50446AFF374
:100B200000802046BDE81040FFF784BB4FF0013C39
:100B300050F8042B51F8043B9A4221D1A2EB0C034C
:100B4000934313EACC1317D150F8042B51F8043B0C
:100B50009A4215D1A2EB0C03934313EACC130BD1A9
:100B600050F8042B51F8043B9A4209D1A2EB0C0334
:100B7000934313EACC13DBD04FF00000704700BF63
:100B8000D01A01BAB1FA81F101F0180122FA01F08C
:100B9000CB40C1F12001DBB2C0B2C01A2CFA01F384
:100BA000D11A914311EAC311E6D170475FEA400CB4
:100BB00008BF91F0000F4FEA8C234FEAC12243EAAD
:100BC00051514FEA1C5018BF00F5F0404FEA300079
:100BD00018BF41F000415FEA6C5C00F02980BCF175
:100BE000FF3F08BF40F080407047130C06BF12045F
:100BF0004FF0100C4FF0000C130E04BF12020CF15A
:100C0000080C130F04BF12010CF1040C930F04BF66
:100C100092000CF1020CD30F04BF52000CF1010C36
:100C200011464FF00002A0F11F00A0EB0C0070472E
:100C300011F0004F08BF704731F000413FF4D5AFCD
:100C40000B0C06BF09044FF0100C4FF0000C0B0EFC
:100C500004BF09020CF1080C0B0F04BF09010CF1D1
:100C6000040C8B0F04BF89000CF1020CCB0F04BFE6
:100C700049000CF1010CCCF12003A0EB0C0022FA8E
:100C800003F302FA0CF241EA030100F1010070479C
:100C900020F07F4C80EA030023F07F47ACEB070392
:100CA00003F57C5300F0004003F1FF032DE9804978
:100CB0004FEA154B09B44FEA144325EA0B4E24EAD8
:100CC00003480FF2042606EB132749083E785FEA33
:100CD000320203FB0667C7F5000707FB06F64FEA7B
:100CE00054374FEAD64606F1020607FB066CCCF1F4
:100CF000005C4FEA1C472CEA074C07FB06F40CFB90
:100D000006F504EB15464FEA961634BF00204FF067
:100D100000404FEAD13706FB07FC4FEA1C4C0CFBA6
:100D20000BF7D21B03FB0CF761EB07010CFB0EF773
:100D3000B0EB074072EB17420CFB08F734BFA2EB95
:100D40000742B2EB074261EB17414FEA0C444FEA0E
:100D5000910706FB07FC4FEA1C4C0CFB0BF7B0EBB2
:100D6000C74072EB573203FB0CF734BFA2EBC7420C
:100D7000B2EBC74261EB57310CFB0EF7B0EBC7008B
:100D800072EB57720CFB08F734BFA2EBC702B2EB51
:100D9000C70261EB5771039F4FEA816141EA9211EB
:100DA00004EBCC044FEAD1374FEA826206FB07FC22
:100DB00042EA90124FEA80604FEA1C4C0CFB0BF7A2
:100DC000D21B03FB0CF761EB07010CFB0EF7B0EB3A
:100DD000074072EB17420CFB08F734BFA2EB074247
:100DE000B2EB074261EB17414FEA8C554FEA91078E
:100DF00004EB9C2406FB07FC4FEA1C4C0CFB0BF796
:100E0000B0EBC74072EB573203FB0CF734BFA2EBD9
:100E1000C742B2EBC74261EB57310CFB0EF7B0EBA8
:100E2000C70072EB57720CFB08F734BFA2EBC70286
:100E3000B2EBC70261EB577115EB4C254FEA8161AC
:100E400041EA92114FEA82624FEAD13742EA9012A8
:100E500006FB07FC44F100044FEA80604FEA1C4C9B
:100E60000CFB0BF7D21B03FB0CF761EB07010CFB30
:100E70000EF7B0EB074072EB17420CFB08F734BFDC
:100E8000A2EB0742B2EB074261EB174115EB1C15D1
:100E90004FEA813141EA92414FEA823242EA90427E
:100EA0004FEA80304FEA0C7644F1000448EA0343ED
:100EB0004EEA0B484FF0000EB2EB080C71EB030743
:100EC00024BF624639464EEB0E0E4FF0000B001861
:100ED000524149414BEB0B0BB2EB080C71EB030792
:100EE0007BF1000B24BF624639464EEB0E0E4FF0ED
:100EF000000B0018524149414BEB0B0BB2EB080CB5
:100F000071EB03077BF1000B24BF624639464EEBC1
:100F10000E0E51EA020718BF46F0010616EB0E76D8
:100F200055F1000254F1000103D5BDE88901BDE887
:100F30000088BDE88901BDE80048B619524141EB7F
:100F40000101A3F10103704780807F7E7D7C7B7A65
:100F50007978777676757473727171706F6E6E6D65
:100F60006C6C6B6A6A69686867666665646463630B
:100F700062616160605F5F5E5E5D5D5C5C5B5B5A91
:100F80005A595958585757565655555554545353FE
:100F900052525251515050504F4F4F4E4E4D4D4D59
:100FA0004C4C4C4B4B4B4A4A4A49494948484847A4
:100FB00047474746464645454544444444434343E2
:100FC0004342424242414141002B26D4770021D086
:100FD0001CB54FEA370703B44FF010004FF0100173
:100FE0004FF000000FBCBDE810400BF1010BBBF14E
:100FF000010F08BF5FEA170722BF12F1010211F1CA
:1010000001014FF0004143F1000300F0004043EACA
:1010100000007047F9D35708DAE746EA064613F1AD
:10102000400F4FEA16461FDD13F1200FDFBF1643B6
:101030000A46002120335B42C8D0C3F1200746EAAC
:10104000064602FA07F74FEA164646EA0706C3F1D4
:10105000200722FA03F201FA07F721FA03F14FF011
:10106000000342EA0702B1E746EA020646EA0646FC
:101070004FEA164646EA0106BCBF46EA0646360C6B
:101080004FF000034FF000024FF000019EE72DE902
:10109000C048934630B491E8380007C831EA400CA4
:1010A00048BF34EA430C03D5FFF7F2FDFFF78CFF8E
:1010B000F0BCBDE800882DE9C048934630B491E803
:1010C000380007C810F0804F08BF13F0804F03D1DD
:1010D00000F005F8FFF778FFF0BCBDE8008820F0CD
:1010E0007F4780EA030023F07F4C07EB0C03A3F556
:1010F0007C5300F00040A3F1FE0392F0000F00F0DB
:10110000B38095F0000F00F077802DE901494FEA98
:1011100011404FEA144621EA004800FB06FC24EA8D
:10112000064708FB06F607FB08F800FB07F718EB75
:1011300006484CEB164C4FEA124B18EB07484FEAA7
:1011400015464CEB174022EA0B4E0BFB06FC25EA3A
:1011500006470EFB06F607FB0EFE0BFB07F71EEB22
:10116000064E4CEB164C4FF000061EEB074E4CEBB8
:10117000174B18EB0B0840F1000018EB0E0B58EB67
:10118000000840F100008F1A4FF000013CBFC94336
:10119000661B14BFB5EB040C00213CBFC943F61B12
:1011A0004FEA17444EEA8E0E27EA04454FEA1C47E1
:1011B00004FB07622CEA074C05FB07F70CFB05F65E
:1011C00004FB0CFC16EB074642EB174216EB0C46F1
:1011D00042EB1C421BEB060658EB0202414146EA79
:1011E0009E0601D5BDE80189B619524141EB0101C6
:1011F000A3F10103BDE801894FEA14454FEA114705
:1012000024EA054621EA074C05FB07F406FB07F72D
:101210000CFB06F105FB0CFC11EB074144EB1744FA
:101220004FEA124711EB0C4144EB1C4422EA074CF5
:1012300005FB07F206FB07F70CFB06F605FB0CFCAB
:1012400016EB074642EB174216EB0C4642EB1C45E9
:101250006A1854F1000148BF7047B619524141EB7A
:101260000101A3F10103704795F0000F37D04FEA59
:1012700011424FEA144721EA024624EA074C02FBD6
:1012800007F106FB07F70CFB06F402FB0CFC14EB62
:10129000074441EB17414FEA154714EB0C4441EB6F
:1012A0001C4125EA074C02FB07F506FB07F70CFB80
:1012B00006F602FB0CFC16EB074645EB174516EB52
:1012C0000C4645EB1C42121951F1000148BF704712
:1012D000B619524141EB0101A3F1010370474FEAF6
:1012E00014454FEA114724EA054621EA074C05FB5D
:1012F00007F106FB07F70CFB06F24FF0000605FBB3
:101300000CFC12EB074241EB174112EB0C4251EB84
:101310001C4148BF7047921841EB0101A3F1010342
:10132000704700BFFEE700000246094B9A4201D217
:10133000084801E00648103801F000531BB1064B85
:101340000B40C36002E0044B0B4083607047000019
:1013500010640240006002407D0F7D0F21B10268E1
:1013600042F00102026003E0026822F00102026022
:1013700070470000016821F0010101600021016057
:1013800041608160C1600161212141614A49884217
:1013900004D13D21484A103A91608CE04649183109
:1013A000884205D14FF47461434A103A916082E05B
:1013B00041493031884205D14FF474113E4A103A08
:1013C000916078E03C494831884205D14FF0746122
:1013D000394A103A91606EE037496031884204D151
:1013E0003649354A103AD16065E033497831884250
:1013F00004D13349304A103AD1605CE02E49903133
:10140000884204D12F492C4A103AD16053E02A492E
:10141000A831884205D14FF03D51274A103AD1609A
:1014200049E02949884204D13D21274A083A116000
:1014300041E025491831884205D14FF47461224AB0
:10144000083A116037E020493031884205D14FF425
:1014500074111D4A083A11602DE01B494831884239
:1014600005D14FF07461184A083A116023E016491B
:101470006031884204D11149134A121F11601AE0E9
:1014800011497831884204D10D490F4A121F116069
:1014900011E00D499031884204D10A490A4A121FCD
:1014A000116008E00849A831884204D14FF03D514D
:1014B000054A121F11607047106002403D00002075
:1014C000400F002000003D20106402400146002033
:1014D0000A6802F001020AB1012000E00020704712
:1014E0000146486880B2704730B503460A4600207E
:1014F00000240B4DAB4201D20A4901E008491039E2
:1015000002F000550DB14C6800E00C68064D2C400F
:1015100004EA02050DB1012000E0002030BD00000A
:1015200010640240006002407D0F7D0F10B5002264
:101530000268134B1A40CC680B6823434C69234361
:101540008C692343CC6923430C6A23434C6A2343AD
:101550008C6A23434C6B23438C6B23431A430260F6
:10156000426922F00702D1E90B3423431A43426156
:101570000B6943604B6883608B68C36010BD0000DB
:101580003F801CF0416070477047F0B50A4600216B
:101590000023002400BF3DE0012505FA01F3156892
:1015A00005EA03049C4234D105684F000326BE407F
:1015B000B543056015794E00B540066835430560B2
:1015C0001579012D02D01579022D16D185684F00AD
:1015D0000326BE40B543856055794E00B540866808
:1015E00035438560456801268E40B54345604568B2
:1015F00096798E40B6B235434560C5684F000326E4
:10160000BE40B543C560D5794E00B540C668354388
:10161000C560491C1029BFD3F0BDF0B500230024DC
:101620004D07ED0E02FA05F3CE1000F1200555F836
:1016300026504E07F70E0F26BE40B543CF1000F1DF
:10164000200646F82750CE1000F1200555F8265008
:1016500045EA0304CE1000F1200545F82640F0BD10
:101660000246002013690B400BB1012000E000206E
:101670007047418370470183704700002DE9F84FA0
:101680000746884693469A46DDF828900097B3E0CF
:1016900099F8000080283DDA99F800600D2E05D1F8
:1016A000009F08F110001FFA80F830E0202E03DDC3
:1016B000A6F1200086B200E00026002422E00025EA
:1016C0001CE004EB06105049085C802129410840C9
:1016D00040B108EB040291B27A1990B25A4600F078
:1016E00097F809E0D34507D008EB040291B27A19C4
:1016F00090B2524600F08CF8681CC5B2082DE0DBB1
:10170000601CC4B2102CDADB07F1080087B209F1C3
:10171000010971E0002668E006EB06103B4911F86C
:10172000100099F8001088425DD106EB0610374989
:1017300001EB4000407899F80110884253D1002411
:101740004FE0002520E006EB0610304901EB400099
:10175000801C10F8141080202841014041B108EB92
:10176000040291B27A1990B25A4600F051F809E099
:10177000D34507D008EB040291B27A1990B25246D1
:1017800000F046F8681CC5B2082DDCDB002524E01B
:1017900006EB06101D4901EB4000801C012101EB06
:1017A0004401405C80212941084048B108EB040213
:1017B00091B27A19083290B25A4600F029F80AE03C
:1017C000D34508D008EB040291B27A19083290B2DE
:1017D000524600F01DF8681CC5B2082DD8DB601C0D
:1017E000C4B2102CADDB701C86B2062E94DB09F15E
:1017F000020907F1100087B299F8000000287FF471
:1018000047AFBDE8F88F0000052A000877370008C9
:1018100070B504460D461646681C83B2601C82B241
:101820002946204600F058FA304600F0C1F870BD55
:1018300000BFFEE71CB50121052000F04FFB42F27E
:101840000200009000208DF8040003208DF80500B0
:1018500001208DF8070069460948FFF796FE012030
:10186000009000208DF8040003208DF80500022070
:101870008DF8070069460348FFF787FE1CBD00008E
:10188000000802400000024010B5044614B10120D7
:10189000244908702348007868B302212248FFF7E2
:1018A000DFFE58B14FF400511F48FFF7D9FE28B1B1
:1018B00001211E48FFF7D4FE01281CD10A2000F0A8
:1018C000EBFD00201749087002211748FFF7C8FEFA
:1018D00008B9012010BD4FF400511348FFF7C0FEB6
:1018E00008B90220F6E701211048FFF7B9FE0128E8
:1018F00015D10320EEE702210B48FFF7B1FE0128C6
:101900000DD141030848FFF7ABFE012807D10121A3
:101910000648FFF7A5FE10B9012002490870002013
:10192000D8E700000000002000080240000002404C
:101930001CB50121062000F0D1FA4FF47040009050
:1019400001208DF8040000208DF8060003208DF89A
:10195000050001208DF8070069461348FFF715FEC2
:10196000C020009001208DF8040000208DF80600B2
:1019700003208DF8050001208DF8070069460B480B
:10198000FFF703FE4FF480410748FFF774FE802104
:101990000648FFF770FE80210448FFF76AFE8021A9
:1019A0000248FFF768FE1CBD000402400008024028
:1019B00010B504464FF480510948FFF75AFE402104
:1019C0000848FFF758FE201200F01CFBE0B200F0C0
:1019D00019FB4FF480510248FFF74DFE10BD000087
:1019E00000040240000802401CB50121092000F05B
:1019F00075FA4FF48070009001208DF804000020EB
:101A00008DF8060003208DF8050001208DF80700F1
:101A100069460F48FFF7B9FD0420009001208DF8BA
:101A2000040000208DF8060003208DF80500012039
:101A30008DF8070069460748FFF7A7FD4FF480714E
:101A40000348FFF718FE04210248FFF714FE1CBDEF
:101A500000000240000C024070B506467F231A4683
:101A60000021084600F038F92C2000F07BF9002412
:101A700008E0002503E03046FFF79AFF6D1C802D3B
:101A8000F9D3641C802CF4D370BD10B5FFF750FF60
:101A900000F00CF9112000F065F9782000F0FCFC52
:101AA000B12000F05FF9012000F044F92C2000F093
:101AB00041F92D2000F03EF9B22000F053F9012049
:101AC00000F038F92C2000F035F92D2000F032F923
:101AD000B32000F047F9012000F02CF92C2000F091
:101AE00029F92D2000F026F9012000F023F92C20FF
:101AF00000F020F92D2000F01DF9B42000F032F99B
:101B0000072000F017F9C02000F02CF9A22000F007
:101B100011F9022000F00EF9842000F00BF9C12029
:101B200000F020F9C52000F005F9C22000F01AF9F4
:101B30000A2000F0FFF8002000F0FCF8C32000F0BD
:101B400011F98A2000F0F6F82A2000F0F3F8C420FA
:101B500000F008F98A2000F0EDF8EE2000F0EAF835
:101B6000C52000F0FFF80E2000F0E4F8362000F069
:101B7000F9F8C82000F0DEF8E02000F0F3F80F20BC
:101B800000F0D8F81A2000F0D5F80F2000F0D2F8B5
:101B9000182000F0CFF82F2000F0CCF8282000F01B
:101BA000C9F8202000F0C6F8222000F0C3F81F205A
:101BB00000F0C0F81B2000F0BDF8232000F0BAF8B8
:101BC000372000F0B7F8002000F0B4F8072000F04C
:101BD000B1F8022000F0AEF8102000F0ABF8E120E0
:101BE00000F0C0F80F2000F0A5F81B2000F0A2F8CC
:101BF0000F2000F09FF8172000F09CF8332000F031
:101C000099F82C2000F096F8292000F093F82E2067
:101C100000F090F8302000F08DF8302000F08AF8C5
:101C2000392000F087F83F2000F084F8002000F011
:101C300081F8072000F07EF8032000F07BF81020E8
:101C400000F078F82A2000F08DF8002000F072F8FB
:101C5000002000F06FF8002000F06CF87F2000F00A
:101C600069F82B2000F07EF8002000F063F80020D7
:101C700000F060F8002000F05DF89F2000F05AF8B6
:101C8000F02000F06FF8012000F054F8F62000F08A
:101C900069F8002000F04EF83A2000F063F80520C3
:101CA00000F048F8292000F05DF810BD10B54FF4A1
:101CB00080410848FFF7DDFC4FF4967000F0ECFB24
:101CC0004FF480410348FFF7D6FC642000F0E4FBAA
:101CD00010BD0000000402402DE9F04104460D460D
:101CE00016461F462A2000F03DF8002000F022F89A
:101CF000A11CC8B200F01EF8002000F01BF8B11CB7
:101D0000C8B200F017F82B2000F02CF8002000F0EB
:101D100011F8E91CC8B200F00DF8002000F00AF834
:101D2000F91CC8B200F006F82C2000F01BF8BDE842
:101D3000F081000010B504464FF480510748FFF7CA
:101D400098FC40210648FFF796FC204600F05AF91F
:101D50004FF480510148FFF78EFC10BD0004024093
:101D60000008024010B504464FF480510748FFF7C1
:101D700080FC40210648FFF77CFC204600F042F939
:101D80004FF480510148FFF776FC10BD000402407B
:101D9000000802402DE9F04190B004460D46174678
:101DA0001E46DDF858801B48844204D9012188056D
:101DB00000F094F803E00121480500F08FF8204678
:101DC000FFF7D8FA00BF2046FFF780FB0028FAD1C2
:101DD00001950297039640200490CDF814800020CE
:101DE00006904FF4806007900020089009900A90B8
:101DF0004FF480300B9000200C9003200D900020B9
:101E00000E900F9001A92046FFF790FB10B0BDE89F
:101E1000F08100000064024070B504460D460021C8
:101E20002046FFF79BFA00BF2046FFF74FFB002834
:101E3000FAD129462046FFF7A5FB01212046FFF7EE
:101E40008DFA70BD00BFFEE77047000070B500213D
:101E500000230F22C4781CB3174C246804F4E064F8
:101E6000C4F5E064C4F30721C1F10404E3B20A41FC
:101E700044789C40E1B28478144021430C07210E41
:101E80000E4C05786155047804F01F050124AC4020
:101E900005786D11AD0005F1E025C5F8004109E0B8
:101EA000047804F01F050124AC40054D0678761136
:101EB00045F8264070BD00000CED00E000E400E0B5
:101EC00080E100E002490143024A116070470000CE
:101ED0000000FA050CED00E07047000029B1064A49
:101EE00012680243044B1A6004E0034A12688243FA
:101EF000014B1A60704700003038024029B1064A91
:101F000012680243044B1A6004E0034A12688243D9
:101F1000014B1A607047000044380240F0B50021C0
:101F200000220024022500260223324F3F6807F0DA
:101F30000C0121B1042905D0082937D105E02E4F25
:101F4000076036E02D4F076033E02A4F3F1F3F68A0
:101F5000C7F38056274F3F1F3F6807F03F036EB11E
:101F6000264FB7FBF3F7DFF88CC0ACF1040CDCF8BC
:101F700000C0CCF3881C07FB0CF40CE01E4FB7FB31
:101F8000F3F7DFF870C0ACF1040CDCF800C0CCF360
:101F9000881C07FB0CF4174F3F1F3F68C7F301472E
:101FA0007F1C7D00B4FBF5F7076002E0124F07606D
:101FB00000BF00BF0F4F3F6807F0F0010909104F45
:101FC0007A5C0768D74047600A4F3F6807F4E051E2
:101FD000890A0B4F7A5C4768D7408760054F3F6896
:101FE00007F46041490B064F7A5C4768D740C760E9
:101FF000F0BD0000083802400024F40000127A000E
:102000000E00002070B50446002508251BE004F0F2
:10201000800028B14FF400410C48FFF72CFB04E08E
:102020004FF400410948FFF724FB4FF400510748E3
:10203000FFF71FFB4FF400510448FFF71CFB60063D
:10204000040E681EC5B2002DE1DC70BD0004024024
:10205000704700000CB500200190009034480068E3
:1020600040F480303249086000BF3148006800F415
:10207000003000900198401C0190009818B9019818
:10208000B0F5A04FF1D12A48006800F4003010B13B
:102090000120009001E0002000900098012846D126
:1020A00023484030006840F08050214940310860AA
:1020B0002048006840F440401E4908601C48083031
:1020C00000681B49083108600846006840F4004079
:1020D00008600846006840F4A05008601648091FD0
:1020E0000860081F006840F08070091F086000BF8A
:1020F0000F48006800F000700028F9D040F2057029
:102100000E4908600A480830006820F003000849BA
:10211000083108600846006840F00200086000BF0F
:1021200003480830006800F00C000828F8D10CBD06
:10213000003802400070004008544007003C024054
:10214000042808D14FF0E021096941F004014FF063
:10215000E022116107E04FF0E021096921F004015C
:102160004FF0E022116170477047000010B515482C
:10217000006840F47000134908601348006840F09C
:1021800001001149086000200F49083108600E481D
:1021900000680E4908400C4908600D48091D086098
:1021A000081F006820F48020091F086000200649ED
:1021B0000C310860FFF74EFF4FF000600149803995
:1021C000086010BD88ED00E000380240FFFFF6FE19
:1021D0001030002410B540F225511D4800F05CF885
:1021E00010B31B4800F012F9C4B21A48008800F47A
:1021F0000040C8B91748008800F4804060B10A2C3C
:1022000003D000201349088020E01248008840F4E1
:1022100000401049088019E00D2C06D10D480088B7
:1022200040F480400B49088010E00A480088C0F361
:102230000D0009490C5407480088401C05490880D6
:1022400008460088C72801DD0020088010BD000076
:10225000001001400C000020A000002001F40072DA
:10226000B2F5007F00D100BFCA430280704721B1A0
:10227000828942F40052828104E082894DF6FF7324
:102280001A40828170471AB1838A0B43838202E02D
:10229000838A8B438382704770B5024600240023F3
:1022A0000025002040F66A16B14200D100BFC1F3FC
:1022B000421501F01F03012606FA03F3012D02D196
:1022C0009689334006E0022D02D1168A334001E0A0
:1022D000968A33400C12012606FA04F4168834401C
:1022E00013B10CB1012000E0002070BDF0B5034631
:1022F000002400260025002040F66A17B94200D1CC
:1023000000BF1846C1F3421401F01F06012707FA67
:1023100006F5012C01D10C3004E0022C01D1103063
:1023200000E014301AB107682F43076002E0076825
:10233000AF430760F0BD00002DE9FF4705460E469C
:102340000024A14600BFA046B08900B100BF2C8A7E
:1023500024F44054F08804432C82AC8941F20C6090
:102360008443B08831890843718908430443AC81B0
:10237000AC8A24F44074B0890443AC826846FFF709
:10238000CDFD2048854202D01F48854202D1DDF8AC
:102390000C9001E0DDF80890A88900F4004040B1FD
:1023A00009EBC90000EB091031684900B0FBF1F7F7
:1023B00007E009EBC90000EB091031688900B0FBA8
:1023C000F1F76420B7FBF0F004012009642101FB60
:1023D0001078A88900F4004040B1322000EBC8001A
:1023E000B0FBF1F000F00700044308E0322000EBFE
:1023F00008106421B0FBF1F000F00F0004432C81C1
:10240000BDE8FF87001001400014014001468888A4
:10241000C0F30800704700BFFEE703B40198410015
:10242000009850EAC12018BF04204A0D18BF40F0A0
:10243000010040F2FF72B2EB515F08BF40F00200B2
:10244000012808BF052002B0704730380A2801D2A1
:10245000012070470020704700BF704710B5044648
:102460006FF00400FFF76CFEE11704EB5171C1F34C
:10247000CF01074A11801046008800EB4001C1EBF4
:10248000C0104FF6FF7101EAC0000249088010BD7C
:10249000020000200400002070B504464FF40770CD
:1024A00094FBF0F0C6B24FF4077094FBF0F100FB20
:1024B000114085B205E04FF4077000F009F8701E76
:1024C000C6B2002EF7D115B1284600F001F870BD54
:1024D0000146114A12884A434FF0E0235A61002214
:1024E0009A611A46126942F001021A6100BF4FF068
:1024F000E022106900F001021AB100F48032002AD3
:10250000F5D04FF0E022126922F001024FF0E023F3
:102510001A6100229A6170470400002000BF054A3A
:10252000128802F04002002AF9D0C2B2014B9A8010
:1025300070470000001001402DED048B82B0002593
:1025400000269FED790AB0EE408A4FF4A060FFF7B5
:10255000B9FCA820FFF782FF4FF4E13000F050F9FA
:10256000FFF742FAFFF791FA4EF67D70FFF774FA23
:102570006EA04EF67D734FF478421021009000203B
:10258000FFF77CF86DA04EF67D731F22202100908E
:102590000020FFF773F86EA04EF67D731F223021E6
:1025A00000900020FFF76AF86EA04EF67D731F22A0
:1025B000402100900020FFF761F8FFF73BF9402031
:1025C0006B4B6C4A410500906B48FFF7E3FB2527F6
:1025D000002416E0BD420BDB26B10A2064490855F1
:1025E00000250CE00D2062490855701CC6B206E0BB
:1025F00000266248405D5E490855681CC5B2601CF3
:1026000084B2402CE6DB00248DE00020FFF73CF98B
:102610000546022D6ED15AA0FDF734FE5DA0FDF7F0
:1026200031FE62A0FDF72EFE64A04EF67D731F22E0
:10263000502100900020FFF721F865A04EF67D7331
:102640001F22602100900020FFF718F8012280214E
:102650004848001FFFF717FE40214748FFF7DCFB03
:1026600039E04FF020514448FEF73EFF28B14FF0CB
:1026700020514148FEF758FE2EE03F48FEF730FF5C
:1026800000EE100AB8EE400AB0EE408ADFED520AC2
:1026900088EE200AF7EE000A30EEC00AB0EE408A5B
:1026A0009FED4E0A28EE000AB0EE408A18EE100A9E
:1026B00000F01EF941EC190B53EC192B48A14A48C4
:1026C000FDF7ECFD48484EF67D731F226021009017
:1026D0000020FEF7D3FFC4E700BF44A14248FDF746
:1026E000DDFD41484EF67D731F22602100900020E1
:1026F000FEF7C4FF601C84B20A20FFF7CDFE142C45
:1027000011D13C48006808B9012000E00020394997
:1027100008603948D0F8880208B9012000E000209C
:1027200036490860002470E70000000020202020C7
:1027300053544D333220444D412000002020C7B671
:10274000C8EBCABDBFAAB7A2CDF820202000000068
:102750006D63756465762E74616F62616F2E636F51
:102760006D2000004B4559313A537461727400007A
:102770002000002004100140B8640240E029000855
:102780000D0A2044657645426F7820B4F3D4BDB578
:10279000E7D7D3000D0A206D63756465762E7461EA
:1027A0006F62616F2E636F6D200D0A000D0A204469
:1027B0004D4120444154413A0D0A00005374617266
:1027C00074205472616E73696D69742E2E2E2E0002
:1027D0002020202500000000000080420000C842A8
:1027E0002530342E32660000600000202020313079
:1027F00030000000A00240420080414288824142F5
:1028000010B588B0044601210846FFF767FB012197
:102810001020FFF773FB072209212548FEF7FDFE74
:1028200007220A212248FEF7F8FE4FF4C060069006
:1028300002208DF81C0003208DF81D0000208DF86B
:102840001E0001208DF81F0006A91948FEF79DFE05
:1028500002940020ADF80C00ADF80E00ADF81000A9
:10286000ADF814000C20ADF8120002A91148FFF7D2
:1028700063FD01210F48FFF7FAFC40210D48FFF7E7
:10288000EDFC012240F225510A48FFF72FFD2520DB
:102890008DF8040003208DF805008DF80600012056
:1028A0008DF8070001A8FFF7D1FA08B010BD0000AD
:1028B000000002400010014010B500290AD008783D
:1028C000002807D005487844FEF730F9002801D0E9
:1028D000002010BD0248784410BD0000AE1000007A
:1028E000A61000000808A0F500114FEA310170475A
:1028F00043004FEAD30C4FEA3C0C43401FBF400754
:102900000CF1605113F0FE4F70471CF0006F03D1C3
:1029100000200CF0004170470CF0004343EA507077
:1029200010B540EACC0000F00EF800BF00000092A5
:102930004FEA0001FFF7D6BF4FF000414FF0000013
:10294000A1F5002170470EF1020E2EF0030E5EF885
:10295000044B244204D44FEA4102B2F17F4F11D814
:102960004FEA4003B3F17F4F0CD80ED14FEAD07C31
:10297000B2F17F4F0CEB4C0C0CF1020C08BF4CEB8E
:10298000D17C04E04FF0080C01E04FEAD17C0CEB65
:102990004C0324FA03F404F00704B4F1040C06D247
:1029A0000EEB840CBDE810404CF0010C6047DFE8F2
:1029B0000CF0070802024FF00040A0F5800010BDA7
:1029C0000846420018BFD2F1807288BF00F0004074
:1029D00010BD4FF04070E1EE100A7047FDF711BED8
:1029E00044657645426F78B4F3D4BDB5E7D7D320BC
:1029F00053544D3332463420444D4120B4AEBFDAF7
:102A0000CAB5D1E90000000000000000000000008D
:102A10000000000000001010101010101010100026
:102A2000001010000000006C6C2424000000000165
:102A300000000000000024242424FE48484848FCEC
:102A4000909090900000103C5492905038141212C4
:102A500092547810000000225C94A8481010242A98
:102A60005254880000000030484850206E54948C26
:102A7000888A740000000030301010000000000050
:102A8000000000000000040810102020202020205A
:102A900010100804000080402020101010101010AA
:102AA00020204080000000000010543810385410DE
:102AB000000000000000000010101010FE101010A8
:102AC00010000000000000000000000000000000F6
:102AD000001010200000000000000000FE000000B8
:102AE00000000000000000000000000000000000E6
:102AF00000101000000000040408081010202040FE
:102B0000408080000000003844828282828282827B
:102B100082443800000000107010101010101010C7
:102B200010107C000000003844828204081020400D
:102B30008284FC000000003844820204380402024F
:102B400082443800000000040C141424244444FE81
:102B500004040E00000000FC808080B8C4820202E1
:102B6000828478000000003C428280B8C482828265
:102B7000824438000000007E4282040408080810E5
:102B800010101000000000384482824438448282D1
:102B900082443800000000384482828282463A0231
:102BA00082443800000000000010100000000010F7
:102BB00010000000000000000010100000000000E5
:102BC0001010200000000000000618608060180649
:102BD0000000000000000000000000FE0000FE00F9
:102BE000000000000000000000C0300C020C30C0EB
:102BF0000000000000003844828202040810101017
:102C0000001010000000003844829AAAAAAAAAAABA
:102C10009680423C00000010101028282844447C74
:102C20004444EE00000000FC424242427C424242E8
:102C30004242FC000000003C448280808080808210
:102C400082443800000000F844424242424242427C
:102C50004244F800000000FC444240447C444040B0
:102C60004244FC00000000FC444240447C4440409C
:102C70004040F000000000344C828080808E8484CC
:102C8000844C3400000000EE444444447C444444FA
:102C90004444EE000000007C1010101010101010C2
:102CA00010107C000000003E08080808080808080A
:102CB00088887000000000EE444848506050484842
:102CC0004444EE00000000E04040404040404040AE
:102CD0004244FC00000000C6446C6C6C54545444E4
:102CE0004444EE00000000CE4464646454544C4CF0
:102CF0004C44E40000000038448282828282828256
:102D000082443800000000F8444242424478404087
:102D10004040E00000000038448282828282828249
:102D2000BA443C02000000F048444444487048441F
:102D30004444E6000000003C44828040300C020223
:102D4000824478000000007C549210101010101083
:102D500010103800000000EE44444444444444440D
:102D600044443800000000EE444444442828282805
:102D700010101000000000EE4454545454545428D1
:102D800028282800000000EE444428281010282895
:102D90004444EE00000000EE44442828281010109F
:102DA000101038000000007E4484080810202040E5
:102DB0008284FC0000001C10101010101010101065
:102DC0001010101C000000EE445454FE54545428BB
:102DD000282828000000701010101010101010107B
:102DE0001010107000003048840000000000000047
:102DF00000000000000000000000000000000000D3
:102E0000000000FE00004020000000000000000064
:102E100000000000000000000000007884047C84B2
:102E2000848C7600000000C040404058644242421A
:102E30004264580000000000000000384480808098
:102E4000804438000000000C040404344C84848462
:102E5000844C360000000000000000788484FC8070
:102E60008084780000000018242020F820202020F2
:102E700020207000000000000000003A44447880E8
:102E80007C82827C000000C040404058644444443E
:102E90004444EE000000001010000030101010102C
:102EA000101038000000001010000030101010103A
:102EB00010109060000000C04040405C48506050DE
:102EC0004844EE00000000301010101011101010D7
:102ED0001010390000000000000000ACD292929265
:102EE0009292D6000000000000000058E4444444E0
:102EF0004444EE000000000000000038448282825A
:102F00008244380000000000000000D864424242C1
:102F1000645840E000000000000000364C848484C7
:102F20004C34040E000000000000006C3020202013
:102F300020207000000000000000007888846018E5
:102F40008444780000000000202020F82020202069
:102F50002024180000000000000000C64242424247
:102F600042463A0000000000000000EE44442828D9
:102F70002810100000000000000000EE44445454EB
:102F80002828280000000000000000EE442810104F
:102F90002844EE0000000000000000EE4444282811
:102FA0001010A0C0000000000000007E4488102027
:102FB0004284FC0000000C10101010106010101063
:102FC0001010100C00001010101010101010101025
:102FD000101010100000C0202020202018202020D9
:102FE000202020C00000000000000000728C0000C3
:102FF00000000000000000000000001FE000003F93
:10300000F000003FF000001FE0000180060003C058
:103010000F0003C00F0003C00F0003C00F0003C068
:103020000F0003C00F0003C00F0003C00F00030018
:10303000030000000000000000000000000003008A
:10304000030003C00F0003C00F0003C00F0003C044
:103050000F0003C00F0003C00F0003C00F0003C028
:103060000F0001800600001FE000003FF000003F5D
:10307000F000001FE0000000000000000000000061
:10308000800000018000000380000007800000072E
:103090008000000780000007800000078000000714
:1030A000800000078000000780000007800000010A
:1030B000800000000000000000000000000000018F
:1030C00080000007800000078000000780000007E4
:1030D00080000007800000078000000780000007D4
:1030E00080000007800000038000000180000000D5
:1030F00080000000000000000000001FE000003F12
:10310000F00000FFF00001FFE000000006000000FA
:103110000F0000000F0000000F0000000F00000073
:103120000F0000000F0000000F0000000F00001F44
:10313000E300007FF800007FF800001FE0000300BC
:10314000000003C0000003C0000003C0000003C073
:10315000000003C0000003C0000003C0000003C063
:10316000000001800000001FF000003FF800003F59
:10317000FC00001FFE000000000003FF800001FFB4
:10318000C00000FFC000007F8000000018000000A9
:103190003C0000003C0000003C0000003C0000003F
:1031A0003C0000003C0000003C0000003C00007FB0
:1031B0008C0001FFE00001FFF000007F80000000B4
:1031C0000C0000003C0000003C0000003C0000003F
:1031D0003C0000003C0000003C0000003C000000FF
:1031E0003C0000001800007F800000FFC00001FFCD
:1031F000C00003FF8000000000000000000002008B
:103200000100030003000380070003C00F0003C098
:103210000F0003C00F0003C00F0003C00F0003C066
:103220000F0003C00F0003C00F0003C00F00031FF7
:10323000E300007FF800007FFC00001FE0000000BA
:10324000030000000F0000000F0000000F0000004E
:103250000F0000000F0000000F0000000F00000032
:103260000F0000000F000000070000000300000036
:1032700001000000000000000000001FFC00003FF3
:10328000F800003FF000001FE0000180000003C0D4
:10329000000003C0000003C0000003C0000003C022
:1032A000000003C0000003C0000003C00000031FB3
:1032B000E000007FF800007FF800001FE000000041
:1032C000030000000F0000000F0000000F000000CE
:1032D0000F0000000F0000000F0000000F000000B2
:1032E0000F0000000600003FE000007FF00000FF3C
:1032F000F00001FFE00000000000001FFC00003FA4
:10330000F800003FF000001FE0000180000003C053
:10331000000003C0000003C0000003C0000003C0A1
:10332000000003C0000003C0000003C00000031F32
:10333000E000007FF800007FFC00001FE0000300B9
:10334000030003C00F0003C00F0003C00F0003C041
:103350000F0003C00F0003C00F0003C00F0003C025
:103360000F0001800600001FE000003FF000003F5A
:10337000F000001FE0000000000007FFE00003FF76
:10338000C00001FF880000FF1800000038000000A6
:10339000780000007800000078000000780000004D
:1033A000780000007800000078000000780000003D
:1033B00018000000000000000000000000000000F5
:1033C000180000007800000078000000780000007D
:1033D000780000007800000078000000780000000D
:1033E000780000007800000038000000180000009D
:1033F00008000000000000000000001FE000003F87
:10340000F000003FF000001FE0000180060003C054
:103410000F0003C00F0003C00F0003C00F0003C064
:103420000F0003C00F0003C00F0003C00F00031FF5
:10343000E300007FF800007FFC00001FE0000300B5
:10344000030003C00F0003C00F0003C00F0003C040
:103450000F0003C00F0003C00F0003C00F0003C024
:103460000F0001800600001FE000003FF000003F59
:10347000F000001FE00000000000001FE000003F1F
:10348000F000003FF000001FE0000180060003C0D4
:103490000F0003C00F0003C00F0003C00F0003C0E4
:1034A0000F0003C00F0003C00F0003C00F00031F75
:1034B000E300007FF800007FFC00001FE000000038
:1034C000030000000F0000000F0000000F000000CC
:1034D0000F0000000F0000000F0000000F000000B0
:1034E0000F0000000600001FE000003FF000007F1A
:1034F000F00000FFE00000000000000000000000FD
:1035000000000000000000000000000000000000BB
:1035100000000000000000000000000000000000AB
:10352000000000000000000000000000000000009B
:10353000000000000000000000000000000000008B
:10354000000000000000000000000078000000788B
:10355000000000780000007800000078000000788B
:10356000000000000000000000000000000000005B
:10357000000000000000000000000000000000004B
:10358000000000000000000000000000000000003B
:1035900000000000000000070000000F8000000F86
:1035A0008000000F80000007000000000000000005
:1035B000000000000000000000000000000000000B
:1035C000000000070000000F8000000F8000000FC7
:1035D0008000000700000000000000000000000064
:1035E00000000000000000000000000000000000DB
:1035F00000000000000000000000000000000000CB
:1036000000000000000007C006000FE006000000F8
:103610000C0030181800301818003018300030181E
:103620003000301860003008C00007C0C0000FE054
:1036300080000000000000000FE0000607C0000648
:103640003018000C3018000C3018001830180030FA
:103650003018003030180060000000C00FE000C0DB
:1036600007C0000000000000000000000000000093
:10367000000000000000000000000000000000004A
:103680000000000000000000000000000000070033
:10369000E0000887FC00088E0300089801800718E6
:1036A000008000300000003000000070000000606A
:1036B000000000600000006000000060000000608A
:1036C00000000070000000300000003000000038F2
:1036D000000000180100000C03000007FC000001BE
:1036E000F0000000000000000000000000000000EA
:1036F00000000000000000000000000000000000CA
:1037000000000000000000000000000000000000B9
:1037100000000000000000000000000000000000A9
:103720000000000000000000000000000000000099
:103730000000003FF000007FF000007FE00000FF8D
:10374000C0000000000000000000000000000000B9
:103750000000000000000000000000000000000069
:103760000000000000000000000000000000000059
:1037700000000000000000C7B60100210821083F3A
:10378000F800202220223EFF42229422103E1022E6
:103790001022283E2822440082C8EB0400020001C7
:1037A0000001000100028002800280044004400801
:1037B0002008201010201040088006CABD004800D4
:1037C0004400440040FFFE004000403E40084008E6
:1037D00040082008220F12780A20060002BFAA0023
:1037E000007FFC08200820082008200820FFFE0891
:1037F000200820082008201020102020204020B77A
:10380000A201001110110822003FFC020004000771
:10381000F80A080908111010A0204040A003181C45
:1038200006CDF800007FFC40044004421452944A44
:1038300054442444244A544A545294610440044059
:10384000144008000000000000000000000000001C
:103850000000000000000000000000000000000068
:103860000000000000000000000000000000000058
:103870000000000000000000000000000000000048
:103880000000000000000000000000000000000038
:103890000000000000000000000000000000000028
:1038A0000000000000000000000000000000000414
:1038B00000000800000000000000020001000010ED
:1038C00002400000000000A00000000005400000D1
:1038D000000000C8000000000C4000000000409CF8
:1038E00000000000194000000020BCBE00000000E5
:1038F00034400000BFC91B8E00000004B54000002A
:10390000504BCFD06607E2CF010000006C410000B1
:103910003E8251AADFEEA73401000000D942000028
:10392000DCB5A0E23A301F97FFFFFFFFB44500006F
:10393000FD25A0C8E9A3C14FFFFFFFFFFF3F000027
:103940000000008000000000FF3F00000000008039
:103950000000000090390008000000202000000056
:10396000C4010008B039000820000020A8070000AA
:10397000E00100081C00000043000000F8FFFFFF0A
:103980000C0000000E0000000F0000002E000000E0
:103990000100000000000000000000000000000026
:1039A00000000102030401020304060708090000E5
:040000050800018965
:00000001FF
