:020000040800F2
:10000000E80400209D010008E90800087D040008BC
:10001000E5080008E5010008AB100008000000003A
:10002000000000000000000000000000110B0008AC
:10003000E90100080000000079090008290C000807
:10004000B7010008B7010008B7010008B7010008B0
:10005000B7010008B7010008B7010008B7010008A0
:10006000B7010008B7010008B7010008B701000890
:10007000B7010008B7010008B7010008B701000880
:10008000B7010008B7010008B7010008B701000870
:10009000B7010008B7010008B7010008B701000860
:1000A000B7010008B7010008B7010008B701000850
:1000B000B7010008B7010008B7010008B701000840
:1000C000B7010008B7010008B7010008B701000830
:1000D000B70100087D0E0008B7010008B70100084D
:1000E000B7010008B7010008B7010008B701000810
:1000F000B7010008B7010008B7010008B701000800
:10010000B7010008B7010008B7010008B7010008EF
:10011000B7010008B7010008B7010008B7010008DF
:10012000B7010008B7010008B7010008B7010008CF
:10013000B7010008B7010008B7010008B7010008BF
:10014000B7010008B7010008B7010008B7010008AF
:10015000B7010008B7010008B7010008B70100089F
:10016000B7010008B7010008B7010008B70100088F
:10017000B7010008B7010008B7010008B70100087F
:10018000B7010008B7010008DFF80CD000F018F83C
:10019000004800478D110008E80400200648804709
:1001A00006480047FEE7FEE7FEE7FEE7FEE7FEE75C
:1001B000FEE7FEE7FEE7FEE72D0C000889010008D8
:1001C000064C074D06E0E06840F0010394E80700A4
:1001D00098471034AC42F6D3FFF7DAFF1C22000830
:1001E0003C22000800BFFEE77047F0B50A46002138
:1001F0000023002400BF3DE0012505FA01F3156846
:1002000005EA03049C4234D105684F000326BE4032
:10021000B543056015794E00B54006683543056065
:100220001579012D02D01579022D16D185684F0060
:100230000326BE40B543856055794E00B5408668BB
:1002400035438560456801268E40B5434560456865
:1002500096798E40B6B235434560C5684F00032697
:10026000BE40B543C560D5794E00B540C66835433C
:10027000C560491C1029BFD3F0BDF0B50023002490
:100280004D07ED0E02FA05F3CE1000F1200555F8EA
:1002900026504E07F70E0F26BE40B543CF1000F193
:1002A000200646F82750CE1000F1200555F82650BC
:1002B00045EA0304CE1000F1200545F82640F0BDC4
:1002C00041837047018370472DE9F84F0746884600
:1002D00093469A46DDF828900097B3E099F800001D
:1002E00080283DDA99F800600D2E05D1009F08F1B5
:1002F00010001FFA80F830E0202E03DDA6F1200068
:1003000086B200E00026002422E000251CE004EB79
:1003100006105049085C80212941084040B108EB93
:10032000040291B27A1990B25A4600F097F809E0A7
:10033000D34507D008EB040291B27A1990B2524625
:1003400000F08CF8681CC5B2082DE0DB601CC4B25C
:10035000102CDADB07F1080087B209F1010971E01E
:10036000002668E006EB06103B4911F8100099F8EA
:10037000001088425DD106EB0610374901EB4000C2
:10038000407899F80110884253D100244FE00025AD
:1003900020E006EB0610304901EB4000801C10F80D
:1003A000141080202841014041B108EB040291B2B1
:1003B0007A1990B25A4600F051F809E0D34507D0B7
:1003C00008EB040291B27A1990B2524600F046F856
:1003D000681CC5B2082DDCDB002524E006EB061006
:1003E0001D4901EB4000801C012101EB4401405CF0
:1003F00080212941084048B108EB040291B27A19E2
:10040000083290B25A4600F029F80AE0D34508D0E5
:1004100008EB040291B27A19083290B2524600F009
:100420001DF8681CC5B2082DD8DB601CC4B2102CA6
:10043000ADDB701C86B2062E94DB09F1020907F1D0
:10044000100087B299F8000000287FF447AFBDE89C
:10045000F88F000070130008E220000870B5044611
:100460000D461646681C83B2601C82B2294620469F
:1004700000F0DAF9304600F043F870BD00BFFEE747
:100480001CB50121062000F079FA4FF4704000906D
:1004900001208DF8040000208DF8060003208DF85F
:1004A000050001208DF8070069461348FFF79DFEFF
:1004B000C020009001208DF8040000208DF8060077
:1004C00003208DF8050001208DF8070069460B48D0
:1004D000FFF78BFE4FF480410748FFF7F3FE8021C2
:1004E0000648FFF7EFFE80210448FFF7E9FE802170
:1004F0000248FFF7E7FE1CBD00040240000802406E
:1005000010B504464FF480510948FFF7D9FE402149
:100510000848FFF7D7FE201200F0D4FAE0B200F04E
:10052000D1FA4FF480510248FFF7CCFE10BD000015
:1005300000040240000802401CB50121092000F01F
:100540001DFA4FF48070009001208DF80400002007
:100550008DF8060003208DF8050001208DF80700B6
:1005600069460F48FFF741FE0420009001208DF8F6
:10057000040000208DF8060003208DF805000120FE
:100580008DF8070069460748FFF72FFE4FF480718A
:100590000348FFF797FE04210248FFF793FE1CBDB6
:1005A00000000240000C024070B506467F231A4648
:1005B0000021084600F038F92C2000F07BF90024D7
:1005C00008E0002503E03046FFF79AFF6D1C802D00
:1005D000F9D3641C802CF4D370BD10B5FFF750FF25
:1005E00000F00CF9112000F065F9782000F08CFD86
:1005F000B12000F05FF9012000F044F92C2000F058
:1006000041F92D2000F03EF9B22000F053F901200D
:1006100000F038F92C2000F035F92D2000F032F9E7
:10062000B32000F047F9012000F02CF92C2000F055
:1006300029F92D2000F026F9012000F023F92C20C3
:1006400000F020F92D2000F01DF9B42000F032F95F
:10065000072000F017F9C02000F02CF9A22000F0CC
:1006600011F9022000F00EF9842000F00BF9C120EE
:1006700000F020F9C52000F005F9C22000F01AF9B9
:100680000A2000F0FFF8002000F0FCF8C32000F082
:1006900011F98A2000F0F6F82A2000F0F3F8C420BF
:1006A00000F008F98A2000F0EDF8EE2000F0EAF8FA
:1006B000C52000F0FFF80E2000F0E4F8362000F02E
:1006C000F9F8C82000F0DEF8E02000F0F3F80F2081
:1006D00000F0D8F81A2000F0D5F80F2000F0D2F87A
:1006E000182000F0CFF82F2000F0CCF8282000F0E0
:1006F000C9F8202000F0C6F8222000F0C3F81F201F
:1007000000F0C0F81B2000F0BDF8232000F0BAF87C
:10071000372000F0B7F8002000F0B4F8072000F010
:10072000B1F8022000F0AEF8102000F0ABF8E120A4
:1007300000F0C0F80F2000F0A5F81B2000F0A2F890
:100740000F2000F09FF8172000F09CF8332000F0F5
:1007500099F82C2000F096F8292000F093F82E202C
:1007600000F090F8302000F08DF8302000F08AF88A
:10077000392000F087F83F2000F084F8002000F0D6
:1007800081F8072000F07EF8032000F07BF81020AD
:1007900000F078F82A2000F08DF8002000F072F8C0
:1007A000002000F06FF8002000F06CF87F2000F0CF
:1007B00069F82B2000F07EF8002000F063F800209C
:1007C00000F060F8002000F05DF89F2000F05AF87B
:1007D000F02000F06FF8012000F054F8F62000F04F
:1007E00069F8002000F04EF83A2000F063F8052088
:1007F00000F048F8292000F05DF810BD10B54FF466
:1008000080410848FFF75CFD4FF4967000F07CFCD7
:100810004FF480410348FFF755FD642000F074FC5D
:1008200010BD0000000402402DE9F04104460D46D1
:1008300016461F462A2000F03DF8002000F022F85E
:10084000A11CC8B200F01EF8002000F01BF8B11C7B
:10085000C8B200F017F82B2000F02CF8002000F0B0
:1008600011F8E91CC8B200F00DF8002000F00AF8F9
:10087000F91CC8B200F006F82C2000F01BF8BDE807
:10088000F081000010B504464FF480510748FFF78F
:1008900017FD40210648FFF715FD204600F012F92C
:1008A0004FF480510148FFF70DFD10BD00040240D8
:1008B0000008024010B504464FF480510748FFF786
:1008C000FFFC40210648FFF7FBFC204600F0FAF849
:1008D0004FF480510148FFF7F5FC10BD00040240C1
:1008E0000008024000BFFEE77047000070B500211D
:1008F00000230F22C4781CB3174C246804F4E0646E
:10090000C4F5E064C4F30721C1F10404E3B20A4171
:1009100044789C40E1B28478144021430C07210EB6
:100920000E4C05786155047804F01F050124AC4095
:1009300005786D11AD0005F1E025C5F8004109E02D
:10094000047804F01F050124AC40054D06787611AB
:1009500045F8264070BD00000CED00E000E400E02A
:1009600080E100E002490143024A11607047000043
:100970000000FA050CED00E07047000029B1064ABE
:1009800012680243044B1A6004E0034A126882436F
:10099000014B1A60704700003038024029B1064A06
:1009A00012680243044B1A6004E0034A126882434F
:1009B000014B1A60704700004038024029B1064AD6
:1009C00012680243044B1A6004E0034A126882432F
:1009D000014B1A607047000044380240F0B5002116
:1009E00000220024022500260223324F3F6807F030
:1009F0000C0121B1042905D0082937D105E02E4F7B
:100A0000076036E02D4F076033E02A4F3F1F3F68F5
:100A1000C7F38056274F3F1F3F6807F03F036EB173
:100A2000264FB7FBF3F7DFF88CC0ACF1040CDCF811
:100A300000C0CCF3881C07FB0CF40CE01E4FB7FB86
:100A4000F3F7DFF870C0ACF1040CDCF800C0CCF3B5
:100A5000881C07FB0CF4174F3F1F3F68C7F3014783
:100A60007F1C7D00B4FBF5F7076002E0124F0760C2
:100A700000BF00BF0F4F3F6807F0F0010909104F9A
:100A80007A5C0768D74047600A4F3F6807F4E05137
:100A9000890A0B4F7A5C4768D7408760054F3F68EB
:100AA00007F46041490B064F7A5C4768D740C7603E
:100AB000F0BD0000083802400024F40000127A0063
:100AC0000E00002070B50446002508251BE004F048
:100AD000800028B14FF400410C48FFF7F3FB04E01D
:100AE0004FF400410948FFF7EBFB4FF40051074872
:100AF000FFF7E6FB4FF400510448FFF7E3FB600605
:100B0000040E681EC5B2002DE1DC70BD0004024079
:100B1000704700000CB50020019000903448006838
:100B200040F480303249086000BF3148006800F46A
:100B3000003000900198401C0190009818B901986D
:100B4000B0F5A04FF1D12A48006800F4003010B190
:100B50000120009001E0002000900098012846D17B
:100B600023484030006840F08050214940310860FF
:100B70002048006840F440401E4908601C48083086
:100B800000681B49083108600846006840F40040CE
:100B900008600846006840F4A05008601648091F25
:100BA0000860081F006840F08070091F086000BFDF
:100BB0000F48006800F000700028F9D040F205707E
:100BC0000E4908600A480830006820F00300084910
:100BD000083108600846006840F00200086000BF65
:100BE00003480830006800F00C000828F8D10CBD5C
:100BF000003802400070004008544007003C0240AA
:100C0000042808D14FF0E021096941F004014FF0B8
:100C1000E022116107E04FF0E021096921F00401B1
:100C20004FF0E022116170477047000010B5154881
:100C3000006840F47000134908601348006840F0F1
:100C400001001149086000200F49083108600E4872
:100C500000680E4908400C4908600D48091D0860ED
:100C6000081F006820F48020091F08600020064942
:100C70000C310860FFF74EFF4FF0006001498039EA
:100C8000086010BD88ED00E000380240FFFFF6FE6E
:100C90001030002430B58BB004460D4601210220EF
:100CA000FFF77CFE01210846FFF768FE02220621BD
:100CB0001E48FFF7E2FA4020099002208DF8280034
:100CC00003208DF8290000208DF82A0001208DF8DE
:100CD0002B0009A91548FFF788FAA8B2ADF818004B
:100CE0000020ADF81A000794ADF8200006A91048BE
:100CF00000F082F86020ADF804000120ADF8060095
:100D00000220ADF8100001A9094800F02BF80821D5
:100D1000074800F065F80121054800F00BF80121B3
:100D2000034800F013F80BB030BD00000000024093
:100D30000004004021B1028842F08002028004E0F9
:100D400002884FF67F731A400280704721B10288F3
:100D500042F00102028004E002884FF6FE731A405E
:100D60000280704770B5002400220023058C4FF6E6
:100D7000FE7635400584028C8388048B4FF68F7590
:100D80002C40B51E2C400D882C43751E2A408D89A1
:100D90002A434D882A43104DA84202D00F4DA84245
:100DA00013D14FF6F7752A40CD892A434FF6FB75CC
:100DB0002A408D882A434FF6FF652B404FF6FF559A
:100DC0002B400D8A2B434D8A2B43838004838D68EF
:100DD0004563028470BD0000000001400004014032
:100DE0000A460021018B4FF6F77319401143018326
:100DF000704741637047000000220288184B9842F8
:100E00000ED0184B98420BD0B0F1804F08D0164B43
:100E1000984205D0154B984202D0154B984204D108
:100E20004FF68F731A404B881A43124B984207D0E3
:100E3000114B984204D04FF6FF431A400B891A43D6
:100E400002804B68C3620B880385054B984202D031
:100E5000044B984201D18B7A038601238382704729
:100E60000000014000040140000400400008004070
:100E7000000C0040001000400014004010B540F28B
:100E800025511D4800F053F810B31B4800F008F935
:100E9000C4B21A48008800F40040C8B91748008856
:100EA00000F4804060B10A2C03D000201349088070
:100EB00020E01248008840F400401049088019E002
:100EC0000D2C06D10D48008840F480400B49088065
:100ED00010E00A480088C0F30D0009490C54074887
:100EE0000088401C0549088008460088C72801DDA5
:100EF0000020088010BD0000001001400C00002000
:100F00002000002001F40072B2F5007F00D100BF84
:100F1000CA430280704721B1828942F40052828123
:100F200004E082894DF6FF731A408281704770B5E4
:100F30000246002400230025002040F66A16B14234
:100F400000D100BFC1F3421501F01F03012606FACC
:100F500003F3012D02D19689334006E0022D02D120
:100F6000168A334001E0968A33400C12012606FAB5
:100F700004F41688344013B10CB1012000E00020C5
:100F800070BDF0B50346002400260025002040F681
:100F90006A17B94200D100BF1846C1F3421401F0EC
:100FA0001F06012707FA06F5012C01D10C3004E0D9
:100FB000022C01D1103000E014301AB107682F4321
:100FC000076002E00768AF430760F0BD2DE9FF4707
:100FD00005460E460024A14600BFA046B08900B1D8
:100FE00000BF2C8A24F44054F08804432C82AC893E
:100FF00041F20C608443B088318908437189084309
:101000000443AC81AC8A24F44074B0890443AC82BC
:101010006846FFF7E3FC2048854202D01F4885421E
:1010200002D1DDF80C9001E0DDF80890A88900F409
:10103000004040B109EBC90000EB091031684900DC
:10104000B0FBF1F707E009EBC90000EB09103168CC
:101050008900B0FBF1F76420B7FBF0F00401200930
:10106000642101FB1078A88900F4004040B13220CF
:1010700000EBC800B0FBF1F000F00700044308E00B
:10108000322000EB08106421B0FBF1F000F00F00FB
:1010900004432C81BDE8FF8700100140001401408B
:1010A00001468888C0F30800704700BFFEE702E0F1
:1010B00008C8121F08C1002AFAD1704770470020E3
:1010C00001E001C1121F002AFBD1704710B5044690
:1010D0006FF00400FFF794FDE11704EB5171C1F3C9
:1010E000CF01074A11801046008800EB4001C1EB98
:1010F000C0104FF6FF7101EAC0000249088010BD20
:10110000040000200600002070B504464FF407706C
:1011100094FBF0F0C6B24FF4077094FBF0F100FBC3
:10112000114085B205E04FF4077000F009F8701E19
:10113000C6B2002EF7D115B1284600F001F870BDF7
:101140000146114A12884A434FF0E0235A610022B7
:101150009A611A46126942F001021A6100BF4FF00B
:10116000E022106900F001021AB100F48032002A76
:10117000F5D04FF0E022126922F001024FF0E02397
:101180001A6100229A6170470600002008B54FF4EA
:10119000A060FFF7E7FBA820FFF798FFFFF7CCF967
:1011A000FFF71BFA4EF67D70FFF7FEF92EA04EF604
:1011B0007D734FF47842102100900020FFF784F8EF
:1011C0002DA04EF67D731F22302100900020FFF7E6
:1011D0007BF82EA04EF67D731F2240210090002048
:1011E000FFF772F84FF4E13000F066F8532140F257
:1011F000F310FFF74FFD35E04FF49670FFF784FFD3
:101200002748007828B127480088401C25490880D5
:1012100004E024480088401E2249088021480088B4
:10122000B0F5967F02DD00201D4908701D4800883A
:1012300010B901201A4908701A4801881A48FFF7A6
:10124000D8FD1A48006808B9012000E000201749BD
:1012500008601748D0F8880208B9012000E0002093
:1012600014490860C8E700002020202053544D3363
:10127000322050574D2000002020C7B6C8EBCABD11
:10128000BFAAB7A2CDF82020200000006D637564CE
:1012900065762E74616F62616F2E636F6D20000042
:1012A000020000200000002000040040A002404294
:1012B000008041428882414210B588B00446012135
:1012C0000846FFF75BFB01211020FFF777FB0722A1
:1012D00009212548FEF7D1FF07220A212248FEF7FF
:1012E000CCFF4FF4C060069002208DF81C00032054
:1012F0008DF81D0000208DF81E0001208DF81F00C4
:1013000006A91948FEF771FF02940020ADF80C0001
:10131000ADF80E00ADF81000ADF814000C20ADF8DB
:10132000120002A91148FFF751FE01210F48FFF7F3
:10133000F2FD40210D48FFF7E5FD012240F2255165
:101340000A48FFF71EFE25208DF8040003208DF8C3
:1013500005008DF8060001208DF8070001A8FFF7B1
:10136000C5FA08B010BD00000000024000100140A6
:10137000000000000000000000000000000000006D
:1013800000101010101010101010000010100000AD
:1013900000006C6C2424000000000100000000002C
:1013A0000024242424FE48484848FC909090900053
:1013B00000103C549290503814121292547810003D
:1013C0000000225C94A8481010242A52548800007F
:1013D000000030484850206E54948C888A74000075
:1013E000000030301010000000000000000000007D
:1013F00000040810102020202020201010080400D5
:10140000008040202010101010101020204080007C
:101410000000000010543810385410000000000084
:1014200000000010101010FE10101010000000003E
:10143000000000000000000000000000101020006C
:1014400000000000000000FE00000000000000009E
:10145000000000000000000000000000101000006C
:101460000000040408081010202040408080000084
:101470000000384482828282828282824438000064
:10148000000010701010101010101010107C0000D0
:1014900000003844828204081020408284FC00004E
:1014A00000003844820204380402028244380000FA
:1014B0000000040C141424244444FE04040E000010
:1014C0000000FC808080B8C4820202828478000020
:1014D00000003C428280B8C482828282443800008C
:1014E00000007E428204040808081010101000005A
:1014F00000003844828244384482828244380000AA
:101500000000384482828282463A028244380000D7
:10151000000000001010000000001010000000008B
:10152000000000001010000000000010102000005B
:10153000000000000618608060180600000000002F
:10154000000000000000FE0000FE0000000000009F
:1015500000000000C0300C020C30C0000000000091
:10156000003844828202040810101000101000009D
:1015700000003844829AAAAAAAAAAA9680423C00ED
:10158000000010101028282844447C4444EE000039
:101590000000FC424242427C4242424242FC000085
:1015A00000003C4482808080808082824438000039
:1015B0000000F844424242424242424244F80000A3
:1015C0000000FC444240447C4440404244FC000053
:1015D0000000FC444240447C4440404040F0000055
:1015E0000000344C828080808E8484844C340000DF
:1015F0000000EE444444447C4444444444EE00002F
:1016000000007C101010101010101010107C000042
:1016100000003E08080808080808088888700000CC
:101620000000EE44484850605048484444EE0000F2
:101630000000E040404040404040404244FC000048
:101640000000C6446C6C6C545454444444EE000096
:101650000000CE4464646454544C4C4C44E4000098
:101660000000384482828282828282824438000072
:101670000000F844424242447840404040E00000CC
:101680000000384482828282828282BA443C020014
:101690000000F048444444487048444444E6000094
:1016A00000003C44828040300C02028244780000FA
:1016B00000007C5492101010101010101038000010
:1016C0000000EE444444444444444444443800004C
:1016D0000000EE444444442828282810101000003C
:1016E0000000EE4454545454545428282828000030
:1016F0000000EE44442828101028284444EE00003E
:101700000000EE4444282828101010101038000063
:1017100000007E44840808102020408284FC0000E1
:10172000001C1010101010101010101010101C00C1
:101730000000EE445454FE54545428282828000035
:1017400000701010101010101010101010107000F9
:10175000003048840000000000000000000000008D
:101760000000000000000000000000000000FE007B
:101770000040200000000000000000000000000009
:101780000000000000007884047C84848C760000D3
:101790000000C04040405864424242426458000049
:1017A0000000000000003844808080804438000041
:1017B00000000C040404344C848484844C360000FF
:1017C000000000000000788484FC808084780000A1
:1017D000000018242020F820202020202070000065
:1017E0000000000000003A444478807C82827C0043
:1017F0000000C040404058644444444444EE00006B
:1018000000001010000030101010101010380000F0
:101810000000101000003010101010101090600028
:101820000000C04040405C485060504844EE00001A
:10183000000030101010101110101010103900009E
:10184000000000000000ACD29292929292D600006A
:1018500000000000000058E44444444444EE00000A
:101860000000000000003844828282824438000078
:10187000000000000000D864424242645840E0008A
:10188000000000000000364C8484844C34040E00B8
:101890000000000000006C3020202020207000009C
:1018A00000000000000078888460188444780000FC
:1018B000000000202020F8202020202024180000F4
:1018C000000000000000C64242424242463A000088
:1018D000000000000000EE444428282810100000FA
:1018E000000000000000EE44445454282828000062
:1018F000000000000000EE442810102844EE000014
:10190000000000000000EE444428281010A0C00091
:101910000000000000007E448810204284FC00008B
:10192000000C1010101010601010101010100C008F
:1019300000101010101010101010101010101000C7
:1019400000C0202020202018202020202020C0009F
:1019500000000000000000728C0000000000000089
:101960000000000000001FE000003FF000003FF01A
:1019700000001FE0000180060003C00F0003C00F3D
:101980000003C00F0003C00F0003C00F0003C00F0F
:101990000003C00F0003C00F00030003000000009D
:1019A0000000000000000000000300030003C00F5F
:1019B0000003C00F0003C00F0003C00F0003C00FDF
:1019C0000003C00F0003C00F0003C00F000180061A
:1019D00000001FE000003FF000003FF000001FE0AB
:1019E00000000000000000000000008000000180F6
:1019F00000000380000007800000078000000780CF
:101A000000000780000007800000078000000780BA
:101A10000000078000000780000001800000000037
:101A200000000000000000000000018000000780AE
:101A3000000007800000078000000780000007808A
:101A4000000007800000078000000780000007807A
:101A50000000038000000180000000800000000002
:101A60000000000000001FE000003FF00000FFF059
:101A70000001FFE0000000060000000F0000000F62
:101A80000000000F0000000F0000000F0000000F1A
:101A90000000000F0000000F00001FE300007FF8AF
:101AA00000007FF800001FE0000300000003C000FA
:101AB0000003C0000003C0000003C0000003C0001A
:101AC0000003C0000003C0000003C000000180004C
:101AD00000001FF000003FF800003FFC00001FFE68
:101AE000000000000003FF800001FFC00000FFC0F5
:101AF00000007F80000000180000003C0000003C57
:101B00000000003C0000003C0000003C0000003CE5
:101B10000000003C0000003C00007F8C0001FFE062
:101B20000001FFF000007F800000000C0000003C7E
:101B30000000003C0000003C0000003C0000003CB5
:101B40000000003C0000003C0000003C00000018C9
:101B500000007F800000FFC00001FFC00003FF8085
:101B6000000000000000000000020001000300036C
:101B7000000380070003C00F0003C00F0003C00F65
:101B80000003C00F0003C00F0003C00F0003C00F0D
:101B90000003C00F0003C00F00031FE300007FF825
:101BA00000007FFC00001FE0000000030000000FA9
:101BB0000000000F0000000F0000000F0000000FE9
:101BC0000000000F0000000F0000000F0000000FD9
:101BD00000000007000000030000000100000000FA
:101BE0000000000000001FFC00003FF800003FF074
:101BF00000001FE0000180000003C0000003C000DF
:101C00000003C0000003C0000003C0000003C000C8
:101C10000003C0000003C00000031FE000007FF8C5
:101C200000007FF800001FE0000000030000000F2C
:101C30000000000F0000000F0000000F0000000F68
:101C40000000000F0000000F0000000F0000000661
:101C500000003FE000007FF00000FFF00001FFE027
:101C60000000000000001FFC00003FF800003FF0F3
:101C700000001FE0000180000003C0000003C0005E
:101C80000003C0000003C0000003C0000003C00048
:101C90000003C0000003C00000031FE000007FF845
:101CA00000007FFC00001FE0000300030003C00FE2
:101CB0000003C00F0003C00F0003C00F0003C00FDC
:101CC0000003C00F0003C00F0003C00F0001800617
:101CD00000001FE000003FF000003FF000001FE0A8
:101CE000000000000007FFE00003FFC00001FF88C4
:101CF0000000FF18000000380000007800000078A5
:101D000000000078000000780000007800000078F3
:101D100000000078000000780000001800000000BB
:101D20000000000000000000000000180000007823
:101D300000000078000000780000007800000078C3
:101D400000000078000000780000007800000078B3
:101D5000000000380000001800000008000000002B
:101D60000000000000001FE000003FF000003FF016
:101D700000001FE0000180060003C00F0003C00F39
:101D80000003C00F0003C00F0003C00F0003C00F0B
:101D90000003C00F0003C00F00031FE300007FF823
:101DA00000007FFC00001FE0000300030003C00FE1
:101DB0000003C00F0003C00F0003C00F0003C00FDB
:101DC0000003C00F0003C00F0003C00F0001800616
:101DD00000001FE000003FF000003FF000001FE0A7
:101DE0000000000000001FE000003FF000003FF096
:101DF00000001FE0000180060003C00F0003C00FB9
:101E00000003C00F0003C00F0003C00F0003C00F8A
:101E10000003C00F0003C00F00031FE300007FF8A2
:101E200000007FFC00001FE0000000030000000F26
:101E30000000000F0000000F0000000F0000000F66
:101E40000000000F0000000F0000000F000000065F
:101E500000001FE000003FF000007FF00000FFE006
:101E60000000000000000000000000000000000072
:101E70000000000000000000000000000000000062
:101E80000000000000000000000000000000000052
:101E90000000000000000000000000000000000042
:101EA0000000000000000000000000000000000032
:101EB00000000000000078000000780000007800BA
:101EC00000007800000078000000780000000000AA
:101ED0000000000000000000000000000000000002
:101EE00000000000000000000000000000000000F2
:101EF00000000000000000000000000000000000E2
:101F00000000070000000F8000000F8000000F801D
:101F100000000700000000000000000000000000BA
:101F200000000000000000000000000000000700AA
:101F300000000F8000000F8000000F8000000700ED
:101F40000000000000000000000000000000000091
:101F50000000000000000000000000000000000081
:101F60000000000000000000000000000000000071
:101F70000007C006000FE0060000000C0030181833
:101F80000030181800301830003018300030186059
:101F9000003008C00007C0C0000FE0800000000053
:101FA0000000000FE0000607C000063018000C30EB
:101FB00018000C301800183018003030180030307D
:101FC000180060000000C00FE000C007C000000063
:101FD0000000000000000000000000000000000001
:101FE00000000000000000000000000000000000F1
:101FF0000000000000000000000700E0000887FC6F
:1020000000088E0300089801800718008000300047
:102010000000300000007000000060000000600060
:102020000000600000006000000060000000700020
:1020300000003000000030000000380000001801EF
:1020400000000C03000007FC000001F0000000008D
:102050000000000000000000000000000000000080
:102060000000000000000000000000000000000070
:102070000000000000000000000000000000000060
:102080000000000000000000000000000000000050
:1020900000000000000000000000000000003FF011
:1020A00000007FF000007FE00000FFC000000000A3
:1020B0000000000000000000000000000000000020
:1020C0000000000000000000000000000000000010
:1020D0000000000000000000000000000000000000
:1020E0000000C7B60100210821083FF80020222087
:1020F000223EFF42229422103E10221022283E2827
:1021000022440082C8EB040002000100010001002B
:102110000280028002800440044008200820101041
:10212000201040088006CABD00480044004400401A
:10213000FFFE004000403E400840084008200822C2
:102140000F12780A20060002BFAA00007FFC0820B8
:102150000820082008200820FFFE0820082008206A
:1021600008201020102020204020B7A201001110CC
:10217000110822003FFC0200040007F80A080908C1
:10218000111010A0204040A003181C06CDF800003C
:102190007FFC40044004421452944A544424442492
:1021A0004A544A54529461044004401440080000C8
:1021B000000000000000000000000000000000001F
:1021C000000000000000000000000000000000000F
:1021D00000000000000000000000000000000000FF
:1021E00000000000000000000000000000000000EF
:1021F00000000000000000000000000000000000DF
:1022000000000000000000000000000000000000CE
:102210000000000000000000000000003C22000858
:102220000000002020000000AE1000085C22000822
:1022300020000020C8040000BE10000800000100BB
:10224000000000000000000000000000000001028B
:0C22500003040102030406070809000053
:040000050800018965
:00000001FF
