:020000040800F2
:100000009037002049020008F927000891220008D3
:10001000F5270008E71F00083F2F00080000000038
:10002000000000000000000000000000212A00087D
:10003000EB1F00080000000089280008392B000889
:1000400063020008630200086302000863020008FC
:1000500063020008630200086302000863020008EC
:1000600063020008630200086302000863020008DC
:1000700063020008630200086302000863020008CC
:1000800063020008630200086302000863020008BC
:1000900063020008630200086302000863020008AC
:1000A000630200086302000863020008630200089C
:1000B00063020008A52B0008630200086302000821
:1000C000630200086302000863020008630200087C
:1000D00063020008112D0008630200086302000893
:1000E000630200086302000863020008630200085C
:1000F000630200086302000863020008630200084C
:10010000630200086302000863020008630200083B
:10011000630200086302000863020008630200082B
:10012000630200086302000863020008630200081B
:10013000630200086302000863020008630200080B
:1001400063020008630200086302000863020008FB
:1001500063020008630200086302000863020008EB
:1001600063020008630200086302000863020008DB
:1001700063020008630200086302000863020008CB
:10018000630200086302000800F002F800F04CF877
:100190000AA090E8000C82448344AAF10107DA45E2
:1001A00001D100F041F8AFF2090EBAE80F0013F0E8
:1001B000010F18BFFB1A43F001031847C0D300001A
:1001C000E0D30000103A24BF78C878C1FAD85207AB
:1001D00024BF30C830C144BF04680C6070470000C1
:1001E0000023002400250026103A28BF78C1FBD840
:1001F000520728BF30C148BF0B607047662903F023
:100200000382642900F05486002070471FB503F074
:10021000F6F901F0BFF904000020002103F062F9B3
:10022000E0601FBD10B510BD01F0B4FA1146FFF734
:10023000EDFF02F015FF01F0D2FA03B4FFF7F2FF71
:1002400003BC02F09DFE00000948804709480047B2
:10025000FEE7FEE7FEE7FEE7FEE7FEE7FEE7FEE776
:10026000FEE7FEE704480549054A064B70470000D3
:100270003D2B0008890100089031002090370020B4
:100280009033002090330020DFED300AB5EEC00A35
:1002900060EE200ABDEEE01A11EE100AF1EE10FA3F
:1002A00038BF401E00EE100A9FED291AB8EEC00AB2
:1002B00070EEC00A20EE810ABCEEC00A10EE100AF1
:1002C00000EE100A0028B8EEC00A10EE810AB8BF8E
:1002D000002004DBB0F5807FC8BF4FF480701D495B
:1002E00060EE000AB6EE001ADFED1C2A9FED1A2A16
:1002F00060EE011A60EE225A20EE813A20EE022AC8
:1003000021EEA01A01EB800073EE655A62EE202AFE
:10031000B7EE006A33EE003AD0EC043A76EE611A9A
:1003200071EE600A35EEE20A33EE413A32EEC21A5D
:1003300070EEA10A20EE230A64EE831A04EE200A6E
:1003400045EE011A31EE800A7047000083F9223E23
:1003500000008043B8440008ABAA2A3EABAAAA3EDC
:10036000DFED300AB5EEC00A60EE200ABDEEE01AFD
:1003700011EE100AF1EE10FA38BF401E00EE100A1E
:100380009FED291AB8EEC00A70EEC00A20EE810A6D
:10039000BCEEC00A10EE100A00EE100A0028B8EEFB
:1003A000C00A10EE810AB8BF002004DBB0F5807FE0
:1003B000C8BF4FF480701D4960EE000AB6EE001A07
:1003C000DFED1C2A9FED1A2A60EE011A60EE225A18
:1003D00020EE813A20EE022A21EEA01A01EB8000E5
:1003E00073EE655A62EE202AB7EE006A33EE003AE9
:1003F000D0EC043A76EE611A71EE600A35EEE20A4C
:1004000033EE413A32EEC21A70EEA10A20EE230A10
:1004100064EE831A04EE200A45EE011A31EE800ADA
:100420007047000083F9223E00008043C84800085E
:10043000ABAA2A3EABAAAA3E9FED3A0A5FEA920C0B
:1004400053D000BFF0EC010A0B1DB0EC011A60EEB6
:10045000A00A41EE010AF5EEC00AF1EE10FAC6BF9D
:10046000B1EEE01A81ED001A81ED000AF0EC010A0C
:10047000191DB0EC011A60EEA00A41EE010AF5EE7A
:10048000C00AF1EE10FAC6BFB1EEE01A83ED001A11
:1004900083ED000AF0EC010A0B1DB0EC011A60EECE
:1004A000A00A41EE010AF5EEC00AF1EE10FAC6BF4D
:1004B000B1EEE01A81ED001A81ED000AF0EC010ABC
:1004C000191DB0EC011A60EEA00A41EE010AF5EE2A
:1004D000C00AF1EE10FAC6BFB1EEE01A83ED001AC1
:1004E00083ED000ABCF1010CACD112F0030208BF8D
:1004F000704700BFF0EC010A0B46B0EC011A091D71
:1005000060EEA00A41EE010AF5EEC00AF1EE10FA23
:10051000C6BFB1EEE01A83ED001A83ED000A521E49
:10052000E8D17047000000002DE9F04F8D082DED57
:10053000048B82B00026AC463446019506EB0C09CC
:1005400009EB0C0A0AEB0C0800EBC60700EBC90923
:1005500000EBCA0A00EBC80897ED003AD9ED003A63
:10056000DAED006A98ED006A97ED010ADAED014ACA
:1005700033EE265A73EE860A99ED014AD8ED015AF8
:1005800030EE241A4FEA440B02EBCB0E70EE644AB5
:1005900074EE251A35EE200A9EED002ADEED012AC2
:1005A00087ED000A31EE210A73EEC63A34EE656A31
:1005B00087ED010A35EE600A33EE663A71EE610AA4
:1005C00002EBC40774EEE35A33EE064A97ED005A85
:1005D00073EEA41AD7ED014A33EE461A24EE056AEB
:1005E0000BEB040725EE855A02EBC70760EE026AA3
:1005F00065EEA45A24EE244A97ED003AD7ED013A6D
:1006000060EEA24A20EE822A21EE037A20EE220A30
:1006100061EEA30A21EE833A61EE231A76EEA42A54
:1006200032EE400A36EE251A75EE443AC9ED002A3C
:1006300077EE200A89ED010A73EE611A8AED001A3D
:10064000CAED013AC8ED000A761CC8ED011A1C4437
:100650006D1E7FF473AF4FF6FF7404EA830B019BAA
:100660000093042B7DD966464FEA9C0C4FF000089E
:10067000C146ACF1010E00BF4FEA480303EB08048A
:1006800002EBC30302EBC80593ED003AD3ED014A38
:1006900002EBC40395ED005AD5ED015A93ED006AC3
:1006A00093ED014AD8444B4603EB0C0404EB0C07D2
:1006B00007EB0C0A00EBC30500EBC70700EBC40413
:1006C00000EBCA0AD5ED003A97ED007AD4ED008A26
:1006D0009AED008A95ED010AD4ED010AD7ED017A71
:1006E000DAED011A33EEC72A70EE676A70EEE12A7E
:1006F00033EE877A78EE883A30EE270A38EEC81A59
:1007000070EEA11A72EE227A32EE622A77EE232A76
:1007100070EE618A36EEC18A30EE210A77EE630A06
:1007200031EE261AC5ED002A85ED010A28EE050AEC
:1007300067EE856A28EE258A20EE837A20EEA49A59
:1007400068EE831A62EE062A61EE063A62EE040A49
:1007500067EEA57A68EEA48A21EE041A36EE882A9E
:1007600000E027E077EE286A71EEC91A30EE670ADA
:10077000C4ED006A32EE811AC4ED011A73EEE00A8C
:1007800087ED002A87ED010A8AED001A3344CAED8D
:10079000010A8B4288D309F10109F1457FF66CAF5C
:1007A0004FF6FF7303EA8B0B009B9B080093042B0F
:1007B0003FF659AFDDF8041090ED000AD0ED042AA1
:1007C00090ED025A90ED031AD0ED064A90ED073AEB
:1007D00030EE222AD0ED011AD0ED050A75EE243A4A
:1007E00031EE034A30EE620A71EEA02A31EE431A6E
:1007F00032EE233A71EEE00A75EE641A72EE844A24
:1008000032EE632A72EEC43A80ED003A70EE012AAD
:10081000C0ED014A30EEE14A80ED022A30EE410A95
:10082000C0ED033A71EEA00AC0ED042A80ED054A3E
:1008300080ED060AC0ED070A2030491EBCD102B087
:10084000BDEC048BBDE8F08F2DE9F04F4FEA910A23
:100850002DED048B82B00024D446A046CDF804A030
:1008600004EB0C0505EB0C0606EB0C0900EBC407CA
:1008700000EBC60600EBC50500EBC909D7ED011A70
:10088000D6ED012A95ED006AD9ED006AD7ED005A40
:1008900096ED007AD5ED010A99ED011A36EE262A79
:1008A00071EEA23A35EE873A71EEE21A30EE815AD5
:1008B00070EEC12A4FEA480B02EBCB0E73EE020A30
:1008C0009EED004ADEED014AC7ED000A73EE850A8F
:1008D00036EE666A75EEC75AC7ED010A33EE422A54
:1008E00002EBC80731EE861A33EEC53A71EEC61A2E
:1008F00097ED006A97ED015A75EEE20A0BEB0807D7
:1009000002EBC70775EEA22AD7ED005AD7ED013AE0
:1009100060EE866A22EE047A62EEA57A23EE044A3D
:1009200021EE066A61EEA55A60EE850A23EE243AAE
:1009300022EE242A21EE051A61EEA31A62EEA32A02
:1009400076EE203A37EE433A74EE020A36EEC11ADA
:1009500085ED003A77EEE11AC5ED010A35EEA22ADF
:1009600086ED001AC6ED013AC9ED001A641C89ED46
:10097000012A9844BAF1010A7FF472AF4FF6FF746E
:1009800004EA830B019B0093042B7CD966464FEA53
:100990009C0C4FF00008C146ACF1010E4FEA480331
:1009A00003EB080402EBC30302EBC805D3ED003AE6
:1009B00093ED017A02EBC403D5ED006AD5ED015A3F
:1009C000D3ED004A93ED013AD8444B4603EB0C04B7
:1009D00004EB0C0707EB0C0A00EBC30500EBC707A1
:1009E00000EBC40400EBCA0A95ED012A97ED018AD9
:1009F00095ED001AD4ED008AD4ED017A97ED009AB6
:100A0000DAED001ADAED010A32EE485A71EE492A9F
:100A100038EEE14A32EE082A37EEA08A37EEE06A75
:100A200078EEA11A31EE091A75EE048A72EEC67AD2
:100A300072EE862A71EE610A31EE211A35EE444AD1
:100A400032EE489A85ED001A32EE081A28EEA66AB0
:100A500027EEA65A68EEA58A85ED011A20EEA31AA4
:100A600069EE231A22EEA42A24EE248A67EEA57AE0
:100A700029EE079A60EE870A24EE034A62EE832A83
:100A800035EE685A00E027E036EE276A71EE497AC3
:100A900031EEA01A72EE440AC4ED007A84ED011A18
:100AA00078EE221A87ED005A87ED016ACAED000A36
:100AB0003344CAED011A8B4288D309F10109F1458B
:100AC0007FF66CAF4FF6FF7303EA8B0B009B9B081E
:100AD0000093042B3FF65AAFDDF8041090ED003A76
:100AE000D0ED044AD0ED032A90ED071A90ED024AAA
:100AF000D0ED061AD0ED013AD0ED050A33EE242AE6
:100B000072EE815A33EE643A34EE215A73EEA04A03
:100B100073EEE03A32EEC11A74EE610A32EE454AE3
:100B200072EE052A74EEA51A34EEE55A73EE414AC8
:100B300033EEA02A33EE011A33EEE03A62EE805A29
:100B400061EE800A64EE003A65EE002AC0ED005ABC
:100B500064EE801AC0ED010A22EE002AC0ED023ACE
:100B600021EE004AC0ED032A23EE001AC0ED041A5C
:100B700080ED052A80ED064A80ED071A2030491ED7
:100B8000ACD102B0BDEC048BBDE8F08F70B504466B
:100B90000D4680782188A389626801280ED02846F6
:100BA000FFF7C2FCE078012818BF70BDE2892188F8
:100BB0002846A368BDE8704000F066B894ED040ACA
:100BC0002846FFF741FEEDE710B40180234C446056
:100BD00082704FF0000CC370B1F5807F20D004DC30
:100BE00010292FD0402906D122E0B1F5806F0FD017
:100BF000B1F5805F04D04FF0FF3C10BC60467047F9
:100C000001218181C18116499FED160A816016E09C
:100C100004218181C18114499FED140A81600EE095
:100C200010218181C18112499FED120A816006E085
:100C300040218181C18110499FED100A816080EDC2
:100C4000040ADAE74FF480718181C1810C499FED7C
:100C50000D0A816080ED040ACFE70000D45400083B
:100C6000D44C000800008039DA4C00080000803ABB
:100C7000F24C00080000803B524D00080000803C10
:100C8000D24E00080000803D2DE9F0014E080124FD
:100C90004FF0000C04EB51076146A6F102082CE06E
:100CA00061452AD200EBCC0500EBC104D5ED000A6A
:100CB00094ED000AC4ED000A85ED000AD5ED010AA5
:100CC00094ED010AC4ED010A85ED010ACC1900EB8F
:100CD000C4050CEB070400EBC40495ED000AD4ED49
:100CE000000AC5ED000A84ED000AD4ED010A95ED75
:100CF000010AC5ED010A84ED010A00EBC104B44408
:100D000000EBCC0C94ED020ADCED000A891CC4ED6A
:100D1000020A8CED000ADCED010A94ED030AC4ED31
:100D2000030A8CED010AB3F800C089B203EB420359
:100D30004145B5D9BDE8F00170472DE9F00701251F
:100D40004C0805EB51064FF0000C651E6146002D66
:100D500088BFA8462ED8BDE8F0077047614529D264
:100D600050F8315050F83C7040F8317040F83C5029
:100D700000EBC10700EBCC097D68D9F804A0C7F8E7
:100D800004A0C9F804508D190CEB060750F83590F3
:100D900050F837A040F835A040F8379000EBC50573
:100DA00000EBC707D5F80490D7F804A0C5F804A055
:100DB000C7F8049000EBC105A444AF6850F83C901C
:100DC000C5F8089040F83C7000EBCC0CEF68DCF8FC
:100DD0000490C5F80C90CCF80470B3F800C0891CDE
:100DE00003EB42034145B9D3BDE8F00770472DE955
:100DF000F00F01244D084FF0000C04EB5107012DBA
:100E00009CBFBDE8F00F7047014600EB8704002649
:100E10004FEA550815E000BFBCEB460F11D950F85A
:100E20002CA0D1F80090C1F800A040F82C900CEB59
:100E30000709D4F800A050F829B0C4F800B040F871
:100E400029A0AC44D1F8049050F82CA0C1F804A01B
:100E500040F82C90B3F800C008310834761C03EB3E
:100E60004203B8F10108D7D1BDE8F00F70477047D1
:100E70000FB4044910B503AA029800F079FB10BC26
:100E80005DF814FB0C0000200FB41CB5074B06AA3C
:100E90007B4469460090059800F051FB00206946AC
:100EA00000F060FB1CBC5DF814FB0000D1060000E4
:100EB0002DE9F0410646002410687529314616A533
:100EC00010D0AFF30080002802DA404213A507E0FB
:100ED00031688A0701D512A502E0490704D511A59A
:100EE000012401E0AFF3008000210A2206F124076B
:100EF00009E0B0FBF2FCB0FBF2F302FB1C00303067
:100F000078541846491C0028F3D123462A46304617
:100F1000BDE8F04100F0A8B8000000002D0000007E
:100F20002B000000200000002DE9F05F89460446F8
:100F30004FF0000ADFF824B1FB44C0F820A020469F
:100F4000E168884700287DD0252806D0D4E9012112
:100F50009047206A401C2062F1E700255F4620464A
:100F6000E16888472028064607DB312E05D2B819EC
:100F700010F8200C08B10543F1E7A80701D525F0CA
:100F80000405C4F81CA00027C4F818A02A2E09D014
:100F9000304601F0EEFF38B304EB8708303EC8F866
:100FA000186019E059F8041B204604EB8702916190
:100FB000E1688847012F064618D1E069002820DA49
:100FC00025F020051DE0D8F8180000EB800006EBA6
:100FD00040003038C8F818002046E16888470646C7
:100FE00001F0C7FF0028EED1012F0AD02E2E08D124
:100FF0002046E16888477F1C0646022F45F0200501
:10100000C4DBA069002803DA404245F00105A06175
:10101000E80701D025F01005A6B1A6F14100192876
:1010200002D8203645F400654A4631462046256000
:101030004D46FFF7E3F860B1012807D0ED1D25F01C
:10104000070000E007E000F1080978E705F104096E
:1010500075E730467AE7206ABDE8F09F98C5000042
:1010600070477047704770472DE9F0470D46994625
:101070009246044600F124080168880604D5E06918
:1010800021F01001216000E00120A84201DD471B92
:1010900000E00027A1697A1902EB0900081AA06193
:1010A0002078C00602D42046AFF30080002608E076
:1010B000D4E901211AF806009047206A401C761CEA
:1010C00020624E45F4DB2078C0060AD52046AFF3F7
:1010D000008006E0D4E9012130209047206A401CBE
:1010E0002062381EA7F10107F4DC07E0D4E90121F2
:1010F00018F805009047206A401C2062281EA5F1C0
:101100000105F3DC2046AFF300802078000602D50D
:101110000220BDE8F0870120FBE770472DE9FF4F73
:101120000C461E464FF0FF378BB0D2E90001DDF8C8
:1011300060800A908A46C1F30A5505B93D460021F0
:1011400008464FF00000BAF1000F00F4400005DA45
:1011500000EB80004FF4400101EA50004FEA905943
:10116000B9F1010F00DDB9460A9850EA4A000ED0E5
:1011700044F61050A5F2FF3545432F14B8F1000F87
:101180001ED07542291E1EDDC9F100021CE0B8F117
:10119000010F4FF0000001D0302103E0F24305E0E1
:1011A0002154401CB042FBDB304600220021215478
:1011B0000B99C1F80880C1E900200FB0BDE8F08F9D
:1011C000BD1B6D1CDEE74A4600DA694206A800F046
:1011D0006BFA06AB93E8070003AB83E807005046C1
:1011E0000A9900F045FB8DE80700A0F500501F3874
:1011F00000900398002D09DD42F21F014A46084481
:1012000003A90390684600F0A4FD08E0A0F5005093
:101210004A461F3803A90390684600F0AEFD8DE8EA
:1012200007000004000C03D04FF0FF30410800E03D
:101230001046B8F1000F03D00022009215461EE0C0
:10124000751E05D400F0AAF9303262556D1EF9D52D
:10125000B3460122084302D000227F1C04E020781C
:10126000302801D100227F1E002A099786D01DE078
:10127000112D07DA00F092F9303262556D1C50EAF8
:101280000102F5D1084302D00098C8B10EE0002158
:10129000681E05E0235C625C63542254401E491CB6
:1012A0008142F7DBAB46A81B401E0990002004F8E2
:1012B0000B000B98099AC0F80880C0E9002B7CE766
:1012C00011264FF0000859E72DE9F04F88460446F3
:1012D000D21D22F0070191B0D1E90001CDE90A0148
:1012E00001F02FFE02460B98C00F01D02D2007E021
:1012F0002068810701D52B2002E0202101EAC000EF
:10130000032A099001D0072A05DB034641462046FF
:1013100000F08AF90BE12078800601D5E06900E051
:101320000620B8F1650F814606D0B8F1660F18D0D7
:10133000B8F1670F70D131E00020B9F1110F0090C2
:1013400001DB112301E009F101030AAA01A90CA89C
:10135000FFF7E4FEDDE90C70002609F10105834684
:1013600047E001204B4600904FF000470AAA01A930
:101370000CA8FFF7D3FEDDE90DB00C995D46002601
:1013800010B909F101000D18B9EB050003D4C0F143
:10139000FF3609F10105A5EB09002BE0B9F1010FBA
:1013A00001DA4FF001090020B9F1110F0090484611
:1013B00001DD112300E003460AAA01A90CA8FFF7EA
:1013C000ADFEDDE90C704D4600268346207800070F
:1013D0000AD4AB4500DA5D4601A8012D04DD4119B0
:1013E00011F8011C302907D04F4502DA17F1040F1C
:1013F00004DA012082460FE06D1EEEE7002F02DCCA
:10140000ED1B3E4403E0781CA84200DD7D1CB81BA8
:1014100000F1010A4FF000472078000703D4AA45E5
:1014200001DB4FF0FF3A0021B7F1004F0DF1430807
:101430008DF8431024D002202B23002F01DA7F42A5
:101440002D230A21021EA0F1010000DC5FB197FBF1
:10145000F1FC97FBF1F201FB1C7C17460CF1300C00
:1014600008F801CDEEE7A8F1010003702188090515
:1014700001D5452100E06521A0F1010800F8011C1B
:1014800009980FA9A1EB0807FF1D00B10120411920
:1014900001EBEA70A1693844081A401EA061207867
:1014A000C00602D42046AFF30080099828B1D4E9E1
:1014B00001219047206A401C20622078C00622D576
:1014C0002046AFF300801EE0002E04DBB34502DDB2
:1014D00001A8805D00E03020D4E901219047206A16
:1014E000401C2062761CAAF101005FEA000A0AD1C2
:1014F00000F050F8C0680168405CD4E901219047D1
:10150000206A401C2062281EA5F10105DCDC07E0F2
:10151000D4E9012118F8010B9047206A401C206291
:10152000381EA7F10107F3DC2046AFF3008003204B
:1015300011B043E601694A1C02610878704700B5A2
:101540008FB0CDE901310021059105497944CDE9FC
:10155000031011466846FFF7E7FC0FB000BD00001E
:10156000E5FFFFFF0A6802F8010B0A607047000000
:10157000074B70B50D467B44FFF7E1FF0446284654
:1015800000F000F910B14FF0FF3070BD204670BD83
:10159000CB1A0000004870474C31002030B5B0F144
:1015A0000A024FEA900E71F100034EEA817EB0EB21
:1015B0000E0061EB91014FEA101E4EEA017E10EB26
:1015C0000E0041EB11114FEA102E4EEA016E10EBA6
:1015D0000E0041EB11214FEA104E4EEA014E10EB86
:1015E0000E0041EB1141401841F100014FEAD000DB
:1015F00040EA41704FEAD10110EB80054FEA8104C7
:1016000044EA907444EB01046D1944EB0404521B4A
:10161000A3414FF0000348BF0A3200D530BD401C43
:1016200041F1000130BD00002DE9F0411F460446A4
:1016300003260168072A01F4006004DB08B116A53F
:1016400005E016A503E008B115A500E015A521F0F9
:1016500010002060A069C01EA0610FB1401EA061F3
:101660002046AFF300804FB1D4E9012138469047BE
:10167000206A401C2062C01C206206E0206AFAE753
:10168000D4E9012115F8010B9047761EF8D22046C7
:10169000AFF30080BDE8F0814E414E006E616E00F8
:1016A000494E4600696E66002DE9F04781461646B0
:1016B0008AB0334878440DC88DE80D00304878442E
:1016C000801C03AC0DC884E80D0041F69B30084433
:1016D000372190FBF1F290FBF1F5A5F1800501FBBC
:1016E00012041B3C02D56442012000E00020DFF818
:1016F00090A080460027FA44AAF1BE0A0DE0E00758
:1017000009D03246684607EB47010AEB810100F039
:1017100034FB8DE8070064107F1C002CEFD1184FBC
:101720007F44AC3F18E0E80714D007EB04100DF13C
:10173000180A90E80E008AE80E00C068F04201D155
:1017400098190890324606A903A800F016FB03ABCF
:1017500083E807006D10641C002DE4D13246694611
:10176000B8F1000F03A802D000F0F3FA01E000F096
:1017700004FBC9E90001C9F808200AB0BDE8F087F8
:10178000ACBE0000007B00F080007047004870474E
:101790002C3100207546FFF7F9FFAE46050069467B
:1017A000534620F00700854618B020B5FEF75AFDD5
:1017B000BDE820404FF000064FF000074FF0000852
:1017C0004FF0000B21F00701AC46ACE8C009ACE8D3
:1017D000C009ACE8C009ACE8C0098D46704710B537
:1017E0000446AFF300802046BDE81040FEF725BD5B
:1017F0004FF0013C50F8042B51F8043B9A4221D1A0
:10180000A2EB0C03934313EACC1317D150F8042B2B
:1018100051F8043B9A4215D1A2EB0C03934313EA0F
:10182000CC130BD150F8042B51F8043B9A4209D148
:10183000A2EB0C03934313EACC13DBD04FF0000070
:10184000704700BFD01A01BAB1FA81F101F0180156
:1018500022FA01F0CB40C1F12001DBB2C0B2C01AC4
:101860002CFA01F3D11A914311EAC311E6D1704762
:101870005FEA400C08BF91F0000F4FEA8C234FEA5B
:10188000C12243EA51514FEA1C5018BF00F5F04005
:101890004FEA300018BF41F000415FEA6C5C00F095
:1018A0002980BCF1FF3F08BF40F080407047130C17
:1018B00006BF12044FF0100C4FF0000C130E04BFC3
:1018C00012020CF1080C130F04BF12010CF1040CEE
:1018D000930F04BF92000CF1020CD30F04BF52000F
:1018E0000CF1010C11464FF00002A0F11F00A0EB1B
:1018F0000C00704711F0004F08BF704731F00041F5
:101900003FF4D5AF0B0C06BF09044FF0100C4FF09D
:10191000000C0B0E04BF09020CF1080C0B0F04BFE6
:1019200009010CF1040C8B0F04BF89000CF1020CAF
:10193000CB0F04BF49000CF1010CCCF12003A0EB4C
:101940000C0022FA03F302FA0CF241EA030100F15F
:101950000100704720F07F4C80EA030023F07F47AE
:10196000ACEB070303F57C5300F0004003F1FF03E9
:101970002DE980494FEA154B09B44FEA144325EA93
:101980000B4E24EA03480FF2042606EB13274908FE
:101990003E785FEA320203FB0667C7F5000707FBE4
:1019A00006F64FEA54374FEAD64606F1020607FB21
:1019B000066CCCF1005C4FEA1C472CEA074C07FB95
:1019C00006F40CFB06F504EB15464FEA961634BFF9
:1019D00000204FF000404FEAD13706FB07FC4FEAEA
:1019E0001C4C0CFB0BF7D21B03FB0CF761EB070144
:1019F0000CFB0EF7B0EB074072EB17420CFB08F73D
:101A000034BFA2EB0742B2EB074261EB17414FEA4A
:101A10000C444FEA910706FB07FC4FEA1C4C0CFBF9
:101A20000BF7B0EBC74072EB573203FB0CF734BF38
:101A3000A2EBC742B2EBC74261EB57310CFB0EF78A
:101A4000B0EBC70072EB57720CFB08F734BFA2EB88
:101A5000C702B2EBC70261EB5771039F4FEA816186
:101A600041EA921104EBCC044FEAD1374FEA82628B
:101A700006FB07FC42EA90124FEA80604FEA1C4CDA
:101A80000CFB0BF7D21B03FB0CF761EB07010CFB04
:101A90000EF7B0EB074072EB17420CFB08F734BFB0
:101AA000A2EB0742B2EB074261EB17414FEA8C55BC
:101AB0004FEA910704EB9C2406FB07FC4FEA1C4C01
:101AC0000CFB0BF7B0EBC74072EB573203FB0CF784
:101AD00034BFA2EBC742B2EBC74261EB57310CFBFC
:101AE0000EF7B0EBC70072EB57720CFB08F734BF70
:101AF000A2EBC702B2EBC70261EB577115EB4C25A5
:101B00004FEA816141EA92114FEA82624FEAD1378E
:101B100042EA901206FB07FC44F100044FEA8060A1
:101B20004FEA1C4C0CFB0BF7D21B03FB0CF761EBD1
:101B300007010CFB0EF7B0EB074072EB17420CFBF2
:101B400008F734BFA2EB0742B2EB074261EB174143
:101B500015EB1C154FEA813141EA92414FEA82327E
:101B600042EA90424FEA80304FEA0C7644F100049A
:101B700048EA03434EEA0B484FF0000EB2EB080C64
:101B800071EB030724BF624639464EEB0E0E4FF051
:101B9000000B0018524149414BEB0B0BB2EB080C08
:101BA00071EB03077BF1000B24BF624639464EEB15
:101BB0000E0E4FF0000B0018524149414BEB0B0B3E
:101BC000B2EB080C71EB03077BF1000B24BF6246FC
:101BD00039464EEB0E0E51EA020718BF46F00106D9
:101BE00016EB0E7655F1000254F1000103D5BDE865
:101BF0008901BDE80088BDE88901BDE80048B61943
:101C0000524141EB0101A3F10103704780807F7EC7
:101C10007D7C7B7A79787776767574737271717062
:101C20006F6E6E6D6C6C6B6A6A6968686766666514
:101C30006464636362616160605F5F5E5E5D5D5CA2
:101C40005C5B5B5A5A595958585757565655555513
:101C50005454535352525251515050504F4F4F4E73
:101C60004E4D4D4D4C4C4C4B4B4B4A4A4A494949C1
:101C70004848484747474746464645454544444403
:101C8000444343434342424242414141002B26D414
:101C9000770021D01CB54FEA370703B44FF010008E
:101CA0004FF010014FF000000FBCBDE810400BF1E9
:101CB000010BBBF1010F08BF5FEA170722BF12F14A
:101CC000010211F101014FF0004143F1000300F066
:101CD000004043EA00007047F9D35708DAE746EAC4
:101CE000064613F1400F4FEA16461FDD13F1200F91
:101CF000DFBF16430A46002120335B42C8D0C3F140
:101D0000200746EA064602FA07F74FEA164646EA71
:101D10000706C3F1200722FA03F201FA07F721FAB6
:101D200003F14FF0000342EA0702B1E746EA020678
:101D300046EA06464FEA164646EA0106BCBF46EAB0
:101D40000646360C4FF000034FF000024FF0000142
:101D50009EE72DE9C048934630B491E8380007C8A3
:101D600031EA400C48BF34EA430C03D5FFF7F2FDDB
:101D7000FFF78CFFF0BCBDE800882DE9C048934612
:101D800030B491E8380007C810F0804F08BF13F056
:101D9000804F03D100F005F8FFF778FFF0BCBDE8F5
:101DA000008820F07F4780EA030023F07F4C07EB98
:101DB0000C03A3F57C5300F00040A3F1FE0392F066
:101DC000000F00F0B38095F0000F00F077802DE950
:101DD00001494FEA11404FEA144621EA004800FB4E
:101DE00006FC24EA064708FB06F607FB08F800FB9A
:101DF00007F718EB06484CEB164C4FEA124B18EB62
:101E000007484FEA15464CEB174022EA0B4E0BFBF6
:101E100006FC25EA06470EFB06F607FB0EFE0BFB4B
:101E200007F71EEB064E4CEB164C4FF000061EEB70
:101E3000074E4CEB174B18EB0B0840F1000018EB6A
:101E40000E0B58EB000840F100008F1A4FF0000114
:101E50003CBFC943661B14BFB5EB040C00213CBF5B
:101E6000C943F61B4FEA17444EEA8E0E27EA044593
:101E70004FEA1C4704FB07622CEA074C05FB07F7F7
:101E80000CFB05F604FB0CFC16EB074642EB174275
:101E900016EB0C4642EB1C421BEB060658EB02020B
:101EA000414146EA9E0601D5BDE80189B619524175
:101EB00041EB0101A3F10103BDE801894FEA14459B
:101EC0004FEA114724EA054621EA074C05FB07F4CF
:101ED00006FB07F70CFB06F105FB0CFC11EB0741B9
:101EE00044EB17444FEA124711EB0C4144EB1C44FE
:101EF00022EA074C05FB07F206FB07F70CFB06F688
:101F000005FB0CFC16EB074642EB174216EB0C46A2
:101F100042EB1C456A1854F1000148BF7047B619DE
:101F2000524141EB0101A3F10103704795F0000F0D
:101F300037D04FEA11424FEA144721EA024624EA19
:101F4000074C02FB07F106FB07F70CFB06F402FB4C
:101F50000CFC14EB074441EB17414FEA154714EB17
:101F60000C4441EB1C4125EA074C02FB07F506FB3C
:101F700007F70CFB06F602FB0CFC16EB074645EBDD
:101F8000174516EB0C4645EB1C42121951F10001A6
:101F900048BF7047B619524141EB0101A3F101035B
:101FA00070474FEA14454FEA114724EA054621EAF3
:101FB000074C05FB07F106FB07F70CFB06F24FF099
:101FC000000605FB0CFC12EB074241EB174112EB3C
:101FD0000C4251EB1C4148BF7047921841EB010184
:101FE000A3F10103704700BFFEE77047F0B50A4652
:101FF00000210023002400BF3DE0012505FA01F384
:10200000156805EA03049C4234D105684F00032695
:10201000BE40B543056015794E00B54006683543AE
:1020200005601579012D02D01579022D16D185682C
:102030004F000326BE40B543856055794E00B5403C
:10204000866835438560456801268E40B543456006
:10205000456896798E40B6B235434560C5684F00F5
:102060000326BE40B543C560D5794E00B540C6686D
:102070003543C560491C1029BFD3F0BDF0B500231E
:1020800000244D07ED0E02FA05F3CE1000F12005F5
:1020900055F826504E07F70E0F26BE40B543CF1019
:1020A00000F1200646F82750CE1000F1200555F823
:1020B000265045EA0304CE1000F1200545F82640DD
:1020C000F0BD0246002013690B400BB1012000E077
:1020D0000020704741837047018370472DE9F84F16
:1020E0000746884693469A46DDF828900097B3E065
:1020F00099F8000080283DDA99F800600D2E05D18E
:10210000009F08F110001FFA80F830E0202E03DD58
:10211000A6F1200086B200E00026002422E000257F
:102120001CE004EB06105049085C8021294108405E
:1021300040B108EB040291B27A1990B25A4600F00D
:1021400097F809E0D34507D008EB040291B27A1959
:1021500090B2524600F08CF8681CC5B2082DE0DB46
:10216000601CC4B2102CDADB07F1080087B209F159
:10217000010971E0002668E006EB06103B4911F802
:10218000100099F8001088425DD106EB061037491F
:1021900001EB4000407899F80110884253D10024A7
:1021A0004FE0002520E006EB0610304901EB40002F
:1021B000801C10F8141080202841014041B108EB28
:1021C000040291B27A1990B25A4600F051F809E02F
:1021D000D34507D008EB040291B27A1990B2524667
:1021E00000F046F8681CC5B2082DDCDB002524E0B1
:1021F00006EB06101D4901EB4000801C012101EB9C
:102200004401405C80212941084048B108EB0402A8
:1022100091B27A19083290B25A4600F029F80AE0D1
:10222000D34508D008EB040291B27A19083290B273
:10223000524600F01DF8681CC5B2082DD8DB601CA2
:10224000C4B2102CADDB701C86B2062E94DB09F1F3
:10225000020907F1100087B299F8000000287FF406
:1022600047AFBDE8F88F00000C3600087E43000839
:1022700070B504460D461646681C83B2601C82B2D7
:102280002946204600F058FA304600F0C1F870BDEB
:1022900000BFFEE71CB50121052000F0F7FA42F26D
:1022A0000200009000208DF8040003208DF8050046
:1022B00001208DF8070069460948FFF797FE0120C5
:1022C000009000208DF8040003208DF80500022006
:1022D0008DF8070069460348FFF788FE1CBD000023
:1022E000000802400000024010B5044614B101206D
:1022F000244908702348007868B302212248FFF778
:10230000E0FE58B14FF400511F48FFF7DAFE28B144
:1023100001211E48FFF7D5FE01281CD10A2000F03C
:102320004FFE00201749087002211748FFF7C9FE29
:1023300008B9012010BD4FF400511348FFF7C1FE4A
:1023400008B90220F6E701211048FFF7BAFE01287C
:1023500015D10320EEE702210B48FFF7B2FE01285A
:102360000DD141030848FFF7ACFE012807D1012138
:102370000648FFF7A6FE10B90120024908700020A8
:10238000D8E70000040000200008024000000240DE
:102390001CB50121062000F079FA4FF4704000903E
:1023A00001208DF8040000208DF8060003208DF830
:1023B000050001208DF8070069461348FFF716FE57
:1023C000C020009001208DF8040000208DF8060048
:1023D00003208DF8050001208DF8070069460B48A1
:1023E000FFF704FE4FF480410748FFF775FE802198
:1023F0000648FFF771FE80210448FFF76BFE80213D
:102400000248FFF769FE1CBD0004024000080240BC
:1024100010B504464FF480510948FFF75BFE402198
:102420000848FFF759FE201200F0D4FAE0B200F09D
:10243000D1FA4FF480510248FFF74EFE10BD000064
:1024400000040240000802401CB50121092000F0F0
:102450001DFA4FF48070009001208DF804000020D8
:102460008DF8060003208DF8050001208DF8070087
:1024700069460F48FFF7BAFD0420009001208DF84F
:10248000040000208DF8060003208DF805000120CF
:102490008DF8070069460748FFF7A8FD4FF48071E3
:1024A0000348FFF719FE04210248FFF715FE1CBD83
:1024B00000000240000C024070B506467F231A4619
:1024C0000021084600F038F92C2000F07BF90024A8
:1024D00008E0002503E03046FFF79AFF6D1C802DD1
:1024E000F9D3641C802CF4D370BD10B5FFF750FFF6
:1024F00000F00CF9112000F065F9782000F060FD83
:10250000B12000F05FF9012000F044F92C2000F028
:1025100041F92D2000F03EF9B22000F053F90120DE
:1025200000F038F92C2000F035F92D2000F032F9B8
:10253000B32000F047F9012000F02CF92C2000F026
:1025400029F92D2000F026F9012000F023F92C2094
:1025500000F020F92D2000F01DF9B42000F032F930
:10256000072000F017F9C02000F02CF9A22000F09D
:1025700011F9022000F00EF9842000F00BF9C120BF
:1025800000F020F9C52000F005F9C22000F01AF98A
:102590000A2000F0FFF8002000F0FCF8C32000F053
:1025A00011F98A2000F0F6F82A2000F0F3F8C42090
:1025B00000F008F98A2000F0EDF8EE2000F0EAF8CB
:1025C000C52000F0FFF80E2000F0E4F8362000F0FF
:1025D000F9F8C82000F0DEF8E02000F0F3F80F2052
:1025E00000F0D8F81A2000F0D5F80F2000F0D2F84B
:1025F000182000F0CFF82F2000F0CCF8282000F0B1
:10260000C9F8202000F0C6F8222000F0C3F81F20EF
:1026100000F0C0F81B2000F0BDF8232000F0BAF84D
:10262000372000F0B7F8002000F0B4F8072000F0E1
:10263000B1F8022000F0AEF8102000F0ABF8E12075
:1026400000F0C0F80F2000F0A5F81B2000F0A2F861
:102650000F2000F09FF8172000F09CF8332000F0C6
:1026600099F82C2000F096F8292000F093F82E20FD
:1026700000F090F8302000F08DF8302000F08AF85B
:10268000392000F087F83F2000F084F8002000F0A7
:1026900081F8072000F07EF8032000F07BF810207E
:1026A00000F078F82A2000F08DF8002000F072F891
:1026B000002000F06FF8002000F06CF87F2000F0A0
:1026C00069F82B2000F07EF8002000F063F800206D
:1026D00000F060F8002000F05DF89F2000F05AF84C
:1026E000F02000F06FF8012000F054F8F62000F020
:1026F00069F8002000F04EF83A2000F063F8052059
:1027000000F048F8292000F05DF810BD10B54FF436
:1027100080410848FFF7DEFC4FF4967000F050FC53
:102720004FF480410348FFF7D7FC642000F048FCD9
:1027300010BD0000000402402DE9F04104460D46A2
:1027400016461F462A2000F03DF8002000F022F82F
:10275000A11CC8B200F01EF8002000F01BF8B11C4C
:10276000C8B200F017F82B2000F02CF8002000F081
:1027700011F8E91CC8B200F00DF8002000F00AF8CA
:10278000F91CC8B200F006F82C2000F01BF8BDE8D8
:10279000F081000010B504464FF480510748FFF760
:1027A00099FC40210648FFF797FC204600F012F9FB
:1027B0004FF480510148FFF78FFC10BD0004024028
:1027C0000008024010B504464FF480510748FFF757
:1027D00081FC40210648FFF77DFC204600F0FAF816
:1027E0004FF480510148FFF777FC10BD0004024010
:1027F0000008024000BFFEE77047000070B50021EE
:1028000000230F22C4781CB3174C246804F4E0643E
:10281000C4F5E064C4F30721C1F10404E3B20A4142
:1028200044789C40E1B28478144021430C07210E87
:102830000E4C05786155047804F01F050124AC4066
:1028400005786D11AD0005F1E025C5F8004109E0FE
:10285000047804F01F050124AC40054D067876117C
:1028600045F8264070BD00000CED00E000E400E0FB
:1028700080E100E002490143024A11607047000014
:102880000000FA050CED00E07047000029B1064A8F
:1028900012680243044B1A6004E0034A1268824340
:1028A000014B1A60704700003038024029B1064AD7
:1028B00012680243044B1A6004E0034A1268824320
:1028C000014B1A60704700004038024029B1064AA7
:1028D00012680243044B1A6004E0034A1268824300
:1028E000014B1A607047000044380240F0B50021E7
:1028F00000220024022500260223324F3F6807F001
:102900000C0121B1042905D0082937D105E02E4F4B
:10291000076036E02D4F076033E02A4F3F1F3F68C6
:10292000C7F38056274F3F1F3F6807F03F036EB144
:10293000264FB7FBF3F7DFF88CC0ACF1040CDCF8E2
:1029400000C0CCF3881C07FB0CF40CE01E4FB7FB57
:10295000F3F7DFF870C0ACF1040CDCF800C0CCF386
:10296000881C07FB0CF4174F3F1F3F68C7F3014754
:102970007F1C7D00B4FBF5F7076002E0124F076093
:1029800000BF00BF0F4F3F6807F0F0010909104F6B
:102990007A5C0768D74047600A4F3F6807F4E05108
:1029A000890A0B4F7A5C4768D7408760054F3F68BC
:1029B00007F46041490B064F7A5C4768D740C7600F
:1029C000F0BD0000083802400024F40000127A0034
:1029D0001200002070B50446002508251BE004F015
:1029E000800028B14FF400410C48FFF775FB04E06C
:1029F0004FF400410948FFF76DFB4FF400510748C1
:102A0000FFF768FB4FF400510448FFF765FB6006D1
:102A1000040E681EC5B2002DE1DC70BD000402404A
:102A2000704700000CB50020019000903448006809
:102A300040F480303249086000BF3148006800F43B
:102A4000003000900198401C0190009818B901983E
:102A5000B0F5A04FF1D12A48006800F4003010B161
:102A60000120009001E0002000900098012846D14C
:102A700023484030006840F08050214940310860D0
:102A80002048006840F440401E4908601C48083057
:102A900000681B49083108600846006840F400409F
:102AA00008600846006840F4A05008601648091FF6
:102AB0000860081F006840F08070091F086000BFB0
:102AC0000F48006800F000700028F9D040F205704F
:102AD0000E4908600A480830006820F003000849E1
:102AE000083108600846006840F00200086000BF36
:102AF00003480830006800F00C000828F8D10CBD2D
:102B0000003802400070004008544007003C02407A
:102B1000042808D14FF0E021096941F004014FF089
:102B2000E022116107E04FF0E021096921F0040182
:102B30004FF0E022116170477047000010B5154852
:102B4000006840F47000134908601348006840F0C2
:102B500001001149086000200F49083108600E4843
:102B600000680E4908400C4908600D48091D0860BE
:102B7000081F006820F48020091F08600020064913
:102B80000C310860FFF74EFF4FF0006001498039BB
:102B9000086010BD88ED00E000380240FFFFF6FE3F
:102BA0001030002410B50121084800F053F8012826
:102BB00007D10748006808B9012000E00020044957
:102BC00008600121014800F033F810BD0004004006
:102BD000888241427FB505460C4601210220FFF75D
:102BE00065FE0295ADF804400020ADF80600ADF892
:102BF0000C0001A90D4800F049F8012211460B48CC
:102C000000F039F80121094800F015F81D208DF871
:102C1000000001208DF8010003208DF80200012042
:102C20008DF803006846FFF7E9FD7FBD0004004012
:102C3000CA430282704721B1028842F00102028039
:102C400004E002884FF6FE731A4002807047014686
:102C5000486A704730B50246002000230024158AD8
:102C600005EA0103958905EA010413B10CB10120BD
:102C700000E0002030BD1AB183890B43838102E05C
:102C800083898B43838170474162704700220288A9
:102C9000184B98420ED0184B98420BD0B0F1804F91
:102CA00008D0164B984205D0154B984202D0154BD0
:102CB000984204D14FF68F731A404B881A43124B37
:102CC000984207D0114B984204D04FF6FF431A4068
:102CD0000B891A4302804B68C3620B880385054B3E
:102CE000984202D0044B984201D18B7A038601238B
:102CF000838270470000014000040140000400404E
:102D000000080040000C004000100040001400408B
:102D100010B540F225511D4800F053F810B31B4880
:102D200000F008F9C4B21A48008800F40040C8B99D
:102D30001748008800F4804060B10A2C03D00020BE
:102D40001349088020E01248008840F400401049F0
:102D5000088019E00D2C06D10D48008840F4804011
:102D60000B49088010E00A480088C0F30D000949AB
:102D70000C5407480088401C054908800846008814
:102D8000C72801DD0020088010BD000000100140B0
:102D9000100000206430002001F40072B2F5007FC2
:102DA00000D100BFCA430280704721B1828942F43A
:102DB0000052828104E082894DF6FF731A408281BD
:102DC000704770B50246002400230025002040F61D
:102DD0006A16B14200D100BFC1F3421501F01F03D2
:102DE000012606FA03F3012D02D19689334006E04D
:102DF000022D02D1168A334001E0968A33400C122C
:102E0000012606FA04F41688344013B10CB10120EF
:102E100000E0002070BDF0B5034600240026002528
:102E2000002040F66A17B94200D100BF1846C1F32E
:102E3000421401F01F06012707FA06F5012C01D103
:102E40000C3004E0022C01D1103000E014301AB133
:102E500007682F43076002E00768AF430760F0BDD3
:102E60002DE9FF4705460E460024A14600BFA046B7
:102E7000B08900B100BF2C8A24F44054F088044388
:102E80002C82AC8941F20C608443B08831890843BC
:102E9000718908430443AC81AC8A24F44074B0893E
:102EA0000443AC826846FFF721FD2048854202D0EA
:102EB0001F48854202D1DDF80C9001E0DDF8089052
:102EC000A88900F4004040B109EBC90000EB0910EB
:102ED00031684900B0FBF1F707E009EBC90000EBEE
:102EE000091031688900B0FBF1F76420B7FBF0F0FE
:102EF00004012009642101FB1078A88900F4004036
:102F000040B1322000EBC800B0FBF1F000F0070048
:102F1000044308E0322000EB08106421B0FBF1F01C
:102F200000F00F0004432C81BDE8FF870010014032
:102F30000014014001468888C0F30800704700BFB4
:102F4000FEE703B401984100009850EAC12018BF81
:102F500004204A0D18BF40F0010040F2FF72B2EBAE
:102F6000515F08BF40F00200012808BF052002B0F1
:102F7000704730380A2801D201207047002070477E
:102F800000BF704710B504466FF00400FFF7C0FDA6
:102F9000E11704EB5171C1F3CF01074A11801046CC
:102FA000008800EB4001C1EBC0104FF6FF7101EA51
:102FB000C0000249088010BD060000200800002063
:102FC00070B504464FF4077094FBF0F0C6B24FF4AE
:102FD000077094FBF0F100FB114085B205E04FF45F
:102FE000077000F009F8701EC6B2002EF7D115B1B7
:102FF000284600F001F870BD0146114A12884A4384
:103000004FF0E0235A6100229A611A46126942F099
:1030100001021A6100BF4FF0E022106900F00102C6
:103020001AB100F48032002AF5D04FF0E022126984
:1030300022F001024FF0E0231A6100229A617047EA
:103040000800002000BF054A128802F04002002A52
:10305000F9D0C2B2014B9A807047000000100140C5
:103060002DED048B86B000254FF4A060FFF702FC25
:10307000A820FFF787FF4FF4E13000F0D7F9FFF702
:10308000E3F9FFF707F9FFF730FA4EF67D70FFF727
:1030900013FAA4A04EF67D734FF4784210210090ED
:1030A0000020FFF71BF8A4A04EF67D731F222021FD
:1030B00000900020FFF712F8A4A04EF67D731F22A7
:1030C000302100900020FFF709F8A5A04EF67D738F
:1030D0001F22402100900020FFF700F8A4A04EF628
:1030E0007D731F22502100900020FEF7F7FF53212F
:1030F0004FF6FF70FFF76EFD01230022990201A831
:10310000FDF762FD0CE10020FFF7EEF80446022C0B
:103110007DD100209A49088067E09948008800EE38
:10312000100AB8EE400ADFED970A20EE200ADFED24
:10313000960A80EE201AF0EE418AB0EE680AFDF79A
:103140000FF99FED929AF2EE040A00EE809A8C48F5
:10315000008800EE100AB8EE400ADFED8A0A20EE81
:10316000200AF1EE000A20EE200ADFED870A80EE49
:10317000201AF0EE418AB0EE680AFDF7F1F8F3EE9E
:103180000E0A00EE809A7E48008800EE100AB8EE23
:10319000400ADFED7C0A20EE200AF2EE000A20EE63
:1031A000200ADFED790A80EE201AF0EE418AB0EEB7
:1031B000680AFDF769F8DFED760A00EE809A70483C
:1031C0000088744901EBC00080ED009A9FED720AFF
:1031D0006B4800884000401C01EB800080ED000A35
:1031E00067480088401C6649088065480088B0F53B
:1031F000806F92DB00216948FFF746FD0020684997
:103200000870644901A8FDF7C1FC644800E06BE068
:10321000FFF71DFD6249097800EB014000EE100A3E
:10322000B8EE408A9FED5F0AC8EE000A10EE906A81
:10323000304600F073F941EC190B53EC192B5AA1ED
:103240005E48FDF721FE5EA04EF67D731F226021D1
:1032500000900020FEF742FF58484EF67D731F2273
:10326000602100900020FEF739FF4FF4806258493A
:103270004848FDF7E1F89FED4B0AC8EE000A10EE52
:10328000906A304600F04AF941EC190B53EC192BC7
:103290004FF480614FA0FDF7EBFD57A0FDF7E8FD6F
:1032A00000203749088019E04948354A128800EB68
:1032B000820090ED000A10EE101A084600F02EF978
:1032C00041EC190B53EC192B2D4801884EA0FDF74A
:1032D000CFFD2B480088401C2949088028480088D9
:1032E000B0F5806FE0DB02E00A20FFF769FE681CA2
:1032F000C5B20A2095FBF0F100FB115080B9484897
:10330000006808B9012000E00020454908604548F0
:10331000D0F8880208B9012000E000204249086086
:10332000F1E600002020202044535020464654203F
:1033300020202020202000002020C7B6C8EBCABDD6
:10334000BFAAB7A2CDF82020200000006D637564ED
:1033500065762E74616F62616F2E636F6D20000061
:103360004B4559313A52756E2046465400000000D4
:103370004646542072756E74696D653A000000000F
:1033800002000020DB0FC940000080440000C8425A
:10339000000048422400002000000000000400401B
:1033A0000000002000007A4420202020202020203F
:1033B0002025302E33666D7300000000243000207D
:1033C000202020202020202020202020202020001D
:1033D000242000200D0A256420706F696E74204639
:1033E00046542072756E74696D653A25302E3366C9
:1033F0006D730D0A00000000464654205265737537
:103400006C743A0D0A0000006666745F6F75747024
:1034100075746275665B25645D3A25660D0A000069
:10342000A0024042008041428882414210B588B0EB
:10343000044601210846FFF729FA01211020FFF771
:1034400045FA072209212548FEF718FE07220A211E
:103450002248FEF713FE4FF4C060069002208DF85C
:103460001C0003208DF81D0000208DF81E00012097
:103470008DF81F0006A91948FEF7B8FD0294002038
:10348000ADF80C00ADF80E00ADF81000ADF814006A
:103490000C20ADF8120002A91148FFF7E1FC012150
:1034A0000F48FFF782FC40210D48FFF775FC012211
:1034B00040F225510A48FFF7AEFC25208DF80400A4
:1034C00003208DF805008DF8060001208DF8070017
:1034D00001A8FFF793F908B010BD000000000240FA
:1034E0000010014010B500290AD00878002807D044
:1034F00005487844FEF77CF9002801D0002010BD73
:103500000248784410BD0000AAA00000A2A000005C
:103510000808A0F500114FEA3101704743004FEA57
:10352000D30C4FEA3C0C43401FBF40070CF16051E5
:1035300013F0FE4F70471CF0006F03D100200CF019
:10354000004170470CF0004343EA507010B540EA68
:10355000CC0000F00EF800BF000000924FEA00011E
:10356000FFF7D6BF4FF000414FF00000A1F500215A
:1035700070470EF1020E2EF0030E5EF8044B24424B
:1035800004D44FEA4102B2F17F4F11D84FEA400311
:10359000B3F17F4F0CD80ED14FEAD07CB2F17F4F00
:1035A0000CEB4C0C0CF1020C08BF4CEBD17C04E092
:1035B0004FF0080C01E04FEAD17C0CEB4C0324FAED
:1035C00003F404F00704B4F1040C06D20EEB840CEF
:1035D000BDE810404CF0010C6047DFE80CF0070834
:1035E00002024FF00040A0F5800010BD08464200E6
:1035F00018BFD2F1807288BF00F0004010BD4FF0BC
:103600004070E1EE100A7047FDF75EBE000000005A
:10361000000000000000000000000000001010107A
:1036200010101010101000001010000000006C6C42
:1036300024240000000001000000000000242424D5
:1036400024FE48484848FC909090900000103C545C
:103650009290503814121292547810000000225C9C
:1036600094A8481010242A525488000000003048C2
:103670004850206E54948C888A74000000003030CA
:1036800010100000000000000000000000040810FE
:10369000102020202020201010080400008040204E
:1036A000201010101010102020408000000000009A
:1036B00010543810385410000000000000000010B2
:1036C000101010FE1010101000000000000000008C
:1036D00000000000000000001010200000000000AA
:1036E000000000FE000000000000000000000000DC
:1036F00000000000000000001010000000000404A2
:10370000080810102020404080800000000038444D
:10371000828282828282828244380000000010709D
:103720001010101010101010107C00000000384411
:10373000828204081020408284FC0000000038448B
:103740008202043804020282443800000000040CA3
:10375000141424244444FE04040E00000000FC80E1
:103760008080B8C4820202828478000000003C425B
:103770008280B8C4828282824438000000007E4287
:1037800082040408080810101010000000003844DB
:1037900082824438448282824438000000003844E7
:1037A00082828282463A0282443800000000000091
:1037B00010100000000010100000000000000000C9
:1037C0001010000000000010102000000000000099
:1037D000061860806018060000000000000000006D
:1037E0000000FE0000FE00000000000000000000DD
:1037F000C0300C020C30C0000000000000384482D1
:10380000820204081010100010100000000038445C
:10381000829AAAAAAAAAAA9680423C000000101086
:103820001028282844447C4444EE00000000FC4258
:103830004242427C4242424242FC000000003C4480
:103840008280808080808282443800000000F844BA
:10385000424242424242424244F800000000FC44DC
:103860004240447C4440404244FC00000000FC4490
:103870004240447C4440404040F000000000344C52
:10388000828080808E8484844C3400000000EE446A
:103890004444447C4444444444EE000000007C1012
:1038A0001010101010101010107C000000003E08C6
:1038B0000808080808080888887000000000EE441E
:1038C000484850605048484444EE00000000E04042
:1038D000404040404040404244FC00000000C6449C
:1038E0006C6C6C545454444444EE00000000CE44CC
:1038F00064646454544C4C4C44E40000000038446C
:103900008282828282828282443800000000F844EF
:10391000424242447840404040E0000000003844C9
:1039200082828282828282BA443C02000000F04895
:10393000444444487048444444E6000000003C4489
:10394000828040300C0202824478000000007C54E7
:103950009210101010101010103800000000EE44EB
:103960004444444444444444443800000000EE4489
:103970004444442828282810101000000000EE4479
:103980005454545454542828282800000000EE446D
:10399000442828101028284444EE00000000EE447B
:1039A00044282828101010101038000000007E4411
:1039B000840808102020408284FC0000001C1010A5
:1039C000101010101010101010101C000000EE4409
:1039D0005454FE5454542828282800000070101015
:1039E00010101010101010101010700000304884CB
:1039F00000000000000000000000000000000000C7
:103A000000000000000000000000FE000040200058
:103A100000000000000000000000000000000000A6
:103A200000007884047C84848C7600000000C04010
:103A30004040586442424242645800000000000086
:103A400000003844808080804438000000000C046E
:103A50000404344C848484844C360000000000004C
:103A60000000788484FC80808478000000001824A2
:103A70002020F820202020202070000000000000DE
:103A800000003A444478807C82827C000000C04080
:103A9000404058644444444444EE00000000101088
:103AA000000030101010101010380000000010102E
:103AB0000000301010101010109060000000C04086
:103AC00040405C485060504844EE00000000301018
:103AD000101010111010101010390000000000001C
:103AE0000000ACD29292929292D6000000000000A8
:103AF000000058E44444444444EE00000000000048
:103B000000003844828282824438000000000000B5
:103B10000000D864424242645840E00000000000C7
:103B20000000364C8484844C34040E0000000000F5
:103B300000006C30202020202070000000000000D9
:103B40000000788884601884447800000000002019
:103B50002020F82020202020241800000000000051
:103B60000000C64242424242463A000000000000C5
:103B70000000EE4444282828101000000000000037
:103B80000000EE444454542828280000000000009F
:103B90000000EE442810102844EE00000000000051
:103BA0000000EE444428281010A0C00000000000CF
:103BB00000007E448810204284FC0000000C10109D
:103BC000101010601010101010100C0000101010C9
:103BD00010101010101010101010100000C0202035
:103BE00020202018202020202020C00000000000DD
:103BF000000000728C0000000000000000000000C7
:103C000000001FE000003FF000003FF000001FE058
:103C1000000180060003C00F0003C00F0003C00FA7
:103C20000003C00F0003C00F0003C00F0003C00F4C
:103C30000003C00F000300030000000000000000AC
:103C400000000000000300030003C00F0003C00FCA
:103C50000003C00F0003C00F0003C00F0003C00F1C
:103C60000003C00F0003C00F0001800600001FE02A
:103C700000003FF000003FF000001FE000000000E7
:103C800000000000000000800000018000000380B0
:103C90000000078000000780000007800000078008
:103CA00000000780000007800000078000000780F8
:103CB00000000780000001800000000000000000FC
:103CC0000000000000000180000007800000078065
:103CD00000000780000007800000078000000780C8
:103CE00000000780000007800000078000000380BC
:103CF00000000180000000800000000000000000C3
:103D000000001FE000003FF00000FFF00001FFE0B6
:103D1000000000060000000F0000000F0000000F70
:103D20000000000F0000000F0000000F0000000F57
:103D30000000000F00001FE300007FF800007FF884
:103D400000001FE0000300000003C0000003C000EB
:103D50000003C0000003C0000003C0000003C00057
:103D60000003C0000003C0000001800000001FF03D
:103D700000003FF800003FFC00001FFE00000000B4
:103D80000003FF800001FFC00000FFC000007F8033
:103D9000000000180000003C0000003C0000003C57
:103DA0000000003C0000003C0000003C0000003C23
:103DB0000000003C00007F8C0001FFE00001FFF0EC
:103DC00000007F800000000C0000003C0000003C70
:103DD0000000003C0000003C0000003C0000003CF3
:103DE0000000003C0000003C0000001800007F8044
:103DF0000000FFC00001FFC00003FF8000000000C2
:103E0000000000000002000100030003000380071F
:103E10000003C00F0003C00F0003C00F0003C00F5A
:103E20000003C00F0003C00F0003C00F0003C00F4A
:103E30000003C00F00031FE300007FF800007FFCB9
:103E400000001FE0000000030000000F0000000F52
:103E50000000000F0000000F0000000F0000000F26
:103E60000000000F0000000F0000000F000000071E
:103E7000000000030000000100000000000000003E
:103E800000001FFC00003FF800003FF000001FE0B2
:103E9000000180000003C0000003C0000003C00058
:103EA0000003C0000003C0000003C0000003C00006
:103EB0000003C00000031FE000007FF800007FF84F
:103EC00000001FE0000000030000000F0000000FD2
:103ED0000000000F0000000F0000000F0000000FA6
:103EE0000000000F0000000F0000000600003FE08F
:103EF00000007FF00000FFF00001FFE00000000084
:103F000000001FFC00003FF800003FF000001FE031
:103F1000000180000003C0000003C0000003C000D7
:103F20000003C0000003C0000003C0000003C00085
:103F30000003C00000031FE000007FF800007FFCCA
:103F400000001FE0000300030003C00F0003C00FC8
:103F50000003C00F0003C00F0003C00F0003C00F19
:103F60000003C00F0003C00F0001800600001FE027
:103F700000003FF000003FF000001FE000000000E4
:103F80000007FFE00003FFC00001FF880000FF18EA
:103F90000000003800000078000000780000007881
:103FA0000000007800000078000000780000007831
:103FB0000000007800000018000000000000000071
:103FC00000000000000000180000007800000078E9
:103FD0000000007800000078000000780000007801
:103FE0000000007800000078000000780000003831
:103FF00000000018000000080000000000000000A1
:1040000000001FE000003FF000003FF000001FE054
:10401000000180060003C00F0003C00F0003C00FA3
:104020000003C00F0003C00F0003C00F0003C00F48
:104030000003C00F00031FE300007FF800007FFCB7
:1040400000001FE0000300030003C00F0003C00FC7
:104050000003C00F0003C00F0003C00F0003C00F18
:104060000003C00F0003C00F0001800600001FE026
:1040700000003FF000003FF000001FE000000000E3
:1040800000001FE000003FF000003FF000001FE0D4
:10409000000180060003C00F0003C00F0003C00F23
:1040A0000003C00F0003C00F0003C00F0003C00FC8
:1040B0000003C00F00031FE300007FF800007FFC37
:1040C00000001FE0000000030000000F0000000FD0
:1040D0000000000F0000000F0000000F0000000FA4
:1040E0000000000F0000000F0000000600001FE0AD
:1040F00000003FF000007FF00000FFE00000000043
:1041000000000000000000000000000000000000AF
:10411000000000000000000000000000000000009F
:10412000000000000000000000000000000000008F
:10413000000000000000000000000000000000007F
:10414000000000000000000000000000000000006F
:10415000000078000000780000007800000078007F
:10416000000078000000780000000000000000005F
:10417000000000000000000000000000000000003F
:10418000000000000000000000000000000000002F
:104190000000000000000000000000000000070018
:1041A00000000F8000000F8000000F80000007005B
:1041B00000000000000000000000000000000000FF
:1041C00000000000000000000000070000000F8059
:1041D00000000F8000000F800000070000000000BA
:1041E00000000000000000000000000000000000CF
:1041F00000000000000000000000000000000000BF
:104200000000000000000000000000000007C006E1
:10421000000FE0060000000C0030181800301818DD
:10422000003018300030183000301860003008C0FE
:104230000007C0C0000FE080000000000000000F79
:10424000E0000607C000063018000C3018000C30E3
:104250001800183018003030180030301800600096
:104260000000C00FE000C007C00000000000000018
:10427000000000000000000000000000000000003E
:10428000000000000000000000000000000000002E
:1042900000000000000700E0000887FC00088E0313
:1042A00000089801800718008000300000003000EE
:1042B000000070000000600000006000000060006E
:1042C000000060000000600000007000000030008E
:1042D00000003000000038000000180100000C034E
:1042E000000007FC000001F00000000000000000DA
:1042F00000000000000000000000000000000000BE
:1043000000000000000000000000000000000000AD
:10431000000000000000000000000000000000009D
:10432000000000000000000000000000000000008D
:10433000000000000000000000003FF000007FF0DF
:1043400000007FE00000FFC000000000000000004F
:10435000000000000000000000000000000000005D
:10436000000000000000000000000000000000004D
:104370000000000000000000000000000000C7B6C0
:104380000100210821083FF800202220223EFF42A0
:10439000229422103E10221022283E28224400821D
:1043A000C8EB04000200010001000100028002804D
:1043B000028004400440082008201010201040080B
:1043C0008006CABD0048004400440040FFFE004093
:1043D00000403E4008400840082008220F12780A9A
:1043E00020060002BFAA00007FFC08200820082049
:1043F00008200820FFFE08200820082008201020A0
:10440000102020204020B7A2010011101108220026
:104410003FFC0200040007F80A080908111010A068
:10442000204040A003181C06CDF800007FFC40048B
:104430004004421452944A54442444244A544A5452
:104440005294610440044014400800000000000041
:10445000000000000000000000000000000000005C
:10446000000000000000000000000000000000004C
:10447000000000000000000000000000000000003C
:10448000000000000000000000000000000000002C
:10449000000000000000000000000000000000001C
:1044A000000000000000000000000000000000000C
:1044B000000000000000000043EC7F3F0000803F50
:1044C00043EC7F3F0FB17F3F6D4E7F3F6DC47E3F1A
:1044D00024137E3FAC3A7D3F283B7C3FBE147B3F9C
:1044E0009DC7793FF853783F07BA763F0BFA743F80
:1044F0004714733F0809713F9ED86E3F5E836C3F3F
:10450000A7096A3FD86B673F59AA643F98C5613FC6
:1045100005BE5E3F1A945B3F5348583F31DB543F22
:104520003D4D513F029F4D3F12D1493F03E4453F6E
:1045300070D8413FF9AE3D3F4268393FF304353F03
:10454000BB85303F4AEB2B3F5636273F9967223FCA
:10455000D17F1D3FC07F183F2A68133FDA390E3FD5
:104560009BF5083F3D9C033F275DFC3EEA5AF13E28
:104570007533E63E80E8DA3ECA7BCF3E15EFC33E98
:104580002A44B83ED47CAC3EE59AA03E31A0943E8D
:10459000938E883ECCCF783E135C603EC2C5473ECA
:1045A000A2102F3E8340163E73B2FA3D36BDC83D81
:1045B00005A9963D30FB483DB00AC93C0BA88C24A8
:1045C000B00AC9BC30FB48BD05A996BD36BDC8BD03
:1045D00073B2FABD834016BEA2102FBEC2C547BE3D
:1045E000135C60BECCCF78BE938E88BE31A094BEE3
:1045F000E59AA0BED47CACBE2A44B8BE15EFC3BEBB
:10460000CA7BCFBE80E8DABE7533E6BEEA5AF1BE99
:10461000275DFCBE3D9C03BF9BF508BFDA390EBF8A
:104620002A6813BFC07F18BFD17F1DBF996722BF03
:10463000563627BF4AEB2BBFBB8530BFF30435BFCF
:10464000426839BFF9AE3DBF70D841BF03E445BFF2
:1046500012D149BF029F4DBF3D4D51BF31DB54BF09
:10466000534858BF1A945BBF05BE5EBF98C561BF73
:1046700059AA64BFD86B67BFA7096ABF5E836CBFC6
:104680009ED86EBF080971BF471473BF0BFA74BF81
:1046900007BA76BFF85378BF9DC779BFBE147BBFFA
:1046A000283B7CBFAC3A7DBF24137EBF6DC47EBF68
:1046B0006D4E7FBF0FB17FBF43EC7FBF000080BF57
:1046C00043EC7FBF0FB17FBF6D4E7FBF6DC47EBF18
:1046D00024137EBFAC3A7DBF283B7CBFBE147BBF9A
:1046E0009DC779BFF85378BF07BA76BF0BFA74BF7E
:1046F000471473BF080971BF9ED86EBF5E836CBF3D
:10470000A7096ABFD86B67BF59AA64BF98C561BFC4
:1047100005BE5EBF1A945BBF534858BF31DB54BF20
:104720003D4D51BF029F4DBF12D149BF03E445BF6C
:1047300070D841BFF9AE3DBF426839BFF30435BF01
:10474000BB8530BF4AEB2BBF563627BF996722BFC8
:10475000D17F1DBFC07F18BF2A6813BFDA390EBFD3
:104760009BF508BF3D9C03BF275DFCBEEA5AF1BE26
:104770007533E6BE80E8DABECA7BCFBE15EFC3BE96
:104780002A44B8BED47CACBEE59AA0BE31A094BE8B
:10479000938E88BECCCF78BE135C60BEC2C547BEC8
:1047A000A2102FBE834016BE73B2FABD36BDC8BD7F
:1047B00005A996BD30FB48BDB00AC9BC372354A536
:1047C000B00AC93C30FB483D05A9963D36BDC83D01
:1047D00073B2FA3D8340163EA2102F3EC2C5473E3B
:1047E000135C603ECCCF783E938E883E31A0943EE1
:1047F000E59AA03ED47CAC3E2A44B83E15EFC33EB9
:10480000CA7BCF3E80E8DA3E7533E63EEA5AF13E97
:10481000275DFC3E3D9C033F9BF5083FDA390E3F88
:104820002A68133FC07F183FD17F1D3F9967223F01
:104830005636273F4AEB2B3FBB85303FF304353FCD
:104840004268393FF9AE3D3F70D8413F03E4453FF0
:1048500012D1493F029F4D3F3D4D513F31DB543F07
:104860005348583F1A945B3F05BE5E3F98C5613F71
:1048700059AA643FD86B673FA7096A3F5E836C3FC4
:104880009ED86E3F0809713F4714733F0BFA743F7F
:1048900007BA763FF853783F9DC7793FBE147B3FF8
:1048A000283B7C3FAC3A7D3F24137E3F6DC47E3F66
:1048B0006D4E7F3F0FB17F3F43EC7F3F0000803F55
:1048C00043EC7F3F0FB17F3FB00AC9BC000000003E
:1048D000B00AC93C30FB483D05A9963D36BDC83DF0
:1048E00073B2FA3D8340163EA2102F3EC2C5473E2A
:1048F000135C603ECCCF783E938E883E31A0943ED0
:10490000E59AA03ED47CAC3E2A44B83E15EFC33EA7
:10491000CA7BCF3E80E8DA3E7533E63EEA5AF13E86
:10492000275DFC3E3D9C033F9BF5083FDA390E3F77
:104930002A68133FC07F183FD17F1D3F9967223FF0
:104940005636273F4AEB2B3FBB85303FF304353FBC
:104950004268393FF9AE3D3F70D8413F03E4453FDF
:1049600012D1493F029F4D3F3D4D513F31DB543FF6
:104970005348583F1A945B3F05BE5E3F98C5613F60
:1049800059AA643FD86B673FA7096A3F5E836C3FB3
:104990009ED86E3F0809713F4714733F0BFA743F6E
:1049A00007BA763FF853783F9DC7793FBE147B3FE7
:1049B000283B7C3FAC3A7D3F24137E3F6DC47E3F55
:1049C0006D4E7F3F0FB17F3F43EC7F3F0000803F44
:1049D00043EC7F3F0FB17F3F6D4E7F3F6DC47E3F05
:1049E00024137E3FAC3A7D3F283B7C3FBE147B3F87
:1049F0009DC7793FF853783F07BA763F0BFA743F6B
:104A00004714733F0809713F9ED86E3F5E836C3F29
:104A1000A7096A3FD86B673F59AA643F98C5613FB1
:104A200005BE5E3F1A945B3F5348583F31DB543F0D
:104A30003D4D513F029F4D3F12D1493F03E4453F59
:104A400070D8413FF9AE3D3F4268393FF304353FEE
:104A5000BB85303F4AEB2B3F5636273F9967223FB5
:104A6000D17F1D3FC07F183F2A68133FDA390E3FC0
:104A70009BF5083F3D9C033F275DFC3EEA5AF13E13
:104A80007533E63E80E8DA3ECA7BCF3E15EFC33E83
:104A90002A44B83ED47CAC3EE59AA03E31A0943E78
:104AA000938E883ECCCF783E135C603EC2C5473EB5
:104AB000A2102F3E8340163E73B2FA3D36BDC83D6C
:104AC00005A9963D30FB483DB00AC93C0BA80C2512
:104AD000B00AC9BC30FB48BD05A996BD36BDC8BDEE
:104AE00073B2FABD834016BEA2102FBEC2C547BE28
:104AF000135C60BECCCF78BE938E88BE31A094BECE
:104B0000E59AA0BED47CACBE2A44B8BE15EFC3BEA5
:104B1000CA7BCFBE80E8DABE7533E6BEEA5AF1BE84
:104B2000275DFCBE3D9C03BF9BF508BFDA390EBF75
:104B30002A6813BFC07F18BFD17F1DBF996722BFEE
:104B4000563627BF4AEB2BBFBB8530BFF30435BFBA
:104B5000426839BFF9AE3DBF70D841BF03E445BFDD
:104B600012D149BF029F4DBF3D4D51BF31DB54BFF4
:104B7000534858BF1A945BBF05BE5EBF98C561BF5E
:104B800059AA64BFD86B67BFA7096ABF5E836CBFB1
:104B90009ED86EBF080971BF471473BF0BFA74BF6C
:104BA00007BA76BFF85378BF9DC779BFBE147BBFE5
:104BB000283B7CBFAC3A7DBF24137EBF6DC47EBF53
:104BC0006D4E7FBF0FB17FBF43EC7FBF000080BF42
:104BD00043EC7FBF0FB17FBF6D4E7FBF6DC47EBF03
:104BE00024137EBFAC3A7DBF283B7CBFBE147BBF85
:104BF0009DC779BFF85378BF07BA76BF0BFA74BF69
:104C0000471473BF080971BF9ED86EBF5E836CBF27
:104C1000A7096ABFD86B67BF59AA64BF98C561BFAF
:104C200005BE5EBF1A945BBF534858BF31DB54BF0B
:104C30003D4D51BF029F4DBF12D149BF03E445BF57
:104C400070D841BFF9AE3DBF426839BFF30435BFEC
:104C5000BB8530BF4AEB2BBF563627BF996722BFB3
:104C6000D17F1DBFC07F18BF2A6813BFDA390EBFBE
:104C70009BF508BF3D9C03BF275DFCBEEA5AF1BE11
:104C80007533E6BE80E8DABECA7BCFBE15EFC3BE81
:104C90002A44B8BED47CACBEE59AA0BE31A094BE76
:104CA000938E88BECCCF78BE135C60BEC2C547BEB3
:104CB000A2102FBE834016BE73B2FABD36BDC8BD6A
:104CC00005A996BD30FB48BDB00AC9BC9E3B8DA569
:104CD000B00AC93C00040002000600010005000300
:104CE0000007800080048002800680018005800328
:104CF0008007400040044002400640014005400358
:104D00004007C000C004C002C006C001C005C00307
:104D1000C0072000200420022006200120052003D7
:104D20002007A000A004A002A006A001A005A003E7
:104D3000A007600060046002600660016005600317
:104D40006007E000E004E002E006E001E005E003C7
:104D5000E0071000100410021006100110051003E7
:104D60001007900090049002900690019005900327
:104D70009007500050045002500650015005500357
:104D80005007D000D004D002D006D001D005D00307
:104D9000D0073000300430023006300130053003D7
:104DA0003007B000B004B002B006B001B005B003E7
:104DB000B007700070047002700670017005700317
:104DC0007007F000F004F002F006F001F005F003C7
:104DD000F00708000804080208060801080508038F
:104DE00008078800880488028806880188058803E7
:104DF0008807480048044802480648014805480317
:104E00004807C800C804C802C806C801C805C803C6
:104E1000C807280028042802280628012805280396
:104E20002807A800A804A802A806A801A805A803A6
:104E3000A8076800680468026806680168056803D6
:104E40006807E800E804E802E806E801E805E80386
:104E5000E8071800180418021806180118051803A6
:104E600018079800980498029806980198059803E6
:104E70009807580058045802580658015805580316
:104E80005807D800D804D802D806D801D805D803C6
:104E9000D807380038043802380638013805380396
:104EA0003807B800B804B802B806B801B805B803A6
:104EB000B8077800780478027806780178057803D6
:104EC0007807F800F804F802F806F801F805F80386
:104ED000F8070400040404020406040104050403A2
:104EE0000407840084048402840684018405840306
:104EF0008407440044044402440644014405440336
:104F00004407C400C404C402C406C401C405C403E5
:104F1000C4072400240424022406240124052403B5
:104F20002407A400A404A402A406A401A405A403C5
:104F3000A4076400640464026406640164056403F5
:104F40006407E400E404E402E406E401E405E403A5
:104F5000E4071400140414021406140114051403C5
:104F60001407940094049402940694019405940305
:104F70009407540054045402540654015405540335
:104F80005407D400D404D402D406D401D405D403E5
:104F9000D4073400340434023406340134053403B5
:104FA0003407B400B404B402B406B401B405B403C5
:104FB000B4077400740474027406740174057403F5
:104FC0007407F400F404F402F406F401F405F403A5
:104FD000F4070C000C040C020C060C010C050C036D
:104FE0000C078C008C048C028C068C018C058C03C5
:104FF0008C074C004C044C024C064C014C054C03F5
:105000004C07CC00CC04CC02CC06CC01CC05CC03A4
:10501000CC072C002C042C022C062C012C052C0374
:105020002C07AC00AC04AC02AC06AC01AC05AC0384
:10503000AC076C006C046C026C066C016C056C03B4
:105040006C07EC00EC04EC02EC06EC01EC05EC0364
:10505000EC071C001C041C021C061C011C051C0384
:105060001C079C009C049C029C069C019C059C03C4
:105070009C075C005C045C025C065C015C055C03F4
:105080005C07DC00DC04DC02DC06DC01DC05DC03A4
:10509000DC073C003C043C023C063C013C053C0374
:1050A0003C07BC00BC04BC02BC06BC01BC05BC0384
:1050B000BC077C007C047C027C067C017C057C03B4
:1050C0007C07FC00FC04FC02FC06FC01FC05FC0364
:1050D000FC070200020402020206020102050203AA
:1050E0000207820082048202820682018205820314
:1050F0008207420042044202420642014205420344
:105100004207C200C204C202C206C201C205C203F3
:10511000C2072200220422022206220122052203C3
:105120002207A200A204A202A206A201A205A203D3
:10513000A207620062046202620662016205620303
:105140006207E200E204E202E206E201E205E203B3
:10515000E2071200120412021206120112051203D3
:105160001207920092049202920692019205920313
:105170009207520052045202520652015205520343
:105180005207D200D204D202D206D201D205D203F3
:10519000D2073200320432023206320132053203C3
:1051A0003207B200B204B202B206B201B205B203D3
:1051B000B207720072047202720672017205720303
:1051C0007207F200F204F202F206F201F205F203B3
:1051D000F2070A000A040A020A060A010A050A037B
:1051E0000A078A008A048A028A068A018A058A03D3
:1051F0008A074A004A044A024A064A014A054A0303
:105200004A07CA00CA04CA02CA06CA01CA05CA03B2
:10521000CA072A002A042A022A062A012A052A0382
:105220002A07AA00AA04AA02AA06AA01AA05AA0392
:10523000AA076A006A046A026A066A016A056A03C2
:105240006A07EA00EA04EA02EA06EA01EA05EA0372
:10525000EA071A001A041A021A061A011A051A0392
:105260001A079A009A049A029A069A019A059A03D2
:105270009A075A005A045A025A065A015A055A0302
:105280005A07DA00DA04DA02DA06DA01DA05DA03B2
:10529000DA073A003A043A023A063A013A053A0382
:1052A0003A07BA00BA04BA02BA06BA01BA05BA0392
:1052B000BA077A007A047A027A067A017A057A03C2
:1052C0007A07FA00FA04FA02FA06FA01FA05FA0372
:1052D000FA0706000604060206060601060506038E
:1052E00006078600860486028606860186058603F2
:1052F0008607460046044602460646014605460322
:105300004607C600C604C602C606C601C605C603D1
:10531000C6072600260426022606260126052603A1
:105320002607A600A604A602A606A601A605A603B1
:10533000A6076600660466026606660166056603E1
:105340006607E600E604E602E606E601E605E60391
:10535000E6071600160416021606160116051603B1
:1053600016079600960496029606960196059603F1
:105370009607560056045602560656015605560321
:105380005607D600D604D602D606D601D605D603D1
:10539000D6073600360436023606360136053603A1
:1053A0003607B600B604B602B606B601B605B603B1
:1053B000B6077600760476027606760176057603E1
:1053C0007607F600F604F602F606F601F605F60391
:1053D000F6070E000E040E020E060E010E050E0359
:1053E0000E078E008E048E028E068E018E058E03B1
:1053F0008E074E004E044E024E064E014E054E03E1
:105400004E07CE00CE04CE02CE06CE01CE05CE0390
:10541000CE072E002E042E022E062E012E052E0360
:105420002E07AE00AE04AE02AE06AE01AE05AE0370
:10543000AE076E006E046E026E066E016E056E03A0
:105440006E07EE00EE04EE02EE06EE01EE05EE0350
:10545000EE071E001E041E021E061E011E051E0370
:105460001E079E009E049E029E069E019E059E03B0
:105470009E075E005E045E025E065E015E055E03E0
:105480005E07DE00DE04DE02DE06DE01DE05DE0390
:10549000DE073E003E043E023E063E013E053E0360
:1054A0003E07BE00BE04BE02BE06BE01BE05BE0370
:1054B000BE077E007E047E027E067E017E057E03A0
:1054C0007E07FE00FE04FE02FE06FE01FE05FE0350
:1054D000FE0701000000803F00000000ECFF7F3F5E
:1054E000D40FC93AB1FF7F3FC70F493B4EFF7F3F03
:1054F000C1CB963BC4FE7F3F890FC93B13FE7F3F64
:105500003053FB3B39FD7F3F59CB163C39FC7F3F85
:1055100002ED2F3C11FB7F3F900E493CC1F97F3FCC
:105520000030623C4AF87F3F4B517B3CACF67F3FFA
:1055300038398A3CE6F47F3FB6C9963CF8F27F3FA3
:105540001C5AA33CE3F07F3F69EAAF3CA7EE7F3FE4
:105550009B7ABC3C43EC7F3FB00AC93CB8E97F3F33
:10556000A69AD53C05E77F3F7B2AE23C2BE47F3FB0
:105570002DBAEE3C29E17F3FB949FB3C00DE7F3F7D
:1055800090EC033DAFDA7F3F2F340A3D37D77F3FA2
:10559000B87B103D98D37F3F2CC3163DD1CF7F3FC2
:1055A000880A1D3DE2CB7F3FCC51233DCCC77F3FD6
:1055B000F698293D8FC37F3F07E02F3D2ABF7F3FED
:1055C000FC26363D9EBA7F3FD56D3C3DEAB57F3F18
:1055D00091B4423D0FB17F3F2FFB483D0DAC7F3F63
:1055E000AF414F3DE3A67F3F0E88553D91A17F3FE0
:1055F0004CCE5B3D189C7F3F6814623D78967F3FA0
:10560000625A683DB1907F3F38A06E3DC28A7F3FAD
:10561000E9E5743DAB847F3F742B7B3D6D7E7F3F1E
:105620006CB8803D08787F3F0ADB833D7B717F3F0C
:1056300094FD863DC76A7F3F0A208A3DEC637F3F29
:105640006A428D3DE95C7F3FB464903DBF557F3F2A
:10565000E786933D6D4E7F3F05A9963DF4467F3F1B
:105660000ACB993D543F7F3FF9EC9C3D8D377F3FFE
:10567000CF0EA03D9D2F7F3F8C30A33D87277F3FDE
:105680003052A63D491F7F3FBA73A93DE4167F3FC4
:105690002B95AC3D580E7F3F80B6AF3DA4057F3FB4
:1056A000BBD7B23DC9FC7E3FDAF8B53DC7F37E3FBC
:1056B000DD19B93D9DEA7E3FC33ABC3D4CE17E3FDA
:1056C0008D5BBF3DD4D77E3F397CC23D34CE7E3F1B
:1056D000C69CC53D6DC47E3F36BDC83D7FBA7E3F8A
:1056E00086DDCB3D69B07E3FB7FDCE3D2DA67E3F2A
:1056F000C81DD23DC99B7E3FB93DD53D3D917E3F02
:10570000895DD83D8B867E3F377DDB3DB17B7E3F1B
:10571000C49CDE3DB0707E3F2EBCE13D88657E3F7F
:1057200076DBE43D385A7E3F9AFAE73DC14E7E3F34
:105730009A19EB3D23437E3F7638EE3D5E377E3F40
:105740002E57F13D722B7E3FC075F43D5E1F7E3FAC
:105750002C94F73D24137E3F73B2FA3DC2067E3F80
:1057600092D0FD3D38FA7D3F4577003E88ED7D3F84
:105770002E06023EB1E07D3F0295033EB2D37D3F4F
:10578000C223053E8CC67D3F6EB2063E40B97D3FCA
:105790000541083ECCAB7D3F86CF093E309E7D3F24
:1057A000F35D0B3E6E907D3F4AEC0C3E85827D3F63
:1057B0008B7A0E3E74747D3FB708103E3D667D3F88
:1057C000CC96113EDE577D3FCA24133E59497D3F9A
:1057D000B2B2143EAC3A7D3F8340163ED82B7D3F9B
:1057E0003DCE173EDD1C7D3FE05B193EBC0D7D3F8D
:1057F0006BE91A3E73FE7C3FDE761C3E03EF7C3F76
:1058000038041E3E6CDF7C3F7B911F3EAECF7C3F59
:10581000A51E213EC9BF7C3FB6AB223EBDAF7C3F3B
:10582000AD38243E8A9F7C3F8CC5253E318F7C3F1E
:105830005152273EB07E7C3FFCDE283E086E7C3F06
:105840008D6B2A3E3A5D7C3F04F82B3E444C7C3FF6
:1058500061842D3E283B7C3FA2102F3EE5297C3FF2
:10586000C99C303E7A187C3FD428323EE9067C3F02
:10587000C4B4333E31F57B3F9840353E53E37B3F24
:1058800050CC363E4DD17B3FEC57383E20BF7B3F5E
:105890006CE3393ECDAC7B3FCF6E3B3E539A7B3FB2
:1058A00015FA3C3EB2877B3F3E853E3EEA747B3F25
:1058B0004910403EFC617B3F379B413EE74E7B3FBA
:1058C0000726433EAB3B7B3FB9B0443E48287B3F75
:1058D0004D3B463EBE147B3FC2C5473E0E017B3F5B
:1058E0001850493E37ED7A3F4FDA4A3E3AD97A3F6F
:1058F00067644C3E16C57A3F60EE4D3ECBB07A3FB2
:1059000038784F3E599C7A3FF101513EC1877A3F2A
:10591000898B523E02737A3F0115543E1C5E7A3FDA
:10592000589E553E10497A3F8F27573EDD337A3FC8
:10593000A4B0583E841E7A3F97395A3E04097A3FF4
:105940006AC25B3E5EF3793F1A4B5D3E91DD793F63
:10595000A8D35E3E9DC7793F135C603E83B1793F1B
:105960005CE4613E439B793F836C633EDC84793F1A
:1059700086F4643E4E6E793F667C663E9A57793F68
:105980002204683EC040793FBA8B693EBF29793F07
:105990002F136B3E9812793F7F9A6C3E4AFB783FFB
:1059A000AB216E3ED6E3783FB2A86F3E3BCC783F4A
:1059B000942F713E7BB4783F51B6723E939C783FF2
:1059C000E83C743E8684783F5AC3753E526C783FFB
:1059D000A649773EF853783FCCCF783E773B783F67
:1059E000CB557A3ED122783FA4DB7B3E040A783F38
:1059F00056617D3E10F1773FE1E67E3EF7D7773F77
:105A00002236803EB7BE773FC0F8803E51A5773F33
:105A10004ABB813EC58B773FC07D823E1372773F84
:105A20002240833E3A58773F7002843E3C3E773FA7
:105A3000AAC4843E1724773FCE86853ECC09773FA3
:105A4000DF48863E5BEF763FDA0A873EC4D4763F76
:105A5000C1CC873E07BA763F938E883E249F763F1F
:105A60005050893E1B84763FF8118A3EEC68763FA1
:105A70008AD38A3E974D763F07958B3E1B32763F01
:105A80006E568C3E7A16763FC0178D3EB3FA753F40
:105A9000FCD88D3EC6DE753F229A8E3EB3C2753F5E
:105AA000325B8F3E7BA6753F2C1C903E1C8A753F57
:105AB00010DD903E976D753FDD9D913EED50753F39
:105AC000945E923E1D34753F351F933E2717753FF8
:105AD000BFDF933E0BFA743F31A0943EC9DC743FA4
