:020000040800F2
:10000000180500209D010008430A00084D0500085E
:10001000B5090008110200084F1700080000000091
:100020000000000000000000000000009D13000818
:100030001502000800000000DD0A0008B5140008E1
:10004000B7010008B7010008B7010008F91100085E
:10005000B7010008B7010008B7010008B7010008A0
:10006000B7010008B7010008B7010008B701000890
:10007000B7010008B7010008B7010008B701000880
:10008000B7010008B7010008B7010008B701000870
:10009000B7010008B7010008B7010008B701000860
:1000A000B7010008B7010008B7010008B701000850
:1000B000B7010008B7010008B7010008B701000840
:1000C000B7010008B7010008B7010008B701000830
:1000D000B701000821150008B7010008B7010008A2
:1000E000B7010008DD0C0008B7010008B7010008DF
:1000F000B7010008B7010008B7010008B701000800
:10010000B7010008B7010008B7010008B7010008EF
:10011000B7010008B7010008B7010008B7010008DF
:10012000B7010008B7010008B7010008B7010008CF
:10013000B7010008B7010008B7010008B7010008BF
:10014000B7010008B7010008B7010008B7010008AF
:10015000B7010008B7010008B7010008B70100089F
:10016000B7010008B7010008B7010008B70100088F
:10017000B7010008B7010008B7010008B70100087F
:10018000B7010008B7010008DFF80CD000F02EF826
:1001900000480047E51B0008180500200648804776
:1001A00006480047FEE7FEE7FEE7FEE7FEE7FEE75C
:1001B000FEE7FEE7FEE7FEE7B91400088901000844
:1001C00030B50B46014600202022012409E021FA27
:1001D00002F59D4205D303FA02F5491B04FA02F524
:1001E0002844151EA2F10102F1DC30BD064C074D7A
:1001F00006E0E06840F0010394E8070098471034F7
:10020000AC42F6D3FFF7C4FFF82C0008182D000805
:1002100000BFFEE77047000001490860704700001A
:10022000143C0140002123498279002A3AD00A4631
:10023000126803689A430B461A600A1D1268036825
:100240009A430B1D1A60027911440A6803681A4325
:100250000A60184A0832126803689A43154B08333B
:100260001A601A1D126803689A43124B0C331A6005
:100270004279102A0ED11A1F126803681A430D4BD7
:1002800008331A601A1D126803681A43094B0C33AD
:100290001A600DE00749427911440A6803681A435D
:1002A0000A6005E0027911440A6803689A430A600B
:1002B00070470000003C0140F0B50A4600210023D1
:1002C000002400BF3DE0012505FA01F3156805EAA9
:1002D00003049C4234D105684F000326BE40B54359
:1002E000056015794E00B5400668354305601579FF
:1002F000012D02D01579022D16D185684F000326F5
:10030000BE40B543856055794E00B540866835439B
:100310008560456801268E40B543456045689679FD
:100320008E40B6B235434560C5684F000326BE40D7
:10033000B543C560D5794E00B540C6683543C56044
:10034000491C1029BFD3F0BDF0B5002300244D0790
:10035000ED0E02FA05F3CE1000F1200555F82650F7
:100360004E07F70E0F26BE40B543CF1000F1200612
:1003700046F82750CE1000F1200555F8265045EAE2
:100380000304CE1000F1200545F82640F0BD41835E
:1003900070470183704700002DE9F84F07468846F3
:1003A00093469A46DDF828900097B3E099F800004C
:1003B00080283DDA99F800600D2E05D1009F08F1E4
:1003C00010001FFA80F830E0202E03DDA6F1200097
:1003D00086B200E00026002422E000251CE004EBA9
:1003E00006105049085C80212941084040B108EBC3
:1003F000040291B27A1990B25A4600F097F809E0D7
:10040000D34507D008EB040291B27A1990B2524654
:1004100000F08CF8681CC5B2082DE0DB601CC4B28B
:10042000102CDADB07F1080087B209F1010971E04D
:10043000002668E006EB06103B4911F8100099F819
:10044000001088425DD106EB0610374901EB4000F1
:10045000407899F80110884253D100244FE00025DC
:1004600020E006EB0610304901EB4000801C10F83C
:10047000141080202841014041B108EB040291B2E0
:100480007A1990B25A4600F051F809E0D34507D0E6
:1004900008EB040291B27A1990B2524600F046F885
:1004A000681CC5B2082DDCDB002524E006EB061035
:1004B0001D4901EB4000801C012101EB4401405C1F
:1004C00080212941084048B108EB040291B27A1911
:1004D000083290B25A4600F029F80AE0D34508D015
:1004E00008EB040291B27A19083290B2524600F039
:1004F0001DF8681CC5B2082DD8DB601CC4B2102CD6
:10050000ADDB701C86B2062E94DB09F1020907F1FF
:10051000100087B299F8000000287FF447AFBDE8CB
:10052000F88F00004C1E0008BE2B000870B5044672
:100530000D461646681C83B2601C82B229462046CE
:1005400000F0DAF9304600F043F870BD00BFFEE776
:100550001CB50121062000F0C3FA4FF47040009052
:1005600001208DF8040000208DF8060003208DF88E
:10057000050001208DF8070069461348FFF79CFE2F
:10058000C020009001208DF8040000208DF80600A6
:1005900003208DF8050001208DF8070069460B48FF
:1005A000FFF78AFE4FF480410748FFF7F2FE8021F3
:1005B0000648FFF7EEFE80210448FFF7E8FE8021A1
:1005C0000248FFF7E6FE1CBD00040240000802409E
:1005D00010B504464FF480510948FFF7D8FE40217A
:1005E0000848FFF7D6FE201200F0B2FEE0B200F09D
:1005F000AFFE4FF480510248FFF7CBFE10BD000064
:1006000000040240000802401CB50121092000F04E
:1006100067FA4FF48070009001208DF804000020EC
:100620008DF8060003208DF8050001208DF80700E5
:1006300069460F48FFF740FE0420009001208DF826
:10064000040000208DF8060003208DF8050001202D
:100650008DF8070069460748FFF72EFE4FF48071BA
:100660000348FFF796FE04210248FFF792FE1CBDE7
:1006700000000240000C024070B506467F231A4677
:100680000021084600F038F92C2000F07BF9002406
:1006900008E0002503E03046FFF79AFF6D1C802D2F
:1006A000F9D3641C802CF4D370BD10B5FFF750FF54
:1006B00000F00CF9112000F065F9782001F042FA01
:1006C000B12000F05FF9012000F044F92C2000F087
:1006D00041F92D2000F03EF9B22000F053F901203D
:1006E00000F038F92C2000F035F92D2000F032F917
:1006F000B32000F047F9012000F02CF92C2000F085
:1007000029F92D2000F026F9012000F023F92C20F2
:1007100000F020F92D2000F01DF9B42000F032F98E
:10072000072000F017F9C02000F02CF9A22000F0FB
:1007300011F9022000F00EF9842000F00BF9C1201D
:1007400000F020F9C52000F005F9C22000F01AF9E8
:100750000A2000F0FFF8002000F0FCF8C32000F0B1
:1007600011F98A2000F0F6F82A2000F0F3F8C420EE
:1007700000F008F98A2000F0EDF8EE2000F0EAF829
:10078000C52000F0FFF80E2000F0E4F8362000F05D
:10079000F9F8C82000F0DEF8E02000F0F3F80F20B0
:1007A00000F0D8F81A2000F0D5F80F2000F0D2F8A9
:1007B000182000F0CFF82F2000F0CCF8282000F00F
:1007C000C9F8202000F0C6F8222000F0C3F81F204E
:1007D00000F0C0F81B2000F0BDF8232000F0BAF8AC
:1007E000372000F0B7F8002000F0B4F8072000F040
:1007F000B1F8022000F0AEF8102000F0ABF8E120D4
:1008000000F0C0F80F2000F0A5F81B2000F0A2F8BF
:100810000F2000F09FF8172000F09CF8332000F024
:1008200099F82C2000F096F8292000F093F82E205B
:1008300000F090F8302000F08DF8302000F08AF8B9
:10084000392000F087F83F2000F084F8002000F005
:1008500081F8072000F07EF8032000F07BF81020DC
:1008600000F078F82A2000F08DF8002000F072F8EF
:10087000002000F06FF8002000F06CF87F2000F0FE
:1008800069F82B2000F07EF8002000F063F80020CB
:1008900000F060F8002000F05DF89F2000F05AF8AA
:1008A000F02000F06FF8012000F054F8F62000F07E
:1008B00069F8002000F04EF83A2000F063F80520B7
:1008C00000F048F8292000F05DF810BD10B54FF495
:1008D00080410848FFF75BFD4FF4967001F032F954
:1008E0004FF480410348FFF754FD642001F02AF9DA
:1008F00010BD0000000402402DE9F04104460D4601
:1009000016461F462A2000F03DF8002000F022F88D
:10091000A11CC8B200F01EF8002000F01BF8B11CAA
:10092000C8B200F017F82B2000F02CF8002000F0DF
:1009300011F8E91CC8B200F00DF8002000F00AF828
:10094000F91CC8B200F006F82C2000F01BF8BDE836
:10095000F081000010B504464FF480510748FFF7BE
:1009600016FD40210648FFF714FD204600F0F0FC7C
:100970004FF480510148FFF70CFD10BD0004024008
:100980000008024010B504464FF480510748FFF7B5
:10099000FEFC40210648FFF7FAFC204600F0D8FC98
:1009A0004FF480510148FFF7F4FC10BD00040240F1
:1009B0000008024000BFFEE73EB541F6FF7401218A
:1009C000080700F09DF8012000F082F8002000F0F8
:1009D000CDFA45F25001884231D0012000F044F9AF
:1009E00004E0601C84B20A2001F0ACF8412000F061
:1009F0001BF90028F5D00CB901203EBD4FF48070E2
:100A000000F04EF9012000F045F97F200190FF2011
:100A1000029000200090684600F076FA0023382209
:100A20003B21172000F09EFB0623052211460E20D5
:100A300000F086FB45F25001002000F07BFC002016
:100A4000DBE7704770B5002100230F22C4781CB388
:100A5000174C246804F4E064C4F5E064C4F307218F
:100A6000C1F10404E3B20A4144789C40E1B28478C5
:100A7000144021430C07210E0E4C05786155047873
:100A800004F01F050124AC4005786D11AD0005F19F
:100A9000E025C5F8004109E0047804F01F050124B1
:100AA000AC40054D0678761145F8264070BD000033
:100AB0000CED00E000E400E080E100E002490143C9
:100AC000024A1160704700000000FA050CED00E0DA
:100AD000014908627047000000000E4270470000A4
:100AE00029B1064A12680243044B1A6004E0034A23
:100AF00012688243014B1A60704700003038024090
:100B000029B1064A12680243044B1A6004E0034A02
:100B100012688243014B1A6070470000403802405F
:100B200029B1064A12680243044B1A6004E0034AE2
:100B300012688243014B1A6070470000443802403B
:100B4000F0B5002100220024022500260223324FA6
:100B50003F6807F00C0121B1042905D0082937D1DD
:100B600005E02E4F076036E02D4F076033E02A4F37
:100B70003F1F3F68C7F38056274F3F1F3F6807F06E
:100B80003F036EB1264FB7FBF3F7DFF88CC0ACF133
:100B9000040CDCF800C0CCF3881C07FB0CF40CE060
:100BA0001E4FB7FBF3F7DFF870C0ACF1040CDCF8B4
:100BB00000C0CCF3881C07FB0CF4174F3F1F3F68A5
:100BC000C7F301477F1C7D00B4FBF5F7076002E027
:100BD000124F076000BF00BF0F4F3F6807F0F001E2
:100BE0000909104F7A5C0768D74047600A4F3F6891
:100BF00007F4E051890A0B4F7A5C4768D740876059
:100C0000054F3F6807F46041490B064F7A5C47681F
:100C1000D740C760F0BD0000083802400024F4004F
:100C200000127A001200002010B5014600220023B5
:100C300000204A11012A02D10A4C236808E0022A46
:100C400003D1084C7034236802E0064C74342368E6
:100C500001F01F02012494401C400CB1012000E06F
:100C6000002010BD003802400021094A11701170A7
:100C7000012802D0042808D103E00121044A1170A0
:100C800004E00521024A117000E000BF00BF704778
:100C90007038024001490860704700003C0E47422E
:100CA000002100F44072B2F5407F08D1094A116872
:100CB00021F4F811084A02401143064A1160054A1E
:100CC00068321268C0F30B031A43024B68331A6090
:100CD0007047000008380240FFFCFF0F10B54FF4CA
:100CE000807000F0A3F8012805D1000200F028F878
:100CF00003A000F02FFD4FF40030FFF78DFA10BD78
:100D0000414C41524D2041210D0A0000014600BFD7
:100D1000080900EB8000420001F00F001044C0B24F
:100D200070470146002204E0501CC2B2A1F10A0043
:100D3000C1B20A29F8DA100741EA106070470000D2
:100D400081B241F08001044A126802F0800262EA36
:100D50000101014A116070470C280040002101097F
:100D60008AB242F08002044B1B6803F0800363EAFE
:100D70000202014B1A6070470C28004008B500229F
:100D8000009200200021104A126802F04002CAB905
:100D9000421E0D4B1A6000BF0B4A126802F0400160
:100DA000009A521C0092009AB2F5803F01D00029AF
:100DB000F2D0054A126802F040020AB1012002E0B6
:100DC000002000E0012008BD0C2800400348006816
:100DD00020F0800001490860704700000C280040A6
:100DE00070B506460C4600250E4800680E4900EA1C
:100DF0000105280CE070C5F30420607005F03F0089
:100E0000A070C5F3423020705EB9E078FFF77EFF36
:100E1000E0706078FFF77AFF6070A078FFF776FFE8
:100E2000A07070BD042800403FFFFF0010B50146D0
:100E300000200022054B1B68054C03EA040202EA6D
:100E400001030BB1012000E0002010BD0C28004080
:100E50007F3F010070B506460C4600250F4800682C
:100E60000F4900EA0105C5F305402070C5F30620CF
:100E7000607005F07F00A07005F48000000CE07049
:100E80005EB92078FFF742FF20706078FFF73EFFE1
:100E90006070A078FFF73AFFA07070BD0028004096
:100EA0007F7F7F00CA22174B1A6053221A6091B1CC
:100EB000144A1C3A126820F004031A43114B1C3BDD
:100EC0001A60104A1C32126800F004031A430D4BDA
:100ED0001C331A6011E00B4A1C3A126820F004031C
:100EE0009A43084B1C3B1A60064A1C32126800F0F9
:100EF00004039A43034B1C331A60FF22014B1A6010
:100F0000704700002428004030B504460025CA2060
:100F10001549086053200860FFF730FF00B91DE055
:100F200011481C38006820F040000F491C39086047
:100F300008460068216808430B491C3908600A49C3
:100F40001439A068086008460068A18840EA01409A
:100F5000054914390860FFF739FF0125FF200249D0
:100F60000860284630BD00002428004008B501462E
:100F70000020009004480090009800EB8100009051
:100F80000098006808BD0000502800402DE9F0419D
:100F900005460C46002600274DB9607800F0100089
:100FA000102804D1607820F010000A30607005B974
:100FB00008E06078FFF7AAFE0646A078FFF7A6FED5
:100FC000064600BF55B1E0780004617840EA012090
:100FD000A1780843217840EA413611E0E078FFF734
:100FE000A0FE4FEA00486078FFF79BFE48EA002821
:100FF000A078FFF796FE48EA0008207848EA4036D5
:10100000CA201249086053200860FFF7B7FE08B9EC
:10101000002714E00E4830400C4920390860FFF7E3
:10102000D5FE0A481C38006800F0200030B900F0F6
:10103000FDF808B9002702E0012700E00127FF20A2
:10104000024908603846BDE8F081000024280040CD
:101050003FFFFF002DE9F04105460C460026002722
:101060004DB92E48006800F0400000B102E00020B9
:10107000E07000BF0DE02948006800F0400020B19A
:101080002078FFF743FE064602E00020E07000BF34
:1010900000BF55B120780004617840EA0120A178B2
:1010A0000843E17840EA014611E02078FFF739FE75
:1010B0004FEA00486078FFF734FE48EA0028A0783D
:1010C000FFF72FFE48EA0008E07848EA0046CA2009
:1010D00012491C31086053200860FFF74FFE08B921
:1010E000002713E00E4830400C4908390860FFF72C
:1010F0006DFE0A48006800F0200030B900F096F854
:1011000008B9002702E0012700E00127FF2003497A
:101110001C3108603846BDE8F08100000828004016
:101120007F7F7F00CA21054A116053211160034966
:1011300010390860FF21116070470000242800402A
:10114000F8B504460D4617461E468DF802708DF818
:1011500001508DF800608DF8034069460020FFF7CC
:1011600015FFF8BDF8B504460D4617461E468DF826
:1011700000408DF801508DF802708DF803606946CB
:101180000020FFF767FFF8BD7CB505460C46002040
:1011900000F094F8284600F079F82046FFF7C2FFE7
:1011A0004FF48040FFF7DAFD4FF48000FFF734F88A
:1011B00001218803FFF776FE012000F07FF84FF44D
:1011C0008000009000208DF8040008208DF80500B4
:1011D00001208DF806006846FFF724F80320054932
:1011E00008700220487088700120C8700846FFF718
:1011F00029FC7CBD0100002010B54FF48060FFF792
:1012000015FE01280AD18002FFF79AFD0648006802
:1012100008B9012000E00020034908604FF4800075
:10122000FEF7FAFF10BD0000A002404208B5002200
:10123000009200200021CA22134B1A6053221A6028
:10124000114A183A126822F0A0020F4B183B1A609C
:1012500000BF0D4A183A126802F02001009A521C91
:101260000092009AB2F5003F01D00029F1D0064A61
:10127000183A126802F020020AB1012000E00020B2
:10128000FF22014B1A6008BD24280040CA210A4AE7
:1012900011605321116008491C39096821F00701C8
:1012A000054A1C3A11601146096801431160FF218B
:1012B000014A1160704700002428004018B501461B
:1012C0000023009300220020CA23194C23605323DB
:1012D000236049B1164B1C3B1B6843F48063144CDC
:1012E0001C3C236001201FE0114B1C3B1B6823F4B6
:1012F00080630F4C1C3C236000BF0D4B183B1B68E8
:1013000003F00402009B5B1C0093009BB3F5803F3D
:1013100001D0002AF1D0064B183B1B6803F00403F0
:101320000BB9002000E00120FF23014C236018BD11
:101330002428004008B500220092044A0092009A36
:1013400002EB80020092009A116008BD5028004014
:1013500070B50446002508251BE004F0800028B184
:101360004FF400410C48FFF714F804E04FF400413B
:101370000948FFF70CF84FF400510748FFF707F84A
:101380004FF400510448FFF704F86006040E681E8D
:10139000C5B2002DE1DC70BD0004024070470000C2
:1013A0000CB50020019000903448006840F4803073
:1013B0003249086000BF3148006800F400300090F6
:1013C0000198401C0190009818B90198B0F5A04F01
:1013D000F1D12A48006800F4003010B101200090DB
:1013E00001E0002000900098012846D123484030B9
:1013F000006840F080502149403108602048006872
:1014000040F440401E4908601C48083000681B49F1
:10141000083108600846006840F40040086008464B
:10142000006840F4A05008601648091F0860081FB3
:10143000006840F08070091F086000BF0F48006816
:1014400000F000700028F9D040F205700E490860E5
:101450000A480830006820F0030008490831086095
:101460000846006840F00200086000BF03480830EA
:10147000006800F00C000828F8D10CBD00380240CC
:101480000070004008544007003C0240042808D186
:101490004FF0E021096941F004014FF0E0221161B1
:1014A00007E04FF0E021096921F004014FF0E0224C
:1014B000116170477047000010B51548006840F48E
:1014C0007000134908601348006840F0010011499A
:1014D000086000200F49083108600E4800680E4976
:1014E00008400C4908600D48091D0860081F006885
:1014F00020F48020091F0860002006490C31086094
:10150000FFF74EFF4FF0006001498039086010BDC1
:1015100088ED00E000380240FFFFF6FE10300024A6
:1015200010B540F225511D4800F053F810B31B4888
:1015300000F008F9C4B21A48008800F40040C8B9A5
:101540001748008800F4804060B10A2C03D00020C6
:101550001349088020E01248008840F400401049F8
:10156000088019E00D2C06D10D48008840F4804019
:101570000B49088010E00A480088C0F30D000949B3
:101580000C5407480088401C05490880084600881C
:10159000C72801DD0020088010BD000000100140B8
:1015A000100000204C00002001F40072B2F5007F12
:1015B00000D100BFCA430280704721B1828942F442
:1015C0000052828104E082894DF6FF731A408281C5
:1015D000704770B50246002400230025002040F625
:1015E0006A16B14200D100BFC1F3421501F01F03DA
:1015F000012606FA03F3012D02D19689334006E055
:10160000022D02D1168A334001E0968A33400C1233
:10161000012606FA04F41688344013B10CB10120F7
:1016200000E0002070BDF0B5034600240026002530
:10163000002040F66A17B94200D100BF1846C1F336
:10164000421401F01F06012707FA06F5012C01D10B
:101650000C3004E0022C01D1103000E014301AB13B
:1016600007682F43076002E00768AF430760F0BDDB
:101670002DE9FF4705460E460024A14600BFA046BF
:10168000B08900B100BF2C8A24F44054F088044390
:101690002C82AC8941F20C608443B08831890843C4
:1016A000718908430443AC81AC8A24F44074B08946
:1016B0000443AC826846FFF743FA2048854202D0D3
:1016C0001F48854202D1DDF80C9001E0DDF808905A
:1016D000A88900F4004040B109EBC90000EB0910F3
:1016E00031684900B0FBF1F707E009EBC90000EBF6
:1016F000091031688900B0FBF1F76420B7FBF0F006
:1017000004012009642101FB1078A88900F400403D
:1017100040B1322000EBC800B0FBF1F000F0070050
:10172000044308E0322000EB08106421B0FBF1F024
:1017300000F00F0004432C81BDE8FF87001001403A
:101740000014014001468888C0F30800704700BFBC
:10175000FEE700000FB4054B10B503A9044A029838
:1017600000F02CF810BC5DF814FB0000C91B000849
:101770000C0000200FB4084B10B504A902AA03986E
:1017800000F01CF8044602A9002000F0B8F9204639
:1017900010BC5DF814FB0000FF1A000802E008C846
:1017A000121F08C1002AFAD170477047002001E0DB
:1017B00001C1121F002AFBD1704700002DE9FF4F25
:1017C0008BB088460546002606E025280BD0DDE9CB
:1017D0000D1290476D1C761C28780028F5D10FB0AB
:1017E0003046BDE8F08F0024A146A2460122AE4952
:1017F00000E0044315F8013F203B02FA03F00842E1
:10180000F7D128782A2810D06FF02F022878A0F17D
:101810003001092915D809EB890102EB410144F097
:10182000020400EB01096D1CF0E758F8041B5FEAA5
:10183000010903D544F40054C9F1000944F002043D
:101840006D1C28782E2817D115F8010F44F00404D8
:101850002A280ED06FF02F022878A0F13001092934
:101860000AD80AEB8A0102EB410100EB010A6D1C68
:10187000F2E758F804AB6D1C28786C280FD006DC12
:101880004C2817D068280DD06A2814D104E0742899
:1018900010D07A280FD10DE044F400140AE044F48B
:1018A000801401E044F440146978814202D104F5C7
:1018B00080146D1C6D1C2878692865D006DC002812
:1018C0008DD0632827D0642806D15DE06E2808D02B
:1018D00073282AD0752877D0DDE90D129047761C41
:1018E000E0E0C4F30250022809D003280DD0D8F854
:1018F000001004280DD00E6008F10408D2E0D8F8DA
:101900000010F217C1E90062F6E7D8F800100E8067
:10191000F2E70E70F0E718F8041B8DF800100020B5
:101920008DF80100EB46012003E058F804BB4FF0AE
:10193000FF3061074FF0000701D40AE07F1C5745D4
:101940000DDA8742FADB1BF807100029F6D106E012
:101950007F1C8742FCDB1BF807100029F8D1DDE96A
:101960000D23A9EB07008146214600F0B1F8304471
:10197000C61904E0DDE90D121BF8010B90477F1E2C
:10198000F8D22146484688E058F8040BC4F30251C7
:101990004FF00A0B032900D100B2042900D140B254
:1019A000002802DA40422D2102E0210505D52B2135
:1019B0008DF82410012104E006E0E10710D0202179
:1019C000F6E708AF089113E058F8040BC4F302518E
:1019D0004FF00A0B032900D180B2042900D1C0B214
:1019E0000021EEE75946FEF7EBFB303107F8011D09
:1019F0000028F7D1ADEB070000F1200B600702D5FE
:101A000024F4803401E04FF0010ADA4502DDAAEB4C
:101A10000B0000E00020824600EB0B010898014417
:101A2000A9EB01000A90E00306D4DDE90D2321466D
:101A30000A9800F04DF806444FF0000908E009A9A3
:101A400011F80900DDE90D12904709F10109761C32
:101A500008998945F3DBE0030CD5DDE90D23214628
:101A60000A9800F035F8064404E0DDE90D12302054
:101A70009047761CBAF10001AAF1010AF5DC05E0F5
:101A8000DDE90D1217F8010B9047761CBBF1000140
:101A9000ABF1010BF4DC0A982146DDE90D2300F0DF
:101AA00005F806446D1C97E6092801002DE9F04170
:101AB000044600251E461746880404D405E039462E
:101AC0002020B0476D1C641EF9D52846BDE8F08182
:101AD0002DE9F041044600251E469046C80301D575
:101AE000302700E02027880404D505E04146384629
:101AF000B0476D1C641EF9D52846BDE8F0810A6820
:101B0000531C0B601070704710B504466FF0040052
:101B1000FFF7BCFCE11704EB5171C1F3CF01074A99
:101B200011801046008800EB4001C1EBC0104FF659
:101B3000FF7101EAC0000249088010BD06000020C4
:101B40000800002070B504464FF4077094FBF0F0D5
:101B5000C6B24FF4077094FBF0F100FB114085B260
:101B600005E04FF4077000F009F8701EC6B2002EB1
:101B7000F7D115B1284600F001F870BD0146114AB1
:101B800012884A434FF0E0235A6100229A611A46B4
:101B9000126942F001021A6100BF4FF0E0221069A1
:101BA00000F001021AB100F48032002AF5D04FF0A3
:101BB000E022126922F001024FF0E0231A610022B4
:101BC0009A6170470800002000BF054A128802F0A1
:101BD0004002002AF9D0C2B2014B9A80704700003F
:101BE000001001400EB54FF4A060FEF767FFA8207B
:101BF000FFF78AFF4FF4E13000F0CCF8FEF704FD68
:101C0000FEF753FD4EF67D70FEF736FD42A04EF610
:101C10007D734FF47842102100900020FEF7BCFB4A
:101C200042A04EF67D731F22202100900020FEF777
:101C3000B3FB43A04EF67D731F223021009000209D
:101C4000FEF7AAFBFEF7B8FE00210420FFF79CFA7E
:101C500061E040480078401C3E4908700846007822
:101C60000A2190FBF1F201FB1200002840D102A9E9
:101C7000FFF7F0F89DF80A0000909DF809309DF8F4
:101C8000082035A13948FFF775FD38484EF67D73B9
:101C90004FF47842402100900020FEF77DFB01A91F
:101CA0000020FFF79DF89DF8060000909DF8053094
:101CB0009DF807202EA12D48FFF75CFD2B484EF61E
:101CC0007D734FF47842502100900020FEF764FBB2
:101CD0009DF804202CA12548FFF74CFD23484EF623
:101CE0007D734FF47842602100900020FEF754FB92
:101CF00018480078142190FBF1F201FB120038B96A
:101D00002348006808B9012000E00020204908604D
:101D10000A20FFF717FF9CE72020202053544D3363
:101D20003220525443202020202000002020C7B61B
:101D3000C8EBCABDBFAAB7A2CDF820202020000062
:101D40006D63756465762E74616F62616F2E636F6B
:101D50006D2000000000002054696D653A25303286
:101D6000643A253032643A25303264002400002081
:101D7000446174653A3230253032642D2530326446
:101D80002D253032640000005765656B3A256400EC
:101D90008882414210B588B0044601210846FEF70A
:101DA0009FFE01211020FEF7BBFE072209212548D6
:101DB000FEF7CAFA07220A212248FEF7C5FA4FF4B5
:101DC000C060069002208DF81C0003208DF81D00D5
:101DD00000208DF81E0001208DF81F0006A919486B
:101DE000FEF76AFA02940020ADF80C00ADF80E0080
:101DF000ADF81000ADF814000C20ADF8120002A9E7
:101E00001148FFF735FC01210F48FFF7D6FB4021B1
:101E10000D48FFF7C9FB012240F225510A48FFF7A0
:101E200002FC25208DF8040003208DF805008DF8B4
:101E3000060001208DF8070001A8FEF703FE08B098
:101E400010BD000000000240001001400000000032
:101E50000000000000000000000000000010101052
:101E600010101010101000001010000000006C6C1A
:101E700024240000000001000000000000242424AD
:101E800024FE48484848FC909090900000103C5434
:101E90009290503814121292547810000000225C74
:101EA00094A8481010242A5254880000000030489A
:101EB0004850206E54948C888A74000000003030A2
:101EC00010100000000000000000000000040810D6
:101ED0001020202020202010100804000080402026
:101EE0002010101010101020204080000000000072
:101EF000105438103854100000000000000000108A
:101F0000101010FE10101010000000000000000063
:101F10000000000000000000101020000000000081
:101F2000000000FE000000000000000000000000B3
:101F30000000000000000000101000000000040479
:101F40000808101020204040808000000000384425
:101F50008282828282828282443800000000107075
:101F60001010101010101010107C000000003844E9
:101F7000828204081020408284FC00000000384463
:101F80008202043804020282443800000000040C7B
:101F9000141424244444FE04040E00000000FC80B9
:101FA0008080B8C4820202828478000000003C4233
:101FB0008280B8C4828282824438000000007E425F
:101FC00082040408080810101010000000003844B3
:101FD00082824438448282824438000000003844BF
:101FE00082828282463A0282443800000000000069
:101FF00010100000000010100000000000000000A1
:102000001010000000000010102000000000000070
:102010000618608060180600000000000000000044
:102020000000FE0000FE00000000000000000000B4
:10203000C0300C020C30C0000000000000384482A8
:102040008202040810101000101000000000384434
:10205000829AAAAAAAAAAA9680423C00000010105E
:102060001028282844447C4444EE00000000FC4230
:102070004242427C4242424242FC000000003C4458
:102080008280808080808282443800000000F84492
:10209000424242424242424244F800000000FC44B4
:1020A0004240447C4440404244FC00000000FC4468
:1020B0004240447C4440404040F000000000344C2A
:1020C000828080808E8484844C3400000000EE4442
:1020D0004444447C4444444444EE000000007C10EA
:1020E0001010101010101010107C000000003E089E
:1020F0000808080808080888887000000000EE44F6
:10210000484850605048484444EE00000000E04019
:10211000404040404040404244FC00000000C64473
:102120006C6C6C545454444444EE00000000CE44A3
:1021300064646454544C4C4C44E400000000384443
:102140008282828282828282443800000000F844C7
:10215000424242447840404040E0000000003844A1
:1021600082828282828282BA443C02000000F0486D
:10217000444444487048444444E6000000003C4461
:10218000828040300C0202824478000000007C54BF
:102190009210101010101010103800000000EE44C3
:1021A0004444444444444444443800000000EE4461
:1021B0004444442828282810101000000000EE4451
:1021C0005454545454542828282800000000EE4445
:1021D000442828101028284444EE00000000EE4453
:1021E00044282828101010101038000000007E44E9
:1021F000840808102020408284FC0000001C10107D
:10220000101010101010101010101C000000EE44E0
:102210005454FE54545428282828000000701010EC
:1022200010101010101010101010700000304884A2
:10223000000000000000000000000000000000009E
:1022400000000000000000000000FE000040200030
:10225000000000000000000000000000000000007E
:1022600000007884047C84848C7600000000C040E8
:10227000404058644242424264580000000000005E
:1022800000003844808080804438000000000C0446
:102290000404344C848484844C3600000000000024
:1022A0000000788484FC808084780000000018247A
:1022B0002020F820202020202070000000000000B6
:1022C00000003A444478807C82827C000000C04058
:1022D000404058644444444444EE00000000101060
:1022E0000000301010101010103800000000101006
:1022F0000000301010101010109060000000C0405E
:1023000040405C485060504844EE000000003010EF
:1023100010101011101010101039000000000000F3
:102320000000ACD29292929292D60000000000007F
:10233000000058E44444444444EE0000000000001F
:10234000000038448282828244380000000000008D
:102350000000D864424242645840E000000000009F
:102360000000364C8484844C34040E0000000000CD
:1023700000006C30202020202070000000000000B1
:1023800000007888846018844478000000000020F1
:102390002020F82020202020241800000000000029
:1023A0000000C64242424242463A0000000000009D
:1023B0000000EE444428282810100000000000000F
:1023C0000000EE4444545428282800000000000077
:1023D0000000EE442810102844EE00000000000029
:1023E0000000EE444428281010A0C00000000000A7
:1023F00000007E448810204284FC0000000C101075
:10240000101010601010101010100C0000101010A0
:1024100010101010101010101010100000C020200C
:1024200020202018202020202020C00000000000B4
:10243000000000728C00000000000000000000009E
:1024400000001FE000003FF000003FF000001FE030
:10245000000180060003C00F0003C00F0003C00F7F
:102460000003C00F0003C00F0003C00F0003C00F24
:102470000003C00F00030003000000000000000084
:1024800000000000000300030003C00F0003C00FA2
:102490000003C00F0003C00F0003C00F0003C00FF4
:1024A0000003C00F0003C00F0001800600001FE002
:1024B00000003FF000003FF000001FE000000000BF
:1024C0000000000000000080000001800000038088
:1024D00000000780000007800000078000000780E0
:1024E00000000780000007800000078000000780D0
:1024F00000000780000001800000000000000000D4
:10250000000000000000018000000780000007803C
:10251000000007800000078000000780000007809F
:102520000000078000000780000007800000038093
:10253000000001800000008000000000000000009A
:1025400000001FE000003FF00000FFF00001FFE08E
:10255000000000060000000F0000000F0000000F48
:102560000000000F0000000F0000000F0000000F2F
:102570000000000F00001FE300007FF800007FF85C
:1025800000001FE0000300000003C0000003C000C3
:102590000003C0000003C0000003C0000003C0002F
:1025A0000003C0000003C0000001800000001FF015
:1025B00000003FF800003FFC00001FFE000000008C
:1025C0000003FF800001FFC00000FFC000007F800B
:1025D000000000180000003C0000003C0000003C2F
:1025E0000000003C0000003C0000003C0000003CFB
:1025F0000000003C00007F8C0001FFE00001FFF0C4
:1026000000007F800000000C0000003C0000003C47
:102610000000003C0000003C0000003C0000003CCA
:102620000000003C0000003C0000001800007F801B
:102630000000FFC00001FFC00003FF800000000099
:1026400000000000000200010003000300038007F7
:102650000003C00F0003C00F0003C00F0003C00F32
:102660000003C00F0003C00F0003C00F0003C00F22
:102670000003C00F00031FE300007FF800007FFC91
:1026800000001FE0000000030000000F0000000F2A
:102690000000000F0000000F0000000F0000000FFE
:1026A0000000000F0000000F0000000F00000007F6
:1026B0000000000300000001000000000000000016
:1026C00000001FFC00003FF800003FF000001FE08A
:1026D000000180000003C0000003C0000003C00030
:1026E0000003C0000003C0000003C0000003C000DE
:1026F0000003C00000031FE000007FF800007FF827
:1027000000001FE0000000030000000F0000000FA9
:102710000000000F0000000F0000000F0000000F7D
:102720000000000F0000000F0000000600003FE066
:1027300000007FF00000FFF00001FFE0000000005B
:1027400000001FFC00003FF800003FF000001FE009
:10275000000180000003C0000003C0000003C000AF
:102760000003C0000003C0000003C0000003C0005D
:102770000003C00000031FE000007FF800007FFCA2
:1027800000001FE0000300030003C00F0003C00FA0
:102790000003C00F0003C00F0003C00F0003C00FF1
:1027A0000003C00F0003C00F0001800600001FE0FF
:1027B00000003FF000003FF000001FE000000000BC
:1027C0000007FFE00003FFC00001FF880000FF18C2
:1027D0000000003800000078000000780000007859
:1027E0000000007800000078000000780000007809
:1027F0000000007800000018000000000000000049
:1028000000000000000000180000007800000078C0
:1028100000000078000000780000007800000078D8
:102820000000007800000078000000780000003808
:102830000000001800000008000000000000000078
:1028400000001FE000003FF000003FF000001FE02C
:10285000000180060003C00F0003C00F0003C00F7B
:102860000003C00F0003C00F0003C00F0003C00F20
:102870000003C00F00031FE300007FF800007FFC8F
:1028800000001FE0000300030003C00F0003C00F9F
:102890000003C00F0003C00F0003C00F0003C00FF0
:1028A0000003C00F0003C00F0001800600001FE0FE
:1028B00000003FF000003FF000001FE000000000BB
:1028C00000001FE000003FF000003FF000001FE0AC
:1028D000000180060003C00F0003C00F0003C00FFB
:1028E0000003C00F0003C00F0003C00F0003C00FA0
:1028F0000003C00F00031FE300007FF800007FFC0F
:1029000000001FE0000000030000000F0000000FA7
:102910000000000F0000000F0000000F0000000F7B
:102920000000000F0000000F0000000600001FE084
:1029300000003FF000007FF00000FFE0000000001A
:102940000000000000000000000000000000000087
:102950000000000000000000000000000000000077
:102960000000000000000000000000000000000067
:102970000000000000000000000000000000000057
:102980000000000000000000000000000000000047
:102990000000780000007800000078000000780057
:1029A0000000780000007800000000000000000037
:1029B0000000000000000000000000000000000017
:1029C0000000000000000000000000000000000007
:1029D00000000000000000000000000000000700F0
:1029E00000000F8000000F8000000F800000070033
:1029F00000000000000000000000000000000000D7
:102A000000000000000000000000070000000F8030
:102A100000000F8000000F80000007000000000091
:102A200000000000000000000000000000000000A6
:102A30000000000000000000000000000000000096
:102A40000000000000000000000000000007C006B9
:102A5000000FE0060000000C0030181800301818B5
:102A6000003018300030183000301860003008C0D6
:102A70000007C0C0000FE080000000000000000F51
:102A8000E0000607C000063018000C3018000C30BB
:102A9000180018301800303018003030180060006E
:102AA0000000C00FE000C007C000000000000000F0
:102AB0000000000000000000000000000000000016
:102AC0000000000000000000000000000000000006
:102AD00000000000000700E0000887FC00088E03EB
:102AE00000089801800718008000300000003000C6
:102AF0000000700000006000000060000000600046
:102B00000000600000006000000070000000300065
:102B100000003000000038000000180100000C0325
:102B2000000007FC000001F00000000000000000B1
:102B30000000000000000000000000000000000095
:102B40000000000000000000000000000000000085
:102B50000000000000000000000000000000000075
:102B60000000000000000000000000000000000065
:102B7000000000000000000000003FF000007FF0B7
:102B800000007FE00000FFC0000000000000000027
:102B90000000000000000000000000000000000035
:102BA0000000000000000000000000000000000025
:102BB0000000000000000000000000000000C7B698
:102BC0000100210821083FF800202220223EFF4278
:102BD000229422103E10221022283E2822440082F5
:102BE000C8EB040002000100010001000280028025
:102BF00002800440044008200820101020104008E3
:102C00008006CABD0048004400440040FFFE00406A
:102C100000403E4008400840082008220F12780A71
:102C200020060002BFAA00007FFC08200820082020
:102C300008200820FFFE0820082008200820102077
:102C4000102020204020B7A20100111011082200FE
:102C50003FFC0200040007F80A080908111010A040
:102C6000204040A003181C06CDF800007FFC400463
:102C70004004421452944A54442444244A544A542A
:102C80005294610440044014400800000000000019
:102C90000000000000000000000000000000000034
:102CA0000000000000000000000000000000000024
:102CB0000000000000000000000000000000000014
:102CC0000000000000000000000000000000000004
:102CD00000000000000000000000000000000000F4
:102CE00000000000000000000000000000000000E4
:102CF0000000000000000000182D00080000002067
:102D0000240000009C1700083C2D0008240000202F
:102D1000F4040000AC1700080000000000000000F0
:102D200000000000000000000000000000000102A0
:0C2D300003040102030406070809000068
:040000050800018965
:00000001FF
