:020000040800F2
:10000000180500209D0100082D110008C10C0008F2
:1000100029110008C909000807170008000000009E
:100020000000000000000000000000005513000860
:10003000CD09000800000000BD1100086D14000883
:10004000B7010008B7010008B7010008B7010008B0
:10005000B7010008B7010008B7010008B7010008A0
:10006000B7010008B7010008B7010008B701000890
:10007000B7010008B7010008B7010008B701000880
:10008000B7010008B7010008B7010008B701000870
:10009000B7010008B7010008B7010008B701000860
:1000A000B7010008B7010008B7010008B701000850
:1000B000B7010008B7010008B7010008B701000840
:1000C000B7010008B7010008B7010008B701000830
:1000D000B7010008D9140008B7010008B7010008EB
:1000E000B7010008B7010008B7010008B701000810
:1000F000B7010008B7010008B7010008B701000800
:10010000B7010008B7010008B7010008B7010008EF
:10011000B7010008B7010008B7010008B7010008DF
:10012000B7010008B7010008B7010008B7010008CF
:10013000B7010008B7010008B7010008B7010008BF
:10014000B7010008B7010008B7010008B7010008AF
:10015000B7010008B7010008B7010008B70100089F
:10016000B7010008B7010008B7010008B70100088F
:10017000B7010008B7010008B7010008B70100087F
:10018000B7010008B7010008DFF80CD000F0DAFA78
:10019000004800470D210008180500200648804748
:1001A00006480047FEE7FEE7FEE7FEE7FEE7FEE75C
:1001B000FEE7FEE7FEE7FEE771140008890100088C
:1001C0002DE9FE4F81EA030404F0004421F00041D0
:1001D00000944FF0000B23F0004350EA01045ED07E
:1001E00052EA03045BD0C3F30A54C1F30A552C440A
:1001F000A4F2F3340194A0FB0254C1F3130141F4BF
:100200008011C3F3130343F4801301FB024400FB8A
:10021000034E840A970A44EA815447EA8357A4FBB1
:10022000076802958D0A05FB07854FEA932C04FBAE
:100230000C542705029D4FEA065847EA1637B5EBDE
:1002400008056EEB070C870E920E47EA811742EA0B
:100250008312A7FB0201B6EB0B0164EB00042B0D2C
:1002600043EA0C335E1844EB1C50DA465146E7FB78
:100270000201C5F313044FEA0B3343EA14534FEA68
:100280000432019C43EA0603A4F10C040294009C8E
:10029000CDE900B400F0C2F803B0BDE8F08F002053
:1002A0000146F9E700F0004230F000400AD0C10DED
:1002B00001F56071C0F3160042EA0151C20840071F
:1002C0001143704700200146704701F0004330B4ED
:1002D00021F0004150EA010206D00A0DA2F5607239
:1002E000C1F31301002A02DC30BC00207047440F28
:1002F00044EAC104C100E01830BC00EBC25000F079
:1003000047B830B50B46014600202022012409E001
:1003100021FA02F59D4205D303FA02F5491B04FABE
:1003200002F52844151EA2F10102F1DC30BD2DE9D1
:10033000F05F0546002092469B4688460646814669
:1003400040241BE0284641464746224600F01BFA5F
:1003500053465A46C01A914110D3114618462246B8
:1003600000F002FA2D1A67EB01084F4622460120E1
:10037000002100F0F9F917EB00094E41201EA4F10D
:100380000104DFDC484631462A464346BDE8F09F7B
:100390000029A8BF7047401C490008BF20F0010099
:1003A000704710B4B0FA80FC00FA0CF050EA010477
:1003B00004BF10BC704749B1CCF1200421FA04F409
:1003C00011FA0CF118BF012121430843A3EB0C01E2
:1003D000CB1D4FEA00614FEA102042BF002010BC45
:1003E000704700EBC35010440029A4BF10BC7047F5
:1003F000401C490008BF20F0010010BC704710B538
:10040000141E73F1000408DA401C41F10001921837
:100410005B411A4301D120F0010010BD2DE9F04DE0
:1004200092469B4611B1B1FA81F202E0B0FA80F235
:100430002032904600F098F904460F4640EA0A0040
:1004400041EA0B0153465A46084313D0114653EA7A
:10045000010019D0C8F14002504600F094F9054659
:100460000E4650465946424600F07EF9084305D0F4
:10047000012004E020463946BDE8F08D0020054308
:1004800046EAE0762C4337430A986305E40AA0EB7A
:1004900008000022FD0A44EA47540A3002D5002031
:1004A0000146E9E7010510196941DDE90845001930
:1004B0006941BDE8F04DA2E72DE9FE4F804681EA93
:1004C0000300C00F0C46009021F0004123F00045CE
:1004D000B8EB0200A94105D24046214690461C4691
:1004E0000B46024623F00040104347D0270DC7F3C8
:1004F0000A00C3F30A510290401A019040286BDAB7
:10050000C3F3130040F4801B0098924620B10023EF
:10051000D2EB030A63EB0B0B01985946C0F1400282
:10052000504600F021F906460D4650465946019ABC
:1005300000F039F910EB08006141002487EA1152FC
:1005400084EAE7731A4340D0009A62B3019A012A01
:100550004FEA075215DC001B61EB02014FF000422D
:1005600002EA0752CDE90042001C41F580113246F3
:100570002B46FFF753FF03B0BDE8F08F40462146FE
:10058000F9E7001B61EB0201001C41F58013001824
:100590005B412018A2F5001747EB030140EAD57034
:1005A000B6196D4111E06D084FEA360645EAC0758F
:1005B0004FEA0752001B61EB0201001C41F580115C
:1005C00049084FEA30000019514132462B4603B02A
:1005D000BDE8F04FFFF713BF009801224000002351
:1005E000D0EB020263EBE073009821464FEAE0741F
:1005F000B8EB000061EB0401E9E783F000435BE73F
:1006000081F0004158E72DE9F04D81EA030404F040
:10061000004B21F0004514464FF0000A23F0004142
:1006200050EA050220D054EA01021DD0C5F30A5752
:100630000246C5F31303C1F31300C1F30A5640F495
:10064000801543F48013A7EB0608101BD64608F26A
:10065000FD3873EB050002D308F1010801E09218A0
:100660005B41B8F1000F03DA00200146BDE8F08DD0
:1006700000204FF48011064684460EE0171B73EBF2
:10068000050705D3121B63EB050306434CEA010C77
:1006900049084FEA300092185B4150EA0107EDD15A
:1006A00052EA030012D082EA040083EA05010843FB
:1006B00005D0101BAB4106D20122002306E0002228
:1006C0004FF0004302E06FF0010253101AEB0600F6
:1006D0004CEB085110EB0A0041EB0B01BDE8F04D6B
:1006E000FFF78DBEC1F30A52C1F3130140F2FF338D
:1006F00041F480119A4202DA00200146704740F22C
:1007000033439A42A2F2334202DC524200F03BB839
:1007100000F02AB830B5041E71F1000404DB4FF07C
:100720000044404264EB0101141E73F1000405DB38
:100730001C464FF00043524263EB0403994208BF4A
:10074000904230BD064C074D06E0E06840F00103E2
:1007500094E8070098471034AC42F6D3FFF718FD31
:100760005032000870320008202A04DB203A00FAD8
:1007700002F1002070479140C2F1200320FA03F3F8
:10078000194390407047202A04DB203A21FA02F0F6
:100790000021704721FA02F3D040C2F120029140BB
:1007A000084319467047202A06DBCB17203A41FA46
:1007B00002F043EAE07306E041FA02F3D040C2F1EE
:1007C0002002914008431946704721B1826842F0E7
:1007D0000102826003E0826822F0010282607047B9
:1007E0000021084A1168084A1140D0E900231A4341
:1007F00083681A43C3681A431143044AC2F80413B6
:100800007047000004230140E030FCFF002001405D
:100810000146C86C80B270470246002013680B4046
:100820000BB1012000E000207047000030B5024607
:10083000002000235068104C20400D790C6844EAD9
:1008400005242043506090680C4C2040D1E90354AB
:100850002C438D682C434D7944EA45042043906035
:10086000D06A20F470000C7D641EE4B2234340EA99
:100870000350D06230BD0000FFFEFFFCFDF7FFC05B
:10088000F0B504460D4600200021092D11DDE06879
:10089000A5F10A0606EB4607072606FA07F1884384
:1008A000A5F10A0606EB460603FA06F10843E060E6
:1008B0000CE0206905EB4507072606FA07F1884397
:1008C00005EB450603FA06F108432061072A0FDA13
:1008D000606B561E06EB86071F2606FA07F1884353
:1008E000561E06EB860605FA06F10843606322E011
:1008F0000D2A0FDA206BD61F06EB86071F2606FA95
:1009000007F18843D61F06EB860605FA06F1084371
:10091000206310E0E06AA2F10D0606EB86071F26B1
:1009200006FA07F18843A2F10D0606EB860605FAE2
:1009300006F10843E062F0BD816841F080418160CA
:100940007047000000B58DB00121022000F038FC96
:100950000121080200F044FC01200B9003208DF8D7
:10096000300000208DF833000BA9154800F02FF857
:100970000121080200F044FC00214FF4807000F0D7
:100980003FFC002007900A9009904FF480300890B7
:1009900007A8FFF725FF002001908DF808008DF8CB
:1009A00009000390059001208DF8180001A9054861
:1009B000FFF73CFF01210348FFF707FF0DB000BD23
:1009C000000402400020014000BFFEE77047F0B580
:1009D0000A4600210023002400BF3DE0012505FA5E
:1009E00001F3156805EA03049C4234D105684F0001
:1009F0000326BE40B543056015794E00B540066834
:100A0000354305601579012D02D01579022D16D1D7
:100A100085684F000326BE40B543856055794E007A
:100A2000B540866835438560456801268E40B543EC
:100A30004560456896798E40B6B235434560C568D5
:100A40004F000326BE40B543C560D5794E00B54082
:100A5000C6683543C560491C1029BFD3F0BDF0B549
:100A6000002300244D07ED0E02FA05F3CE1000F12D
:100A7000200555F826504E07F70E0F26BE40B54309
:100A8000CF1000F1200646F82750CE1000F12005C7
:100A900055F8265045EA0304CE1000F1200545F82C
:100AA0002640F0BD418370470183704710B504466E
:100AB0000723012221460848FFF7E2FE0648FFF718
:100AC0003BFF00BF02210448FFF7A6FE0028F9D033
:100AD0000148FFF79DFE10BD002001402DE9F041C7
:100AE00007460C460025002608E03846FFF7DEFFE3
:100AF0000544052001F0BAFA701CC6B2A642F4DB28
:100B0000B5FBF4F080B2BDE8F08100002DE9F84FAC
:100B10000746884693469A46DDF828900097B3E04A
:100B200099F8000080283DDA99F800600D2E05D173
:100B3000009F08F110001FFA80F830E0202E03DD3E
:100B4000A6F1200086B200E00026002422E0002565
:100B50001CE004EB06105049085C80212941084044
:100B600040B108EB040291B27A1990B25A4600F0F3
:100B700097F809E0D34507D008EB040291B27A193F
:100B800090B2524600F08CF8681CC5B2082DE0DB2C
:100B9000601CC4B2102CDADB07F1080087B209F13F
:100BA000010971E0002668E006EB06103B4911F8E8
:100BB000100099F8001088425DD106EB0610374905
:100BC00001EB4000407899F80110884253D100248D
:100BD0004FE0002520E006EB0610304901EB400015
:100BE000801C10F8141080202841014041B108EB0E
:100BF000040291B27A1990B25A4600F051F809E015
:100C0000D34507D008EB040291B27A1990B252464C
:100C100000F046F8681CC5B2082DDCDB002524E096
:100C200006EB06101D4901EB4000801C012101EB81
:100C30004401405C80212941084048B108EB04028E
:100C400091B27A19083290B25A4600F029F80AE0B7
:100C5000D34508D008EB040291B27A19083290B259
:100C6000524600F01DF8681CC5B2082DD8DB601C88
:100C7000C4B2102CADDB701C86B2062E94DB09F1D9
:100C8000020907F1100087B299F8000000287FF4EC
:100C900047AFBDE8F88F0000A42300081631000814
:100CA00070B504460D461646681C83B2601C82B2BD
:100CB0002946204600F0DAF9304600F043F870BDCE
:100CC00000BFFEE71CB50121062000F079FA4FF4C1
:100CD0007040009001208DF8040000208DF806007F
:100CE00003208DF8050001208DF8070069461348A0
:100CF000FFF76DFEC020009001208DF80400002059
:100D00008DF8060003208DF8050001208DF80700FE
:100D100069460B48FFF75BFE4FF480410748FFF739
:100D2000C3FE80210648FFF7BFFE80210448FFF77D
:100D3000B9FE80210248FFF7B7FE1CBD0004024047
:100D40000008024010B504464FF480510948FFF7EF
:100D5000A9FE40210848FFF7A7FE201200F0D4FAB0
:100D6000E0B200F0D1FA4FF480510248FFF79CFE48
:100D700010BD000000040240000802401CB5012123
:100D8000092000F01DFA4FF48070009001208DF8CA
:100D9000040000208DF8060003208DF805000120D6
:100DA0008DF8070069460F48FFF711FE04200090F8
:100DB00001208DF8040000208DF8060003208DF836
:100DC000050001208DF8070069460748FFF7FFFD81
:100DD0004FF480710348FFF767FE04210248FFF7D4
:100DE00063FE1CBD00000240000C024070B50646C8
:100DF0007F231A460021084600F038F92C2000F025
:100E00007BF9002408E0002503E03046FFF79AFF55
:100E10006D1C802DF9D3641C802CF4D370BD10B5EB
:100E2000FFF750FF00F00CF9112000F065F9782071
:100E300001F01CF9B12000F05FF9012000F044F945
:100E40002C2000F041F92D2000F03EF9B22000F0F6
:100E500053F9012000F038F92C2000F035F92D204D
:100E600000F032F9B32000F047F9012000F02CF92E
:100E70002C2000F029F92D2000F026F9012000F0A7
:100E800023F92C2000F020F92D2000F01DF9B420CA
:100E900000F032F9072000F017F9C02000F02CF91B
:100EA000A22000F011F9022000F00EF9842000F0D9
:100EB0000BF9C12000F020F9C52000F005F9C2208F
:100EC00000F01AF90A2000F0FFF8002000F0FCF80A
:100ED000C32000F011F98A2000F0F6F82A2000F073
:100EE000F3F8C42000F008F98A2000F0EDF8EE20B5
:100EF00000F0EAF8C52000F0FFF80E2000F0E4F85A
:100F0000362000F0F9F8C82000F0DEF8E02000F00C
:100F1000F3F80F2000F0D8F81A2000F0D5F80F20D1
:100F200000F0D2F8182000F0CFF82F2000F0CCF815
:100F3000282000F0C9F8202000F0C6F8222000F098
:100F4000C3F81F2000F0C0F81B2000F0BDF82320DC
:100F500000F0BAF8372000F0B7F8002000F0B4F83D
:100F6000072000F0B1F8022000F0AEF8102000F0E9
:100F7000ABF8E12000F0C0F80F2000F0A5F81B202E
:100F800000F0A2F80F2000F09FF8172000F09CF866
:100F9000332000F099F82C2000F096F8292000F07A
:100FA00093F82E2000F090F8302000F08DF83020DB
:100FB00000F08AF8392000F087F83F2000F084F82C
:100FC000002000F081F8072000F07EF8032000F0F8
:100FD0007BF8102000F078F82A2000F08DF800202F
:100FE00000F072F8002000F06FF8002000F06CF8BC
:100FF0007F2000F069F82B2000F07EF8002000F040
:1010000063F8002000F060F8002000F05DF89F20F9
:1010100000F05AF8F02000F06FF8012000F054F8CA
:10102000F62000F069F8002000F04EF83A2000F0B9
:1010300063F8052000F048F8292000F05DF810BDA5
:1010400010B54FF480410848FFF72CFD4FF496701F
:1010500001F00CF84FF480410348FFF725FD6420B0
:1010600001F004F810BD0000000402402DE9F04139
:1010700004460D4616461F462A2000F03DF8002083
:1010800000F022F8A11CC8B200F01EF8002000F009
:101090001BF8B11CC8B200F017F82B2000F02CF898
:1010A000002000F011F8E91CC8B200F00DF8002093
:1010B00000F00AF8F91CC8B200F006F82C2000F085
:1010C0001BF8BDE8F081000010B504464FF48051D4
:1010D0000748FFF7E7FC40210648FFF7E5FC2046FC
:1010E00000F012F94FF480510148FFF7DDFC10BD0C
:1010F000000402400008024010B504464FF480513D
:101100000748FFF7CFFC40210648FFF7CBFC2046FD
:1011100000F0FAF84FF480510148FFF7C5FC10BD0C
:10112000000402400008024000BFFEE770470000D4
:1011300070B5002100230F22C4781CB3174C24681B
:1011400004F4E064C4F5E064C4F30721C1F10404CD
:10115000E3B20A4144789C40E1B2847814402143D0
:101160000C07210E0E4C05786155047804F01F051C
:101170000124AC4005786D11AD0005F1E025C5F8FE
:10118000004109E0047804F01F050124AC40054D3E
:101190000678761145F8264070BD00000CED00E0A1
:1011A00000E400E080E100E002490143024A1160EE
:1011B000704700000000FA050CED00E070470000E9
:1011C00029B1064A12680243044B1A6004E0034A3C
:1011D00012688243014B1A607047000030380240A9
:1011E00029B1064A12680243044B1A6004E0034A1C
:1011F00012688243014B1A60704700004438024075
:1012000029B1064A12680243044B1A6004E0034AFB
:1012100012688243014B1A60704700002438024074
:10122000F0B5002100220024022500260223324FBF
:101230003F6807F00C0121B1042905D0082937D1F6
:1012400005E02E4F076036E02D4F076033E02A4F50
:101250003F1F3F68C7F38056274F3F1F3F6807F087
:101260003F036EB1264FB7FBF3F7DFF88CC0ACF14C
:10127000040CDCF800C0CCF3881C07FB0CF40CE079
:101280001E4FB7FBF3F7DFF870C0ACF1040CDCF8CD
:1012900000C0CCF3881C07FB0CF4174F3F1F3F68BE
:1012A000C7F301477F1C7D00B4FBF5F7076002E040
:1012B000124F076000BF00BF0F4F3F6807F0F001FB
:1012C0000909104F7A5C0768D74047600A4F3F68AA
:1012D00007F4E051890A0B4F7A5C4768D740876072
:1012E000054F3F6807F46041490B064F7A5C476839
:1012F000D740C760F0BD0000083802400024F40069
:1013000000127A001200002070B50446002508255E
:101310001BE004F0800028B14FF400410C48FFF7B7
:10132000C3FB04E04FF400410948FFF7BBFB4FF457
:1013300000510748FFF7B6FB4FF400510448FFF790
:10134000B3FB6006040E681EC5B2002DE1DC70BD63
:1013500000040240704700000CB50020019000908E
:101360003448006840F480303249086000BF31489A
:10137000006800F4003000900198401C0190009833
:1013800018B90198B0F5A04FF1D12A48006800F4CF
:10139000003010B10120009001E000200090009882
:1013A000012846D123484030006840F08050214950
:1013B000403108602048006840F440401E49086001
:1013C0001C48083000681B4908310860084600685E
:1013D00040F4004008600846006840F4A0500860EF
:1013E0001648091F0860081F006840F08070091F38
:1013F000086000BF0F48006800F000700028F9D0B6
:1014000040F205700E4908600A480830006820F074
:1014100003000849083108600846006840F00200EF
:10142000086000BF03480830006800F00C0008287E
:10143000F8D10CBD0038024000700040085440074D
:10144000003C0240042808D14FF0E021096941F036
:1014500004014FF0E022116107E04FF0E02109693B
:1014600021F004014FF0E022116170477047000045
:1014700010B51548006840F470001349086013481F
:10148000006840F001001149086000200F49083150
:1014900008600E4800680E4908400C4908600D4875
:1014A000091D0860081F006820F48020091F0860DB
:1014B000002006490C310860FFF74EFF4FF0006036
:1014C00001498039086010BD88ED00E00038024015
:1014D000FFFFF6FE1030002410B540F225511D48E4
:1014E00000F053F810B31B4800F008F9C4B21A48D2
:1014F000008800F40040C8B91748008800F4804014
:1015000060B10A2C03D000201349088020E0124863
:10151000008840F400401049088019E00D2C06D1E5
:101520000D48008840F480400B49088010E00A48CC
:101530000088C0F30D0009490C5407480088401C7E
:101540000549088008460088C72801DD002008807A
:1015500010BD000000100140100000204C000020D1
:1015600001F40072B2F5007F00D100BFCA430280CF
:10157000704721B1828942F40052828104E082895D
:101580004DF6FF731A408281704770B50246002401
:1015900000230025002040F66A16B14200D100BFAA
:1015A000C1F3421501F01F03012606FA03F3012DD2
:1015B00002D19689334006E0022D02D1168A3340CB
:1015C00001E0968A33400C12012606FA04F41688CC
:1015D000344013B10CB1012000E0002070BDF0B523
:1015E0000346002400260025002040F66A17B94271
:1015F00000D100BF1846C1F3421401F01F060127B5
:1016000007FA06F5012C01D10C3004E0022C01D1BF
:10161000103000E014301AB107682F43076002E071
:101620000768AF430760F0BD2DE9FF4705460E464A
:101630000024A14600BFA046B08900B100BF2C8A9B
:1016400024F44054F08804432C82AC8941F20C60AD
:101650008443B08831890843718908430443AC81CD
:10166000AC8A24F44074B0890443AC826846FFF726
:10167000D7FD2048854202D01F48854202D1DDF8BF
:101680000C9001E0DDF80890A88900F4004040B11A
:1016900009EBC90000EB091031684900B0FBF1F714
:1016A00007E009EBC90000EB091031688900B0FBC5
:1016B000F1F76420B7FBF0F004012009642101FB7D
:1016C0001078A88900F4004040B1322000EBC80037
:1016D000B0FBF1F000F00700044308E0322000EB1B
:1016E00008106421B0FBF1F000F00F0004432C81DE
:1016F000BDE8FF87001001400014014001468888C2
:10170000C0F30800704700BFFEE700000FB4054BB0
:1017100010B503A9044A029800F0EEF810BC5DF879
:1017200014FB0000F12000080C0000200FB4084B4F
:1017300010B504A902AA039800F0DEF8044602A935
:10174000002000F070FC204610BC5DF814FB000087
:101750002720000802E008C8121F08C1002AFAD199
:1017600070477047002001E001C1121F002AFBD121
:10177000704700002DE9FF5F82B00021DDE90430F1
:10178000020DDDF840B0034318D044F61050A2F229
:10179000FF3242431514119801281FD0A5EB0B000E
:1017A000401C5FEA000A4FF000064E4FDFF8389108
:1017B000B046504615D5CAF1000413E01198012433
:1017C0004AA3012801D16FEA0B010298119AC0E9DE
:1017D0000031C0E9024206B0BDE8F09FCBF1000045
:1017E000DFE704460021404A491842EB0450CDE9A6
:1017F000001012E0E00707D032463B46404649461B
:10180000FEF7DEFC8046894632463B4610461946C6
:10181000FEF7D6FC06460F466410002CEAD1DDE93F
:101820000401DDE90023BAF1000F06DAFEF7C8FC77
:1018300042464B46FEF7C4FC05E0FEF7E4FE424696
:101840004B46FEF7E0FE04460E460022284BFEF70C
:1018500061FF03D84FF0FF30014607E00022254B1F
:1018600020463146FEF728FEFEF73CFF102409E033
:10187000002C0ADB0A220023FEF759FD039B3032BD
:101880001A55641E50EA0102F2D1641C039AC4F195
:1018900011031444119A012A03D0012208430DD1E7
:1018A0000AE0084304D000204FF0110B119072E7BA
:1018B000A3EB0B056D1E0DE05B4504DD4FF0000250
:1018C00005F1010504E003DA4FF00002A5F101057E
:1018D000002AECD002981199C0E90231C0E9004514
:1018E00079E70000000014400000F03F30000000E5
:1018F0000000F0430000E03F2DE9FF4F95B09B460C
:101900008946064600250FE2252877D10024274680
:10191000F84A0121059400E0044316F8013F203BFA
:1019200001FA03F01042F7D130782A2811D06FF075
:101930002F033078A0F13002092A16D8059A44F016
:10194000020402EB820203EB42021044761C059073
:10195000EFE759F8042B0592002A03DA504244F4C9
:101960000054059044F00204761C30782E2816D1DD
:1019700016F8010F44F004042A280DD06FF02F024E
:101980003078A0F13003092B09D807EB870302EB6D
:101990004303C718761CF3E759F8047B761C3078AC
:1019A0006C280FD006DC4C2817D068280DD06A2888
:1019B00014D104E0742810D07A280FD10DE044F43B
:1019C00000140AE044F4801401E044F440147278F6
:1019D000824202D104F58014761C761C3078662889
:1019E0000BD013DC582877D009DC002875D04528A7
:1019F000F6D04628F4D047281AD19DE118E0632894
:101A000035D0642879D0652812D195E1702873D03B
:101A100008DC6728F1D069286FD06E280DD06F28B8
:101A200006D1B5E073282CD0752875D0782874D0ED
:101A30005A46179990476D1C75E1C4F3025002286D
:101A400009D003280DD0D9F8001004280DD00D605E
:101A500009F1040967E1D9F80010EA17C1E9005259
:101A6000F6E7D9F800100D80F2E70D70F0E719F8ED
:101A7000041B8DF8001000208DF80100EA460120BB
:101A800003E059F804AB4FF0FF3061074FF000015D
:101A900002D40DE008F101018846B9420FDA804511
:101AA000F8DB1AF808100029F4D108E008F1010168
:101AB00088468142FADB1AF808100029F6D1059809
:101AC0005B46A0EB080721463846179A00F094FAC7
:101AD000284400EB080507E04DE029E10DE01AF885
:101AE000010B5A4617999047B8F10108F7D25B46A7
:101AF00021463846179A13E142E00A220092C4F3C5
:101B000002524FF0000A022A08D059F804CB032AE7
:101B10004FEAEC710AD00DE029E02AE009F1070153
:101B200021F00702F2E802C1914609E00FFA8CFCAD
:101B30004FEAEC71042A03D14FFA8CFC4FEAEC71A6
:101B4000002907DA0A460021DCF1000C61EB0201F2
:101B50002D2202E0220504D52B228DF8042001223B
:101B600003E0E20701D02022F7E7904659E00A217E
:101B700002E010220DE010214FF0000A00910BE06E
:101B800010224FF0000A44F004040827009203E0FA
:101B900008224FF0000A0092C4F30252022A05D034
:101BA00059F804CB0021032A08D009E009F1070104
:101BB00021F00702F2E802C1914605E01FFA8CFC11
:101BC000042A01D10CF0FF0C4FF00008220728D5A1
:101BD000702806D0009B83F0100353EA0A0305D057
:101BE0000EE040228DF80420012208E05CEA0102A8
:101BF00006D030228DF804208DF805000222904690
:101C0000009B83F0080353EA0A030AD15CEA01024D
:101C100001D1620705D530228DF804204FF001086C
:101C20007F1E582804D034A003900EA802900DE027
:101C300036A0F9E753466046009AFEF778FB8446E3
:101C40000398825C0298401E029002705CEA0100D8
:101C5000F0D1029806A9081A00F1200A600702D5FF
:101C600024F4803400E00127574502DDA7EB0A0089
:101C700000E0002000EB0A01009005984144401A62
:101C80000590E00306D45B462146179A059800F0BC
:101C9000B3F90544002706E001A85A46C05D17992C
:101CA00090476D1C7F1C4745F6DBE0030CD55B4677
:101CB0002146179A059800F09FF9054404E030206A
:101CC0005A46179990476D1C0099481E00900029AC
:101CD000F5DC08E0029802995A460078491C029106
:101CE000179990476D1CBAF10001AAF1010AF1DCC5
:101CF00065E10000092801003031323334353637D0
:101D00003839616263646566000000003031323347
:101D100034353637383941424344454600000000E7
:101D200000F058F90544761C307800287FF4ECADBB
:101D300019B02846BDE8F08F620700D4062709F1E4
:101D4000070222F0070CFCE80223E14603F00048FA
:101D50005FEA080C02D00FF2702C0DE05FEA045C21
:101D600002D50FF2682C07E05FEAC47C02D00FF2C4
:101D7000602C01E0AFF2700C4FF0FF3823F000430D
:101D8000CDF850C065280CD006DC452809D046287F
:101D90001DD047283DD13DE0662818D067287ED168
:101DA00038E00021112F01DB112000E0781CCDE983
:101DB000000106A90EA8FFF7DDFCDDE90F010E9A70
:101DC00003910021009207F1010A04914DE04FF0C8
:101DD00000400097CDE9011006A90EA8FFF7CAFC44
:101DE000DDE90F0203920E9B11990022DDF80CA091
:101DF0000093049211B9791C00EB010AB7EB0A00B9
:101E000004D4C0F1FF3007F1010A0490AAEB0700E7
:101E1000019044E0012F00DA01270021112F01DD9C
:101E2000112000E03846CDE9000106A90EA8FFF711
:101E3000A1FCDDE90F010E9A0391002104910092AB
:101E4000BA4621070CD40399514500DA8A46BAF103
:101E5000010F05DD009AAAF10101515C302908D07B
:101E6000B84202DA10F1040F06DA0121CDE90110BF
:101E700015E0AAF10101E9E7002805DC0499014415
:101E80000491AAEB000102E0411C514500DD8A46A5
:101E90000499401A401C01904FF000400290200726
:101EA00004D40198504501DBCDF8048000208DF862
:101EB0004F0002980DF14F07B0F1004F25D02B20B5
:101EC0000E9002984FF0020800280CDA404202906F
:101ED0002D200E9007E00A210298FEF712FA303109
:101EE000029007F8011DB8F10001A8F10108F2DC29
:101EF00002980028EFD1791E0E980870307800F013
:101F0000200040F0450007F8020D12A8C01B00F1A8
:101F100007081498007800B1012000EB0A0101982D
:101F200001EBE07105984144401A401E0590E00322
:101F300006D45B462146179A059800F05DF80544E3
:101F40001498007818B15A46179990476D1CE00311
:101F500024D55B462146179A059800F04DF80544B4
:101F60001CE00498002807DBDDE90301884203DD5B
:101F70000098405C179901E0179930205A46904725
:101F8000049805F10105401C04900198401E019041
:101F900004D12E205A46179990476D1CBAF10001C2
:101FA000AAF1010ADDDC05E017F8010B5A46179982
:101FB00090476D1CB8F10001A8F10108F4DC5B4604
:101FC0002146179A0598ABE62D0000002B00000073
:101FD000200000002DE9F041044600251E4617466A
:101FE000880404D405E039462020B0476D1C641EE7
:101FF000F9D52846BDE8F0812DE9F04104460025D9
:102000001E469046C80301D5302700E020278804EB
:1020100004D505E041463846B0476D1C641EF9D52D
:102020002846BDE8F0810A68531C0B6010707047A9
:1020300010B504466FF00400FFF704FAE11704EB53
:102040005171C1F3CF01074A11801046008800EB9F
:102050004001C1EBC0104FF6FF7101EAC000024918
:10206000088010BD080000200A00002070B504465A
:102070004FF4077094FBF0F0C6B24FF4077094FB76
:10208000F0F100FB114085B205E04FF4077000F05D
:1020900009F8701EC6B2002EF7D115B1284600F01F
:1020A00001F870BD0146114A12884A434FF0E023FF
:1020B0005A6100229A611A46126942F001021A61BD
:1020C00000BF4FF0E022106900F001021AB100F4E5
:1020D0008032002AF5D04FF0E022126922F001028E
:1020E0004FF0E0231A6100229A6170470A00002035
:1020F00000BF054A128802F04002002AF9D0C2B29D
:10210000014B9A8070470000001001402DED048BB8
:1021100082B04FF4A060FFF747F8A820FFF788FFD0
:102120004FF4E13000F0E2F8FEF728FEFEF777FE0C
:102130004EF67D70FEF75AFE44A04EF67D734FF4C6
:102140007842102100900020FEF7E0FC43A04EF6FC
:102150007D731F22202100900020FEF7D7FC44A0B1
:102160004EF67D731F22302100900020FEF7CEFC3A
:10217000FEF7E8FB43A04EF67D731F22402100903E
:102180000020FEF7C3FC42A04EF67D731F225021B3
:1021900000900020FEF7BAFC57E014210820FEF75B
:1021A0009DFC3E490880084602883DA14048FFF753
:1021B000BDFA3F484EF67D731F224021009000205B
:1021C000FEF7A4FC3548008800EE100AB8EE400A7D
:1021D00010EE100AFEF766F841EC190B9FED350B77
:1021E00053EC102BFDF7ECFF41EC180BFEF76DF8EC
:1021F0003249086008460068FEF754F841EC180BB5
:1022000053EC182B2EA12A48FFF790FA28484EF6D7
:102210007D731F22502100900020FEF777FC274895
:102220000068FEF73FF841EC180B53EC182B29A07F
:10223000FFF76CFA2C48006808B9012000E0002084
:1022400029490860FA20FFF711FFA6E72020202087
:1022500053544D3332204144432000002020C7B660
:10226000C8EBCABDBFAAB7A2CDF82020200000004D
:102270006D63756465762E74616F62616F2E636F36
:102280006D2000004348355F56414C3A0000000085
:102290004348355F564F4C3A0000000002000020D2
:1022A0004348385F56414C3A307825303258000068
:1022B000240000206666666666664A3F04000020C9
:1022C0004348385F564F4C3A2530362E34662056F8
:1022D000000000004348385F564F4C3A2530362EF8
:1022E000346620560D0A00008882414210B588B03D
:1022F000044601210846FEF763FF01211020FEF786
:102300006FFF072209212548FEF7A9FB07220A21B2
:102310002248FEF7A4FB4FF4C060069002208DF81F
:102320001C0003208DF81D0000208DF81E000120E8
:102330008DF81F0006A91948FEF749FB02940020FA
:10234000ADF80C00ADF80E00ADF81000ADF81400BB
:102350000C20ADF8120002A91148FFF765F9012120
:102360000F48FFF706F940210D48FFF7F9F8012261
:1023700040F225510A48FFF732F925208DF8040074
:1023800003208DF805008DF8060001208DF8070068
:1023900001A8FEF7CDFE08B010BD0000000002400D
:1023A00000100140000000000000000000000000DC
:1023B000000000000010101010101010101000008D
:1023C0001010000000006C6C2424000000000100CC
:1023D000000000000024242424FE48484848FC90C3
:1023E0009090900000103C54929050381412129229
:1023F000547810000000225C94A8481010242A523F
:1024000054880000000030484850206E54948C8856
:102410008A7400000000303010100000000000003E
:1024200000000000000408101020202020202010B0
:102430001008040000804020201010101010102000
:102440002040800000000000105438103854100064
:102450000000000000000010101010FE10101010FE
:10246000000000000000000000000000000000006C
:102470001010200000000000000000FE000000001E
:10248000000000000000000000000000000000004C
:102490001010000000000404080810102020404024
:1024A00080800000000038448282828282828282A0
:1024B00044380000000010701010101010101010A0
:1024C000107C000000003844828204081020408202
:1024D00084FC0000000038448202043804020282B6
:1024E000443800000000040C141424244444FE0466
:1024F000040E00000000FC808080B8C482020282CA
:102500008478000000003C428280B8C482828282CB
:102510004438000000007E428204040808081010BD
:1025200010100000000038448282443844828282C5
:10253000443800000000384482828282463A028297
:1025400044380000000000001010000000001010CF
:10255000000000000000000010100000000000104B
:1025600010200000000000000618608060180600BF
:1025700000000000000000000000FE0000FE00005F
:102580000000000000000000C0300C020C30C00051
:10259000000000000038448282020408101010007D
:1025A0001010000000003844829AAAAAAAAAAA968B
:1025B00080423C00000010101028282844447C442D
:1025C00044EE00000000FC424242427C4242424251
:1025D00042FC000000003C44828080808080828237
:1025E000443800000000F844424242424242424223
:1025F00044F800000000FC444240447C4440404217
:1026000044FC00000000FC444240447C4440404004
:1026100040F000000000344C828080808E848484EE
:102620004C3400000000EE444444447C44444444A0
:1026300044EE000000007C1010101010101010105C
:10264000107C000000003E080808080808080888F8
:10265000887000000000EE444848506050484844EC
:1026600044EE00000000E040404040404040404216
:1026700044FC00000000C6446C6C6C545454444448
:1026800044EE00000000CE4464646454544C4C4C4E
:1026900044E4000000003844828282828282828286
:1026A000443800000000F844424242447840404030
:1026B00040E000000000384482828282828282BA36
:1026C000443C02000000F0484444444870484444FC
:1026D00044E6000000003C44828040300C0202824C
:1026E0004478000000007C5492101010101010105C
:1026F000103800000000EE44444444444444444440
:10270000443800000000EE4444444428282828109F
:10271000101000000000EE4454545454545428281F
:10272000282800000000EE444428281010282844DF
:1027300044EE00000000EE44442828281010101039
:102740001038000000007E448408081020204082D9
:1027500084FC0000001C101010101010101010103D
:1027600010101C000000EE445454FE545454282809
:1027700028280000007010101010101010101010F9
:1027800010107000003048840000000000000000BD
:102790000000000000000000000000000000000039
:1027A0000000FE00004020000000000000000000CB
:1027B000000000000000000000007884047C848495
:1027C0008C7600000000C0404040586442424242C3
:1027D00064580000000000000000384480808080C1
:1027E0004438000000000C040404344C84848484C5
:1027F0004C360000000000000000788484FC8080DB
:1028000084780000000018242020F82020202020B8
:10281000207000000000000000003A444478807CF2
:1028200082827C000000C0404040586444444444DC
:1028300044EE0000000010100000301010101010C6
:1028400010380000000010100000301010101010A0
:10285000109060000000C04040405C48506050480C
:1028600044EE000000003010101010111010101075
:1028700010390000000000000000ACD29292929249
:1028800092D6000000000000000058E44444444494
:1028900044EE000000000000000038448282828282
:1028A00044380000000000000000D8644242426446
:1028B0005840E000000000000000364C8484844C46
:1028C00034040E000000000000006C3020202020A6
:1028D00020700000000000000000788884601884E8
:1028E00044780000000000202020F8202020202034
:1028F00024180000000000000000C642424242428C
:10290000463A0000000000000000EE444428282859
:1029100010100000000000000000EE444454542851
:1029200028280000000000000000EE4428101028B5
:1029300044EE0000000000000000EE44442828108F
:1029400010A0C0000000000000007E44881020425B
:1029500084FC0000000C10101010106010101010FB
:1029600010100C000010101010101010101010108B
:102970001010100000C0202020202018202020202F
:102980002020C00000000000000000728C00000049
:10299000000000000000000000001FE000003FF009
:1029A00000003FF000001FE0000180060003C00FA0
:1029B0000003C00F0003C00F0003C00F0003C00FCF
:1029C0000003C00F0003C00F0003C00F000300038B
:1029D00000000000000000000000000000030003F1
:1029E0000003C00F0003C00F0003C00F0003C00F9F
:1029F0000003C00F0003C00F0003C00F0003C00F8F
:102A00000001800600001FE000003FF000003FF0E2
:102A100000001FE000000000000000000000008037
:102A20000000018000000380000007800000078094
:102A3000000007800000078000000780000007807A
:102A40000000078000000780000007800000018070
:102A500000000000000000000000000000000180F5
:102A6000000007800000078000000780000007804A
:102A7000000007800000078000000780000007803A
:102A8000000007800000038000000180000000803B
:102A9000000000000000000000001FE000003FF008
:102AA0000000FFF00001FFE0000000060000000F42
:102AB0000000000F0000000F0000000F0000000FDA
:102AC0000000000F0000000F0000000F00001FE3D7
:102AD00000007FF800007FF800001FE00003000006
:102AE0000003C0000003C0000003C0000003C000DA
:102AF0000003C0000003C0000003C0000003C000CA
:102B00000001800000001FF000003FF800003FFCC3
:102B100000001FFE000000000003FF800001FFC056
:102B20000000FFC000007F80000000180000003C93
:102B30000000003C0000003C0000003C0000003CA5
:102B40000000003C0000003C0000003C00007F8CC6
:102B50000001FFE00001FFF000007F800000000C9A
:102B60000000003C0000003C0000003C0000003C75
:102B70000000003C0000003C0000003C0000003C65
:102B80000000001800007F800000FFC00001FFC0AF
:102B90000003FF80000000000000000000020001B0
:102BA00000030003000380070003C00F0003C00FF1
:102BB0000003C00F0003C00F0003C00F0003C00FCD
:102BC0000003C00F0003C00F0003C00F00031FE38A
:102BD00000007FF800007FFC00001FE00000000301
:102BE0000000000F0000000F0000000F0000000FA9
:102BF0000000000F0000000F0000000F0000000F99
:102C00000000000F000000070000000300000001AA
:102C1000000000000000000000001FFC00003FF862
:102C200000003FF000001FE0000180000003C00032
:102C30000003C0000003C0000003C0000003C00088
:102C40000003C0000003C0000003C00000031FE039
:102C500000007FF800007FF800001FE00000000384
:102C60000000000F0000000F0000000F0000000F28
:102C70000000000F0000000F0000000F0000000F18
:102C80000000000600003FE000007FF00000FFF0C1
:102C90000001FFE00000000000001FFC00003FF802
:102CA00000003FF000001FE0000180000003C000B2
:102CB0000003C0000003C0000003C0000003C00008
:102CC0000003C0000003C0000003C00000031FE0B9
:102CD00000007FF800007FFC00001FE000030003FD
:102CE0000003C00F0003C00F0003C00F0003C00F9C
:102CF0000003C00F0003C00F0003C00F0003C00F8C
:102D00000001800600001FE000003FF000003FF0DF
:102D100000001FE0000000000007FFE00003FFC00C
:102D20000001FF880000FF18000000380000007854
:102D300000000078000000780000007800000078B3
:102D40000000007800000078000000780000001803
:102D5000000000000000000000000000000000185B
:102D60000000007800000078000000780000007883
:102D70000000007800000078000000780000007873
:102D80000000007800000038000000180000000873
:102D9000000000000000000000001FE000003FF005
:102DA00000003FF000001FE0000180060003C00F9C
:102DB0000003C00F0003C00F0003C00F0003C00FCB
:102DC0000003C00F0003C00F0003C00F00031FE388
:102DD00000007FF800007FFC00001FE000030003FC
:102DE0000003C00F0003C00F0003C00F0003C00F9B
:102DF0000003C00F0003C00F0003C00F0003C00F8B
:102E00000001800600001FE000003FF000003FF0DE
:102E100000001FE00000000000001FE000003FF085
:102E200000003FF000001FE0000180060003C00F1B
:102E30000003C00F0003C00F0003C00F0003C00F4A
:102E40000003C00F0003C00F0003C00F00031FE307
:102E500000007FF800007FFC00001FE0000000037E
:102E60000000000F0000000F0000000F0000000F26
:102E70000000000F0000000F0000000F0000000F16
:102E80000000000600001FE000003FF000007FF09F
:102E90000000FFE000000000000000000000000053
:102EA0000000000000000000000000000000000022
:102EB0000000000000000000000000000000000012
:102EC0000000000000000000000000000000000002
:102ED00000000000000000000000000000000000F2
:102EE00000000000000000000000780000007800F2
:102EF00000007800000078000000780000007800F2
:102F000000000000000000000000000000000000C1
:102F100000000000000000000000000000000000B1
:102F200000000000000000000000000000000000A1
:102F3000000000000000070000000F8000000F806C
:102F400000000F80000007000000000000000000EB
:102F50000000000000000000000000000000000071
:102F60000000070000000F8000000F8000000F80AD
:102F7000000007000000000000000000000000004A
:102F80000000000000000000000000000000000041
:102F90000000000000000000000000000000000031
:102FA000000000000007C006000FE0060000000C53
:102FB0000030181800301818003018300030183061
:102FC00000301860003008C00007C0C0000FE0806B
:102FD000000000000000000FE0000607C0000630FF
:102FE00018000C3018000C30180018301800303061
:102FF00018003030180060000000C00FE000C0076B
:10300000C000000000000000000000000000000000
:1030100000000000000000000000000000000000B0
:10302000000000000000000000000000000700E0B9
:10303000000887FC00088E0300089801800718002C
:1030400080003000000030000000700000006000D0
:1030500000006000000060000000600000006000F0
:103060000000700000003000000030000000380058
:103070000000180100000C03000007FC000001F034
:103080000000000000000000000000000000000040
:103090000000000000000000000000000000000030
:1030A0000000000000000000000000000000000020
:1030B0000000000000000000000000000000000010
:1030C0000000000000000000000000000000000000
:1030D00000003FF000007FF000007FE00000FFC034
:1030E00000000000000000000000000000000000E0
:1030F00000000000000000000000000000000000D0
:1031000000000000000000000000000000000000BF
:10311000000000000000C7B60100210821083FF8A8
:1031200000202220223EFF42229422103E10221034
:1031300022283E2822440082C8EB0400020001003D
:103140000100010002800280028004400440082047
:1031500008201010201040088006CABD0048004416
:1031600000440040FFFE004000403E400840084050
:10317000082008220F12780A20060002BFAA0000C9
:103180007FFC08200820082008200820FFFE0820D7
:103190000820082008201020102020204020B7A25E
:1031A00001001110110822003FFC0200040007F882
:1031B0000A080908111010A0204040A003181C069E
:1031C000CDF800007FFC40044004421452944A545D
:1031D000442444244A544A54529461044004401400
:1031E0004008000000000000000000000000000097
:1031F00000000000000000000000000000000000CF
:1032000000000000000000000000000000000000BE
:1032100000000000000000000000000000000000AE
:10322000000000000000000000000000000000009E
:10323000000000000000000000000000000000008E
:10324000000000000000000000000000000000007E
:10325000703200080000002024000000541700080D
:103260009432000824000020F404000064170008D1
:10327000000000000000000000000000000000004E
:10328000000000000000010203040102030406071D
:043290000809000029
:040000050800018965
:00000001FF
