:020000040800F2
:10000000481500209D010008150F0008AD090008E3
:10001000110F000801070008831600080000000007
:10002000000000000000000000000000D1120008E5
:100030000507000800000000A50F0008E9130008EC
:10004000B7010008B7010008B7010008B7010008B0
:10005000B7010008B7010008B7010008B7010008A0
:10006000B7010008B7010008B7010008B701000890
:10007000B7010008B7010008B7010008B701000880
:10008000B7010008B7010008B7010008B701000870
:10009000B7010008B7010008B7010008B701000860
:1000A000B7010008B7010008B7010008B701000850
:1000B000B7010008B7010008B7010008B701000840
:1000C000B7010008B7010008B7010008B701000830
:1000D000B701000855140008B7010008B70100086F
:1000E000B7010008B7010008B7010008B701000810
:1000F000B7010008B7010008B7010008B701000800
:10010000B7010008B7010008B7010008B7010008EF
:10011000B7010008B7010008B7010008B7010008DF
:10012000B7010008B7010008B7010008B7010008CF
:10013000B7010008B7010008B7010008B7010008BF
:10014000B7010008B7010008B7010008B7010008AF
:10015000B7010008B7010008B7010008B70100089F
:10016000B7010008B7010008B7010008B70100088F
:10017000B7010008B7010008B7010008B70100087F
:10018000B7010008B7010008DFF80CD000F018FA3A
:1001900000480047292600084815002006488047E7
:1001A00006480047FEE7FEE7FEE7FEE7FEE7FEE75C
:1001B000FEE7FEE7FEE7FEE7ED1300088901000811
:1001C00030B50B46014600202022012409E021FA27
:1001D00002F59D4205D303FA02F5491B04FA02F524
:1001E0002844151EA2F10102F1DC30BD2DE9F05FBB
:1001F0000546002092469B46884606468146402496
:100200001BE0284641464746224600F0FAF953468D
:100210005A46C01A914110D311461846224600F0A2
:10022000E1F92D1A67EB01084F4622460120002113
:1002300000F0D8F917EB00094E41201EA4F101048B
:10024000DFDC484631462A464346BDE8F09F2DE9AB
:10025000FE4F804681EA0300C00F0C46009021F05B
:10026000004123F00045B8EB0200A94105D2404609
:10027000214690461C460B46024623F000401043A0
:1002800047D0270DC7F30A00C3F30A510290401A62
:10029000019040286BDAC3F3130040F4801B0098F0
:1002A000924620B10023D2EB030A63EB0B0B0198BB
:1002B0005946C0F14002504600F094F906460D46FA
:1002C00050465946019A00F0ACF910EB0800614124
:1002D000002487EA115284EAE7731A4340D0009A57
:1002E00062B3019A012A4FEA075215DC001B61EB49
:1002F00002014FF0004202EA0752CDE90042001C21
:1003000041F5801132462B4600F0ACF903B0BDE850
:10031000F08F40462146F9E7001B61EB0201001C0B
:1003200041F5801300185B412018A2F5001747EB38
:10033000030140EAD570B6196D4111E06D084FEA2E
:10034000360645EAC0754FEA0752001B61EB020111
:10035000001C41F5801149084FEA30000019514155
:1003600032462B4603B0BDE8F04F00F06CB9009860
:10037000012240000023D0EB020263EBE0730098FF
:1003800021464FEAE074B8EB000061EB0401E9E7B5
:1003900083F000435BE781F0004158E72DE9FE4F11
:1003A00081EA030404F0004421F0004100944FF07E
:1003B000000B23F0004350EA01045ED052EA03042C
:1003C0005BD0C3F30A54C1F30A552C44A4F2F334AE
:1003D0000194A0FB0254C1F3130141F48011C3F353
:1003E000130343F4801301FB024400FB034E840A11
:1003F000970A44EA815447EA8357A4FB07680295A9
:100400008D0A05FB07854FEA932C04FB0C54270546
:10041000029D4FEA065847EA1637B5EB08056EEB22
:10042000070C870E920E47EA811742EA8312A7FB58
:100430000201B6EB0B0164EB00042B0D43EA0C3315
:100440005E1844EB1C50DA465146E7FB0201C5F347
:1004500013044FEA0B3343EA14534FEA0432019C6E
:1004600043EA0603A4F10C040294009CCDE900B415
:1004700000F0F8F803B0BDE8F08F00200146F9E77E
:100480002DE9F04D81EA030404F0004B21F0004512
:1004900014464FF0000A23F0004150EA050220D034
:1004A00054EA01021DD0C5F30A570246C5F31303EF
:1004B000C1F31300C1F30A5640F4801543F48013CE
:1004C000A7EB0608101BD64608F2FD3873EB0500B3
:1004D00002D308F1010801E092185B41B8F1000F66
:1004E00003DA00200146BDE8F08D00204FF48011B2
:1004F000064684460EE0171B73EB050705D3121B57
:1005000063EB050306434CEA010C49084FEA30004F
:1005100092185B4150EA0107EDD152EA030012D074
:1005200082EA040083EA0501084305D0101BAB41B1
:1005300006D20122002306E000224FF0004302E031
:100540006FF0010253101AEB06004CEB085110EB50
:100550000A0041EB0B01BDE8F04D00F074B8C1F3A7
:100560000A52C1F3130140F2FF3341F480119A4261
:1005700002DA00200146704740F233439A42A2F269
:10058000334202DC524200F03CB800F02BB80000CD
:1005900030B5041E71F1000404DB4FF0004440420A
:1005A00064EB0101141E73F1000405DB1C464FF0DF
:1005B0000043524263EB0403994208BF904230BDAE
:1005C000064C074D06E0E06840F0010394E80700A0
:1005D00098471034AC42F6D3FFF7DAFD90380008A4
:1005E000B0380008202A04DB203A00FA02F100208B
:1005F00070479140C2F1200320FA03F31943904061
:100600007047202A04DB203A21FA02F000217047CB
:1006100021FA02F3D040C2F120029140084319466A
:100620007047202A06DBCB17203A41FA02F043EA52
:10063000E07306E041FA02F3D040C2F1200291409B
:1006400008431946704710B5141E73F1000408DA08
:10065000401C41F1000192185B411A4301D120F086
:10066000010010BD2DE9F04D92469B4611B1B1FA43
:1006700081F202E0B0FA80F220329046FFF7B2FF3A
:1006800004460F4640EA0A0041EA0B0153465A4627
:10069000084313D0114653EA010019D0C8F14002B3
:1006A0005046FFF7AEFF05460E46504659464246B5
:1006B000FFF798FF084305D0012004E020463946A3
:1006C000BDE8F08D0020054346EAE0762C43374331
:1006D0000A986305E40AA0EB08000022FD0A44EA38
:1006E00047540A3002D500200146E9E701051019F8
:1006F0006941DDE9084500196941BDE8F04DA2E70F
:1007000000BFFEE77047F0B50A4600210023002431
:1007100000BF3DE0012505FA01F3156805EA030471
:100720009C4234D105684F000326BE40B5430560A6
:1007300015794E00B5400668354305601579012DE1
:1007400002D01579022D16D185684F000326BE40D0
:10075000B543856055794E00B54086683543856060
:10076000456801268E40B5434560456896798E40C0
:10077000B6B235434560C5684F000326BE40B54359
:10078000C560D5794E00B540C6683543C560491C83
:100790001029BFD3F0BDF0B5002300244D07ED0EA6
:1007A00002FA05F3CE1000F1200555F826504E0749
:1007B000F70E0F26BE40B543CF1000F1200646F8D5
:1007C0002750CE1000F1200555F8265045EA0304C5
:1007D000CE1000F1200545F82640F0BD024600206D
:1007E00013690B400BB1012000E0002070474183EA
:1007F00070470183704700002DE9F84F074688468F
:1008000093469A46DDF828900097B3E099F80000E7
:1008100080283DDA99F800600D2E05D1009F08F17F
:1008200010001FFA80F830E0202E03DDA6F1200032
:1008300086B200E00026002422E000251CE004EB44
:1008400006105049085C80212941084040B108EB5E
:10085000040291B27A1990B25A4600F097F809E072
:10086000D34507D008EB040291B27A1990B25246F0
:1008700000F08CF8681CC5B2082DE0DB601CC4B227
:10088000102CDADB07F1080087B209F1010971E0E9
:10089000002668E006EB06103B4911F8100099F8B5
:1008A000001088425DD106EB0610374901EB40008D
:1008B000407899F80110884253D100244FE0002578
:1008C00020E006EB0610304901EB4000801C10F8D8
:1008D000141080202841014041B108EB040291B27C
:1008E0007A1990B25A4600F051F809E0D34507D082
:1008F00008EB040291B27A1990B2524600F046F821
:10090000681CC5B2082DDCDB002524E006EB0610D0
:100910001D4901EB4000801C012101EB4401405CBA
:1009200080212941084048B108EB040291B27A19AC
:10093000083290B25A4600F029F80AE0D34508D0B0
:1009400008EB040291B27A19083290B2524600F0D4
:100950001DF8681CC5B2082DD8DB601CC4B2102C71
:10096000ADDB701C86B2062E94DB09F1020907F19B
:10097000100087B299F8000000287FF447AFBDE867
:10098000F88F0000E62900085837000870B50446C3
:100990000D461646681C83B2601C82B2294620466A
:1009A00000F058FA304600F0C1F870BD00BFFEE715
:1009B0001CB50121052000F0F7FA42F20200009078
:1009C00000208DF8040003208DF8050001208DF82B
:1009D000070069460948FFF796FE012000900020B5
:1009E0008DF8040003208DF8050002208DF8070023
:1009F00069460348FFF787FE1CBD0000000802405F
:100A00000000024010B5044614B1012024490870CA
:100A10002348007868B302212248FFF7DFFE58B16F
:100A20004FF400511F48FFF7D9FE28B101211E489D
:100A3000FFF7D4FE01281CD10A2001F0B3FD0020ED
:100A40001749087002211748FFF7C8FE08B90120AE
:100A500010BD4FF400511348FFF7C0FE08B9022043
:100A6000F6E701211048FFF7B9FE012815D1032050
:100A7000EEE702210B48FFF7B1FE01280DD141033B
:100A80000848FFF7ABFE012807D101210648FFF710
:100A9000A5FE10B90120024908700020D8E7000027
:100AA0000800002000080240000002401CB501219F
:100AB000062000F079FA4FF47040009001208DF884
:100AC000040000208DF8060003208DF805000120A9
:100AD0008DF8070069461348FFF715FEC020009007
:100AE00001208DF8040000208DF8060003208DF809
:100AF000050001208DF8070069460B48FFF703FE4B
:100B00004FF480410748FFF774FE80210648FFF745
:100B100070FE80210448FFF76AFE80210248FFF73B
:100B200068FE1CBD000402400008024010B50446E7
:100B30004FF480510948FFF75AFE40210848FFF75B
:100B400058FE201200F09EFBE0B200F09BFB4FF439
:100B500080510248FFF74DFE10BD00000004024026
:100B6000000802401CB50121092000F01DFA4FF4D5
:100B70008070009001208DF8040000208DF80600A0
:100B800003208DF8050001208DF8070069460F4805
:100B9000FFF7B9FD0420009001208DF8040000202B
:100BA0008DF8060003208DF8050001208DF8070060
:100BB00069460748FFF7A7FD4FF480710348FFF728
:100BC00018FE04210248FFF714FE1CBD000002407D
:100BD000000C024070B506467F231A4600210846E5
:100BE00000F038F92C2000F07BF9002408E0002503
:100BF00003E03046FFF79AFF6D1C802DF9D3641C8B
:100C0000802CF4D370BD10B5FFF750FF00F00CF945
:100C1000112000F065F9782001F0C4FCB12000F04B
:100C20005FF9012000F044F92C2000F041F92D205B
:100C300000F03EF9B22000F053F9012000F038F93D
:100C40002C2000F035F92D2000F032F9B32000F00F
:100C500047F9012000F02CF92C2000F029F92D2073
:100C600000F026F9012000F023F92C2000F020F9F3
:100C70002D2000F01DF9B42000F032F9072000F01B
:100C800017F9C02000F02CF9A22000F011F9022081
:100C900000F00EF9842000F00BF9C12000F020F9DB
:100CA000C52000F005F9C22000F01AF90A2000F072
:100CB000FFF8002000F0FCF8C32000F011F98A20B2
:100CC00000F0F6F82A2000F0F3F8C42000F008F94C
:100CD0008A2000F0EDF8EE2000F0EAF8C52000F0E0
:100CE000FFF80E2000F0E4F8362000F0F9F8C820F4
:100CF00000F0DEF8E02000F0F3F80F2000F0D8F864
:100D00001A2000F0D5F80F2000F0D2F8182000F0DB
:100D1000CFF82F2000F0CCF8282000F0C9F82020D0
:100D200000F0C6F8222000F0C3F81F2000F0C0F841
:100D30001B2000F0BDF8232000F0BAF8372000F0A7
:100D4000B7F8002000F0B4F8072000F0B1F8022056
:100D500000F0AEF8102000F0ABF8E12000F0C0F891
:100D60000F2000F0A5F81B2000F0A2F80F2000F0E3
:100D70009FF8172000F09CF8332000F099F82C2001
:100D800000F096F8292000F093F82E2000F090F85B
:100D9000302000F08DF8302000F08AF8392000F083
:100DA00087F83F2000F084F8002000F081F8072049
:100DB00000F07EF8032000F07BF8102000F078F8B7
:100DC0002A2000F08DF8002000F072F8002000F0DA
:100DD0006FF8002000F06CF87F2000F069F82B20FD
:100DE00000F07EF8002000F063F8002000F060F8CA
:100DF000002000F05DF89F2000F05AF8F02000F08D
:100E00006FF8012000F054F8F62000F069F8002097
:100E100000F04EF83A2000F063F8052000F048F8A2
:100E2000292000F05DF810BD10B54FF4804108484E
:100E3000FFF7DDFC4FF4967001F0B4FB4FF48041F6
:100E40000348FFF7D6FC642001F0ACFB10BD0000A6
:100E5000000402402DE9F04104460D4616461F46A7
:100E60002A2000F03DF8002000F022F8A11CC8B2B2
:100E700000F01EF8002000F01BF8B11CC8B200F012
:100E800017F82B2000F02CF8002000F011F8E91CD6
:100E9000C8B200F00DF8002000F00AF8F91CC8B242
:100EA00000F006F82C2000F01BF8BDE8F0810000EF
:100EB00010B504464FF480510748FFF798FC4021D5
:100EC0000648FFF796FC204600F0DCF94FF480510D
:100ED0000148FFF78EFC10BD0004024000080240EC
:100EE00010B504464FF480510748FFF780FC4021BD
:100EF0000648FFF77CFC204600F0C4F94FF480510F
:100F00000148FFF776FC10BD0004024000080240D3
:100F100000BFFEE77047000070B5002100230F22DC
:100F2000C4781CB3174C246804F4E064C4F5E0648E
:100F3000C4F30721C1F10404E3B20A4144789C40A0
:100F4000E1B28478144021430C07210E0E4C057841
:100F50006155047804F01F050124AC4005786D113B
:100F6000AD0005F1E025C5F8004109E0047804F082
:100F70001F050124AC40054D0678761145F8264042
:100F800070BD00000CED00E000E400E080E100E056
:100F900002490143024A1160704700000000FA054F
:100FA0000CED00E07047000029B1064A12680243C8
:100FB000044B1A6004E0034A12688243014B1A6032
:100FC000704700003038024029B1064A12680243D7
:100FD000044B1A6004E0034A12688243014B1A6012
:100FE000704700004438024029B1064A12680243A3
:100FF000044B1A6004E0034A12688243014B1A60F2
:101000007047000024380240F0B50021002200247F
:10101000022500260223324F3F6807F00C0121B160
:10102000042905D0082937D105E02E4F076036E0A6
:101030002D4F076033E02A4F3F1F3F68C7F38056AC
:10104000274F3F1F3F6807F03F036EB1264FB7FBA6
:10105000F3F7DFF88CC0ACF1040CDCF800C0CCF383
:10106000881C07FB0CF40CE01E4FB7FBF3F7DFF80E
:1010700070C0ACF1040CDCF800C0CCF3881C07FB9A
:101080000CF4174F3F1F3F68C7F301477F1C7D00DB
:10109000B4FBF5F7076002E0124F076000BF00BF26
:1010A0000F4F3F6807F0F0010909104F7A5C07689D
:1010B000D74047600A4F3F6807F4E051890A0B4F59
:1010C0007A5C4768D7408760054F3F6807F4604106
:1010D000490B064F7A5C4768D740C760F0BD0000F7
:1010E000083802400024F40000127A0016000020A4
:1010F00000B587B001210846FFF756FF012108031C
:10110000FFF762FFE020059002208DF81800002014
:101110008DF81A0003208DF8190001208DF81B00AE
:1011200005A92248FFF7EFFA052211461F48FFF7ED
:1011300032FB052206211D48FFF72DFB0522072162
:101140001A48FFF728FB01210803FFF74DFF002194
:101150004FF48050FFF748FF0020ADF800004FF437
:101160008270ADF802000020ADF804000220ADF856
:1011700006000120ADF808004002ADF80A00382052
:10118000ADF80C000020ADF80E000720ADF81000FF
:101190006946074800F058F80121054800F03AF880
:1011A000FF2000F007F807B000BD0000000002407B
:1011B0000030014010B5044600BF02210A4800F08B
:1011C00035F80028F9D02146074800F03BF800BF69
:1011D0000121054800F02AF80028F9D0024800F063
:1011E0002EF8C0B210BD00000030014010B504461A
:1011F000074800884FF6C77108400549088008462F
:101200000088204308800121014800F003F810BD48
:101210000030014021B1028842F04002028004E027
:1012200002884FF6BF731A400280704702460020C2
:1012300013890B400BB1012000E0002070470146EC
:10124000888970478181704710B50022028802F4B6
:1012500041520B884C8823438C882343CC882343FA
:101260000C8923434C8923438C892343CC89234312
:101270001A430280838B4FF2FF74234083830B8ACF
:10128000038210BD70B50446002508251BE004F05C
:10129000800028B14FF400410C48FFF7AAFA04E09F
:1012A0004FF400410948FFF7A2FA4FF400510748F4
:1012B000FFF79DFA4FF400510448FFF79AFA6006D1
:1012C000040E681EC5B2002DE1DC70BD00040240B2
:1012D000704700000CB50020019000903448006871
:1012E00040F480303249086000BF3148006800F4A3
:1012F000003000900198401C0190009818B90198A6
:10130000B0F5A04FF1D12A48006800F4003010B1C8
:101310000120009001E0002000900098012846D1B3
:1013200023484030006840F0805021494031086037
:101330002048006840F440401E4908601C480830BE
:1013400000681B49083108600846006840F4004006
:1013500008600846006840F4A05008601648091F5D
:101360000860081F006840F08070091F086000BF17
:101370000F48006800F000700028F9D040F20570B6
:101380000E4908600A480830006820F00300084948
:10139000083108600846006840F00200086000BF9D
:1013A00003480830006800F00C000828F8D10CBD94
:1013B000003802400070004008544007003C0240E2
:1013C000042808D14FF0E021096941F004014FF0F1
:1013D000E022116107E04FF0E021096921F00401EA
:1013E0004FF0E022116170477047000010B51548BA
:1013F000006840F47000134908601348006840F02A
:1014000001001149086000200F49083108600E48AA
:1014100000680E4908400C4908600D48091D086025
:10142000081F006820F48020091F0860002006497A
:101430000C310860FFF74EFF4FF000600149803922
:10144000086010BD88ED00E000380240FFFFF6FEA6
:101450001030002410B540F225511D4800F053F81B
:1014600010B31B4800F008F9C4B21A48008800F411
:101470000040C8B91748008800F4804060B10A2CC9
:1014800003D000201349088020E01248008840F46F
:1014900000401049088019E00D2C06D10D48008845
:1014A00040F480400B49088010E00A480088C0F3EF
:1014B0000D0009490C5407480088401C0549088064
:1014C00008460088C72801DD0020088010BD000004
:1014D00000100140140000207A10002001F4007276
:1014E000B2F5007F00D100BFCA430280704721B12E
:1014F000828942F40052828104E082894DF6FF73B2
:101500001A408281704770B50246002400230025EE
:10151000002040F66A16B14200D100BFC1F3421567
:1015200001F01F03012606FA03F3012D02D196896B
:10153000334006E0022D02D1168A334001E0968A3C
:1015400033400C12012606FA04F41688344013B115
:101550000CB1012000E0002070BDF0B5034600246E
:1015600000260025002040F66A17B94200D100BFCE
:101570001846C1F3421401F01F06012707FA06F5C9
:10158000012C01D10C3004E0022C01D1103000E01C
:1015900014301AB107682F43076002E00768AF43B1
:1015A0000760F0BD2DE9FF4705460E460024A14621
:1015B00000BFA046B08900B100BF2C8A24F440547B
:1015C000F08804432C82AC8941F20C608443B088DB
:1015D00031890843718908430443AC81AC8A24F4FF
:1015E0004074B0890443AC826846FFF70DFD204883
:1015F000854202D01F48854202D1DDF80C9001E0FF
:10160000DDF80890A88900F4004040B109EBC9005A
:1016100000EB091031684900B0FBF1F707E009EB76
:10162000C90000EB091031688900B0FBF1F76420B4
:10163000B7FBF0F004012009642101FB1078A889B0
:1016400000F4004040B1322000EBC800B0FBF1F0E4
:1016500000F00700044308E0322000EB081064218A
:10166000B0FBF1F000F00F0004432C81BDE8FF87D0
:10167000001001400014014001468888C0F30800B2
:10168000704700BFFEE7000010B50446240300F0D9
:1016900011F900F0A9F800200B4908602020FFF79D
:1016A00089FDC4F30740FFF785FDC4F30720FFF76A
:1016B00081FDE0B2FFF77EFD01200449C1F88802F8
:1016C00000F092F810BD0000880240420000404245
:1016D0001CB501210846FFF767FC0420009001209B
:1016E0008DF8040000208DF8060003208DF8050019
:1016F00001208DF8070069460748FFF704F801202C
:1017000006490860FFF7F4FC0020FFF76FFD00F0CA
:1017100031F8034908801CBD0000024088024042A5
:101720000A0000202DE9F04106460C46174600202D
:101730000F4908600320FFF73DFDC4F30740FFF7A2
:1017400039FDC4F30720FFF735FDE0B2FFF732FDA6
:10175000002505E0FF20FFF72DFD7055681C85B2C0
:10176000BD42F7DB012002490860BDE8F0810000BE
:101770008802404210B5002400200E4908609020E5
:10178000FFF718FD0020FFF715FD0020FFF712FD01
:101790000020FFF70FFDFF20FFF70CFD44EA0024B7
:1017A000FF20FFF707FD044301200349C1F8880229
:1017B000204610BD880240420000404210B500247F
:1017C0000020074908600520FFF7F4FCFF20FFF721
:1017D000F1FC044601200349C1F88802204610BDEF
:1017E000880240420000404210B500BFFFF7E6FF0C
:1017F00000F001000028F9D110BD00002DE9F05FD4
:1018000081460F461646DFF8A8B04FEA1738C7F3EF
:101810000B0ACAF58054A64200DC344644E04FEA85
:1018200008314FF480525846FFF77CFF002508E04E
:101830000AEB05001BF80000FF2800D003E0681C3D
:1018400085B2A542F4DB00BFA54216DA4046FFF799
:101850001BFF002507E019F8050005EB0A010BF84E
:101860000100681C85B2A542F5DB4FEA08314FF450
:101870008052584600F02EF804E022463946484689
:1018800000F028F8A64200D10FE008F101084FF05F
:10189000000AA1442744301B86B2B6F5805F02DD02
:1018A0004FF4805400E03446B9E700BFBDE8F09F34
:1018B0007A00002010B50020044908600620FFF7D8
:1018C00079FC01200249C1F8880210BD880240421B
:1018D000000040422DE9F04107460E461446F0B2A2
:1018E000C0F58075AC4200DC254612E02A46314640
:1018F000384600F013F8AC4200D10BE02F442E44E0
:10190000601B84B2B4F5807F02DD4FF4807500E087
:101910002546EBE700BFBDE8F08100002DE9F0416E
:1019200006460C461746FFF7C5FF00200F49086022
:101930000220FFF73FFCC4F30740FFF73BFCC4F372
:101940000720FFF737FCE0B2FFF734FC002504E086
:10195000705DFFF72FFC681C85B2BD42F8DB0120EB
:1019600002490860FFF740FFBDE8F081880240426D
:101970000FB4084B10B504A902AA039800F052FA5C
:10198000044602A9002000F0E9FD204610BC5DF8E5
:1019900014FB00005D2500080FB4084B10B504A926
:1019A00002AA039800F0DEF8044602A9002000F025
:1019B000D0FD204610BC5DF814FB00005325000844
:1019C00002E008C8121F08C1002AFAD17047704708
:1019D000002001E001C1121F002AFBD17047000066
:1019E0002DE9FF5F82B00021DDE90430020DDDF852
:1019F00040B0034318D044F61050A2F2FF324243E5
:101A00001514119801281FD0A5EB0B00401C5FEAAC
:101A1000000A4FF000064E4FDFF83891B0465046AE
:101A200015D5CAF1000413E0119801244AA3012836
:101A300001D16FEA0B010298119AC0E90031C0E9A7
:101A4000024206B0BDE8F09FCBF10000DFE704469C
:101A50000021404A491842EB0450CDE9001012E041
:101A6000E00707D032463B4640464946FEF796FC23
:101A70008046894632463B4610461946FEF78EFCA4
:101A800006460F466410002CEAD1DDE90401DDE9C9
:101A90000023BAF1000F06DAFEF780FC42464B46FF
:101AA000FEF77CFC05E0FEF7EBFC42464B46FEF7FA
:101AB000E7FC04460E460022284BFEF769FD03D8DA
:101AC0004FF0FF30014607E00022254B204631460B
:101AD000FEF7BDFBFEF743FD102409E0002C0ADBF6
:101AE0000A220023FEF782FB039B30321A55641E44
:101AF00050EA0102F2D1641C039AC4F111031444A8
:101B0000119A012A03D0012208430DD10AE00843AB
:101B100004D000204FF0110B119072E7A3EB0B05DE
:101B20006D1E0DE05B4504DD4FF0000205F101057F
:101B300004E003DA4FF00002A5F10105002AECD021
:101B400002981199C0E90231C0E9004579E7000027
:101B5000000014400000F03F300000000000F0439F
:101B60000000E03F2DE9FF4F8DB09B460F46044635
:101B7000002606E025280BD05A460F999047641C92
:101B8000761C20780028F5D111B03046BDE8F08FE2
:101B90000025A8460122984900E0054314F8013FBA
:101BA000203B02FA03F00842F7D120782E2817D103
:101BB00014F8010F45F004052A280ED06FF02F020B
:101BC0002078A0F1300109290AD808EB880102EB3E
:101BD000410100EB0108641CF2E757F8048B641C18
:101BE00020786C280DD004DC4C2812D06A2811D142
:101BF00004E074280DD07A280CD10AE045F40015D1
:101C000007E0617845F48015814202D1641C05F536
:101C10008015641C2278692A45D008DC002AB3D0DC
:101C2000582A69D0632A10D0642A08D13BE0702A70
:101C300067D0732A13D0752A5CD0782A5CD01046FE
:101C40005A460F999047761CD3E017F8040B8DF88D
:101C5000000000208DF80100E946012003E057F85C
:101C6000049B4FF0FF3069074FF0000501D40AE0F4
:101C70006D1C45450DDA8542FADB19F8051000297F
:101C8000F6D106E06D1C8542FCDB19F80510002931
:101C9000F8D12E4404E019F8010B5A460F999047E9
:101CA0006D1EF8D2A5E00A200021CDE90801C5F398
:101CB000025002280DD001CFC117031E71F100039D
:101CC0000DDA4FF0000CD0EB0C006CEB01012D2372
:101CD00008E0FF1D27F00707F7E80201EDE72B05F5
:101CE00004D52B238DF8283001233BE0EB0739D0B6
:101CF0002023F7E70A2000E010200021CDE90801A9
:101D000007E01020002145F00405CDE908014FF05F
:101D10000808C5F3025002280FD001CF00214FF070
:101D2000000A2B071FD5702A0DD0DDE908C38CF0FF
:101D3000100C5CEA030C0CD015E0FF1D27F0070720
:101D4000F7E80201EBE740228DF828204FF0010A66
:101D50000BE050EA010306D030238DF828308DF8CF
:101D6000292002239A46582A04D024A20DF12009E2
:101D70000B9209E026A2F9E7DDE90823FEF736FA1F
:101D80000B9B9B5C09F8013D50EA0102F4D1ADEBDD
:101D9000090020300890680701D44FF00108089925
:101DA000884502DDA8EB010000E000208046002508
:101DB00006E00AA85A46405D0F9990476D1C761CB4
:101DC0005545F6DB04E030205A460F999047761CC3
:101DD000B8F10001A8F10108F5DC05E019F8010BE4
:101DE0005A460F999047761C0899481E089000297A
:101DF000F4DC641CC5E600000928010030313233F0
:101E00003435363738396162636465660000000036
:101E10003031323334353637383941424344454620
:101E2000000000002DE9FF4F95B09B46894606460D
:101E300000250FE2252877D100242746F84A012102
:101E4000059400E0044316F8013F203B01FA03F03B
:101E50001042F7D130782A2811D06FF02F03307854
:101E6000A0F13002092A16D8059A44F0020402EBC8
:101E7000820203EB42021044761C0590EFE759F80A
:101E8000042B0592002A03DA504244F400540590D2
:101E900044F00204761C30782E2816D116F8010F73
:101EA00044F004042A280DD06FF02F023078A0F1FE
:101EB0003003092B09D807EB870302EB4303C7184C
:101EC000761CF3E759F8047B761C30786C280FD029
:101ED00006DC4C2817D068280DD06A2814D104E0FD
:101EE000742810D07A280FD10DE044F400140AE0D1
:101EF00044F4801401E044F440147278824202D128
:101F000004F58014761C761C307866280BD013DC20
:101F1000582877D009DC002875D04528F6D0462807
:101F2000F4D047281AD19DE118E0632835D0642801
:101F300079D0652812D195E1702873D008DC672824
:101F4000F1D069286FD06E280DD06F2806D1B5E08A
:101F500073282CD0752875D0782874D05A461799D4
:101F600090476D1C75E1C4F30250022809D0032884
:101F70000DD0D9F8001004280DD00D6009F1040926
:101F800067E1D9F80010EA17C1E90052F6E7D9F87D
:101F900000100D80F2E70D70F0E719F8041B8DF8C2
:101FA000001000208DF80100EA46012003E059F8F6
:101FB00004AB4FF0FF3061074FF0000102D40DE099
:101FC00008F101018846B9420FDA8045F8DB1AF8BA
:101FD00008100029F4D108E008F101018846814287
:101FE000FADB1AF808100029F6D105985B46A0EB39
:101FF000080721463846179A00F094FA284400EB67
:10200000080507E04DE029E10DE01AF8010B5A46FA
:1020100017999047B8F10108F7D25B462146384638
:10202000179A13E142E00A220092C4F302524FF0E1
:10203000000A022A08D059F804CB032A4FEAEC71AF
:102040000AD00DE029E02AE009F1070121F007029A
:10205000F2E802C1914609E00FFA8CFC4FEAEC71FC
:10206000042A03D14FFA8CFC4FEAEC71002907DAFD
:102070000A460021DCF1000C61EB02012D2202E096
:10208000220504D52B228DF80420012203E0E2076B
:1020900001D02022F7E7904659E00A2102E0102201
:1020A0000DE010214FF0000A00910BE010224FF0DC
:1020B000000A44F004040827009203E008224FF0CD
:1020C000000A0092C4F30252022A05D059F804CB48
:1020D0000021032A08D009E009F1070121F00702D5
:1020E000F2E802C1914605E01FFA8CFC042A01D1F6
:1020F0000CF0FF0C4FF00008220728D5702806D0FE
:10210000009B83F0100353EA0A0305D00EE040223F
:102110008DF80420012208E05CEA010206D030229A
:102120008DF804208DF8050002229046009B83F074
:10213000080353EA0A030AD15CEA010201D16207EB
:1021400005D530228DF804204FF001087F1E582855
:1021500004D034A003900EA802900DE036A0F9E759
:1021600053466046009AFEF741F884460398825C25
:102170000298401E029002705CEA0100F0D10298C1
:1021800006A9081A00F1200A600702D524F4803459
:1021900000E00127574502DDA7EB0A0000E0002020
:1021A00000EB0A01009005984144401A0590E003B5
:1021B00006D45B462146179A059800F0B3F905440A
:1021C000002706E001A85A46C05D179990476D1C8C
:1021D0007F1C4745F6DBE0030CD55B462146179A8A
:1021E000059800F09FF9054404E030205A461799FD
:1021F00090476D1C0099481E00900029F5DC08E00E
:10220000029802995A460078491C02911799904702
:102210006D1CBAF10001AAF1010AF1DC65E10000D0
:1022200009280100303132333435363738396162AC
:102230006364656600000000303132333435363770
:1022400038394142434445460000000000F058F947
:102250000544761C307800287FF4ECAD19B0284690
:10226000BDE8F08F620700D4062709F1070222F0CB
:10227000070CFCE80223E14603F000485FEA080C83
:1022800002D00FF2702C0DE05FEA045C02D50FF271
:10229000682C07E05FEAC47C02D00FF2602C01E0FA
:1022A000AFF2700C4FF0FF3823F00043CDF850C070
:1022B00065280CD006DC452809D046281DD04728C3
:1022C0003DD13DE0662818D067287ED138E0002156
:1022D000112F01DB112000E0781CCDE9000106A9D7
:1022E0000EA8FFF77DFBDDE90F010E9A0391002197
:1022F000009207F1010A04914DE04FF00040009771
:10230000CDE9011006A90EA8FFF76AFBDDE90F026F
:1023100003920E9B11990022DDF80CA00093049209
:1023200011B9791C00EB010AB7EB0A0004D4C0F123
:10233000FF3007F1010A0490AAEB0700019044E086
:10234000012F00DA01270021112F01DD112000E00B
:102350003846CDE9000106A90EA8FFF741FBDDE9EB
:102360000F010E9A0391002104910092BA462107B1
:102370000CD40399514500DA8A46BAF1010F05DD04
:10238000009AAAF10101515C302908D0B84202DA62
:1023900010F1040F06DA0121CDE9011015E0AAF1D0
:1023A0000101E9E7002805DC049901440491AAEB46
:1023B000000102E0411C514500DD8A460499401AA3
:1023C000401C01904FF000400290200704D4019877
:1023D000504501DBCDF8048000208DF84F000298B5
:1023E0000DF14F07B0F1004F25D02B200E90029831
:1023F0004FF0020800280CDA404202902D200E9087
:1024000007E00A210298FDF7DBFE3031029007F861
:10241000011DB8F10001A8F10108F2DC02980028C2
:10242000EFD1791E0E980870307800F0200040F04F
:10243000450007F8020D12A8C01B00F10708149808
:10244000007800B1012000EB0A01019801EBE07176
:1024500005984144401A401E0590E00306D45B46AF
:102460002146179A059800F05DF805441498007805
:1024700018B15A46179990476D1CE00324D55B4666
:102480002146179A059800F04DF805441CE0049881
:10249000002807DBDDE90301884203DD0098405C8A
:1024A000179901E0179930205A469047049805F192
:1024B0000105401C04900198401E019004D12E207B
:1024C0005A46179990476D1CBAF10001AAF1010A0A
:1024D000DDDC05E017F8010B5A46179990476D1C93
:1024E000B8F10001A8F10108F4DC5B462146179A17
:1024F0000598ABE62D0000002B0000002000000036
:102500002DE9F041044600251E461746880404D4F0
:1025100005E039462020B0476D1C641EF9D52846D9
:10252000BDE8F0812DE9F041044600251E469046A5
:10253000C80301D5302700E02027880404D505E032
:1025400041463846B0476D1C641EF9D52846BDE8A3
:10255000F0810A68531C0B60107070470A68531CA6
:102560000B6010707047000010B504466FF0040057
:10257000FEF726FFE11704EB5171C1F3CF01074AC3
:1025800011801046008800EB4001C1EBC0104FF6EF
:10259000FF7101EAC0000249088010BD0C00002054
:1025A0000E00002070B504464FF4077094FBF0F065
:1025B000C6B24FF4077094FBF0F100FB114085B2F6
:1025C00005E04FF4077000F009F8701EC6B2002E47
:1025D000F7D115B1284600F001F870BD0146114A47
:1025E00012884A434FF0E0235A6100229A611A464A
:1025F000126942F001021A6100BF4FF0E022106937
:1026000000F001021AB100F48032002AF5D04FF038
:10261000E022126922F001024FF0E0231A61002249
:102620009A6170470E00002008B500254FF4A060A5
:10263000FEF7AEFCA820FFF797FF4FF4E13000F063
:102640006DF9FEF78FFAFEF7B3F9FFF741F8FEF7E1
:10265000DAFA4EF67D70FEF7BDFA68A04EF67D738D
:102660004FF47842102100900020FEF7C5F868A0D2
:102670004EF67D731F22202100900020FEF7BCF84B
:1026800068A04EF67D731F22302100900020FEF7D7
:10269000B3F869A04EF67D731F2240210090002000
:1026A000FEF7AAF821E068A04EF67D731F225021A4
:1026B00000900020FEF7A0F84FF4FA70FFF772FFC9
:1026C00067A04EF67D731F22602100900020FEF768
:1026D00093F84FF4FA70FFF765FF6648006808B991
:1026E000012000E0002063490860FFF743F84EF640
:1026F00014718842D7D1FFF73DF85F49088008463A
:1027000002885EA16148FFF747F960484EF67D7385
:102710001F22502100900020FEF76EF84FF08070CD
:102720005B49086068E00020FEF76CF90446022C63
:1027300049D158A04EF67D731F22602100900020E1
:10274000FEF75AF859A04EF67D731F2270210090B3
:102750000020FEF751F84E480068A0F164011222F3
:102760005848FFF74BF858A04EF67D731F226021A2
:1027700000900020FEF740F859A04EF67D731F220E
:10278000602100900020FEF737F841480068A0F172
:10279000640112225848FEF7C5FF58A04EF67D731B
:1027A0001F22602100900020FEF726F8524937488A
:1027B000FFF7DEF835484EF67D731F22702100903A
:1027C0000020FEF719F8681C85B20A20FFF7EAFE20
:1027D000142D11D14F48006808B9012000E00020F5
:1027E0004C4908604C48D0F8880208B9012000E044
:1027F000002020490860002595E7000053544D3320
:1028000032205350492D57323551313620000000C7
:102810002020C7B6C8EBCABDBFAAB7A2CDF82020FA
:10282000200000006D63756465762E74616F6261CF
:102830006F2E636F6D2000004B4559313A57726916
:102840007465265265616400573235513136204334
:102850006865636B204661696C6564210000000057
:10286000506C6561736520436865636B212020208F
:10287000202020008882414202000020573235513A
:1028800031362049443A307825580000280000208D
:1028900004000020537461727420577269746520BB
:1028A0005732355131362E2E2E2E0000202020207A
:1028B0002020202020202020202020202020202018
:1028C00020000000D42900085732355131362057F6
:1028D000726974652046696E6973686564210000D9
:1028E00053746172742052656164205732355131DE
:1028F000362E2E2E2E200000680000205468652001
:1029000044617461205265616465642049733A20B2
:1029100020200000A00240420080414210B588B053
:10292000044601210846FEF73FFB01211020FEF777
:102930004BFB072209212548FDF72DFF07220A211D
:102940002248FDF728FF4FF4C060069002208DF862
:102950001C0003208DF81D0000208DF81E000120B2
:102960008DF81F0006A91948FDF7CDFE029400203E
:10297000ADF80C00ADF80E00ADF81000ADF8140085
:102980000C20ADF8120002A91148FEF70BFE012140
:102990000F48FEF7ACFD40210D48FEF79FFD0122D8
:1029A00040F225510A48FEF7D8FD25208DF8040095
:1029B00003208DF805008DF8060001208DF8070032
:1029C00001A8FEF7A9FA08B010BD000000000240FF
:1029D000001001406D63756465762E74616F6261ED
:1029E0006F2E636F6D00000000000000000000000B
:1029F0000000000000000010101010101010101047
:102A000000001010000000006C6C24240000000086
:102A10000100000000000024242424FE4848484807
:102A2000FC909090900000103C54929050381412FA
:102A30001292547810000000225C94A848101024D0
:102A40002A5254880000000030484850206E5494A8
:102A50008C888A74000000003030101000000000E4
:102A6000000000000000000408101020202020209A
:102A700020101008040000804020201010101010BA
:102A800010202040800000000000105438103854FE
:102A900010000000000000000010101010FE1010C8
:102AA0001010000000000000000000000000000006
:102AB00000001010200000000000000000FE0000D8
:102AC0000000000000000000000000000000000006
:102AD000000010100000000004040808101020205E
:102AE00040408080000000003844828282828282DE
:102AF0008282443800000000107010101010101076
:102B00001010107C0000000038448282040810205D
:102B1000408284FC00000000384482020438040231
:102B20000282443800000000040C1414242444449D
:102B3000FE04040E00000000FC808080B8C4820205
:102B400002828478000000003C428280B8C4828205
:102B500082824438000000007E4282040408080893
:102B60001010101000000000384482824438448263
:102B70008282443800000000384482828282463AD1
:102B80000282443800000000000010100000000025
:102B900010100000000000000000101000000000F5
:102BA000001010200000000000000618608060186F
:102BB000060000000000000000000000FE0000FE13
:102BC00000000000000000000000C0300C020C30CB
:102BD000C000000000000038448282020408101087
:102BE00010001010000000003844829AAAAAAAAA75
:102BF000AA9680423C000000101010282828444467
:102C00007C4444EE00000000FC424242427C4242CE
:102C1000424242FC000000003C4482808080808070
:102C20008282443800000000F8444242424242425C
:102C3000424244F800000000FC444240447C4440CE
:102C4000404244FC00000000FC444240447C4440BC
:102C5000404040F000000000344C828080808E8430
:102C600084844C3400000000EE444444447C4444DA
:102C7000444444EE000000007C10101010101010AE
:102C80001010107C000000003E0808080808080822
:102C90000888887000000000EE44484850605048A2
:102CA000484444EE00000000E040404040404040C6
:102CB000404244FC00000000C6446C6C6C54545408
:102CC000444444EE00000000CE4464646454544C18
:102CD0004C4C44E4000000003844828282828282AC
:102CE0008282443800000000F84442424244784066
:102CF000404040E0000000003844828282828282AC
:102D000082BA443C02000000F04844444448704801
:102D1000444444E6000000003C44828040300C0201
:102D200002824478000000007C54921010101010B1
:102D30001010103800000000EE4444444444444461
:102D40004444443800000000EE4444444428282809
:102D50002810101000000000EE44545454545454F1
:102D60002828282800000000EE44442828101028B5
:102D7000284444EE00000000EE44442828281010A7
:102D800010101038000000007E4484080810202035
:102D9000408284FC0000001C101010101010101055
:102DA000101010101C000000EE445454FE545454F3
:102DB0002828282800000070101010101010101083
:102DC0001010101070000030488400000000000057
:102DD00000000000000000000000000000000000F3
:102DE00000000000FE000040200000000000000085
:102DF0000000000000000000000000007884047C57
:102E000084848C7600000000C040404058644242F8
:102E100042426458000000000000000038448080F6
:102E200080804438000000000C040404344C848486
:102E300084844C360000000000000000788484FC8C
:102E4000808084780000000018242020F8202020B2
:102E50002020207000000000000000003A44447868
:102E6000807C82827C000000C04040405864444422
:102E7000444444EE00000000101000003010101018
:102E8000101010380000000010100000301010105A
:102E90001010109060000000C04040405C4850603E
:102EA000504844EE000000003010101010111010B7
:102EB000101010390000000000000000ACD2929207
:102EC000929292D6000000000000000058E44444B2
:102ED000444444EE000000000000000038448282B8
:102EE000828244380000000000000000D8644242A2
:102EF00042645840E000000000000000364C84842A
:102F0000844C34040E000000000000006C302020CF
:102F100020202070000000000000000078888460FD
:102F2000188444780000000000202020F820202091
:102F3000202024180000000000000000C642424289
:102F40004242463A0000000000000000EE444428DF
:102F5000282810100000000000000000EE44445437
:102F6000542828280000000000000000EE4428102B
:102F7000102844EE0000000000000000EE44442849
:102F8000281010A0C0000000000000007E4488103F
:102F9000204284FC0000000C101010101060101073
:102FA000101010100C000010101010101010101045
:102FB00010101010100000C0202020202018202009
:102FC00020202020C00000000000000000728C00C3
:102FD0000000000000000000000000001FE00000F2
:102FE0003FF000003FF000001FE0000180060003FA
:102FF000C00F0003C00F0003C00F0003C00F000389
:10300000C00F0003C00F0003C00F0003C00F000378
:1030100000030000000000000000000000000003AA
:1030200000030003C00F0003C00F0003C00F000324
:10303000C00F0003C00F0003C00F0003C00F000348
:10304000C00F0001800600001FE000003FF00000FC
:103050003FF000001FE00000000000000000000042
:103060000080000001800000038000000780000055
:103070000780000007800000078000000780000034
:103080000780000007800000078000000780000024
:1030900001800000000000000000000000000000AF
:1030A000018000000780000007800000078000000A
:1030B00007800000078000000780000007800000F4
:1030C00007800000078000000380000001800000EE
:1030D0000080000000000000000000001FE0000071
:1030E0003FF00000FFF00001FFE0000000060000DC
:1030F000000F0000000F0000000F0000000F000094
:10310000000F0000000F0000000F0000000F000083
:103110001FE300007FF800007FF800001FE00003BD
:1031200000000003C0000003C0000003C000000353
:10313000C0000003C0000003C0000003C000000383
:10314000C0000001800000001FF000003FF80000F8
:103150003FFC00001FFE000000000003FF80000194
:10316000FFC00000FFC000007F80000000180000CA
:10317000003C0000003C0000003C0000003C00005F
:10318000003C0000003C0000003C0000003C00004F
:103190007F8C0001FFE00001FFF000007F80000055
:1031A000000C0000003C0000003C0000003C00005F
:1031B000003C0000003C0000003C0000003C00001F
:1031C000003C0000001800007F800000FFC00001EC
:1031D000FFC00003FF8000000000000000000002AC
:1031E000000100030003000380070003C00F000379
:1031F000C00F0003C00F0003C00F0003C00F000387
:10320000C00F0003C00F0003C00F0003C00F000376
:103210001FE300007FF800007FFC00001FE00000BB
:1032200000030000000F0000000F0000000F00006E
:10323000000F0000000F0000000F0000000F000052
:10324000000F0000000F0000000700000003000056
:103250000001000000000000000000001FFC000052
:103260003FF800003FF000001FE000018000000375
:10327000C0000003C0000003C0000003C000000342
:10328000C0000003C0000003C0000003C000000332
:103290001FE000007FF800007FF800001FE0000042
:1032A00000030000000F0000000F0000000F0000EE
:1032B000000F0000000F0000000F0000000F0000D2
:1032C000000F0000000600003FE000007FF000005B
:1032D000FFF00001FFE00000000000001FFC000004
:1032E0003FF800003FF000001FE0000180000003F5
:1032F000C0000003C0000003C0000003C0000003C2
:10330000C0000003C0000003C0000003C0000003B1
:103310001FE000007FF800007FFC00001FE00003BA
:1033200000030003C00F0003C00F0003C00F000321
:10333000C00F0003C00F0003C00F0003C00F000345
:10334000C00F0001800600001FE000003FF00000F9
:103350003FF000001FE0000000000007FFE0000356
:10336000FFC00001FF880000FF18000000380000C7
:10337000007800000078000000780000007800006D
:10338000007800000078000000780000007800005D
:103390000018000000000000000000000000000015
:1033A000001800000078000000780000007800009D
:1033B000007800000078000000780000007800002D
:1033C00000780000007800000038000000180000BD
:1033D0000008000000000000000000001FE00000E6
:1033E0003FF000003FF000001FE0000180060003F6
:1033F000C00F0003C00F0003C00F0003C00F000385
:10340000C00F0003C00F0003C00F0003C00F000374
:103410001FE300007FF800007FFC00001FE00003B6
:1034200000030003C00F0003C00F0003C00F000320
:10343000C00F0003C00F0003C00F0003C00F000344
:10344000C00F0001800600001FE000003FF00000F8
:103450003FF000001FE00000000000001FE000003F
:103460003FF000003FF000001FE000018006000375
:10347000C00F0003C00F0003C00F0003C00F000304
:10348000C00F0003C00F0003C00F0003C00F0003F4
:103490001FE300007FF800007FFC00001FE0000039
:1034A00000030000000F0000000F0000000F0000EC
:1034B000000F0000000F0000000F0000000F0000D0
:1034C000000F0000000600001FE000003FF00000B9
:1034D0007FF00000FFE0000000000000000000009E
:1034E00000000000000000000000000000000000DC
:1034F00000000000000000000000000000000000CC
:1035000000000000000000000000000000000000BB
:1035100000000000000000000000000000000000AB
:103520000000000000000000000000007800000023
:1035300078000000780000007800000078000000AB
:103540007800000000000000000000000000000003
:10355000000000000000000000000000000000006B
:10356000000000000000000000000000000000005B
:103570000000000000000000070000000F800000B5
:103580000F8000000F800000070000000000000016
:10359000000000000000000000000000000000002B
:1035A00000000000070000000F8000000F800000F6
:1035B0000F80000007000000000000000000000075
:1035C00000000000000000000000000000000000FB
:1035D00000000000000000000000000000000000EB
:1035E0000000000000000007C006000FE006000019
:1035F000000C003018180030181800301830003057
:10360000183000301860003008C00007C0C0000F3C
:10361000E080000000000000000FE0000607C0008E
:10362000063018000C3018000C3018001830180044
:10363000303018003030180060000000C00FE0008B
:10364000C007C000000000000000000000000000F3
:10365000000000000000000000000000000000006A
:103660000000000000000000000000000000000753
:1036700000E0000887FC00088E030008980180071E
:1036800018008000300000003000000070000000D2
:1036900060000000600000006000000060000000AA
:1036A00060000000700000003000000030000000EA
:1036B00038000000180100000C03000007FC0000A7
:1036C00001F0000000000000000000000000000009
:1036D00000000000000000000000000000000000EA
:1036E00000000000000000000000000000000000DA
:1036F00000000000000000000000000000000000CA
:1037000000000000000000000000000000000000B9
:10371000000000003FF000007FF000007FE00000AC
:10372000FFC00000000000000000000000000000DA
:103730000000000000000000000000000000000089
:103740000000000000000000000000000000000079
:103750000000000000000000C7B601002108210899
:103760003FF800202220223EFF42229422103E10E9
:10377000221022283E2822440082C8EB04000200C6
:103780000100010001000280028002800440044028
:10379000082008201010201040088006CABD0048EC
:1037A000004400440040FFFE004000403E4008400E
:1037B0000840082008220F12780A20060002BFAA3B
:1037C00000007FFC08200820082008200820FFFEB9
:1037D0000820082008200820102010202020402049
:1037E000B7A201001110110822003FFC02000400E2
:1037F00007F80A080908111010A0204040A003187B
:103800001C06CDF800007FFC400440044214529492
:103810004A54442444244A544A545294610440046F
:1038200040144008000000000000000000000000FC
:103830000000000000000000000000000000000088
:103840000000000000000000000000000000000078
:103850000000000000000000000000000000000068
:103860000000000000000000000000000000000058
:103870000000000000000000000000000000000048
:103880000000000000000000000000000000000038
:10389000B03800080000002028000000C01900080F
:1038A000D83800082800002020150000D019000892
:1038B0000000000000000000010014EF0000000004
:1038C00000000000000000000000010203040102EB
:0838D0000304060708090000CB
:040000050800018965
:00000001FF
