:020000040800F2
:100000003807002029020008990900082D0500087A
:1000100095090008D9020008870E000800000000BA
:10002000000000000000000000000000B90A000805
:10003000DD02000800000000290A0008D10B0008BA
:10004000430200084302000843020008430200087C
:10005000430200084302000843020008430200086C
:10006000430200084302000843020008430200085C
:10007000430200084302000843020008430200084C
:10008000430200084302000843020008430200083C
:10009000430200084302000843020008430200082C
:1000A000430200084302000843020008430200081C
:1000B000430200083D0C0008430200084302000808
:1000C00043020008430200084302000843020008FC
:1000D00043020008A10D0008430200084302000883
:1000E00043020008430200084302000843020008DC
:1000F00043020008430200084302000843020008CC
:1001000043020008430200084302000843020008BB
:1001100043020008430200084302000843020008AB
:10012000430200084302000843020008430200089B
:10013000430200084302000843020008430200088B
:10014000430200084302000843020008430200087B
:10015000430200084302000843020008430200086B
:10016000430200084302000843020008430200085B
:10017000430200084302000843020008430200084B
:10018000430200084302000800F002F800F03CF8C7
:100190000AA090E8000C82448344AAF10107DA45E2
:1001A00001D100F031F8AFF2090EBAE80F0013F0F8
:1001B000010F18BFFB1A43F001031847081D000088
:1001C000281D0000103A24BF78C878C1FAD8520719
:1001D00024BF30C830C144BF04680C6070470000C1
:1001E0000023002400250026103A28BF78C1FBD840
:1001F000520728BF30C148BF0B6070471FB500F0E1
:1002000007FF1FBD10B510BD00F033F81146FFF712
:10021000F5FF00F09DFE00F051F803B4FFF7F2FF88
:1002200003BC00F032FE000009488047094800473F
:10023000FEE7FEE7FEE7FEE7FEE7FEE7FEE7FEE796
:10024000FEE7FEE704480549054A064B70470000F3
:10025000D50B00088901000838010020380700206C
:1002600038030020380300207047704770477047FC
:100270007047754600F02CF8AE46050069465346B7
:1002800020F00700854618B020B5FFF7DBFFBDE87A
:1002900020404FF000064FF000074FF000084FF0ED
:1002A000000B21F00701AC46ACE8C009ACE8C0097E
:1002B000ACE8C009ACE8C0098D46704710B50446EB
:1002C000AFF300802046BDE81040FFF7A6BF000056
:1002D00000487047D400002000BFFEE77047F0B52B
:1002E0000A4600210023002400BF3DE0012505FA55
:1002F00001F3156805EA03049C4234D105684F00F8
:100300000326BE40B543056015794E00B54006682A
:10031000354305601579012D02D01579022D16D1CE
:1003200085684F000326BE40B543856055794E0071
:10033000B540866835438560456801268E40B543E3
:100340004560456896798E40B6B235434560C568CC
:100350004F000326BE40B543C560D5794E00B54079
:10036000C6683543C560491C1029BFD3F0BD418321
:1003700070470183704700002DE9F84F0746884613
:1003800093469A46DDF828900097B3E099F800006C
:1003900080283DDA99F800600D2E05D1009F08F104
:1003A00010001FFA80F830E0202E03DDA6F12000B7
:1003B00086B200E00026002422E000251CE004EBC9
:1003C00006105049085C80212941084040B108EBE3
:1003D000040291B27A1990B25A4600F097F809E0F7
:1003E000D34507D008EB040291B27A1990B2524675
:1003F00000F08CF8681CC5B2082DE0DB601CC4B2AC
:10040000102CDADB07F1080087B209F1010971E06D
:10041000002668E006EB06103B4911F8100099F839
:10042000001088425DD106EB0610374901EB400011
:10043000407899F80110884253D100244FE00025FC
:1004400020E006EB0610304901EB4000801C10F85C
:10045000141080202841014041B108EB040291B200
:100460007A1990B25A4600F051F809E0D34507D006
:1004700008EB040291B27A1990B2524600F046F8A5
:10048000681CC5B2082DDCDB002524E006EB061055
:100490001D4901EB4000801C012101EB4401405C3F
:1004A00080212941084048B108EB040291B27A1931
:1004B000083290B25A4600F029F80AE0D34508D035
:1004C00008EB040291B27A19083290B2524600F059
:1004D0001DF8681CC5B2082DD8DB601CC4B2102CF6
:1004E000ADDB701C86B2062E94DB09F1020907F120
:1004F000100087B299F8000000287FF447AFBDE8EC
:10050000F88F00001A1000088C1D000870B5044612
:100510000D461646681C83B2601C82B229462046EE
:1005200000F0DAF9304600F043F870BD00BFFEE796
:100530001CB50121062000F079FA4FF470400090BC
:1005400001208DF8040000208DF8060003208DF8AE
:10055000050001208DF8070069461348FFF7BFFE2C
:10056000C020009001208DF8040000208DF80600C6
:1005700003208DF8050001208DF8070069460B481F
:10058000FFF7ADFE4FF480410748FFF7F2FE8021F0
:100590000648FFF7EEFE80210448FFF7E8FE8021C1
:1005A0000248FFF7E6FE1CBD0004024000080240BE
:1005B00010B504464FF480510948FFF7D8FE40219A
:1005C0000848FFF7D6FE201200F050FAE0B200F023
:1005D0004DFA4FF480510248FFF7CBFE10BD0000EA
:1005E00000040240000802401CB50121092000F06F
:1005F0001DFA4FF48070009001208DF80400002057
:100600008DF8060003208DF8050001208DF8070005
:1006100069460F48FFF763FE0420009001208DF823
:10062000040000208DF8060003208DF8050001204D
:100630008DF8070069460748FFF751FE4FF48071B7
:100640000348FFF796FE04210248FFF792FE1CBD07
:1006500000000240000C024070B506467F231A4697
:100660000021084600F038F92C2000F07BF9002426
:1006700008E0002503E03046FFF79AFF6D1C802D4F
:10068000F9D3641C802CF4D370BD10B5FFF750FF74
:1006900000F00CF9112000F065F9782000F016FC4C
:1006A000B12000F05FF9012000F044F92C2000F0A7
:1006B00041F92D2000F03EF9B22000F053F901205D
:1006C00000F038F92C2000F035F92D2000F032F937
:1006D000B32000F047F9012000F02CF92C2000F0A5
:1006E00029F92D2000F026F9012000F023F92C2013
:1006F00000F020F92D2000F01DF9B42000F032F9AF
:10070000072000F017F9C02000F02CF9A22000F01B
:1007100011F9022000F00EF9842000F00BF9C1203D
:1007200000F020F9C52000F005F9C22000F01AF908
:100730000A2000F0FFF8002000F0FCF8C32000F0D1
:1007400011F98A2000F0F6F82A2000F0F3F8C4200E
:1007500000F008F98A2000F0EDF8EE2000F0EAF849
:10076000C52000F0FFF80E2000F0E4F8362000F07D
:10077000F9F8C82000F0DEF8E02000F0F3F80F20D0
:1007800000F0D8F81A2000F0D5F80F2000F0D2F8C9
:10079000182000F0CFF82F2000F0CCF8282000F02F
:1007A000C9F8202000F0C6F8222000F0C3F81F206E
:1007B00000F0C0F81B2000F0BDF8232000F0BAF8CC
:1007C000372000F0B7F8002000F0B4F8072000F060
:1007D000B1F8022000F0AEF8102000F0ABF8E120F4
:1007E00000F0C0F80F2000F0A5F81B2000F0A2F8E0
:1007F0000F2000F09FF8172000F09CF8332000F045
:1008000099F82C2000F096F8292000F093F82E207B
:1008100000F090F8302000F08DF8302000F08AF8D9
:10082000392000F087F83F2000F084F8002000F025
:1008300081F8072000F07EF8032000F07BF81020FC
:1008400000F078F82A2000F08DF8002000F072F80F
:10085000002000F06FF8002000F06CF87F2000F01E
:1008600069F82B2000F07EF8002000F063F80020EB
:1008700000F060F8002000F05DF89F2000F05AF8CA
:10088000F02000F06FF8012000F054F8F62000F09E
:1008900069F8002000F04EF83A2000F063F80520D7
:1008A00000F048F8292000F05DF810BD10B54FF4B5
:1008B00080410848FFF75BFD4FF4967000F006FB9F
:1008C0004FF480410348FFF754FD642000F0FEFA26
:1008D00010BD0000000402402DE9F04104460D4621
:1008E00016461F462A2000F03DF8002000F022F8AE
:1008F000A11CC8B200F01EF8002000F01BF8B11CCB
:10090000C8B200F017F82B2000F02CF8002000F0FF
:1009100011F8E91CC8B200F00DF8002000F00AF848
:10092000F91CC8B200F006F82C2000F01BF8BDE856
:10093000F081000010B504464FF480510748FFF7DE
:1009400016FD40210648FFF714FD204600F08EF802
:100950004FF480510148FFF70CFD10BD0004024028
:100960000008024010B504464FF480510748FFF7D5
:10097000FEFC40210648FFF7FAFC204600F076F81E
:100980004FF480510148FFF7F4FC10BD0004024011
:100990000008024000BFFEE77047000070B500216C
:1009A00000230F22C4781CB3174C246804F4E064BD
:1009B000C4F5E064C4F30721C1F10404E3B20A41C1
:1009C00044789C40E1B28478144021430C07210E06
:1009D0000E4C05786155047804F01F050124AC40E5
:1009E00005786D11AD0005F1E025C5F8004109E07D
:1009F000047804F01F050124AC40054D06787611FB
:100A000045F8264070BD00000CED00E000E400E079
:100A100080E100E002490143024A11607047000092
:100A20000000FA050CED00E07047000029B1064A0D
:100A300012680243044B1A6004E0034A12688243BE
:100A4000014B1A60704700003038024029B1064A55
:100A500012680243044B1A6004E0034A126882439E
:100A6000014B1A60704700004038024070B50446E0
:100A7000002508251BE004F0800028B14FF4004158
:100A80000C48FFF776FC04E04FF400410948FFF7FB
:100A90006EFC4FF400510748FFF769FC4FF400511A
:100AA0000448FFF766FC6006040E681EC5B2002D00
:100AB000E1DC70BD00040240704700000CB500206E
:100AC000019000903448006840F48030324908605A
:100AD00000BF3148006800F4003000900198401CCD
:100AE0000190009818B90198B0F5A04FF1D12A48AB
:100AF000006800F4003010B10120009001E00020F7
:100B000000900098012846D123484030006840F00A
:100B100080502149403108602048006840F440403E
:100B20001E4908601C48083000681B4908310860ED
:100B30000846006840F4004008600846006840F439
:100B4000A05008601648091F0860081F006840F0A0
:100B50008070091F086000BF0F48006800F0007037
:100B60000028F9D040F205700E4908600A480830A4
:100B7000006820F003000849083108600846006852
:100B800040F00200086000BF03480830006800F031
:100B90000C000828F8D10CBD00380240007000405D
:100BA00008544007003C0240042808D14FF0E021DF
:100BB000096941F004014FF0E022116107E04FF0B4
:100BC000E021096921F004014FF0E0221161704732
:100BD0007047000010B51548006840F470001349D4
:100BE00008601348006840F00100114908600020C7
:100BF0000F49083108600E4800680E4908400C494A
:100C000008600D48091D0860081F006820F4802056
:100C1000091F0860002006490C310860FFF74EFFED
:100C20004FF0006001498039086010BD88ED00E098
:100C300000380240FFFFF6FE1030002410B50121FD
:100C4000084800F050F8012807D10748006808B9A3
:100C5000012000E00020044908600121014800F063
:100C600033F810BD00040040888241427FB505463C
:100C70000C4601210220FFF7E9FE0295ADF8044081
:100C80000020ADF80600ADF80C0001A90D4800F0F9
:100C900045F8012211460B4800F036F801210948B9
:100CA00000F015F81D208DF8000001208DF80100DE
:100CB00003208DF8020001208DF803006846FFF73D
:100CC0006DFE7FBD00040040CA430282704721B11F
:100CD000028842F00102028004E002884FF6FE73AF
:100CE0001A400280704730B50246002000230024DD
:100CF000158A05EA0103958905EA010413B10CB1CF
:100D0000012000E0002030BD1AB183890B438381AC
:100D100002E083898B4383817047000000220288B0
:100D2000184B98420ED0184B98420BD0B0F1804F20
:100D300008D0164B984205D0154B984202D0154B5F
:100D4000984204D14FF68F731A404B881A43124BC6
:100D5000984207D0114B984204D04FF6FF431A40F7
:100D60000B891A4302804B68C3620B880385054BCD
:100D7000984202D0044B984201D18B7A038601231A
:100D800083827047000001400004014000040040DD
:100D900000080040000C004000100040001400401B
:100DA00010B540F225511D4800F03EF810B31B4825
:100DB00000F064F8C4B21A48008800F40040C8B9D2
:100DC0001748008800F4804060B10A2C03D000204E
:100DD0001349088020E01248008840F40040104980
:100DE000088019E00D2C06D10D48008840F48040A1
:100DF0000B49088010E00A480088C0F30D0009493B
:100E00000C5407480088401C0549088008460088A3
:100E1000C72801DD0020088010BD0000001001403F
:100E2000080000200C00002070B5024600240023BA
:100E30000025002040F66A16B14200D100BFC1F380
:100E4000421501F01F03012606FA03F3012D02D11A
:100E50009689334006E0022D02D1168A334001E024
:100E6000968A33400C12012606FA04F416883440A0
:100E700013B10CB1012000E0002070BD014688884C
:100E8000C0F30800704700BFFEE700BF70470000D6
:100E900010B504466FF00400FFF786FEE11704EB7F
:100EA0005171C1F3CF01074A11801046008800EB51
:100EB0004001C1EBC0104FF6FF7101EAC0000249CA
:100EC000088010BD000000200200002070B504461C
:100ED0004FF4077094FBF0F0C6B24FF4077094FB28
:100EE000F0F100FB114085B205E04FF4077000F00F
:100EF00009F8701EC6B2002EF7D115B1284600F0D1
:100F000001F870BD0146114A12884A434FF0E023B0
:100F10005A6100229A611A46126942F001021A616E
:100F200000BF4FF0E022106900F001021AB100F496
:100F30008032002AF5D04FF0E022126922F001023F
:100F40004FF0E0231A6100229A61704702000020EE
:100F500008B54FF4A060FFF75DFDA820FFF798FFEC
:100F6000FFF742FBFFF791FB4EF67D70FFF774FB36
:100F700017A04EF67D734FF47842102100900020A8
:100F8000FFF7FAF917A04EF67D731F22302100906B
:100F90000020FFF7F1F918A04EF67D731F224021C3
:100FA00000900020FFF7E8F942F2CF0141F28730CC
:100FB000FFF75CFE0AE01548006808B9012000E070
:100FC000002012490860C820FFF780FFF3E7000007
:100FD00020202053544D33322054696D65722020F7
:100FE000202020002020C7B6C8EBCABDBFAAB7A2E8
:100FF000CDF82020202000006D63756465762E7486
:10100000616F62616F2E636F6D200000A00240422D
:101010004FF04070E1EE100A704700000000000041
:101020000000000000000000000000101010101070
:101030001010101000001010000000006C6C242430
:10104000000000000100000000000024242424FE11
:1010500048484848FC909090900000103C54929072
:10106000503814121292547810000000225C94A898
:10107000481010242A52548800000000304848507C
:10108000206E54948C888A74000000003030101058
:101090000000000000000000000000040810102004
:1010A0002020202020101008040000804020201064
:1010B000101010101020204080000000000010547C
:1010C000381038541000000000000000001010100C
:1010D00010FE1010101000000000000000000000C2
:1010E00000000000000010102000000000000000C0
:1010F00000FE0000000000000000000000000000F2
:1011000000000000000010100000000004040808A7
:10111000101020204040808000000000384482826F
:101120008282828282824438000000001070101097
:10113000101010101010107C000000003844828243
:1011400004081020408284FC000000003844820221
:10115000043804020282443800000000040C141415
:1011600024244444FE04040E00000000FC8080801F
:10117000B8C4820202828478000000003C4282806F
:10118000B8C4828282824438000000007E42820419
:101190000408080810101010000000003844828273
:1011A00044384482828244380000000038448282FD
:1011B0008282463A0282443800000000000010108B
:1011C00000000000101000000000000000001010DF
:1011D00000000000001010200000000000000618B1
:1011E00060806018060000000000000000000000A1
:1011F000FE0000FE00000000000000000000C03003
:101200000C020C30C0000000000000384482820252
:101210000408101010001010000000003844829ADA
:10122000AAAAAAAAAA9680423C0000001010102880
:10123000282844447C4444EE00000000FC42424222
:10124000427C4242424242FC000000003C44828018
:10125000808080808282443800000000F84442424E
:1012600042424242424244F800000000FC444240F4
:10127000447C4440404244FC00000000FC444240A6
:10128000447C4440404040F000000000344C8280E8
:1012900080808E8484844C3400000000EE444444FA
:1012A000447C4444444444EE000000007C10101090
:1012B000101010101010107C000000003E080808EC
:1012C000080808080888887000000000EE444848B4
:1012D00050605048484444EE00000000E040404068
:1012E00040404040404244FC00000000C6446C6C5A
:1012F0006C545454444444EE00000000CE446464F2
:101300006454544C4C4C44E4000000003844828245
:10131000828282828282443800000000F844424285
:1013200042447840404040E000000000384482825F
:101330008282828282BA443C02000000F048444427
:1013400044487048444444E6000000003C44828025
:1013500040300C0202824478000000007C5492105D
:10136000101010101010103800000000EE4444441B
:10137000444444444444443800000000EE4444449F
:10138000442828282810101000000000EE4454546F
:10139000545454542828282800000000EE444428BF
:1013A00028101028284444EE00000000EE44442891
:1013B0002828101010101038000000007E44840807
:1013C00008102020408284FC0000001C1010101027
:1013D00010101010101010101C000000EE44545497
:1013E000FE545454282828280000007010101010B3
:1013F0001010101010101010700000304884000001
:1014000000000000000000000000000000000000DC
:101410000000000000000000FE000040200000006E
:1014200000000000000000000000000000000000BC
:101430007884047C84848C7600000000C0404040A6
:10144000586442424242645800000000000000001C
:101450003844808080804438000000000C0404047C
:10146000344C848484844C3600000000000000006A
:10147000788484FC80808478000000001824202078
:10148000F820202020202070000000000000000034
:101490003A444478807C82827C000000C040404016
:1014A00058644444444444EE00000000101000001E
:1014B0003010101010101038000000001010000044
:1014C000301010101010109060000000C04040401C
:1014D0005C485060504844EE00000000301010108E
:1014E0001011101010101039000000000000000052
:1014F000ACD29292929292D60000000000000000BE
:1015000058E44444444444EE00000000000000005D
:1015100038448282828244380000000000000000CB
:10152000D864424242645840E000000000000000DD
:10153000364C8484844C34040E000000000000000B
:101540006C302020202020700000000000000000EF
:1015500078888460188444780000000000202020EF
:10156000F8202020202024180000000000000000A7
:10157000C64242424242463A0000000000000000DB
:10158000EE4444282828101000000000000000004D
:10159000EE444454542828280000000000000000B5
:1015A000EE442810102844EE000000000000000067
:1015B000EE444428281010A0C000000000000000E5
:1015C0007E448810204284FC0000000C1010101093
:1015D00010601010101010100C00001010101010DF
:1015E0001010101010101010100000C0202020202B
:1015F0002018202020202020C00000000000000033
:1016000000728C00000000000000000000000000DC
:101610001FE000003FF000003FF000001FE000016D
:1016200080060003C00F0003C00F0003C00F0003BB
:10163000C00F0003C00F0003C00F0003C00F000362
:10164000C00F0003000300000000000000000000C5
:101650000000000300030003C00F0003C00F0003DD
:10166000C00F0003C00F0003C00F0003C00F000332
:10167000C00F0003C00F0001800600001FE0000043
:101680003FF000003FF000001FE0000000000000FD
:1016900000000000008000000180000003800000C6
:1016A000078000000780000007800000078000001E
:1016B000078000000780000007800000078000000E
:1016C0000780000001800000000000000000000012
:1016D000000000000180000007800000078000007B
:1016E00007800000078000000780000007800000DE
:1016F00007800000078000000780000003800000D2
:1017000001800000008000000000000000000000D8
:101710001FE000003FF00000FFF00001FFE00000CC
:1017200000060000000F0000000F0000000F000086
:10173000000F0000000F0000000F0000000F00006D
:10174000000F00001FE300007FF800007FF800009A
:101750001FE0000300000003C0000003C0000003FE
:10176000C0000003C0000003C0000003C00000036D
:10177000C0000003C0000001800000001FF0000056
:101780003FF800003FFC00001FFE000000000003C7
:10179000FF800001FFC00000FFC000007F8000004C
:1017A00000180000003C0000003C0000003C00006D
:1017B000003C0000003C0000003C0000003C000039
:1017C000003C00007F8C0001FFE00001FFF0000002
:1017D0007F800000000C0000003C0000003C000086
:1017E000003C0000003C0000003C0000003C000009
:1017F000003C0000003C0000001800007F8000005A
:10180000FFC00001FFC00003FF80000000000000D7
:101810000000000200010003000300038007000332
:10182000C00F0003C00F0003C00F0003C00F000370
:10183000C00F0003C00F0003C00F0003C00F000360
:10184000C00F00031FE300007FF800007FFC0000D2
:101850001FE0000000030000000F0000000F000068
:10186000000F0000000F0000000F0000000F00003C
:10187000000F0000000F0000000F00000007000034
:101880000003000000010000000000000000000054
:101890001FFC00003FF800003FF000001FE00001C7
:1018A00080000003C0000003C0000003C00000036C
:1018B000C0000003C0000003C0000003C00000031C
:1018C000C00000031FE000007FF800007FF8000068
:1018D0001FE0000000030000000F0000000F0000E8
:1018E000000F0000000F0000000F0000000F0000BC
:1018F000000F0000000F0000000600003FE00000A5
:101900007FF00000FFF00001FFE000000000000099
:101910001FFC00003FF800003FF000001FE0000146
:1019200080000003C0000003C0000003C0000003EB
:10193000C0000003C0000003C0000003C00000039B
:10194000C00000031FE000007FF800007FFC0000E3
:101950001FE0000300030003C00F0003C00F0003DB
:10196000C00F0003C00F0003C00F0003C00F00032F
:10197000C00F0003C00F0001800600001FE0000040
:101980003FF000003FF000001FE0000000000007F3
:10199000FFE00003FFC00001FF880000FF18000007
:1019A0000038000000780000007800000078000097
:1019B0000078000000780000007800000078000047
:1019C0000078000000180000000000000000000087
:1019D00000000000001800000078000000780000FF
:1019E0000078000000780000007800000078000017
:1019F0000078000000780000007800000038000047
:101A000000180000000800000000000000000000B6
:101A10001FE000003FF000003FF000001FE0000169
:101A200080060003C00F0003C00F0003C00F0003B7
:101A3000C00F0003C00F0003C00F0003C00F00035E
:101A4000C00F00031FE300007FF800007FFC0000D0
:101A50001FE0000300030003C00F0003C00F0003DA
:101A6000C00F0003C00F0003C00F0003C00F00032E
:101A7000C00F0003C00F0001800600001FE000003F
:101A80003FF000003FF000001FE0000000000000F9
:101A90001FE000003FF000003FF000001FE00001E9
:101AA00080060003C00F0003C00F0003C00F000337
:101AB000C00F0003C00F0003C00F0003C00F0003DE
:101AC000C00F00031FE300007FF800007FFC000050
:101AD0001FE0000000030000000F0000000F0000E6
:101AE000000F0000000F0000000F0000000F0000BA
:101AF000000F0000000F0000000600001FE00000C3
:101B00003FF000007FF00000FFE000000000000058
:101B100000000000000000000000000000000000C5
:101B200000000000000000000000000000000000B5
:101B300000000000000000000000000000000000A5
:101B40000000000000000000000000000000000095
:101B50000000000000000000000000000000000085
:101B60007800000078000000780000007800000095
:101B70007800000078000000000000000000000075
:101B80000000000000000000000000000000000055
:101B90000000000000000000000000000000000045
:101BA000000000000000000000000000070000002E
:101BB0000F8000000F8000000F8000000700000071
:101BC0000000000000000000000000000000000015
:101BD0000000000000000000070000000F8000006F
:101BE0000F8000000F8000000700000000000000D0
:101BF00000000000000000000000000000000000E5
:101C000000000000000000000000000000000000D4
:101C1000000000000000000000000007C006000FE8
:101C2000E0060000000C00301818003018180030D2
:101C300018300030183000301860003008C000073D
:101C4000C0C0000FE080000000000000000FE000B6
:101C50000607C000063018000C3018000C301800C1
:101C600018301800303018003030180060000000C4
:101C7000C00FE000C007C00000000000000000002E
:101C80000000000000000000000000000000000054
:101C90000000000000000000000000000000000044
:101CA0000000000700E0000887FC00088E03000821
:101CB000980180071800800030000000300000000C
:101CC0007000000060000000600000006000000084
:101CD00060000000600000007000000030000000A4
:101CE0003000000038000000180100000C03000064
:101CF00007FC000001F000000000000000000000F0
:101D000000000000000000000000000000000000D3
:101D100000000000000000000000000000000000C3
:101D200000000000000000000000000000000000B3
:101D300000000000000000000000000000000000A3
:101D400000000000000000003FF000007FF00000F5
:101D50007FE00000FFC00000000000000000000065
:101D60000000000000000000000000000000000073
:101D70000000000000000000000000000000000063
:101D8000000000000000000000000000C7B60100D5
:101D9000210821083FF800202220223EFF42229401
:101DA00022103E10221022283E2822440082C8EB36
:101DB0000400020001000100010002800280028094
:101DC000044004400820082010102010400880061D
:101DD000CABD0048004400440040FFFE00400040EF
:101DE0003E4008400840082008220F12780A2006CA
:101DF0000002BFAA00007FFC08200820082008205D
:101E00000820FFFE082008200820082010201020AD
:101E100020204020B7A201001110110822003FFC31
:101E20000200040007F80A080908111010A0204059
:101E300040A003181C06CDF800007FFC40044004BD
:101E4000421452944A54442444244A544A545294C6
:101E5000610440044014400800000000000000003D
:101E60000000000000000000000000000000000072
:101E70000000000000000000000000000000000062
:101E80000000000000000000000000000000000052
:101E90000000000000000000000000000000000042
:101EA0000000000000000000000000000000000032
:101EB0000000000000000000000000000000000022
:101EC00000000000E41E0008000000200C000000DC
:101ED000C4010008F01E00080C0000202C070000C0
:101EE000E001000800000000000000000000000009
:040000050800018965
:00000001FF
