:020000040800F2
:100000000015002029020008610A0008F505000813
:100010005D0A0008A1030008A31C000800000000FE
:10002000000000000000000000000000251A000889
:10003000A503000800000000B90200083D1B0008ED
:10004000430200084302000843020008430200087C
:10005000430200084302000843020008430200086C
:10006000430200084302000843020008430200085C
:10007000430200084302000843020008430200084C
:10008000430200084302000843020008430200083C
:10009000430200084302000843020008430200082C
:1000A000430200084302000843020008430200081C
:1000B000430200084302000843020008430200080C
:1000C00043020008430200084302000843020008FC
:1000D00043020008B51B0008430200084302000861
:1000E00043020008430200084302000843020008DC
:1000F00043020008430200084302000843020008CC
:1001000043020008430200084302000843020008BB
:1001100043020008430200084302000843020008AB
:10012000430200084302000843020008430200089B
:10013000430200084302000843020008430200088B
:10014000430200084302000843020008430200087B
:10015000430200084302000843020008430200086B
:10016000430200084302000843020008430200085B
:10017000430200084302000843020008430200084B
:10018000430200084302000800F002F800F03CF8C7
:100190000AA090E8000C82448344AAF10107DA45E2
:1001A00001D100F031F8AFF2090EBAE80F0013F0F8
:1001B000010F18BFFB1A43F001031847E82C000099
:1001C000082D0000103A24BF78C878C1FAD8520729
:1001D00024BF30C830C144BF04680C6070470000C1
:1001E0000023002400250026103A28BF78C1FBD840
:1001F000520728BF30C148BF0B6070471FB501F0E0
:1002000077FE1FBD10B510BD00F097F81146FFF73F
:10021000F5FF01F0F5FD00F0B5F803B4FFF7F2FFCC
:1002200003BC01F040FD0000094880470948004731
:10023000FEE7FEE7FEE7FEE7FEE7FEE7FEE7FEE796
:10024000FEE7FEE704480549054A064B70470000F3
:100250004D1B000889010008000F00200015002038
:100260000011002000110020EFF3108072B67047DB
:1002700080F310887047264C4FF6FF7525604FF0CD
:10028000000484F30988234C4FF001052570224CAB
:100290004FF08055256062B6FEE730B41E4C4FF03B
:1002A0008055256030BC704730B41B4C4FF08055F2
:1002B000256030BC704700BF72B6EFF3098050B1C3
:1002C0001EF0100F08BF20ED108A203880E8F00FD4
:1002D00012490968086000B5114880475DF804EBD1
:1002E000104811490A7802700C4810490A680260E7
:1002F000106890E8F00F20301EF0100F08BFB0EC2F
:10030000108A80F309884EF0040E62B6704700BF71
:1003100022ED00E03200002004ED00E03800002073
:100320004112000827000020280000204000002083
:1003300070477047704770477047754600F02CF85B
:10034000AE4605006946534620F00700854618B0C2
:1003500020B5FFF777FFBDE820404FF000064FF0D3
:1003600000074FF000084FF0000B21F00701AC46EA
:10037000ACE8C009ACE8C009ACE8C009ACE8C00909
:100380008D46704710B50446AFF300802046BDE8A7
:100390001040FFF742BF0000004870479C0E00204D
:1003A00000BFFEE77047F0B50A4600210023002495
:1003B00000BF3DE0012505FA01F3156805EA0304D5
:1003C0009C4234D105684F000326BE40B54305600A
:1003D00015794E00B5400668354305601579012D45
:1003E00002D01579022D16D185684F000326BE4034
:1003F000B543856055794E00B540866835438560C4
:10040000456801268E40B5434560456896798E4023
:10041000B6B235434560C5684F000326BE40B543BC
:10042000C560D5794E00B540C6683543C560491CE6
:100430001029BFD3F0BD418370470183704700008E
:100440002DE9F84F0746884693469A46DDF82890EE
:100450000097B3E099F8000080283DDA99F8006031
:100460000D2E05D1009F08F110001FFA80F830E032
:10047000202E03DDA6F1200086B200E00026002435
:1004800022E000251CE004EB06105049085C8021A6
:100490002941084040B108EB040291B27A1990B2A8
:1004A0005A4600F097F809E0D34507D008EB04025C
:1004B00091B27A1990B2524600F08CF8681CC5B21D
:1004C000082DE0DB601CC4B2102CDADB07F1080059
:1004D00087B209F1010971E0002668E006EB061019
:1004E0003B4911F8100099F8001088425DD106EBE5
:1004F0000610374901EB4000407899F80110884216
:1005000053D100244FE0002520E006EB06103049CF
:1005100001EB4000801C10F814108020284101409D
:1005200041B108EB040291B27A1990B25A4600F038
:1005300051F809E0D34507D008EB040291B27A19CB
:1005400090B2524600F046F8681CC5B2082DDCDBBC
:10055000002524E006EB06101D4901EB4000801C3D
:10056000012101EB4401405C80212941084048B150
:1005700008EB040291B27A19083290B25A4600F0A0
:1005800029F80AE0D34508D008EB040291B27A19A1
:10059000083290B2524600F01DF8681CC5B2082D12
:1005A000D8DB601CC4B2102CADDB701C86B2062EEA
:1005B00094DB09F1020907F1100087B299F80000F5
:1005C00000287FF447AFBDE8F88F0000FA1E00084E
:1005D0006C2C000870B504460D461646681C83B2A4
:1005E000601C82B22946204600F0DAF9304600F05D
:1005F00043F870BD00BFFEE71CB50121062001F0E5
:10060000DBF94FF47040009001208DF804000020C9
:100610008DF8060003208DF8050001208DF80700F5
:1006200069461348FFF7BFFEC020009001208DF8F7
:10063000040000208DF8060003208DF8050001203D
:100640008DF8070069460B48FFF7ADFE4FF4804177
:100650000748FFF7F2FE80210648FFF7EEFE8021F3
:100660000448FFF7E8FE80210248FFF7E6FE1CBDC4
:10067000000402400008024010B504464FF48051C7
:100680000948FFF7D8FE40210848FFF7D6FE2012A0
:1006900001F0A2F9E0B201F09FF94FF48051024855
:1006A000FFF7CBFE10BD000000040240000802402E
:1006B0001CB50121092001F07FF94FF480700090F2
:1006C00001208DF8040000208DF8060003208DF82D
:1006D000050001208DF8070069460F48FFF763FE0B
:1006E0000420009001208DF8040000208DF8060001
:1006F00003208DF8050001208DF8070069460748A2
:10070000FFF751FE4FF480710348FFF796FE042176
:100710000248FFF792FE1CBD00000240000C0240A0
:1007200070B506467F231A460021084600F038F9C6
:100730002C2000F07BF9002408E0002503E030467F
:10074000FFF79AFF6D1C802DF9D3641C802CF4D325
:1007500070BD10B5FFF750FF00F00CF9112000F04C
:1007600065F9782001F0CCFAB12000F05FF90120A2
:1007700000F044F92C2000F041F92D2000F03EF962
:10078000B22000F053F9012000F038F92C2000F0DD
:1007900035F92D2000F032F9B32000F047F901209F
:1007A00000F02CF92C2000F029F92D2000F026F97A
:1007B000012000F023F92C2000F020F92D2000F07A
:1007C0001DF9B42000F032F9072000F017F9C0201D
:1007D00000F02CF9A22000F011F9022000F00EF92F
:1007E000842000F00BF9C12000F020F9C52000F0B2
:1007F00005F9C22000F01AF90A2000F0FFF80020E5
:1008000000F0FCF8C32000F011F98A2000F0F6F89F
:100810002A2000F0F3F8C42000F008F98A2000F044
:10082000EDF8EE2000F0EAF8C52000F0FFF80E2009
:1008300000F0E4F8362000F0F9F8C82000F0DEF807
:10084000E02000F0F3F80F2000F0D8F81A2000F0B4
:10085000D5F80F2000F0D2F8182000F0CFF82F20A4
:1008600000F0CCF8282000F0C9F8202000F0C6F8ED
:10087000222000F0C3F81F2000F0C0F81B2000F079
:10088000BDF8232000F0BAF8372000F0B7F80020B8
:1008900000F0B4F8072000F0B1F8022000F0AEF844
:1008A000102000F0ABF8E12000F0C0F80F2000F0BD
:1008B000A5F81B2000F0A2F80F2000F09FF81720E9
:1008C00000F09CF8332000F099F82C2000F096F806
:1008D000292000F093F82E2000F090F8302000F04E
:1008E0008DF8302000F08AF8392000F087F83F209A
:1008F00000F084F8002000F081F8072000F07EF876
:10090000032000F07BF8102000F078F82A2000F097
:100910008DF8002000F072F8002000F06FF8002041
:1009200000F06CF87F2000F069F82B2000F07EF8D2
:10093000002000F063F8002000F060F8002000F0D4
:100940005DF89F2000F05AF8F02000F06FF80120C9
:1009500000F054F8F62000F069F8002000F04EF89E
:100960003A2000F063F8052000F048F8292000F054
:100970005DF810BD10B54FF480410848FFF75BFDEE
:100980004FF4967001F0BCF94FF480410348FFF733
:1009900054FD642001F0B4F910BD000000040240D1
:1009A0002DE9F04104460D4616461F462A2000F068
:1009B0003DF8002000F022F8A11CC8B200F01EF89B
:1009C000002000F01BF8B11CC8B200F017F82B2073
:1009D00000F02CF8002000F011F8E91CC8B200F07B
:1009E0000DF8002000F00AF8F91CC8B200F006F873
:1009F0002C2000F01BF8BDE8F081000010B5044683
:100A00004FF480510748FFF716FD40210648FFF7D5
:100A100014FD204600F0E0FF4FF480510148FFF73D
:100A20000CFD10BD000402400008024010B5044651
:100A30004FF480510748FFF7FEFC40210648FFF7BE
:100A4000FAFC204600F0C8FF4FF480510148FFF740
:100A5000F4FC10BD000402400008024000BFFEE7A5
:100A6000704710B500F013F800F01EFD00F046FDD1
:100A700000F066FD00F0EEFC00F0AEFC00F0FAFDC8
:100A800000F09EFD00F0C4FD00F002F810BD7047BC
:100A90007047000006480078012808D10548007812
:100AA000FF2804D203480078401C024908707047B0
:100AB000320000202500002010B500241A480078DC
:100AC000012830D1FFF7D0FB04461848007820B148
:100AD00016480078401E1549087014480078F8B987
:100AE00013480078E0B900F027FE1248124909784F
:100AF00050F82100114908600F4800781049097822
:100B000088420DD00D480068806B401C0B49096875
:100B100088630C480068401C0A490860FFF7C4FB62
:100B20002046FFF7A5FB10BD320000202500002065
:100B3000260000203409002028000020400000206A
:100B4000270000200C00002010B500240B4800787E
:100B5000012811D1FFF788FB04460948007840B905
:100B600008480078FF2804D206480078401C054950
:100B700008702046FFF77CFB10BD0000320000200B
:100B8000250000202600002010B50024134800781E
:100B9000012821D1FFF768FB044611480078C0B155
:100BA0000F480078401E0E4908700846007860B96A
:100BB0000C48007828B92046FFF75AFB00F082FD68
:100BC0000AE02046FFF754FB06E02046FFF750FB03
:100BD00002E02046FFF74CFB10BD00003200002071
:100BE000260000202500002010B50B48007890B9A1
:100BF00000F0A2FD09480078094908700948074932
:100C0000097850F82100084908600846006807493B
:100C10000860FFF730FB10BD3200002028000020E4
:100C20002700002034090020400000203800002068
:100C3000704700002DE9FE4F06460F4690461C46C1
:100C40004FF00009FFF710FB81461F48007828B1DC
:100C50004846FFF70DFB3C20BDE8FE8F1B4850F8CF
:100C6000240060BB0120194941F824004846FFF7E1
:100C7000FFFA002342463946304600F0B5F9824675
:100C80000020009001900346024651460290204603
:100C900000F068FD054635B90D48007801280CD1F3
:100CA00000F010FD09E0FFF7DFFA81460020074958
:100CB00041F824004846FFF7DBFA2846CCE74846CF
:100CC000FFF7D6FA2820C7E72500002034090020C6
:100CD000320000202DE9F04F85B081468A469346C8
:100CE0001C46DDE90F78129D00200390FFF7BCFA47
:100CF00003902348007830B10398FFF7B9FA3C20FD
:100D000005B0BDE8F08F1F4850F8240088BB0120D3
:100D10001C4941F824000398FFF7AAFA2A464146E5
:100D2000384600F03BFE2B465A465146484600F0F6
:100D30005BF904901198CDE9008002953A4620466F
:100D40000E9B049900F00EFD064636B90E48007859
:100D500001280CD100F0B6FC09E0FFF785FA0390FA
:100D60000020084941F824000398FFF781FA304633
:100D7000C6E7FFE70398FFF77BFA2820C0E70000EB
:100D800025000020340900203200002070470000B8
:100D90002DE9F041054600274748007810B1402072
:100DA000BDE8F0813F2D01D13E20F9E7FFF75CFA65
:100DB0000746FF2D03D14148006890F83250404863
:100DC00050F8254024B93846FFF752FA4320E7E7A8
:100DD000012C04D13846FFF74BFA3D20E0E714F828
:100DE000340F3849085C617888432178354A50547B
:100DF00014F834091146085C30B994F836103248BA
:100E00000078884330490870E06918B12046E169EC
:100E100000F0CCFA666A16B1304600F009FB0020FB
:100E2000E06284F8300084F8310028480078FF2818
:100E300004D226480078401C244908703846FFF741
:100E400017FA00F0B2FAFFF70FFA07461F480078CA
:100E500020B11E480078401E1C490870204600F052
:100E600041F81B480078401E1949087000201449B9
:100E700041F82500A06930B90020616988611549F1
:100E80006069086005E0D4E905014861D4E905100E
:100E900088611148006860610F4804600FA0E06439
:100EA0003846FFF7E5F90E480078012801D100F037
:100EB00009FC002074E70000250000203800002015
:100EC000340900202A0000202900002026000020EC
:100ED00033000020440000203C0000203F000000C0
:100EE00032000020704770472DE9F04106460F465A
:100EF00014464FF000081548007818B112202070F1
:100F0000BDE8F081FFF7B0F98046FF2E03D110480D
:100F1000006890F832600F4850F826502DB94046CE
:100F2000FFF7A6F943202070EAE7012D05D14046DE
:100F3000FFF79EF943202070E2E7EF644046FFF799
:100F400097F90020207000BFDAE70000250000209C
:100F50003800002034090020704770472DE9F04721
:100F600007460D464FF0000A002028606860FFF732
:100F70007BF98246FF2F03D11948006890F8327040
:100F8000184850F827402CB95046FFF771F9432014
:100F9000BDE8F087012C04D15046FFF769F94320E2
:100FA000F6E7207C00F0010020B95046FFF760F919
:100FB0004520EDE70026D4F80C90D4F80880504680
:100FC000FFF756F900E0761C58F8041B0029FAD008
:100FD000B0002860A9EB0600800068600020D7E719
:100FE000380000203409002070B504461046002661
:100FF000051F28462E604FF48056051F28462E6098
:101000001526051F28462E601426051F28462E602B
:101010001326051F28462E601226051F28462E601F
:101020001126051F28462E601026051F28462E6013
:101030000926051F28462E600826051F28462E6013
:101040000726051F28462E600626051F28462E6007
:101050000526051F28462E600426051F28462E60FB
:101060000326051F28462E600226051F28462E60EF
:101070000126051F28462E600026051F28462E60E3
:101080004FF080750560051F28462C60414E051FF6
:1010900028462E604FF01236051F28462E604FF06E
:1010A0000336051F28462E604FF00236051F2846DE
:1010B0002E607610051F28462E60051F28462960E1
:1010C0003126051F28462E603026051F28462E6033
:1010D0002926051F28462E602826051F28462E6033
:1010E0002726051F28462E602626051F28462E6027
:1010F0002526051F28462E602426051F28462E601B
:101100002326051F28462E602226051F28462E600E
:101110002126051F28462E602026051F28462E6002
:101120001926051F28462E601826051F28462E6002
:101130001726051F28462E601626051F28462E60F6
:101140004FF01136051F28462E604FF01036051F50
:1011500028462E604FF00936051F28462E604FF0B6
:101160000836051F28462E604FF00736051F284613
:101170002E604FF00636051F28462E604FF00536CC
:10118000051F28462E604FF00436051F28462E60A6
:1011900070BD0000C11800082DE9F04105464FF070
:1011A0000008FFF761F88046FF2D05D12048006850
:1011B00090F83250012608E01D48006890F832008F
:1011C000A84201D1012600E000261A4850F8254027
:1011D0002CB94046FFF74CF84820BDE8F081012CBF
:1011E00004D14046FFF744F84320F6E794F8347002
:1011F0001148C05D94F8351088430F49C85508461A
:10120000C05D30B994F836100C48007888430B491B
:10121000087094F8300040F0080084F83000404630
:10122000FFF726F8012E01D100F04CFA0020D4E798
:1012300038000020340900202A0000202900002066
:101240007047000070B5054600261748007800B1C9
:1012500070BD1648007800B1FAE71DB3FFF704F837
:1012600006461348006890F834401248005D104963
:10127000096891F8351088430E4908550846005D05
:1012800040B90B48006890F836100B480078884346
:101290000949087006480068C5623046FEF7E8FF55
:1012A00000F010FA00BFD3E7250000202600002040
:1012B000380000202A0000202900002070B50026F8
:1012C00000F072F8FEF7D0FF064631480068401C77
:1012D0002F4908603046FEF7CBFF2E4800780128E2
:1012E00053D12D48007820B1012804D0022809D11B
:1012F00003E001250BE0002509E001250120264936
:10130000087004E0012500202349087000BF00BFD9
:1013100005B970BD2148046833E0FEF7A5FF064615
:10132000E06A50B3E06A401EE062E06A28BB94F8CD
:10133000300000F0370040B114F8300F00F0C80062
:10134000207001206070303C02E0002084F8310001
:1013500094F8300000F0080078B93434A0781049CF
:10136000097808430E49087020780E49085C6178B6
:10137000084314F834190B4A505464693046FEF798
:1013800077FF94F832003F28C7D100BFC1E70000C3
:1013900050000020320000204800002044000020BF
:1013A000290000202A0000207047704710B590F8EF
:1013B000342001F10B039B5C90F83540A34301F10D
:1013C0000B04A35423469B5C23B98B7A90F83640D8
:1013D000A3438B7210BD00002DE9F041502111484C
:1013E00000F03EF900250DE0681C86B20D4800EBC8
:1013F000051400EB06170020207067600AA0E0606B
:10140000681C85B2042DEFD3064800EB05140020BC
:101410002070606004A0E060024804490860BDE8F4
:10142000F0810000E40400203F00000014000020D0
:1014300030B501464A6808682AB9CC68606028B1AE
:101440000025456002E0106000B142608B68002515
:101450005D6230BD70B5C821114800F001F900236C
:101460000FE0581C85B203EB83000D4901EB8004AB
:1014700005EB850001EB8006002020706660581C9B
:1014800083B2092BEDD303EB8300054901EB800404
:1014900000202070606008460249086070BD0000AE
:1014A0001C0400201000002000200A4908600A499E
:1014B00008700A4908700A4908700A4908700A4900
:1014C00008600A4908600A4908600A4908600A4930
:1014D00008707047500000202500002026000020E2
:1014E00033000020320000200C00002034000020D7
:1014F000200000201C0000202400002000210A4AB7
:101500001170002004E00021084A1154411CC8B2A7
:101510000828F8D30021064A1170064A1170064ABD
:101520001160064A11607047290000202A0000203F
:101530002700002028000020400000203800002064
:1015400070B54FF47C71194800F08AF84FF480713F
:10155000174800F085F8002413E0601CC5B2C4EB06
:10156000C40000EB4000114901EB8003C5EBC5004E
:1015700000EB400001EB80065E610EA0D864601CA9
:10158000C4B20B2CE9D3C4EBC40000EB4000074904
:1015900001EB80030020586106A0D86400200649B2
:1015A000086002480549086070BD0000340A002048
:1015B000340900203F000000440000203C000020CF
:1015C00000B587B00320002180220A4BCDE901320B
:1015D000CDE903104FF6FF703F23074A00900748FC
:1015E000FFF778FB06AA06A13F20FFF77DFC07B0B6
:1015F00000BD0000340700203009002099180008C1
:1016000075432F4F532D49492049646C65000000F4
:1016100000B587B00320002180220A4BCDE90132BA
:10162000CDE903104FF6FE703E23074A00900748AD
:10163000FFF750FB06AA06A13E20FFF755FC07B0B6
:1016400000BD00003405002030070020D918000834
:1016500075432F4F532D4949205374617400000086
:1016600004E0002200F8012B4A1E91B20029F8D1B3
:10167000704700002DE9F04178211048FFF7F0FF96
:1016800000240DE0601C86B204EB44000B4901EB22
:10169000C00506EB460001EBC0072F60601C84B25A
:1016A000042CEFD304EB4400044901EBC0050020F7
:1016B0002860084602490860BDE8F081240E002039
:1016C0004C00002010B50024FEF7CEFD0446134860
:1016D0000078F8B912480078E0B900F02DF8114808
:1016E0001149097850F82100104908600E48007827
:1016F0000F49097888420DD00C480068806B401C67
:101700000A49096888630B480068401C0949086059
:10171000FEF7C3FD2046FEF7ABFD10BD25000020FF
:10172000260000203409002028000020400000206E
:10173000270000200C0000200649074A1278885C28
:101740000649095C034A515C01EBC001044A11706F
:1017500070470000A42D0008290000202A00002066
:10176000280000202DE9F84F05460F46904699467F
:10177000DDE90AAB00200090FEF776FD00903F48BF
:101780000468002C74D0183454F8040C3B490860E9
:101790000098FEF76DFD44F8187CA57600202076B1
:1017A0006076606144F814BC44F80CAC44F8108CCA
:1017B0000C9824F8080C24F8069C0020E077E81028
:1017C000207705F00700E076217F01208840A07790
:1017D000E17E01208840607700206060E060A060CA
:1017E0002062A0626062E062206325A06063183C12
:1017F000002606E0002104F1500040F82610701C7D
:10180000C6B2002EF6D02046FFF712FA2046FFF7A8
:10181000BDFAFEF729FD00901A4840F825401A4805
:10182000006860610020A0611748006810B1164888
:1018300000688461144804603434A078134909783E
:1018400008431249087020781149085C6178084300
:1018500014F834190E4A50540E480078401C0D49B3
:1018600008700098FEF704FD0020BDE8F88FFFE740
:101870000098FEF7FDFC4220F7E700003C00002046
:101880003F0000003409002044000020290000200F
:101890002A00002033000020002400BF00BFFEF714
:1018A000E3FC044605480068401C044908602046E3
:1018B000FEF7DEFCFFF717FBF1E700003400002025
:1018C00010B504480068FFF747FBFF20FFF760FAF8
:1018D00010BD000038000020002400BF02E02820D6
:1018E000FFF7B0FC194800780028F8D018480068C5
:1018F0006421B0FBF1F0164908600846006828B979
:10190000002014490870FF20FFF746FC00BFFEF7D7
:10191000ABFC0446104800681049086000200E49DE
:1019200008602046FEF7A4FC0C48006808490968D6
:10193000B0FBF1F0C0F1640006490870FFF70DFB41
:1019400000F00EF81420FFF77DFCE0E724000020F3
:101950001C0000201800002034000020200000207F
:101960007CB5002514E069462846FFF7F7FA0646DD
:1019700066B9094850F8254044B1012C06D0D4E995
:10198000020100EB810060640198A064681CC5B28C
:101990003F2DE8D97CBD00003409002002F001038E
:1019A00043B102F002032BB102E0491E002308C03C
:1019B0000029FAD17047000029B1064A1268024393
:1019C000044B1A6004E0034A12688243014B1A6018
:1019D000704700003038024070B5044600250825E5
:1019E0001BE004F0800028B14FF400410C48FEF7E2
:1019F00024FD04E04FF400410948FEF71CFD4FF4BC
:101A000000510748FEF717FD4FF400510448FEF758
:101A100014FD6006040E681EC5B2002DE1DC70BD29
:101A200000040240704700000CB5002001900090B7
:101A30003448006840F480303249086000BF3148C3
:101A4000006800F4003000900198401C019000985C
:101A500018B90198B0F5A04FF1D12A48006800F4F8
:101A6000003010B10120009001E0002000900098AB
:101A7000012846D123484030006840F08050214979
:101A8000403108602048006840F440401E4908602A
:101A90001C48083000681B49083108600846006887
:101AA00040F4004008600846006840F4A050086018
:101AB0001648091F0860081F006840F08070091F61
:101AC000086000BF0F48006800F000700028F9D0DF
:101AD00040F205700E4908600A480830006820F09E
:101AE00003000849083108600846006840F0020019
:101AF000086000BF03480830006800F00C000828A8
:101B0000F8D10CBD00380240007000400854400776
:101B1000003C0240042808D14FF0E021096941F05F
:101B200004014FF0E022116107E04FF0E021096964
:101B300021F004014FF0E0221161704710B5FEF76B
:101B4000A9FFFFF7BBFBFEF7B7FF10BD10B51548A7
:101B5000006840F47000134908601348006840F0C2
:101B600001001149086000200F49083108600E4843
:101B700000680E4908400C4908600D48091D0860BE
:101B8000081F006820F48020091F08600020064913
:101B90000C310860FFF748FF4FF0006001498039C1
:101BA000086010BD88ED00E000380240FFFFF6FE3F
:101BB0001030002410B5FEF76DFF40F225511E488D
:101BC00000F040F810B31C4800F066F8C4B21B489F
:101BD000008800F40040C8B91848008800F480402C
:101BE00060B10A2C03D000201449088020E013487B
:101BF000008840F400401149088019E00D2C06D1FE
:101C00000E48008840F480400C49088010E00B48E2
:101C10000088C0F30D000A490C5408480088401C95
:101C20000649088008460088C72801DD0020088092
:101C3000FEF742FF10BD0000001001400800002028
:101C40005403002070B50246002400230025002024
:101C500040F66A16B14200D100BFC1F3421501F04F
:101C60001F03012606FA03F3012D02D196893340A2
:101C700006E0022D02D1168A334001E0968A3340F5
:101C80000C12012606FA04F41688344013B10CB184
:101C9000012000E0002070BD01468888C0F30800E4
:101CA000704700BFFEE700BF7047000070B50446F4
:101CB0006FF00400FFF72EFFE11704EB5171C1F341
:101CC000C7010D4A1170E11704EB5171CD1041F2BB
:101CD000883045430520094908804FF0E02000691D
:101CE00040F002004FF0E0210861084645610069BC
:101CF00040F00100086170BD0000002002000020DB
:101D000070B504460F480078012814D10E480078B9
:101D100088B90E480088844206DB0C48008894FB92
:101D2000F0F52846FFF78EFA0848008894FBF0F19A
:101D300000FB114084B24FF47A7104FB01F000F013
:101D400007F870BD320000202600002002000020AD
:101D50002DE9F047074600264FF0E020D0F8149018
:101D60001148007807FB00F800BFFEF7EDFE4FF0CA
:101D7000E020856911E04FF0E0208469AC420CD08E
:101D8000AC4202D2281B064403E0A9EB040028441D
:101D900006442546464500D300E0ECE700BFFEF7C9
:101DA000F3FEBDE8F0870000000000200DE00120F8
:101DB00006490860C820FFF7A3FF00200449C1F8C6
:101DC000A00240F2DC50FFF79BFFF0E7A002404288
:101DD000000040420EE00020074908604FF4967072
:101DE000FFF78EFF01200549C1F888024FF4967075
:101DF000FFF786FFEFE70000888241420080414202
:101E000008B5A820FFF752FFFEF752FCFEF7A1FC31
:101E10004EF67D70FEF784FC13A04EF67D734FF4F2
:101E20007842102100900020FEF70AFB13A04EF626
:101E30007D731F22202100900020FEF701FB14A0DB
:101E40004EF67D731F22302100900020FEF7F8FA35
:101E5000FEF707FE0A23134A00211348FEF7EAFEA5
:101E6000FEF7C2FE002008BD2053544D33322055EA
:101E7000434F534949202020000000002020C7B6CE
:101E8000C8EBCABDBFAAB7A2CDF820202000000031
:101E90006D63756465762E74616F62616F2E636F1A
:101EA0006D20000050010020AD1E000870B50446F2
:101EB000002500BFFEF7D8F905460723084A002190
:101EC0000848FEF7B7FE0623074A00210748FEF739
:101ED000B1FE0A20FFF760F92846FEF7C9F970BD88
:101EE00050020020AD1D000850030020D51D000841
:101EF0004FF04070E1EE100A704700000000000053
:101F00000000000000000000000000101010101081
:101F10001010101000001010000000006C6C242441
:101F2000000000000100000000000024242424FE22
:101F300048484848FC909090900000103C54929083
:101F4000503814121292547810000000225C94A8A9
:101F5000481010242A52548800000000304848508D
:101F6000206E54948C888A74000000003030101069
:101F70000000000000000000000000040810102015
:101F80002020202020101008040000804020201075
:101F9000101010101020204080000000000010548D
:101FA000381038541000000000000000001010101D
:101FB00010FE1010101000000000000000000000D3
:101FC00000000000000010102000000000000000D1
:101FD00000FE000000000000000000000000000003
:101FE00000000000000010100000000004040808B9
:101FF0001010202040408080000000003844828281
:1020000082828282828244380000000010701010A8
:10201000101010101010107C000000003844828254
:1020200004081020408284FC000000003844820232
:10203000043804020282443800000000040C141426
:1020400024244444FE04040E00000000FC80808030
:10205000B8C4820202828478000000003C42828080
:10206000B8C4828282824438000000007E4282042A
:102070000408080810101010000000003844828284
:10208000443844828282443800000000384482820E
:102090008282463A0282443800000000000010109C
:1020A00000000000101000000000000000001010F0
:1020B00000000000001010200000000000000618C2
:1020C00060806018060000000000000000000000B2
:1020D000FE0000FE00000000000000000000C03014
:1020E0000C020C30C0000000000000384482820264
:1020F0000408101010001010000000003844829AEC
:10210000AAAAAAAAAA9680423C0000001010102891
:10211000282844447C4444EE00000000FC42424233
:10212000427C4242424242FC000000003C44828029
:10213000808080808282443800000000F84442425F
:1021400042424242424244F800000000FC44424005
:10215000447C4440404244FC00000000FC444240B7
:10216000447C4440404040F000000000344C8280F9
:1021700080808E8484844C3400000000EE4444440B
:10218000447C4444444444EE000000007C101010A1
:10219000101010101010107C000000003E080808FD
:1021A000080808080888887000000000EE444848C5
:1021B00050605048484444EE00000000E040404079
:1021C00040404040404244FC00000000C6446C6C6B
:1021D0006C545454444444EE00000000CE44646403
:1021E0006454544C4C4C44E4000000003844828257
:1021F000828282828282443800000000F844424297
:1022000042447840404040E0000000003844828270
:102210008282828282BA443C02000000F048444438
:1022200044487048444444E6000000003C44828036
:1022300040300C0202824478000000007C5492106E
:10224000101010101010103800000000EE4444442C
:10225000444444444444443800000000EE444444B0
:10226000442828282810101000000000EE44545480
:10227000545454542828282800000000EE444428D0
:1022800028101028284444EE00000000EE444428A2
:102290002828101010101038000000007E44840818
:1022A00008102020408284FC0000001C1010101038
:1022B00010101010101010101C000000EE445454A8
:1022C000FE545454282828280000007010101010C4
:1022D0001010101010101010700000304884000012
:1022E00000000000000000000000000000000000EE
:1022F0000000000000000000FE0000402000000080
:1023000000000000000000000000000000000000CD
:102310007884047C84848C7600000000C0404040B7
:10232000586442424242645800000000000000002D
:102330003844808080804438000000000C0404048D
:10234000344C848484844C3600000000000000007B
:10235000788484FC80808478000000001824202089
:10236000F820202020202070000000000000000045
:102370003A444478807C82827C000000C040404027
:1023800058644444444444EE00000000101000002F
:102390003010101010101038000000001010000055
:1023A000301010101010109060000000C04040402D
:1023B0005C485060504844EE00000000301010109F
:1023C0001011101010101039000000000000000063
:1023D000ACD29292929292D60000000000000000CF
:1023E00058E44444444444EE00000000000000006F
:1023F00038448282828244380000000000000000DD
:10240000D864424242645840E000000000000000EE
:10241000364C8484844C34040E000000000000001C
:102420006C30202020202070000000000000000000
:102430007888846018844478000000000020202000
:10244000F8202020202024180000000000000000B8
:10245000C64242424242463A0000000000000000EC
:10246000EE4444282828101000000000000000005E
:10247000EE444454542828280000000000000000C6
:10248000EE442810102844EE000000000000000078
:10249000EE444428281010A0C000000000000000F6
:1024A0007E448810204284FC0000000C10101010A4
:1024B00010601010101010100C00001010101010F0
:1024C0001010101010101010100000C0202020203C
:1024D0002018202020202020C00000000000000044
:1024E00000728C00000000000000000000000000EE
:1024F0001FE000003FF000003FF000001FE000017F
:1025000080060003C00F0003C00F0003C00F0003CC
:10251000C00F0003C00F0003C00F0003C00F000373
:10252000C00F0003000300000000000000000000D6
:102530000000000300030003C00F0003C00F0003EE
:10254000C00F0003C00F0003C00F0003C00F000343
:10255000C00F0003C00F0001800600001FE0000054
:102560003FF000003FF000001FE00000000000000E
:1025700000000000008000000180000003800000D7
:10258000078000000780000007800000078000002F
:10259000078000000780000007800000078000001F
:1025A0000780000001800000000000000000000023
:1025B000000000000180000007800000078000008C
:1025C00007800000078000000780000007800000EF
:1025D00007800000078000000780000003800000E3
:1025E00001800000008000000000000000000000EA
:1025F0001FE000003FF00000FFF00001FFE00000DE
:1026000000060000000F0000000F0000000F000097
:10261000000F0000000F0000000F0000000F00007E
:10262000000F00001FE300007FF800007FF80000AB
:102630001FE0000300000003C0000003C00000030F
:10264000C0000003C0000003C0000003C00000037E
:10265000C0000003C0000001800000001FF0000067
:102660003FF800003FFC00001FFE000000000003D8
:10267000FF800001FFC00000FFC000007F8000005D
:1026800000180000003C0000003C0000003C00007E
:10269000003C0000003C0000003C0000003C00004A
:1026A000003C00007F8C0001FFE00001FFF0000013
:1026B0007F800000000C0000003C0000003C000097
:1026C000003C0000003C0000003C0000003C00001A
:1026D000003C0000003C0000001800007F8000006B
:1026E000FFC00001FFC00003FF80000000000000E9
:1026F0000000000200010003000300038007000344
:10270000C00F0003C00F0003C00F0003C00F000381
:10271000C00F0003C00F0003C00F0003C00F000371
:10272000C00F00031FE300007FF800007FFC0000E3
:102730001FE0000000030000000F0000000F000079
:10274000000F0000000F0000000F0000000F00004D
:10275000000F0000000F0000000F00000007000045
:102760000003000000010000000000000000000065
:102770001FFC00003FF800003FF000001FE00001D8
:1027800080000003C0000003C0000003C00000037D
:10279000C0000003C0000003C0000003C00000032D
:1027A000C00000031FE000007FF800007FF8000079
:1027B0001FE0000000030000000F0000000F0000F9
:1027C000000F0000000F0000000F0000000F0000CD
:1027D000000F0000000F0000000600003FE00000B6
:1027E0007FF00000FFF00001FFE0000000000000AB
:1027F0001FFC00003FF800003FF000001FE0000158
:1028000080000003C0000003C0000003C0000003FC
:10281000C0000003C0000003C0000003C0000003AC
:10282000C00000031FE000007FF800007FFC0000F4
:102830001FE0000300030003C00F0003C00F0003EC
:10284000C00F0003C00F0003C00F0003C00F000340
:10285000C00F0003C00F0001800600001FE0000051
:102860003FF000003FF000001FE000000000000704
:10287000FFE00003FFC00001FF880000FF18000018
:1028800000380000007800000078000000780000A8
:102890000078000000780000007800000078000058
:1028A0000078000000180000000000000000000098
:1028B0000000000000180000007800000078000010
:1028C0000078000000780000007800000078000028
:1028D0000078000000780000007800000038000058
:1028E00000180000000800000000000000000000C8
:1028F0001FE000003FF000003FF000001FE000017B
:1029000080060003C00F0003C00F0003C00F0003C8
:10291000C00F0003C00F0003C00F0003C00F00036F
:10292000C00F00031FE300007FF800007FFC0000E1
:102930001FE0000300030003C00F0003C00F0003EB
:10294000C00F0003C00F0003C00F0003C00F00033F
:10295000C00F0003C00F0001800600001FE0000050
:102960003FF000003FF000001FE00000000000000A
:102970001FE000003FF000003FF000001FE00001FA
:1029800080060003C00F0003C00F0003C00F000348
:10299000C00F0003C00F0003C00F0003C00F0003EF
:1029A000C00F00031FE300007FF800007FFC000061
:1029B0001FE0000000030000000F0000000F0000F7
:1029C000000F0000000F0000000F0000000F0000CB
:1029D000000F0000000F0000000600001FE00000D4
:1029E0003FF000007FF00000FFE00000000000006A
:1029F00000000000000000000000000000000000D7
:102A000000000000000000000000000000000000C6
:102A100000000000000000000000000000000000B6
:102A200000000000000000000000000000000000A6
:102A30000000000000000000000000000000000096
:102A400078000000780000007800000078000000A6
:102A50007800000078000000000000000000000086
:102A60000000000000000000000000000000000066
:102A70000000000000000000000000000000000056
:102A8000000000000000000000000000070000003F
:102A90000F8000000F8000000F8000000700000082
:102AA0000000000000000000000000000000000026
:102AB0000000000000000000070000000F80000080
:102AC0000F8000000F8000000700000000000000E1
:102AD00000000000000000000000000000000000F6
:102AE00000000000000000000000000000000000E6
:102AF000000000000000000000000007C006000FFA
:102B0000E0060000000C00301818003018180030E3
:102B100018300030183000301860003008C000074E
:102B2000C0C0000FE080000000000000000FE000C7
:102B30000607C000063018000C3018000C301800D2
:102B400018301800303018003030180060000000D5
:102B5000C00FE000C007C00000000000000000003F
:102B60000000000000000000000000000000000065
:102B70000000000000000000000000000000000055
:102B80000000000700E0000887FC00088E03000832
:102B9000980180071800800030000000300000001D
:102BA0007000000060000000600000006000000095
:102BB00060000000600000007000000030000000B5
:102BC0003000000038000000180100000C03000075
:102BD00007FC000001F00000000000000000000001
:102BE00000000000000000000000000000000000E5
:102BF00000000000000000000000000000000000D5
:102C000000000000000000000000000000000000C4
:102C100000000000000000000000000000000000B4
:102C200000000000000000003FF000007FF0000006
:102C30007FE00000FFC00000000000000000000076
:102C40000000000000000000000000000000000084
:102C50000000000000000000000000000000000074
:102C6000000000000000000000000000C7B60100E6
:102C7000210821083FF800202220223EFF42229412
:102C800022103E10221022283E2822440082C8EB47
:102C900004000200010001000100028002800280A5
:102CA000044004400820082010102010400880062E
:102CB000CABD0048004400440040FFFE0040004000
:102CC0003E4008400840082008220F12780A2006DB
:102CD0000002BFAA00007FFC08200820082008206E
:102CE0000820FFFE082008200820082010201020BF
:102CF00020204020B7A201001110110822003FFC43
:102D00000200040007F80A080908111010A020406A
:102D100040A003181C06CDF800007FFC40044004CE
:102D2000421452944A54442444244A544A545294D7
:102D3000610440044014400800000000000000004E
:102D40000000000000000000000000000000000083
:102D50000000000000000000000000000000000073
:102D60000000000000000000000000000000000063
:102D70000000000000000000000000000000000053
:102D80000000000000000000000000000000000043
:102D90000000000000000000000000000000000033
:102DA000000000000000010002000100030001001B
:102DB0000200010004000100020001000300010004
:102DC00002000100050001000200010003000100F3
:102DD00002000100040001000200010003000100E4
:102DE00002000100060001000200010003000100D2
:102DF00002000100040001000200010003000100C4
:102E000002000100050001000200010003000100B2
:102E100002000100040001000200010003000100A3
:102E20000200010007000100020001000300010090
:102E30000200010004000100020001000300010083
:102E40000200010005000100020001000300010072
:102E50000200010004000100020001000300010063
:102E60000200010006000100020001000300010051
:102E70000200010004000100020001000300010043
:102E80000200010005000100020001000300010032
:102E90000200010004000100020001000300010023
:102EA00002000100C42E00080000002054000000B1
:102EB000C4010008182F000854000020AC140000C2
:102EC000E001000800000000000000000000000019
:102ED00000000000000000000000000000000000F2
:102EE00000000000000000000000000000000000E2
:102EF00000000000000000000000000000000000D2
:102F000000000000000000000000000000000000C1
:082F10000000000000000000B9
:040000050800018965
:00000001FF
