:020000040800F2
:10000000180500209D01000853120008E30C0008A9
:1000100051120008890900082D170008000000008F
:100020000000000000000000000000003114000883
:10003000550A000800000000D11200080915000848
:10004000B7010008B7010008B7010008B7010008B0
:10005000B7010008B7010008B7010008B7010008A0
:10006000B7010008B7010008B7010008B701000890
:10007000B7010008B7010008B7010008B701000880
:10008000B7010008B7010008B7010008B701000870
:10009000B7010008B7010008B7010008B701000860
:1000A000B7010008B7010008B7010008B701000850
:1000B000B7010008B7010008B7010008B701000840
:1000C000B7010008B7010008B7010008B701000830
:1000D000B701000869150008B7010008B70100085A
:1000E000B7010008B7010008B7010008B701000810
:1000F000B7010008B7010008B7010008B701000800
:10010000B7010008B7010008B7010008B7010008EF
:10011000B7010008B7010008B7010008B7010008DF
:10012000B7010008B7010008B7010008B7010008CF
:10013000B7010008B7010008B7010008B7010008BF
:10014000B7010008B7010008B7010008B7010008AF
:10015000B7010008B7010008B7010008B70100089F
:10016000B7010008B7010008B7010008B70100088F
:10017000B7010008B7010008B7010008B70100087F
:10018000B7010008B7010008DFF80CD000F0F8FA5A
:1001900000480047FD200008180500200648804759
:1001A00006480047FEE7FEE7FEE7FEE7FEE7FEE75C
:1001B000FEE7FEE7FEE7FEE70D15000889010008EF
:1001C0002DE9FE4F81EA030404F0004421F00041D0
:1001D00000944FF0000B23F0004350EA01045ED07E
:1001E00052EA03045BD0C3F30A54C1F30A552C440A
:1001F000A4F2F3340194A0FB0254C1F3130141F4BF
:100200008011C3F3130343F4801301FB024400FB8A
:10021000034E840A970A44EA815447EA8357A4FBB1
:10022000076802958D0A05FB07854FEA932C04FBAE
:100230000C542705029D4FEA065847EA1637B5EBDE
:1002400008056EEB070C870E920E47EA811742EA0B
:100250008312A7FB0201B6EB0B0164EB00042B0D2C
:1002600043EA0C335E1844EB1C50DA465146E7FB78
:100270000201C5F313044FEA0B3343EA14534FEA68
:100280000432019C43EA0603A4F10C040294009C8E
:10029000CDE900B400F04EF903B0BDE8F08F0020C6
:1002A0000146F9E72DE9F04D81EA030404F0004B23
:1002B00021F0004514464FF0000A23F0004150EAB7
:1002C000050220D054EA01021DD0C5F30A570246A8
:1002D000C5F31303C1F31300C1F30A5640F48015AC
:1002E00043F48013A7EB0608101BD64608F2FD382E
:1002F00073EB050002D308F1010801E092185B419D
:10030000B8F1000F03DA00200146BDE8F08D0020AF
:100310004FF48011064684460EE0171B73EB050769
:1003200005D3121B63EB050306434CEA010C490895
:100330004FEA300092185B4150EA0107EDD152EAD2
:10034000030012D082EA040083EA0501084305D0C5
:10035000101BAB4106D20122002306E000224FF021
:10036000004302E06FF0010253101AEB06004CEB61
:10037000085110EB0A0041EB0B01BDE8F04D00F015
:10038000CAB80EB540F2334102910021CDE9001107
:100390000A460B4600F0CEF803B000BD00F0004264
:1003A00030F000400AD0C10D01F56071C0F31600B5
:1003B00042EA0151C208400711437047002001463C
:1003C000704701F0004330B421F0004150EA0102CF
:1003D00006D00A0DA2F56072C1F31301002A02DCF7
:1003E00030BC00207047440F44EAC104C100E0184B
:1003F00030BC00EBC25000F057B830B50B46014698
:1004000000202022012409E021FA02F59D4205D3B3
:1004100003FA02F5491B04FA02F52844151EA2F15D
:100420000102F1DC30BD2DE9F05F05460020924667
:100430009B4688460646814640241BE028464146A6
:100440004746224600F020F853465A46C01A9141CA
:1004500010D311461846224600F0A4F92D1A67EB76
:1004600001084F4622460120002100F09BF917EBBE
:1004700000094E41201EA4F10104DFDC484631464C
:100480002A464346BDE8F09F202A04DB203A21FAA1
:1004900002F00021704721FA02F3D040C2F120029D
:1004A00091400843194670470029A8BF7047401C77
:1004B000490008BF20F00100704710B4B0FA80FC7A
:1004C00000FA0CF050EA010404BF10BC704749B1B7
:1004D000CCF1200421FA04F411FA0CF118BF012127
:1004E00021430843A3EB0C01CB1D4FEA00614FEA07
:1004F000102042BF002010BC704700EBC3501044D6
:100500000029A4BF10BC7047401C490008BF20F060
:10051000010010BC704710B5141E73F1000408DA16
:10052000401C41F1000192185B411A4301D120F0B7
:10053000010010BD2DE9F04D92469B4611B1B1FA74
:1005400081F202E0B0FA80F22032904600F02AF9FF
:1005500004460F4640EA0A0041EA0B0153465A4658
:10056000084313D0114653EA010019D0C8F14002E4
:100570005046FFF789FF05460E465046594642460B
:1005800000F010F9084305D0012004E02046394668
:10059000BDE8F08D0020054346EAE0762C43374362
:1005A0000A986305E40AA0EB08000022FD0A44EA69
:1005B00047540A3002D500200146E9E70105101929
:1005C0006941DDE9084500196941BDE8F04DA2E740
:1005D0002DE9FE4F804681EA0300C00F0C460090D3
:1005E00021F0004123F00045B8EB0200A94105D2FB
:1005F0004046214690461C460B46024623F00040EA
:10060000104347D0270DC7F30A00C3F30A510290E5
:10061000401A019040286BDAC3F3130040F4801BAA
:100620000098924620B10023D2EB030A63EB0B0B38
:1006300001985946C0F14002504600F0B3F8064612
:100640000D4650465946019A00F0BBF810EB0800E1
:100650006141002487EA115284EAE7731A4340D0CB
:10066000009A62B3019A012A4FEA075215DC001B77
:1006700061EB02014FF0004202EA0752CDE900426D
:10068000001C41F5801132462B46FFF753FF03B0A3
:10069000BDE8F08F40462146F9E7001B61EB0201FF
:1006A000001C41F5801300185B412018A2F50017CB
:1006B00047EB030140EAD570B6196D4111E06D08B2
:1006C0004FEA360645EAC0754FEA0752001B61EB58
:1006D0000201001C41F5801149084FEA3000001961
:1006E000514132462B4603B0BDE8F04FFFF713BF30
:1006F0000098012240000023D0EB020263EBE0737C
:10070000009821464FEAE074B8EB000061EB040169
:10071000E9E783F000435BE781F0004158E7C1F36C
:100720000A52C1F3130140F2FF3341F480119A429F
:1007300002DA00200146704740F233439A42A2F2A7
:10074000334202DC5242FFF79FBE00F02BB800009C
:1007500030B5041E71F1000404DB4FF00044404248
:1007600064EB0101141E73F1000405DB1C464FF01D
:100770000043524263EB0403994208BF904230BDEC
:10078000064C074D06E0E06840F0010394E80700DE
:1007900098471034AC42F6D3FFF7FAFC4033000818
:1007A00060330008202A04DB203A00FA02F100201E
:1007B00070479140C2F1200320FA03F3194390409F
:1007C0007047202A06DBCB17203A41FA02F043EAB1
:1007D000E07306E041FA02F3D040C2F120029140FA
:1007E000084319467047002904D0816841F001018F
:1007F00081607047816821F00101816070470000CD
:1008000010B5074C226807490A40D0E90013194384
:10081000D0E90230034319431143216010BD0000A9
:1008200004230140E030FCFFC06C80B270470246F8
:10083000002012680A4200D00120704730B542689B
:100840000F4B1A400C790B6842EA042213434360B1
:1008500083680C4A1340D1E9034222434D798C68E6
:1008600044EA450422431A438260C26A22F47002B9
:10087000097D491EC9B242EA0151C16230BD000082
:10088000FFFEFFFCFDF7FFC070B5072609290AD956
:10089000C568A1F10A0404EB4404A640B543A34093
:1008A0001D43C56007E0056901EB4104A640B5435F
:1008B000A3401D4305611F23072A09D2446B521E22
:1008C00002EB820293409C4391400C43446370BD11
:1008D0000D2A09D2046BD21F02EB820293409C4383
:1008E00091400C43046370BDC46A0D3A02EB82026E
:1008F00093409C4391400C43C46270BD816841F0B9
:10090000804181607047000070B58CB001210220E9
:1009100000F0E0FC01210E02304600F0F7FC01255A
:100920000A9503218DF82C1000248DF82F400AA978
:10093000134800F090F80121304600F0F5FC00214A
:10094000304600F0F1FC06940994089428040790BE
:1009500006A8FFF755FF00948DF804408DF8054078
:10096000029404948DF81450064C69462046FFF713
:1009700065FF01212046FFF736FF0CB070BD000077
:100980000004024000200140FEE700000122064B67
:100990008240002903D01868104318607047186817
:1009A00090431860704700000074004008B5044987
:1009B00001EB90002C3000900098006880B208BDD8
:1009C0000074004030B5084C236840F6FE72824047
:1009D0009343D1E900252A43D1E902510D432A432B
:1009E00082401A43226030BD0074004008B5034ABB
:1009F0001044083000900098016008BD0074004069
:100A000010B586B00121084600F064FC01214807BA
:100A100000F06EFC1020049003208DF814000224D6
:100A20008DF8174004A90A4800F015F8002000903E
:100A30000190029003946946FFF7C4FF0121002052
:100A4000FFF7A4FF00210846FFF7D0FF06B010BD56
:100A50000000024070472DE9F041002201274FF0CD
:100A6000030C07FA02F50B682B40AB422CD1066849
:100A700053000CFA03F4A64306600E79D0F8008008
:100A80009E4046EA080606600E79012E01D0022E2D
:100A900012D18668A64386604E79D0F808809E40C1
:100AA00046EA080686604668AE43466045688E7929
:100AB0009640B6B235434560C568A543C560CC795C
:100AC0009C40C3681C43C460521C102AC9D3BDE8B3
:100AD000F08110B54B07DB0E9A40C90800EB81008E
:100AE000016A0F249C40A1430162016A1143016223
:100AF00010BD0246002012690A4200D00120704752
:100B0000418370470183704710B50A4C01460723A3
:100B100001222046FFF7B8FE2046FFF7EFFE022134
:100B20002046FFF784FE0028F9D02046BDE810409B
:100B3000FFF77ABE002001402DE9F04107460E463E
:100B40000025002408E03846FFF7DEFF05440520B5
:100B500001F096FA641CE4B2B442F4D3B5FBF6F0AB
:100B600080B2BDE8F08100002DE9FF5F0446DDF8AA
:100B700038800F4693469A4600949AE0802837D2F0
:100B80000D2805D0202807D920381FFA80F905E064
:100B9000009C1037BFB228E04FF000090026002566
:100BA00006EB0910039046490398095C8020E84051
:100BB000014207D0B81981B2601980B25A4600F0DC
:100BC00083F808E0D34506D0B81981B2601980B225
:100BD000524600F079F86D1CEDB2082DE3D3761C77
:100BE000F6B2102EDBD30834A4B208F1010860E09D
:100BF0004FF00009334909EB091098F8003011F85B
:100C000010209A424AD101EB40000290407898F8B7
:100C10000110884242D100250026029800EB4500D1
:100C20000190019881788020F040014207D0781926
:100C300081B2A01980B25A4600F046F808E0D345C8
:100C400006D0781981B2A01980B2524600F03CF863
:100C5000761CF6B2082EE4D300260198C1788020D5
:100C6000F040014208D0781981B2A019083080B252
:100C70005A4600F029F809E0D34507D0781981B227
:100C8000A019083080B2524600F01EF8761CF6B269
:100C9000082EE2D36D1CEDB2102DBDD309F1010970
:100CA0001FFA89F9B9F1060FA4D308F1020810342C
:100CB000A4B298F8000000287FF460AFBDE8FF9F61
:100CC000942400080632000810B514464A1C93B25A
:100CD000421C92B200F05AFA2046BDE8104000F0E3
:100CE000BDB8FEE77CB50121052000F0F3FA42F221
:100CF0000200009000248DF8044003258DF8055073
:100D000001268DF8076069460748FFF7A4FE0096A4
:100D10008DF804408DF8055002208DF807006946D3
:100D20000248FFF798FE7CBD000802400000024028
:100D30002DE9F0410126264C002800D026702078AD
:100D4000DFF89080244D4FF4005778B102212846F7
:100D5000FFF7CFFE88B139462846FFF7CAFE60B1DB
:100D600001214046FFF7C5FE012806D00221284692
:100D7000FFF7BFFE01281DD028E00A2001F080F90E
:100D80000020207002212846FFF7B3FE58B13946F3
:100D90002846FFF7AEFE48B101214046FFF7A9FE05
:100DA000012805D012E00120BDE8F0810220FBE718
:100DB0000320F9E739462846FFF79BFE012805D1B5
:100DC00001214046FFF795FE00B926700020EBE7B1
:100DD0000C00002000000240000802402DE9FC4108
:100DE0000121062000F076FA4FF4704000900124B3
:100DF0008DF8044000268DF8066003258DF8055017
:100E00008DF80740134F69463846FFF724FEC0208F
:100E100000908DF804408DF806608DF805508DF82F
:100E200007400D4C69462046FFF715FE4FF4804100
:100E30003846FFF767FE80212046FFF763FE8021DA
:100E40002046FFF75DFE80212046FFF75BFEBDE8F0
:100E5000FC810000000402400008024070B5044616
:100E60000B4E4FF4805529463046FFF749FE40218E
:100E70000848FFF747FE200A00F0B4FAE0B200F09D
:100E8000B1FA29463046BDE87040FFF73BBE00008E
:100E900000040240000802402DE9FC410121092024
:100EA00000F018FA4FF48077009701248DF8044081
:100EB00000258DF8065003268DF805608DF8074053
:100EC000DFF83C8069464046FFF7C5FD04200090EE
:100ED0008DF804408DF806508DF805608DF80740B8
:100EE000084C69462046FFF7B6FD39464046FFF7F5
:100EF00009FE04212046FFF705FEBDE8FC81000045
:100F000000000240000C024070B506467F2300211D
:100F10001A46084600F03AF92C2000F07FF9002527
:100F200000243046FFF79AFF641C802CF9D36D1C17
:100F3000802DF5D370BD10B5FFF750FF00F00EF90E
:100F4000112000F06BF9782001F09AF8B12000F040
:100F500065F9012000F048F92C2000F045F92D201A
:100F600000F042F9B22000F059F9012000F03CF9FC
:100F70002C2000F039F92D2000F036F9B32000F0D4
:100F80004DF9012000F030F92C2000F02DF92D2032
:100F900000F02AF9012000F027F92C2000F024F9B4
:100FA0002D2000F021F9B42000F038F9072000F0DE
:100FB0001BF9C02000F032F9A22000F015F9022040
:100FC00000F012F9842000F00FF9C12000F026F99A
:100FD000C52000F009F9C22000F020F90A2000F035
:100FE00003F9002000F000F9C32000F017F98A206F
:100FF00000F0FAF82A2000F0F7F8C42000F00EF90B
:101000008A2000F0F1F8EE2000F0EEF8C52000F0A4
:1010100005F90E2000F0E8F8362000F0FFF8C820AF
:1010200000F0E2F8E02000F0F9F80F2000F0DCF822
:101030001A2000F0D9F80F2000F0D6F8182000F0A0
:10104000D3F82F2000F0D0F8282000F0CDF8202091
:1010500000F0CAF8222000F0C7F81F2000F0C4F802
:101060001B2000F0C1F8232000F0BEF8372000F06C
:10107000BBF8002000F0B8F8072000F0B5F8022017
:1010800000F0B2F8102000F0AFF8E12000F0C6F850
:101090000F2000F0A9F81B2000F0A6F80F2000F0A8
:1010A000A3F8172000F0A0F8332000F09DF82C20C2
:1010B00000F09AF8292000F097F82E2000F094F81C
:1010C000302000F091F8302000F08EF8392000F048
:1010D0008BF83F2000F088F8002000F085F807200A
:1010E00000F082F8032000F07FF8102000F07CF878
:1010F0002A2000F093F8002000F076F8002000F09D
:1011000073F8002000F070F87F2000F06DF82B20BD
:1011100000F084F8002000F067F8002000F064F888
:10112000002000F061F89F2000F05EF8F02000F051
:1011300075F8012000F058F8F62000F06FF8002054
:1011400000F052F83A2000F069F8052000F04CF861
:10115000BDE81040292000F061B8000070B50A4DCC
:101160004FF4804421462846FFF7CAFC4FF496709E
:1011700000F086FF21462846FFF7C4FCBDE870401A
:10118000642000F07DBF0000000402402DE9F04122
:1011900005460F4614461E462A2000F03FF8002060
:1011A00000F022F8AD1CE8B200F01EF8002000F0BC
:1011B0001BF8A41CE0B200F017F82B2000F02EF86A
:1011C000002000F011F8FF1CF8B200F00DF800202C
:1011D00000F00AF8F61CF0B200F006F8BDE8F041A5
:1011E0002C2000F01BB8000070B50646094D4FF4E6
:1011F000805421462846FFF783FC40210648FFF72C
:1012000081FC304600F0EEF821462846BDE87040EB
:10121000FFF778BC000402400008024070B50646A3
:10122000094D4FF4805421462846FFF769FC4021C0
:101230000648FFF765FC304600F0D4F82146284602
:10124000BDE87040FFF75EBC0004024000080240A9
:10125000FEE7704730B50F23C27801250178002AD8
:101260001FD0154A126802F4E062C2F5E062C2F3D0
:101270000722C2F10404D3404278A24084781C4083
:101280001443220101F1E02181F80024007800F0EC
:101290001F018D404009800000F1E020C0F800519E
:1012A00030BD01F01F0085404809800000F1E020BA
:1012B000C0F8805130BD00000CED00E00249084349
:1012C00002490860704700000000FA050CED00E0DC
:1012D00070470000054A002903D0116801431160DE
:1012E0007047116881431160704700003038024038
:1012F000054A002903D01168014311607047116845
:10130000814311607047000040380240054A0029BF
:1013100003D0116801431160704711688143116067
:101320007047000044380240054A002903D0116884
:1013300001431160704711688143116070470000DC
:101340002438024070B5244B196801F00C01234C7D
:1013500000291ED0661004291DD008291DD0046064
:10136000196801F0F00109091D4A545C0168E14067
:1013700041601C6804F4E054A40A145D21FA04F4EA
:1013800084601B6803F460435B0BD25CD140C16096
:1013900070BD0460E4E70660E2E70F4A121F1168BF
:1013A000C1F38055116801F03F0135B1B6FBF1F191
:1013B0001468C4F38814614305E0B4FBF1F11468C8
:1013C000C4F3881461431268C2F30142521C5200F4
:1013D000B1FBF2F10160C3E7083802400024F400D9
:1013E000180000202DE9F041054608240F4E4FF467
:1013F0000048A702280604D541463046FFF782FB85
:1014000003E041463046FFF77BFB39463046FFF7A5
:1014100077FB39463046FFF775FB6806050E641EFC
:10142000E4B2002CE6D1BDE8F081000000040240E7
:10143000704700000CB5002201920092274908680D
:1014400040F4803008604FF4A043086800F4003096
:1014500000900198401C0190009810B901989842A2
:10146000F3D10868800302D50120009000E00092CB
:101470000098012831D119484030026842F080526A
:1014800002601748026842F4404202601348083084
:1014900002680260026842F400420260026842F49C
:1014A000A0520260021F0F4B13600A6842F0807264
:1014B0000A600A689201FCD50B4A40F2057111607E
:1014C000016821F003010160016841F0020101603F
:1014D0000168C1F381010229FAD10CBD0038024034
:1014E0000070004008544007003C02404FF0E021EB
:1014F000042804D0086920F00400086170470869D6
:1015000040F00400086170477047000010B51248B1
:10151000016841F4700101601048016841F0010167
:1015200001600E4A00210832116002680C4B1A401B
:101530000260031D0B4A1A60026822F480220260D6
:1015400006480C300160FFF775FF03494FF000605B
:101550008039086010BD000088ED00E000380240CE
:10156000FFFFF6FE1030002470B5164C40F22551F6
:10157000204600F03DF800280ED0204600F0D2F8BA
:10158000C1B2114A1088030406D444044FF000038A
:1015900007D50A2901D0138070BD40F400401080A7
:1015A00070BD0D290AD0094DC0F30D042955401C0A
:1015B00080B21080C728F3D9138070BD40F48040FA
:1015C000108070BD0010014012000020500000206B
:1015D0008A05C94301807047002904D0818941F4FC
:1015E000005181817047818921F4005181817047C8
:1015F00070B5002440F66A12C1F3421301F01F05D2
:10160000012606FA05F2012B0CD0022B0DD0838A9D
:101610001340090A8E40008830400BB100B101240C
:10162000204670BD83891340F3E7038A1340F0E737
:1016300010B540F66A13C1F3421301F01F040121F3
:10164000A140012B07D0022B07D014303AB1026819
:101650000A43026010BD0C30F8E71030F6E702686C
:101660008A43026010BD00007FB504460D46208A03
:1016700020F44051E88808432082A08941F20C619F
:101680008843A9882A8911436A8902431143A181A9
:10169000A08A20F44071A8890843A0826846FFF719
:1016A00051FE1E48844202D01D48844201D1039855
:1016B00000E00298A189090408D500EBC00101EB04
:1016C000001029684900B0FBF1F007E000EBC00111
:1016D00001EB001029688900B0FBF1F06422B0FB37
:1016E000F2F109010B096FF018056B4300EB830061
:1016F000A3891D044FF0320307D503EBC000B0FBF4
:10170000F2F000F00700084306E003EB0010B0FB26
:10171000F2F000F00F00084320817FBD001001406F
:10172000001401408088C0F308007047FEE7000005
:101730000FB4054B10B503A9044A029800F0EEF867
:1017400010BC5DF814FB0000E92000081400002024
:101750000FB4084B10B504A902AA039800F0DEF8F4
:10176000044602A9002000F070FC204610BC5DF881
:1017700014FB00004B20000802E008C8121F08C13B
:10178000002AFAD170477047002001E001C1121F02
:10179000002AFBD1704700002DE9FF5F82B00021D5
:1017A000DDE90430020DDDF840B0034318D044F603
:1017B0001050A2F2FF3242431514119801281FD095
:1017C000A5EB0B00401C5FEA000A4FF000064E4FED
:1017D000DFF83891B046504615D5CAF1000413E041
:1017E000119801244AA3012801D16FEA0B01029844
:1017F000119AC0E90031C0E9024206B0BDE8F09F8D
:10180000CBF10000DFE704460021404A491842EBD3
:101810000450CDE9001012E0E00707D032463B4605
:1018200040464946FEF7CCFC8046894632463B4658
:1018300010461946FEF7C4FC06460F466410002CFD
:10184000EAD1DDE90401DDE90023BAF1000F06DA8F
:10185000FEF7B6FC42464B46FEF7B2FC05E0FEF74B
:1018600021FD42464B46FEF71DFD04460E46002272
:10187000284BFEF76DFF03D84FF0FF30014607E01D
:101880000022254B20463146FEF7A2FEFEF747FF19
:10189000102409E0002C0ADB0A220023FEF7C3FD16
:1018A000039B30321A55641E50EA0102F2D1641CC7
:1018B000039AC4F111031444119A012A03D001229E
:1018C00008430DD10AE0084304D000204FF0110B6B
:1018D000119072E7A3EB0B056D1E0DE05B4504DD77
:1018E0004FF0000205F1010504E003DA4FF00002B9
:1018F000A5F10105002AECD002981199C0E9023146
:10190000C0E9004579E70000000014400000F03F06
:10191000300000000000F0430000E03F2DE9FF4FE1
:1019200095B09B468946064600250FE2252877D1CB
:1019300000242746F84A0121059400E0044316F8E4
:10194000013F203B01FA03F01042F7D130782A28FA
:1019500011D06FF02F033078A0F13002092A16D889
:10196000059A44F0020402EB820203EB42021044A7
:10197000761C0590EFE759F8042B0592002A03DA4C
:10198000504244F40054059044F00204761C307830
:101990002E2816D116F8010F44F004042A280DD081
:1019A0006FF02F023078A0F13003092B09D807EB34
:1019B000870302EB4303C718761CF3E759F8047B4F
:1019C000761C30786C280FD006DC4C2817D068289D
:1019D0000DD06A2814D104E0742810D07A280FD1D1
:1019E0000DE044F400140AE044F4801401E044F4EF
:1019F00040147278824202D104F58014761C761C61
:101A0000307866280BD013DC582877D009DC002802
:101A100075D04528F6D04628F4D047281AD19DE144
:101A200018E0632835D0642879D0652812D195E173
:101A3000702873D008DC6728F1D069286FD06E2831
:101A40000DD06F2806D1B5E073282CD0752875D03D
:101A5000782874D05A46179990476D1C75E1C4F3E5
:101A60000250022809D003280DD0D9F8001004280C
:101A70000DD00D6009F1040967E1D9F80010EA17EB
:101A8000C1E90052F6E7D9F800100D80F2E70D70B9
:101A9000F0E719F8041B8DF8001000208DF8010004
:101AA000EA46012003E059F804AB4FF0FF3061072C
:101AB0004FF0000102D40DE008F101018846B9425F
:101AC0000FDA8045F8DB1AF808100029F4D108E095
:101AD00008F1010188468142FADB1AF80810002952
:101AE000F6D105985B46A0EB080721463846179AC1
:101AF00000F094FA284400EB080507E04DE029E1E6
:101B00000DE01AF8010B5A4617999047B8F10108F1
:101B1000F7D25B4621463846179A13E142E00A2283
:101B20000092C4F302524FF0000A022A08D059F87A
:101B300004CB032A4FEAEC710AD00DE029E02AE039
:101B400009F1070121F00702F2E802C1914609E01C
:101B50000FFA8CFC4FEAEC71042A03D14FFA8CFC8B
:101B60004FEAEC71002907DA0A460021DCF1000C8B
:101B700061EB02012D2202E0220504D52B228DF813
:101B80000420012203E0E20701D02022F7E790467B
:101B900059E00A2102E010220DE010214FF0000A66
:101BA00000910BE010224FF0000A44F004040827D3
:101BB000009203E008224FF0000A0092C4F30252A0
:101BC000022A05D059F804CB0021032A08D009E0E5
:101BD00009F1070121F00702F2E802C1914605E090
:101BE0001FFA8CFC042A01D10CF0FF0C4FF0000806
:101BF000220728D5702806D0009B83F0100353EAF3
:101C00000A0305D00EE040228DF80420012208E0EE
:101C10005CEA010206D030228DF804208DF8050020
:101C200002229046009B83F0080353EA0A030AD17C
:101C30005CEA010201D1620705D530228DF804204B
:101C40004FF001087F1E582804D034A003900EA83E
:101C500002900DE036A0F9E753466046009AFEF781
:101C6000E2FB84460398825C0298401E0290027058
:101C70005CEA0100F0D1029806A9081A00F1200AD6
:101C8000600702D524F4803400E00127574502DDC7
:101C9000A7EB0A0000E0002000EB0A010090059885
:101CA0004144401A0590E00306D45B462146179A4A
:101CB000059800F0B3F90544002706E001A85A464C
:101CC000C05D179990476D1C7F1C4745F6DBE0030C
:101CD0000CD55B462146179A059800F09FF90544FC
:101CE00004E030205A46179990476D1C0099481E11
:101CF00000900029F5DC08E0029802995A46007825
:101D0000491C0291179990476D1CBAF10001AAF184
:101D1000010AF1DC65E100000928010030313233AD
:101D20003435363738396162636465660000000017
:101D30003031323334353637383941424344454601
:101D40000000000000F058F90544761C30780028A7
:101D50007FF4ECAD19B02846BDE8F08F620700D4DF
:101D6000062709F1070222F0070CFCE80223E146EE
:101D700003F000485FEA080C02D00FF2702C0DE06F
:101D80005FEA045C02D50FF2682C07E05FEAC47CCE
:101D900002D00FF2602C01E0AFF2700C4FF0FF3870
:101DA00023F00043CDF850C065280CD006DC452850
:101DB00009D046281DD047283DD13DE0662818D0DF
:101DC00067287ED138E00021112F01DB112000E0CF
:101DD000781CCDE9000106A90EA8FFF7DDFCDDE9BE
:101DE0000F010E9A03910021009207F1010A04915C
:101DF0004DE04FF000400097CDE9011006A90EA874
:101E0000FFF7CAFCDDE90F0203920E9B1199002235
:101E1000DDF80CA00093049211B9791C00EB010AC3
:101E2000B7EB0A0004D4C0F1FF3007F1010A0490B7
:101E3000AAEB0700019044E0012F00DA01270021FE
:101E4000112F01DD112000E03846CDE9000106A97F
:101E50000EA8FFF7A1FCDDE90F010E9A0391002106
:101E600004910092BA4621070CD40399514500DA37
:101E70008A46BAF1010F05DD009AAAF10101515C11
:101E8000302908D0B84202DA10F1040F06DA012135
:101E9000CDE9011015E0AAF10101E9E7002805DC10
:101EA000049901440491AAEB000102E0411C514550
:101EB00000DD8A460499401A401C01904FF0004012
:101EC0000290200704D40198504501DBCDF804802E
:101ED00000208DF84F0002980DF14F07B0F1004F30
:101EE00025D02B200E9002984FF0020800280CDA23
:101EF000404202902D200E9007E00A210298FEF742
:101F00007CFA3031029007F8011DB8F10001A8F108
:101F10000108F2DC02980028EFD1791E0E980870B3
:101F2000307800F0200040F0450007F8020D12A8BC
:101F3000C01B00F107081498007800B1012000EBE5
:101F40000A01019801EBE07105984144401A401ED6
:101F50000590E00306D45B462146179A059800F0E9
:101F60005DF805441498007818B15A4617999047BF
:101F70006D1CE00324D55B462146179A059800F0B6
:101F80004DF805441CE00498002807DBDDE9030157
:101F9000884203DD0098405C179901E017993020D2
:101FA0005A469047049805F10105401C0490019899
:101FB000401E019004D12E205A46179990476D1C5F
:101FC000BAF10001AAF1010ADDDC05E017F8010B06
:101FD0005A46179990476D1CB8F10001A8F1010805
:101FE000F4DC5B462146179A0598ABE62D0000000D
:101FF0002B000000200000002DE9F04104460025E0
:102000001E461746880404D405E039462020B04710
:102010006D1C641EF9D52846BDE8F0812DE9F0411C
:10202000044600251E469046C80301D5302700E02F
:102030002027880404D505E041463846B0476D1C8A
:10204000641EF9D52846BDE8F0810A68531C0B6070
:102050001070704710B504466FF00400FFF746FAA1
:102060000649E008088000EB4002C2EBC0104FF6C2
:10207000FF7202EAC000488010BD00000E00002080
:1020800070B54FF40775B0FBF5F1CCB2B0FBF5F1CC
:1020900005FB110604E0284600F00CF8641EE4B2CB
:1020A000002CF8D1002E04D03046BDE8704000F07E
:1020B00001B870BD0B49498848434FF0E0214861A1
:1020C00000238B61086940F0010008610869C207BC
:1020D00001D0C003FAD5086920F0010008618B61C6
:1020E000704700000E00002003490A885206FCD504
:1020F000C2B28A8070470000001001402DED028BB3
:1021000082B04FF4A060FFF7D9F8A820FFF7A2FF34
:102110004FF4E13000F060F9FEF7BEFEFEF70BFF72
:102120004EF67D763046FEF7EFFE69A1009133460C
:102130004FF4784210210020FEF716FD68A10091AF
:1021400033461F2220210020FEF70EFD69A10091D9
:1021500033461F2230210020FEF706FDFEF7D4FB98
:10216000FEF7C0FDFEF74CFC67A1009133461F222D
:1021700040210020FEF7F8FC66A1009133461F22A3
:1021800050210020FEF7F0FC66A1009133461F228B
:1021900060210020FEF7E8FC664C00206188FEF715
:1021A00025FCDFF89481654F2078401C20700020CA
:1021B000FEF7BEFD6070022809D16088B0F57A6F25
:1021C00001D2C830608061880020FEF70FFC2078C3
:1021D0000A2874D30020FEF7E9FBA080024658A12C
:1021E0005B48FFF7B5FA5A4D33461F2240210020C5
:1021F0000095FEF7B9FCA088FEF7C3F89FED558B5C
:1022000053EC182BFDF7DCFFFEF7DBF8A060FEF7C0
:10221000C5F841EC100B51A153EC102B2846FFF7E9
:1022200097FA33461F22502100200095FEF79CFCB0
:10223000A068FEF7B3F841EC100B4DA053EC102B47
:10224000FFF776FA0A210820FEF776FCA080FEF759
:1022500098F853EC182BFDF7B3FFFEF7B2F8A06027
:10226000FEF79CF841EC100B46A153EC102B2846CE
:10227000FFF76EFA33461F22602100200095FEF71B
:1022800073FCA068FEF78AF841EC100B42A053ECF7
:10229000102BFFF74DFA45A0FFF74AFA48A0FFF7C9
:1022A00047FAD8F8A00270B10020C8F8A002D7F809
:1022B000880250B10020C7F8880200202070322028
:1022C000FFF7DEFE70E70120EFE70120F3E70000F3
:1022D0002020202053544D3332204441432000001D
:1022E0002020C7B6C8EBCABDBFAAB7A2CDF8202030
:1022F000200000006D63756465762E74616F626105
:102300006F2E636F6D2000004441432056414C3ACC
:102310000000000044414320564F4C3A302E3030EC
:102320003056000041444320564F4C3A302E303056
:102330003056000000000020000040420080414272
:102340004441432056414C3A307825303258000001
:10235000280000206666666666664A3F4441432060
:10236000564F4C3A2530362E33662056000000007A
:10237000444143B5E7D1B93A2530362E346620566C
:102380000D0A000041444320564F4C3A2530362E6A
:102390003366205600000000414443B5E7D1B93A06
:1023A0002530362E346620560D0A000044657645E9
:1023B000426F7820B4F3D4BDB5E7D7D3200D0A001F
:1023C0006D63756465762E74616F62616F2E636FE5
:1023D0006D200D0A000000002DE9F04188B006468E
:1023E00001210846FEF776FF01211020FEF78EFF3F
:1023F000DFF89880072209214046FEF76AFB072292
:102400000A214046FEF765FB4FF4C06006900220AB
:102410008DF81C0003258DF81D5000248DF81E40FA
:1024200001278DF81F7006A94046FEF714FB02969F
:10243000ADF80C40ADF80E40ADF81040ADF81440CA
:102440000C20ADF81200124C02A92046FFF70CF93F
:1024500001212046FFF7C0F840212046FFF7B8F8D9
:10246000012240F225512046FFF7E2F825208DF8A1
:1024700004008DF805508DF806508DF8077001A8FE
:10248000FEF7E8FE08B0BDE8F08100000000024061
:1024900000100140000000000000000000000000EB
:1024A000000000000010101010101010101000009C
:1024B0001010000000006C6C2424000000000100DB
:1024C000000000000024242424FE48484848FC90D2
:1024D0009090900000103C54929050381412129238
:1024E000547810000000225C94A8481010242A524E
:1024F00054880000000030484850206E54948C8866
:102500008A7400000000303010100000000000004D
:1025100000000000000408101020202020202010BF
:10252000100804000080402020101010101010200F
:102530002040800000000000105438103854100073
:102540000000000000000010101010FE101010100D
:10255000000000000000000000000000000000007B
:102560001010200000000000000000FE000000002D
:10257000000000000000000000000000000000005B
:102580001010000000000404080810102020404033
:1025900080800000000038448282828282828282AF
:1025A00044380000000010701010101010101010AF
:1025B000107C000000003844828204081020408211
:1025C00084FC0000000038448202043804020282C5
:1025D000443800000000040C141424244444FE0475
:1025E000040E00000000FC808080B8C482020282D9
:1025F0008478000000003C428280B8C482828282DB
:102600004438000000007E428204040808081010CC
:1026100010100000000038448282443844828282D4
:10262000443800000000384482828282463A0282A6
:1026300044380000000000001010000000001010DE
:10264000000000000000000010100000000000105A
:1026500010200000000000000618608060180600CE
:1026600000000000000000000000FE0000FE00006E
:102670000000000000000000C0300C020C30C00060
:10268000000000000038448282020408101010008C
:102690001010000000003844829AAAAAAAAAAA969A
:1026A00080423C00000010101028282844447C443C
:1026B00044EE00000000FC424242427C4242424260
:1026C00042FC000000003C44828080808080828246
:1026D000443800000000F844424242424242424232
:1026E00044F800000000FC444240447C4440404226
:1026F00044FC00000000FC444240447C4440404014
:1027000040F000000000344C828080808E848484FD
:102710004C3400000000EE444444447C44444444AF
:1027200044EE000000007C1010101010101010106B
:10273000107C000000003E08080808080808088807
:10274000887000000000EE444848506050484844FB
:1027500044EE00000000E040404040404040404225
:1027600044FC00000000C6446C6C6C545454444457
:1027700044EE00000000CE4464646454544C4C4C5D
:1027800044E4000000003844828282828282828295
:10279000443800000000F84442424244784040403F
:1027A00040E000000000384482828282828282BA45
:1027B000443C02000000F04844444448704844440B
:1027C00044E6000000003C44828040300C0202825B
:1027D0004478000000007C5492101010101010106B
:1027E000103800000000EE4444444444444444444F
:1027F000443800000000EE444444442828282810AF
:10280000101000000000EE4454545454545428282E
:10281000282800000000EE444428281010282844EE
:1028200044EE00000000EE44442828281010101048
:102830001038000000007E448408081020204082E8
:1028400084FC0000001C101010101010101010104C
:1028500010101C000000EE445454FE545454282818
:102860002828000000701010101010101010101008
:1028700010107000003048840000000000000000CC
:102880000000000000000000000000000000000048
:102890000000FE00004020000000000000000000DA
:1028A000000000000000000000007884047C8484A4
:1028B0008C7600000000C0404040586442424242D2
:1028C00064580000000000000000384480808080D0
:1028D0004438000000000C040404344C84848484D4
:1028E0004C360000000000000000788484FC8080EA
:1028F00084780000000018242020F82020202020C8
:10290000207000000000000000003A444478807C01
:1029100082827C000000C0404040586444444444EB
:1029200044EE0000000010100000301010101010D5
:1029300010380000000010100000301010101010AF
:10294000109060000000C04040405C48506050481B
:1029500044EE000000003010101010111010101084
:1029600010390000000000000000ACD29292929258
:1029700092D6000000000000000058E444444444A3
:1029800044EE000000000000000038448282828291
:1029900044380000000000000000D8644242426455
:1029A0005840E000000000000000364C8484844C55
:1029B00034040E000000000000006C3020202020B5
:1029C00020700000000000000000788884601884F7
:1029D00044780000000000202020F8202020202043
:1029E00024180000000000000000C642424242429B
:1029F000463A0000000000000000EE444428282869
:102A000010100000000000000000EE444454542860
:102A100028280000000000000000EE4428101028C4
:102A200044EE0000000000000000EE44442828109E
:102A300010A0C0000000000000007E44881020426A
:102A400084FC0000000C101010101060101010100A
:102A500010100C000010101010101010101010109A
:102A60001010100000C0202020202018202020203E
:102A70002020C00000000000000000728C00000058
:102A8000000000000000000000001FE000003FF018
:102A900000003FF000001FE0000180060003C00FAF
:102AA0000003C00F0003C00F0003C00F0003C00FDE
:102AB0000003C00F0003C00F0003C00F000300039A
:102AC0000000000000000000000000000003000300
:102AD0000003C00F0003C00F0003C00F0003C00FAE
:102AE0000003C00F0003C00F0003C00F0003C00F9E
:102AF0000001800600001FE000003FF000003FF0F2
:102B000000001FE000000000000000000000008046
:102B100000000180000003800000078000000780A3
:102B20000000078000000780000007800000078089
:102B3000000007800000078000000780000001807F
:102B40000000000000000000000000000000018004
:102B50000000078000000780000007800000078059
:102B60000000078000000780000007800000078049
:102B7000000007800000038000000180000000804A
:102B8000000000000000000000001FE000003FF017
:102B90000000FFF00001FFE0000000060000000F51
:102BA0000000000F0000000F0000000F0000000FE9
:102BB0000000000F0000000F0000000F00001FE3E6
:102BC00000007FF800007FF800001FE00003000015
:102BD0000003C0000003C0000003C0000003C000E9
:102BE0000003C0000003C0000003C0000003C000D9
:102BF0000001800000001FF000003FF800003FFCD3
:102C000000001FFE000000000003FF800001FFC065
:102C10000000FFC000007F80000000180000003CA2
:102C20000000003C0000003C0000003C0000003CB4
:102C30000000003C0000003C0000003C00007F8CD5
:102C40000001FFE00001FFF000007F800000000CA9
:102C50000000003C0000003C0000003C0000003C84
:102C60000000003C0000003C0000003C0000003C74
:102C70000000001800007F800000FFC00001FFC0BE
:102C80000003FF80000000000000000000020001BF
:102C900000030003000380070003C00F0003C00F00
:102CA0000003C00F0003C00F0003C00F0003C00FDC
:102CB0000003C00F0003C00F0003C00F00031FE399
:102CC00000007FF800007FFC00001FE00000000310
:102CD0000000000F0000000F0000000F0000000FB8
:102CE0000000000F0000000F0000000F0000000FA8
:102CF0000000000F000000070000000300000001BA
:102D0000000000000000000000001FFC00003FF871
:102D100000003FF000001FE0000180000003C00041
:102D20000003C0000003C0000003C0000003C00097
:102D30000003C0000003C0000003C00000031FE048
:102D400000007FF800007FF800001FE00000000393
:102D50000000000F0000000F0000000F0000000F37
:102D60000000000F0000000F0000000F0000000F27
:102D70000000000600003FE000007FF00000FFF0D0
:102D80000001FFE00000000000001FFC00003FF811
:102D900000003FF000001FE0000180000003C000C1
:102DA0000003C0000003C0000003C0000003C00017
:102DB0000003C0000003C0000003C00000031FE0C8
:102DC00000007FF800007FFC00001FE0000300030C
:102DD0000003C00F0003C00F0003C00F0003C00FAB
:102DE0000003C00F0003C00F0003C00F0003C00F9B
:102DF0000001800600001FE000003FF000003FF0EF
:102E000000001FE0000000000007FFE00003FFC01B
:102E10000001FF880000FF18000000380000007863
:102E200000000078000000780000007800000078C2
:102E30000000007800000078000000780000001812
:102E4000000000000000000000000000000000186A
:102E50000000007800000078000000780000007892
:102E60000000007800000078000000780000007882
:102E70000000007800000038000000180000000882
:102E8000000000000000000000001FE000003FF014
:102E900000003FF000001FE0000180060003C00FAB
:102EA0000003C00F0003C00F0003C00F0003C00FDA
:102EB0000003C00F0003C00F0003C00F00031FE397
:102EC00000007FF800007FFC00001FE0000300030B
:102ED0000003C00F0003C00F0003C00F0003C00FAA
:102EE0000003C00F0003C00F0003C00F0003C00F9A
:102EF0000001800600001FE000003FF000003FF0EE
:102F000000001FE00000000000001FE000003FF094
:102F100000003FF000001FE0000180060003C00F2A
:102F20000003C00F0003C00F0003C00F0003C00F59
:102F30000003C00F0003C00F0003C00F00031FE316
:102F400000007FF800007FFC00001FE0000000038D
:102F50000000000F0000000F0000000F0000000F35
:102F60000000000F0000000F0000000F0000000F25
:102F70000000000600001FE000003FF000007FF0AE
:102F80000000FFE000000000000000000000000062
:102F90000000000000000000000000000000000031
:102FA0000000000000000000000000000000000021
:102FB0000000000000000000000000000000000011
:102FC0000000000000000000000000000000000001
:102FD0000000000000000000000078000000780001
:102FE0000000780000007800000078000000780001
:102FF00000000000000000000000000000000000D1
:1030000000000000000000000000000000000000C0
:1030100000000000000000000000000000000000B0
:10302000000000000000070000000F8000000F807B
:1030300000000F80000007000000000000000000FA
:103040000000000000000000000000000000000080
:103050000000070000000F8000000F8000000F80BC
:103060000000070000000000000000000000000059
:103070000000000000000000000000000000000050
:103080000000000000000000000000000000000040
:10309000000000000007C006000FE0060000000C62
:1030A0000030181800301818003018300030183070
:1030B00000301860003008C00007C0C0000FE0807A
:1030C000000000000000000FE0000607C00006300E
:1030D00018000C3018000C30180018301800303070
:1030E00018003030180060000000C00FE000C0077A
:1030F000C000000000000000000000000000000010
:1031000000000000000000000000000000000000BF
:10311000000000000000000000000000000700E0C8
:10312000000887FC00088E0300089801800718003B
:1031300080003000000030000000700000006000DF
:1031400000006000000060000000600000006000FF
:103150000000700000003000000030000000380067
:103160000000180100000C03000007FC000001F043
:10317000000000000000000000000000000000004F
:10318000000000000000000000000000000000003F
:10319000000000000000000000000000000000002F
:1031A000000000000000000000000000000000001F
:1031B000000000000000000000000000000000000F
:1031C00000003FF000007FF000007FE00000FFC043
:1031D00000000000000000000000000000000000EF
:1031E00000000000000000000000000000000000DF
:1031F00000000000000000000000000000000000CF
:10320000000000000000C7B60100210821083FF8B7
:1032100000202220223EFF42229422103E10221043
:1032200022283E2822440082C8EB0400020001004C
:103230000100010002800280028004400440082056
:1032400008201010201040088006CABD0048004425
:1032500000440040FFFE004000403E40084008405F
:10326000082008220F12780A20060002BFAA0000D8
:103270007FFC08200820082008200820FFFE0820E6
:103280000820082008201020102020204020B7A26D
:1032900001001110110822003FFC0200040007F891
:1032A0000A080908111010A0204040A003181C06AD
:1032B000CDF800007FFC40044004421452944A546C
:1032C000442444244A544A5452946104400440140F
:1032D00040080000000000000000000000000000A6
:1032E00000000000000000000000000000000000DE
:1032F00000000000000000000000000000000000CE
:1033000000000000000000000000000000000000BD
:1033100000000000000000000000000000000000AD
:10332000000000000000000000000000000000009D
:10333000000000000000000000000000000000008D
:103340006033000800000020280000007817000803
:103350008833000828000020F004000088170008C7
:10336000000000000000000000000000010000005C
:103370000000000000000000000000000102030443
:0833800001020304060708091D
:040000050800018965
:00000001FF
