:020000040800F2
:10000000A80B00203D240008210500082305000856
:10001000270500082B0500082F0500080000000038
:100020000000000000000000000000003305000890
:1000300035050008000000003705000839050008F4
:1000400057240008572400085724000857240008A4
:100050005724000857240008572400085724000894
:100060005724000857240008572400085724000884
:100070005724000857240008572400085724000874
:100080005724000857240008572400085724000864
:10009000EFDD000857240008572400085724000803
:1000A0005724000857240008572400085724000844
:1000B00029E00008572400085724000857240008A6
:1000C0005724000857240008572400085724000824
:1000D00057240008931A0008D51E0008D71B0008F3
:1000E0005724000857240008572400085724000804
:1000F00057240008572400085724000857240008F4
:1001000057240008572400085724000857240008E3
:1001100057240008572400085724000857240008D3
:1001200057240008572400085724000857240008C3
:1001300057240008572400085724000857240008B3
:1001400057240008572400085724000857240008A3
:100150005724000857240008572400085724000893
:100160005724000857240008572400085724000883
:100170005724000857240008572400085724000873
:10018000572400085724000800F002F800F06AF82D
:100190000AA090E8000C82448344AAF10107DA45E2
:1001A00001D100F05FF8AFF2090EBAE80F0013F0CA
:1001B000010F18BFFB1A43F001031847D0ED0000F0
:1001C000F0ED00000A444FF0000C10F8013B13F072
:1001D000070408BF10F8014B1D1108BF10F8015BA0
:1001E000641E05D010F8016B641E01F8016BF9D193
:1001F00013F0080F1EBF10F8014BAD1C0C1B09D1EA
:100200006D1E58BF01F801CBFAD505E014F8016B5B
:1002100001F8016B6D1EF9D59142D6D370470000ED
:100220000023002400250026103A28BF78C1FBD8FF
:10023000520728BF30C148BF0B60704764290DF0DA
:10024000718775290DF06E8778290DF0A7877329BE
:100250000EF09B81002070471FB50EF034FA1FBDD1
:1002600010B510BD0EF0F6F91146FFF7F5FF00F0DE
:1002700009F80EF014FA03B4FFF7F2FF03BC01F023
:1002800091FB00004FF4407002F0F8F8A82001F054
:1002900007FB01F08FF94A494A480DF0EDFC0DF0DB
:1002A00057FE4FF4E13001F09BFB4FF4165001F084
:1002B0002CFC012143480DF062F9002141480DF06A
:1002C000F6F805213F480DF0F2F801F09AF93EA04A
:1002D0000DF0CCFE46480DF0C9FE46A00DF0C6FE5E
:1002E0004EA00DF0C3FE4FF47A7001F03BFB82226A
:1002F0000021344804F0F8FF51A00DF0B7FE4FF490
:10030000FA7001F02FFB05212E480DF0D0F855A012
:100310000DF0ACFE5AA00DF0A9FE01F011FA60A09C
:100320000DF0A4FE00206249087047E001F02FFAAA
:100330006048007848B100205E49087001F0ACF9CF
:1003400000F0C6FD01F03EFA38E001F09CFB0446E7
:10035000002C2AD0214658A00DF088FE012C02D096
:10036000022C18D10BE05248007838B901F068F936
:1003700001204F49087057A00DF078FE14E04C485A
:10038000007838B901F073F902204949087058A083
:100390000DF06CFE08E0204601F01DFA18B1214670
:1003A00059A00DF063FE00BF00BF4148007808B1BE
:1003B00000F070FD0A2001F0D5FA00BFB6E700009A
:1003C00040420F00940100200D0A3D3D3D3D3D3D62
:1003D0003D3D3D3D2053544D33322052656164799B
:1003E000203D3D3D3D3D3D3D3D3D3D0D0A00000074
:1003F00090E700083D3D3D3D3D3D3D3D3D3D3D3DA2
:100400003D3D3D3D3D3D3D3D3D3D3D3D3D3D3D3D1C
:100410003D3D3D3D3D3D0D0A000000005B4E4D540D
:100420005D205761697420313030306D7320626512
:10043000666F72652072657365742E2E2E0D0A002C
:100440005B4E4D545D20526573657420436F6D6D36
:10045000756E69636174696F6E2073656E740D0AE1
:10046000000000005B4E4D545D204261636B2074C0
:100470006F204F7065726174696F6E616C0D0A0058
:100480005B574845454C5D205253343835207768DA
:1004900065656C20696E69742E2E2E0D0A000000B1
:1004A0005B574845454C5D2052656164790D0A00F3
:1004B00014000020250000205B434D445D20526560
:1004C0006365697665643A203078253032580D0AC4
:1004D000000000005B4D4F54494F4E5D2053746146
:1004E0007274206472696E6B696E670D0A00000099
:1004F0005B4D4F54494F4E5D2053746172742065BB
:100500006C626F770D0A0000556E6B6E6F776E2010
:10051000636D643A203078253032580D0A000000AF
:10052000704700BFFEE700BFFEE700BFFEE700BF69
:10053000FEE7704770477047704700000CB5002019
:10054000019000907648006840F48030744908605B
:1005500000BF7348006800F4003000900198401C10
:100560000190009818B90198B0F5A04FF1D16C48EE
:10057000006800F4003010B10120009001E000207C
:1005800000900098012846D165484030006840F04E
:1005900080506349403108606248006840F4404040
:1005A000604908605E48083000685D4908310860AD
:1005B0000846006840F4004008600846006840F4BF
:1005C000A05008605848091F0860081F006840F0E4
:1005D0008070091F086000BF5148006800F000707B
:1005E0000028F9D040F20570504908604C480830A6
:1005F000006820F003004A49083108600846006896
:1006000040F00200086000BF45480830006800F074
:100610000C000828F8D10CBD10B54548006840F41E
:100620007000434908603E48006840F001003C49C2
:10063000086000203A4908310860394800683D499F
:100640000840374908603C48091D0860081F0068D9
:1006500020F48020091F0860002031490C31086017
:10066000FFF76CFF4FF0006031498039086010BD22
:1006700070B500200022022300240221284D0835F5
:100680002D6805F00C0020B1042806D0082834D1CC
:1006900007E02A4D2A4E356033E02A4D284E35605A
:1006A0002FE01F4D2D1D2D68C5F380541C4D2D1DB1
:1006B0002D6805F03F0154B1224DB5FBF1F5184E00
:1006C000361D3668C6F3881605FB06F209E01B4D99
:1006D000B5FBF1F5124E361D3668C6F3881605FBDC
:1006E00006F20F4D2D1D2D68C5F301456D1C6B00E5
:1006F000B2FBF3F5124E356003E0104D104E35603D
:1007000000BF00BF064D08352D68C5F303150E4E1A
:10071000705D0B4D2D68C540094E356070BD000001
:10072000003802400070004008544007003C02407E
:1007300088ED00E0FFFFF6FE103000240024F400F6
:100740000000002000127A000400002010B50120F3
:1007500000F074FD022000F071FD032000F06EFD3A
:10076000042000F06BFD0020DA4908720870DAA05E
:100770000DF07CFC10BD10B5012000F05FFD0220E3
:1007800000F05CFD032000F059FD042000F056FD50
:100790000020D04908720870D5A00DF067FC10BD8C
:1007A00070B50546CB48407A401CCA494872084695
:1007B000407A052810DB0020487201240AE0601E00
:1007C000012101FA00F0284010B1204600F06AFE35
:1007D000601CC4B2042CF2DD70BD70B506460C4638
:1007E0000DF01FFCBB494968451A304600F0ADFECC
:1007F00008B1012070BDA54205D92946C7A00DF05A
:1008000035FC0220F6E70020F4E770B50DF009FC96
:100810000546B0480078002850D10120AD49087045
:100820000872084645600020487242F210731A466A
:100830006421012000F05FFD42F210731A4664212A
:10084000022000F058FD42F210731A4619460320A8
:1008500000F051FD42F210731A46C821042000F046
:100860004AFD022000F052FC032000F04FFC04205F
:1008700000F04CFC6FF06301022000F0FDFD6FF012
:10088000C701032000F0F8FD4EF66021042000F0BF
:10089000F3FD642001F066F8022000F0E1FC032083
:1008A00000F0DEFC042000F0DBFC41F2883001F0B7
:1008B00059F8A8A00DF0DAFB012070BD854800783A
:1008C00001284FD10E20FFF76BFF42F210710E206E
:1008D000FFF783FF0446012C3BD1A9A00DF0C6FB16
:1008E00002207C49087008464560002048720120BB
:1008F00000F00CFC022000F009FC042000F006FCD3
:100900006FF06301012000F0B7FD6FF0C701022016
:1009100000F0B2FDA149032000F0AEFDA049042083
:1009200000F0AAFD642001F01DF8012000F098FC01
:10093000022000F095FC032000F092FC042000F05F
:100940008FFC42F2107001F00DF896A00DF08EFBB6
:1009500006E0022C04D102205E490870084645607A
:100960000120AAE75B480078022850D10B20FFF74E
:1009700017FF42F210710B20FFF72FFF0446012CE6
:100980003CD193A00DF072FB032052490870084639
:10099000456000204872012000F0B8FB022000F002
:1009A000B5FB042000F0B2FB0021012000F064FD43
:1009B0006FF06301022000F05FFD6FF0C7010320BC
:1009C00000F05AFD49F64041042000F055FD642036
:1009D00000F0C8FF012000F043FC022000F040FCC2
:1009E000032000F03DFC042000F03AFC41F2883086
:1009F00000F0B8FF7DA00DF039FB06E0022C04D119
:100A000003203449087008464560012055E7314805
:100A10000078032846D10B20FFF7C2FE42F2107186
:100A20000B20FFF7DAFE0446012C32D17AA00DF03C
:100A30001DFB0420274908700846456000204872C5
:100A4000022000F063FB032000F060FB042000F0B4
:100A50005DFB0021022000F00FFD0021032000F0CB
:100A60000BFD0021042000F007FD642000F07AFF58
:100A7000022000F0F5FB032000F0F2FB042000F060
:100A8000EFFB41F2883000F06DFF6AA00DF0EEFA46
:100A900006E0022C04D104200E4908700846456087
:100AA00001200AE70B480078042810D10E20FFF738
:100AB00077FE42F210710E20FFF78FFE0446012CE4
:100AC00003DBFFF758FE0020F7E60120F5E60120E2
:100AD000F3E60000E40300205B4452494E4B494ECC
:100AE000475D2053746F707065640D0A000000004C
:100AF0005B4452494E4B494E475D20434F4D504C4D
:100B0000455445202D20616C6C206D6F746F72739D
:100B10002064697361626C65640D0A005B4452492C
:100B20004E4B494E475D2054696D656F7574206169
:100B30006674657220256C756D7320286269743146
:100B400030206D617920626520737469636B792947
:100B50000D0A00005B4452494E4B494E475D2053FD
:100B6000746570313A205265616368206F75742036
:100B7000286E6F64657320322C332C34290D0A00E3
:100B80005B4452494E4B494E475D2053746570316A
:100B900020726561636865640D0A000070FEFFFFE6
:100BA000C063FFFF5B4452494E4B494E475D2053A3
:100BB000746570323A204C6966742061726D202829
:100BC0006E6F64657320312C322C34290D0A0000BD
:100BD0005B4452494E4B494E475D20537465703219
:100BE00020726561636865640D0A00005B445249C8
:100BF0004E4B494E475D2053746570333A204C6F1D
:100C00007765722061726D20286E6F646573203184
:100C10002C322C34290D0A005B4452494E4B494E6C
:100C2000475D205374657033207265616368656445
:100C30000D0A00005B4452494E4B494E475D20531C
:100C4000746570343A205265747261637420286E42
:100C50006F64657320322C332C34290D0A00000098
:100C600010B5042000F0EAFA002054490872087018
:100C700053A00DF0FBF910BD10B5042000F0DEFA12
:100C800000204E490872087052A00DF0EFF910BD17
:100C900010B54A48407A401C484948720846407A94
:100CA000052804DB00204872042000F0FBFB10BD87
:100CB00070B504460DF0B5F940494968451A04205D
:100CC00000F004FC08B1012070BDA54205D92946F9
:100CD00049A00DF0CBF90220F6E70020F4E770B54B
:100CE0000DF09FF905463548007808BB01203349CF
:100CF00008700872084645600020487242F210737E
:100D00001A464FF47A71042000F0F5FA042000F03E
:100D1000FDF94649042000F0AFFB642000F022FEFC
:100D2000042000F09DFA42A00DF0A0F9012070BD52
:100D30002248007801282CD1FFF7AAFF42F2107058
:100D4000FFF7B6FF0446012C1AD141A00DF08EF931
:100D500002201A49087008464560002048720420A5
:100D600000F0D4F90021042000F086FB642000F09C
:100D7000F9FD042000F074FA3BA00DF077F906E0CD
:100D8000022C04D102200D4908700846456001205C
:100D9000CDE70A48007802280ED1FFF779FF42F22A
:100DA0001070FFF785FF0446012C03DBFFF764FF9B
:100DB0000020BCE70120BAE70120B8E7F0030020DB
:100DC0005B454C424F575D2053746F707065640DE6
:100DD0000A0000005B454C424F575D20434F4D5089
:100DE0004C455445202D206D6F746F7220646973DB
:100DF00061626C65640D0A005B454C424F575D2093
:100E000054696D656F757420616674657220256C18
:100E1000756D7320286269743130206D61792062AC
:100E20006520737469636B79290D0A00C063FFFF45
:100E30005B454C424F575D2053746570313A2042F8
:100E4000656E6420286E6F64652034290D0A0000E9
:100E50005B454C424F575D2053746570312072657D
:100E600061636865640D0A005B454C424F575D2025
:100E700053746570323A20457874656E6420746FDF
:100E8000207A65726F20286E6F64652034290D0A00
:100E90000000000010B51B480078012809D1FFF7B9
:100EA000B4FC04460CB1601C10B900201549087050
:100EB0000DE014480078022809D1FFF710FF04461E
:100EC0000CB1601C10B900200E49087000BF10BDA5
:100ED00010B5012000F0B2F9022000F0AFF90320B4
:100EE00000F0ACF9042000F0A9F9FFF72FFCFFF7A0
:100EF000B7FE00200349087000F064FC02A00DF06A
:100F0000B5F810BD140000205B53544F505D2041D4
:100F10006C6C206D6F74696F6E732061626F727498
:100F200065640D0A000000000146FC4850F82100ED
:100F300018B1FA4850F8210070474FF47A70FBE777
:100F40000146F74850F8210018B1F54850F8210043
:100F500070474CF25030FBE70146F24850F8210050
:100F600018B1F04850F8210070474CF25030FBE7C0
:100F7000FEB506460D4617461C460020009001901F
:100F8000029006F5C060ADF8000008208DF803005F
:100F900000208DF8020023208DF80400E9B28DF8BE
:100FA0000510290A8DF806108DF80770E1B28DF84A
:100FB0000810210A8DF80910210C8DF80A10200E56
:100FC0008DF80B00694600200CF0DEFE23462A4611
:100FD0003146D5A00DF04AF8FEBDFEB505460C46DB
:100FE00017461E46002000900190029005F5C06053
:100FF000ADF8000006208DF8030000208DF80200F7
:101000002B208DF80400E1B28DF80510210A8DF82F
:1010100006108DF80770F1B28DF80810310A8DF8BE
:101020000910694600200CF0AFFE334622462946DF
:10103000C9A00DF01BF8FEBDFEB505460C461646D0
:101040001F46002000900190029005F5C060ADF8A9
:10105000000005208DF8030000208DF802002F20ED
:101060008DF80400E1B28DF80510210A8DF8061004
:101070008DF807608DF80870694600200CF084FE3A
:101080003B4622462946C0A00CF0F0FFFEBDFEB54F
:1010900006460C461546002000900190029006F589
:1010A000C060ADF8000004208DF8030000208DF82A
:1010B000020040208DF80400E1B28DF80510210AED
:1010C0008DF806108DF80750694600200CF05CFE84
:1010D000FEBD2DE9F04106460C4615461F46234647
:1010E000002246F281013046FFF742FF2B460022E4
:1010F00046F283013046FFF73BFF3B46002246F2B3
:1011000084013046FFF734FFBDE8F081F8B50446AE
:101110000020A94921F814002046FFF71DFF0546CD
:101120002046FFF70DFF06462046FFF7FDFE074667
:101130002B46324639462046FFF7CBFF01230022DB
:1011400046F260012046FFF777FF0623002246F2B1
:1011500040012046FFF741FF032000F003FC072376
:10116000002246F240012046FFF737FF032000F03F
:10117000F9FB0F23002246F240012046FFF72DFF26
:101180002046FFF7E9FE05462046FFF7D9FE064652
:101190002046FFF7C9FE074633463A46214687A058
:1011A00000950CF063FFF8BD2DE9F84F04460D469D
:1011B00016461F460DB1284601E04FF47A7080466E
:1011C0000EB1304601E04CF2503081460FB1384646
:1011D00001E04CF25030824653464A464146204692
:1011E000FFF777FF0123002246F260012046FFF758
:1011F00023FF0623002246F240012046FFF7EDFEC2
:10120000032000F0AFFB0723002246F240012046F6
:10121000FFF7E3FE032000F0A5FB0F23002246F2B8
:1012200040012046FFF7D9FE4B46424621466FA0BB
:10123000CDF800A00CF01AFFBDE8F88F10B50446F9
:1012400000205D4921F814000623002246F24001E7
:101250002046FFF7C2FE214671A00CF007FF10BD2B
:1012600010B50446544830F8140020F48060524908
:1012700021F814000F23002246F240012046FFF718
:10128000ACFE012000F06EFB3F23002246F240013D
:101290002046FFF7A2FE214668A00CF0E7FE10BD35
:1012A00010B504465F23002246F240012046FFF7B6
:1012B00094FE10BD70B505460C462346002246F24A
:1012C00081012846FFF754FE70BD70B505460C46F7
:1012D0002346002246F283012846FFF749FE70BDEF
:1012E00070B505460C462346002246F28401284686
:1012F000FFF73EFE70BDF8B504460D4616461F4684
:10130000064840F82450064840F82460054840F854
:1013100024700FB138469DE09AE0000008040020D8
:101320001C040020300400205B43414E5D205344E8
:101330004F205752495445206E6F64653D25642007
:101340006964783D3078253034582076616C3D25CD
:101350006C750D0A000000005B43414E5D20534454
:101360004F205752495445206E6F64653D256420D7
:101370006964783D3078253034582076616C3D3092
:1013800078253034580D0A005B43414E5D205344AC
:101390004F205752495445206E6F64653D256420A7
:1013A0006964783D3078253034582076616C3D3062
:1013B00078253032580D0A00FC0300205B45504F61
:1013C000535D20456E61626C65206E6F64653D25DE
:1013D000642076656C3D256C75206163633D256CEA
:1013E00075206465633D256C750D0A005B45504FA3
:1013F000535D20456E61626C654578206E6F646553
:101400003D25642076656C3D256C75206163633DE8
:10141000256C75206465633D256C750D0A00000020
:101420005B45504F535D2044697361626C65206E6B
:101430006F64653D25640D0A000000005B45504F58
:10144000535D20474F206E6F64653D25640D0A0093
:101450004CF2503000900EB1304601E04CF250306A
:1014600003460DB1284601E04FF47A70024621464A
:1014700041A00CF0FBFDF8BD70B505460C462346B7
:10148000002246F27A012846FFF772FD70BD70B562
:1014900005460C462346002246F260012846FFF727
:1014A000CBFD70BD10B50446002246F24101204636
:1014B000FFF7EDFD10BD0146012905DB042903DC22
:1014C0003B4830F8110070470020FCE700B50246A9
:1014D0001046FFF7F0FF0346C3F3802000BD00B5C0
:1014E00002461046FFF7E7FF0346C3F3800000BD46
:1014F00000B502461046FFF7DEFF0346C3F3C00007
:1015000000BD70B5054601240AE0601E012101FA04
:1015100000F0284010B12046FFF7F8FD601CC4B26F
:10152000042CF2DD70BD70B5054601240AE0601E92
:10153000012101FA00F0284010B12046FFF77EFE9D
:10154000601CC4B2042CF2DD70BD30B50546012428
:101550000DE0601E012101FA00F0284028B120466C
:10156000FFF7B4FF08B9002030BD601CC4B2042CE2
:10157000EFDD0120F8E700005B45504F535D20434D
:101580006F6E6669674D6F74696F6E206E6F64650C
:101590003D25642076656C3D256C75206163633D57
:1015A000256C75206465633D256C750D0A0000008F
:1015B000FC0300201CB50121092001F0F3FA0120F1
:1015C0008DF8040000208DF8060003208DF805003A
:1015D00001208DF807000002009069463E4801F0A6
:1015E00043F80420009069463C4801F03DF84FF470
:1015F0008071394801F0B4F80421384801F0B0F89E
:101600001CBD10B5002418E04FF48071324801F081
:10161000A9F80421314801F0A5F8C82000F0A2F98A
:101620004FF480712C4801F09BF804212B4801F005
:1016300097F8C82000F096F9641C032CE4DB10BD79
:1016400010B5002410E04FF48071234801F08AF8AF
:10165000642000F087F94FF480711F4801F080F892
:10166000642000F07FF9641C032CECDB10BD10B586
:1016700000240EE00421194801F074F8642000F001
:1016800071F90421154801F06BF8642000F06AF943
:10169000641C032CEEDB10BD10B5002418E04FF4E1
:1016A00080710D4801F05EF804210C4801F05AF8F1
:1016B000642000F057F94FF48071074801F050F8AA
:1016C0000421064801F04CF8642000F04BF9641C3A
:1016D000032CE4DB10BD000000000240000C0240BF
:1016E00070B50446012C01D1C82001E06FF0C7009D
:1016F0000546AAB24021012000F0D9FAAAB2402141
:10170000022000F039FD012041490870012C01D16F
:1017100040A000E040A001462A4640A00CF0A6FCF4
:1017200070BD10B500224021012000F0C0FA002257
:101730004021022000F020FD41A00CF097FC10BDDC
:1017400010B54FF4165000F0E0F94FF4165000F0C9
:101750005CFB00228021012000F0A9FA00228021F8
:10176000022000F009FD322000F0FCF801224421A3
:10177000104600F09CFA01224421022000F0FCFCFB
:10178000322000F0EFF832A00CF070FC10BD10B564
:101790001F48007800B910BD394800680A30384940
:1017A000086008460068B0F5FA6F09D3FFF7B9FF83
:1017B0000020174908703249086032A00CF056FC2E
:1017C00000BFE8E710B5FFF7ACFF00201049087034
:1017D0002B49086010BD10B50446032C02D0042C20
:1017E00012D108E00A48007820B90120FFF778FFFD
:1017F000002010BD08E00648007820B90220FFF75D
:101800006FFF0020F5E700BF00BF0120F1E70000F7
:101810001800002046574400425744005B57484593
:10182000454C5D2053746172743A206469723D25A1
:10183000732073706565643D25640D0A0000000027
:101840005B574845454C5D2053746F700D0A00008E
:101850005B574845454C5D20496E697420646F6E46
:10186000653A206D6F64653D647574795F63796373
:101870006C652C2072656C65617365640D0A0000EF
:101880001C0000205B574845454C5D204175746F36
:101890002073746F7020646F6E650D0A0000000085
:1018A00010B504466FF0040000F03AFEE11704EBB7
:1018B0005171C1F3C701394A11701046007800EB2D
:1018C0004001C1EBC0104FF6FF7101EAC00034497E
:1018D000088010BD0146314A12784A434FF0E02398
:1018E0005A6100229A611A46126942F001021A6195
:1018F00000BF4FF0E022106900F001021AB100F4BD
:101900008032002AF5D04FF0E022126922F0010265
:101910004FF0E0231A6100229A6170470146204A85
:1019200012884A434FF0E0235A6100229A611A4616
:10193000126942F001021A6100BF4FF0E022106903
:1019400000F001021AB100F48032002AF5D04FF005
:10195000E022126922F001024FF0E0231A61002216
:101960009A61704770B504464FF4077094FBF0F02D
:10197000C6B24FF4077094FBF0F100FB114085B242
:1019800005E04FF40770FFF7C9FF701EC6B2002EC6
:10199000F7D115B12846FFF7C1FF70BD2000002028
:1019A0002200002000BF704700BF454A128802F0A5
:1019B0004002002AF9D0C2B2414B9A80704710B55C
:1019C0000120FFF73BFC0220FFF738FC0320FFF764
:1019D00035FC0420FFF732FC01203A49087010BDA5
:1019E00010B588B004460121084601F0DBF801215A
:1019F000102001F031F907220921334800F0BFFE21
:101A000007220A21304800F0BAFE4FF4C060069069
:101A100002208DF81C008DF81D0000208DF81E009E
:101A200001208DF81F0006A9274800F01DFE029432
:101A30000020ADF80C00ADF80E00ADF81000ADF8C8
:101A400014000C20ADF8120002A91D4801F065FA3F
:101A500001211B4801F0E9FA012240F22551184802
:101A600001F099FB25208DF8040005208DF8050074
:101A700000208DF8060001208DF8070001A800F075
:101A800002FD08B010BD1149087800210F4A1170FD
:101A9000704710B540F22551094801F0B7FB68B115
:101AA000074801F0F1FAC4B224B9FFF788FF0448EF
:101AB000848010BD054804700148848000BFF8E7A9
:101AC00000100140250000200000024024000020FA
:101AD00030B502460B464FF6FF70002112E0555C10
:101AE000684000240AE000F0010525B14AF2010532
:101AF00085EA600000E04010651CECB2082CF2DBC7
:101B00004D1CE9B29942EADB30BD10B588B00446FD
:101B10000121022001F046F80121880401F08BF830
:101B200007220A21F74800F02AFE07220B21F54878
:101B300000F025FE00208DF81E0001208DF81F000A
:101B400003208DF81D004FF48060069002208DF870
:101B50001C0006A9EB4800F087FD4FF400600690DA
:101B600002208DF81C0006A9E64800F07DFD0294D5
:101B70004FF48050ADF80C000020ADF80E004FF48B
:101B80008060ADF810000020ADF814000C20ADF816
:101B9000120002A9DC4801F0C0F90121DA4801F085
:101BA00044FA012240F22551D74801F0F4FA2720E7
:101BB0008DF8040005208DF8050001208DF8060041
:101BC0008DF8070001A800F05EFC2146CFA00CF0C4
:101BD0004DFA08B010BD10B540F22551CA4801F0C9
:101BE00015FB78B1C84801F04FFAC4B2D348007869
:101BF000202806DAD1490878411CD04A1170D04912
:101C00000C5400BF10BD70B505460E4600240CE014
:101C100000BF4021BC4801F0E3FA0028F9D0295D5B
:101C2000B94801F02DFA601C84B2B442F0DB00BF69
:101C30004021B54801F0D4FA0028F9D070BD002049
:101C4000BE49087070472DE9F04106460D4617461B
:101C50004FF00008C820FFF73DFE00BF1CE0B7486A
:101C60000078A84212DB002404E0B548005D30553E
:101C7000601CC4B2B1480078844201DAAC42F4DBA3
:101C8000FFF7DDFFAD480078BDE8F0814FF4FA7052
:101C9000FFF720FE08F5FA7807EB4700C0EBC71006
:101CA000B8EBC00FDBD3FFF7CAFF0020ECE72DE94C
:101CB000FF4105460E4614468DF8085006208DF863
:101CC000090030128DF80A00F0B28DF80B002012D6
:101CD0008DF80C00E0B28DF80D00062102A8FFF788
:101CE000F7FE0746F8B28DF80E00380A8DF80F009F
:101CF000FFF7A5FF082102A8FFF785FFC8220821EA
:101D00006846FFF7A0FF8046B8F1000F09D123B263
:101D1000324629468BA00CF0A9F9012004B0BDE899
:101D2000F0819DF80000A84203D19DF8010006282B
:101D30000FD09DF80100862805D19DF80220294684
:101D40008DA00CF093F9294697A00CF08FF9022092
:101D5000E4E723B2324629469EA00CF087F9002022
:101D6000DCE72DE9FF4105460C4616468DF8085084
:101D700003208DF8090020128DF80A00E0B28DF8DA
:101D80000B0000208DF80C0001208DF80D000621BD
:101D900002A8FFF79DFE0746F8B28DF80E00380A3C
:101DA0008DF80F00FFF74BFF082102A8FFF72BFF6C
:101DB000C82206216846FFF746FF8046B8F1000FAB
:101DC00008D1224629468FA00CF050F9012004B01A
:101DD000BDE8F0819DF80100832807D19DF802201D
:101DE000294693A00CF042F90220F0E79DF8040088
:101DF0009DF8031040EA01203080338822462946AE
:101E000097A00CF033F90020E1E710B588B0044644
:101E10000121084600F0C6FE0121480400F00BFF36
:101E2000072202219A4800F0AAFC072203219848C1
:101E300000F0A5FC00208DF81E0001208DF81F0089
:101E400003208DF81D000420069002208DF81C0050
:101E500006A98F4800F008FC0820069002208DF8A3
:101E60001C0006A98A4800F0FFFB02944FF4805042
:101E7000ADF80C000020ADF80E004FF48060ADF816
:101E800010000020ADF814000C20ADF8120002A9DB
:101E9000804801F042F801217E4801F0C6F8012295
:101EA00040F225517B4801F076F926208DF8040098
:101EB00005208DF8050002208DF8060001208DF820
:101EC000070001A800F0DFFA214673A00CF0CEF85D
:101ED00008B010BD10B540F225516E4801F096F9DA
:101EE00078B16C4801F0D0F8C4B277480078202867
:101EF00006DA75490878411C734A117073490C540D
:101F000000BF10BD00040240004800405B52533443
:101F100038355D20496E697420646F6E652C2062CF
:101F20006175643D256C752C203845312C20617518
:101F3000746F2D6469720D0A000000002C000020EF
:101F4000440400205B52533438355D205772697465
:101F5000652074696D656F75742120736C61766599
:101F60003D2564207265673D3078253034582076F1
:101F7000616C3D25640D0A005B52533438355D2099
:101F8000457863657074696F6E2120736C61766546
:101F90003D2564206572726F725F636F64653D30CA
:101FA00078253032580D0A005B52533438355D20A5
:101FB000577269746520726573706F6E7365206502
:101FC00072726F722120736C6176653D25640D0A13
:101FD000000000005B52533438355D20577269743D
:101FE00065204F4B3A20736C6176653D2564207205
:101FF00065673D3078253034582076616C3D256426
:102000000D0A00005B52533438355D20526561641F
:102010002074696D656F75742120736C6176653D00
:102020002564207265673D3078253034580D0A00EC
:102030005B52533438355D205265616420657863A6
:10204000657074696F6E2120736C6176653D2564DF
:10205000206572726F723D3078253032580D0A005B
:102060005B52533438355D2052656164204F4B3AE2
:1020700020736C6176653D2564207265673D30781C
:10208000253034582076616C3D25640D0A0000002F
:1020900000000240004400405B52533438352D327A
:1020A0005D20496E697420646F6E652C20626175D5
:1020B000643D256C752C203845312C206175746F7A
:1020C0002D6469720D0A00002D00002064040020B8
:1020D00070B505460E4600240CE000BF40217D4847
:1020E00001F07EF80028F9D0295D7A4800F0C8FF99
:1020F000601C84B2B442F0DB00BF4021754801F09F
:102100006FF80028F9D070BD00207349087070473F
:102110002DE9F04106460D4617464FF00008C8204D
:10212000FFF7D8FB00BF1CE06B480078A84212DB29
:10213000002404E06948005D3055601CC4B2664864
:102140000078844201DAAC42F4DBFFF7DDFF62483D
:102150000078BDE8F0814FF4FA70FFF7BBFB08F59B
:10216000FA7807EB4700C0EBC710B8EBC00FDBD322
:10217000FFF7CAFF0020ECE72DE9FF4105460E46B8
:1021800014468DF8085006208DF8090030128DF89D
:102190000A00F0B28DF80B0020128DF80C00E0B2AE
:1021A0008DF80D00062102A8FFF792FC0746F8B251
:1021B0008DF80E00380A8DF80F00FFF7A5FF0821F3
:1021C00002A8FFF785FFC82208216846FFF7A0FF95
:1021D0008046B8F1000F09D123B23246294640A00B
:1021E0000BF044FF012004B0BDE8F0819DF8000031
:1021F000A84203D19DF8010006280FD09DF80100E8
:10220000862805D19DF80220294643A00BF02EFF19
:1022100029464DA00BF02AFF0220E4E723B2324604
:10222000294654A00BF022FF0020DCE72DE9FF41F6
:1022300005460C4616468DF8085003208DF8090017
:1022400020128DF80A00E0B28DF80B0000208DF806
:102250000C0001208DF80D00062102A8FFF738FCC4
:102260000746F8B28DF80E00380A8DF80F00FFF718
:102270004BFF082102A8FFF72BFFC8220621684662
:10228000FFF746FF8046B8F1000F08D122462946E5
:1022900045A00BF0EBFE012004B0BDE8F0819DF8F5
:1022A0000100832807D19DF8022029464AA00BF09F
:1022B000DDFE0220F0E79DF804009DF8031040EADF
:1022C0000120308033882246294650A00BF0CEFEF4
:1022D0000020E1E7004400402D00002064040020BD
:1022E0005B52533438352D325D2057726974652046
:1022F00074696D656F75742120736C6176653D2519
:1023000064207265673D3078253034582076616CE2
:102310003D25640D0A0000005B52533438352D32E0
:102320005D20457863657074696F6E2120736C6100
:1023300076653D2564206572726F723D3078253078
:1023400032580D0A000000005B52533438352D32EC
:102350005D20577269746520726573706F6E736566
:10236000206572726F722120736C6176653D256401
:102370000D0A00005B52533438352D325D20577200
:10238000697465204F4B3A20736C6176653D256416
:10239000207265673D3078253034582076616C3D79
:1023A00025640D0A000000005B52533438352D328D
:1023B0005D20526561642074696D656F75742120BC
:1023C000736C6176653D2564207265673D307825C4
:1023D0003034580D0A0000005B52533438352D322A
:1023E0005D205265616420657863657074696F6E05
:1023F0002120736C6176653D2564206572726F7271
:102400003D3078253032580D0A0000005B525334BD
:1024100038352D325D2052656164204F4B3A207370
:102420006C6176653D2564207265673D30782530A6
:1024300034582076616C3D25640D0A0009488047B8
:1024400009480047FEE7FEE7FEE7FEE7FEE7FEE796
:10245000FEE7FEE7FEE7FEE704480549054A064BAE
:10246000704700001906000889010008A80500202F
:10247000A80B0020A8070020A8070020324901432C
:10248000324A1160704770B5002100230F22C478D2
:102490001CB32E4C246804F4E064C4F5E064C4F377
:1024A0000721C1F10404E3B20A4144789C40E1B23F
:1024B0008478144021430C07210E254C0578615582
:1024C000047804F01F050124AC4005786D11AD00BF
:1024D00005F1E025C5F8004109E0047804F01F0586
:1024E0000124AC401B4D0678761145F8264070BD9E
:1024F000194A0A400243154B1B1F1A60704739B135
:10250000124A121D12680243104B1B1D1A6006E08E
:102510000E4A121D126882430C4B1B1D1A60704735
:10252000042808D14FF0E021096941F004014FF07F
:10253000E022116107E04FF0E021096921F0040178
:102540004FF0E022116170470000FA050CED00E049
:1025500000E400E080E100E080FFFF1F10B50446CA
:102560009848844208D10121084600F086FB0021EA
:10257000012000F082FB76E09348844208D10121DB
:10258000022000F07AFB0021022000F076FB6AE0D6
:102590008E48844208D10121042000F06EFB002106
:1025A000042000F06AFB5EE08948844208D10121E2
:1025B000082000F062FB0021082000F05EFB52E0E2
:1025C0008448844208D10121102000F056FB0021EC
:1025D000102000F052FB46E07F48844208D10121E0
:1025E000202000F04AFB0021202000F046FB3AE0CA
:1025F0007A48844208D10121402000F03EFB0021AE
:10260000402000F03AFB2EE07548844208D10121B9
:10261000802000F032FB0021802000F02EFB22E021
:102620007048844208D10121801500F026FB00216A
:10263000A01500F022FB16E06B48844208D101216E
:10264000401500F01AFB0021601500F016FB0AE0AF
:102650006648844207D10121001500F00EFB0021DD
:10266000201500F00AFB10BDF0B50A46002100233A
:10267000002400BF3DE0012505FA01F3156805EAD5
:1026800003049C4234D105684F000326BE40B54385
:10269000056015794E00B54006683543056015792B
:1026A000012D02D01579022D16D185684F00032621
:1026B000BE40B543856055794E00B54086683543C8
:1026C0008560456801268E40B5434560456896792A
:1026D0008E40B6B235434560C5684F000326BE4004
:1026E000B543C560D5794E00B540C6683543C56071
:1026F000491C1029BFD3F0BD4FF6FF7101600021C6
:10270000017141718171C171704708B54FF4803218
:102710000092009A0A430092009AC261C161009A35
:10272000C261C2690092C269009208BD02460020DF
:1027300013690B400BB1012000E0002070470146F7
:10274000086980B270470246002053690B400BB104
:10275000012000E0002070470146486980B27047C0
:1027600001837047418370470AB1018300E04183D0
:1027700070474161704742694A4042617047F0B515
:10278000002300244D07ED0E02FA05F3CE1000F1F0
:10279000200555F826504E07F70E0F26BE40B543CC
:1027A000CF1000F1200646F82750CE1000F120058A
:1027B00055F8265045EA0304CE1000F1200545F8EF
:1027C0002640F0BD00000240000402400008024024
:1027D000000C0240001002400014024000180240A9
:1027E000001C024000200240002402400028024059
:1027F000F948006840F00100F74908600020F649F8
:1028000008310860F4480068F4490840F24908605B
:10281000F348091D0860F348EF4984310860F04827
:102820001038091D0860EC48006820F48020EA494F
:1028300008600020E8490C310860E7498C310860E5
:1028400070470021E44A921C1170114608707047CD
:1028500010B501460022002300204A11012A02D1AE
:10286000DD4C236808E0022A03D1DB4C7034236876
:1028700002E0D94C7434236801F01F020124944013
:102880001C400CB1012000E0002010BD38B5002034
:1028900000900024002500BF3120FFF7D9FF054636
:1028A0000098401C00900098B0F5A04F01D0002D7A
:1028B000F2D03120FFF7CCFF08B1012400E0002462
:1028C000204638BD01460020C34A106820F0F800B9
:1028D00040EAC10010607047C3490860704700219A
:1028E000BD4A703211701170012802D004280AD13B
:1028F00004E00121B84A7032117005E00521B64AA2
:102900007032117000E000BF00BF7047B749086027
:10291000704770B5049C41EA82150126C6EB530648
:1029200045EA0645054345EA0465AB4E361D35606C
:1029300070BDAD4908667047820142EA0172A64B3C
:1029400084331A607047A8498866704710B58301C0
:1029500043EA016343EA02739F4C8834236010BD4D
:10296000A14908677047A049C86470470246002023
:10297000994B0833186820F0EC6042EA01031843D1
:10298000954B08331860704702460020924B08337D
:10299000186820F0784042EA010318438E4B083350
:1029A00018607047014600208B4A0832106820F0FA
:1029B000030008431060704787480830006800F043
:1029C0000C00704701460020834A0832106820F04E
:1029D000F000084310607047014600207E4A08322C
:1029E000106820F4E0500843106070470146002052
:1029F000794A0832106820F4604040EAC100106053
:102A00007047F0B500210022002402250026022391
:102A1000714F08373F6807F00C0121B1042905D038
:102A2000082937D105E0724F076036E0714F076023
:102A300033E0694F3F1D3F68C7F38056664F3F1D27
:102A40003F6807F03F036EB16A4FB7FBF3F7DFF85B
:102A500088C10CF1040CDCF800C0CCF3881C07FB27
:102A60000CF40CE0624FB7FBF3F7DFF86CC10CF12C
:102A7000040CDCF800C0CCF3881C07FB0CF4564FA8
:102A80003F1D3F68C7F301477F1C7D00B4FBF5F78E
:102A9000076002E0564F076000BF00BF4E4F083787
:102AA0003F6807F0F0010909534F7A5C0768D74087
:102AB0004760494F08373F6807F4E051890A4E4F95
:102AC0007A5C4768D7408760434F08373F6807F410
:102AD0006041490B484F7A5C4768D740C760F0BDFA
:102AE000002100F44072B2F5407F0AD13A4A083220
:102AF000116821F4F811414A02401143364A083264
:102B00001160354A70321268C0F30B031A43324B1E
:102B100070331A607047354944390860704733494B
:102B20004039086070473649086070470146002008
:102B3000294A8C32106820F01F004A1E1043264A92
:102B40008C321060704701460020234A8C32106896
:102B500020F4F8504A1E40EA02201F4A8C321060CE
:102B60007047014600201C4A8C32106820F4401047
:102B700008431060704701460020174A8C321068E5
:102B800020F4400008431060704701460020124ABC
:102B90008C32106820F440300843106070471949A7
:102BA0000860704739B10C4A3032126802430A4B50
:102BB00030331A6006E0084A303212688243064B0E
:102BC00030331A607047F9B1034A34321268024355
:102BD000014B34331A601CE000380240FFFFF6EA74
:102BE000103000240030002000004742800E474291
:102BF0000024F40000127A002E000020FFFCFF0FDA
:102C00005C014742E01147428F4A126882438E4B73
:102C10001A60704739B18C4A121D126802438A4B00
:102C20001B1D1A6006E0884A121D12688243864BFB
:102C30001B1D1A60704739B1834A0C321268024377
:102C4000814B0C331A6006E07F4A0C3212688243D3
:102C50007D4B0C331A60704739B17B4A10321268D1
:102C60000243794B10331A6006E0774A103212683B
:102C70008243754B10331A60704739B1724A243A57
:102C800012680243704B243B1A6006E06E4A243AF5
:102C9000126882436C4B243B1A60704739B16A4A10
:102CA000203A12680243684B203B1A6006E0664AED
:102CB000203A12688243644B203B1A60704739B156
:102CC000614A1C3A126802435F4B1C3B1A6006E0E3
:102CD0005D4A1C3A126882435B4B1C3B1A6070478A
:102CE00039B1594A143A12680243574B143B1A60DF
:102CF00006E0554A143A12688243534B143B1A605B
:102D0000704739B1504A103A126802434E4B103B9B
:102D10001A6006E04C4A103A126882434A4B103B54
:102D20001A60704739B1484A1C3212680243464B58
:102D30001C331A6006E0444A1C3212688243424B3C
:102D40001C331A60704739B13F4A2032126802437F
:102D50003D4B20331A6006E03B4A20321268824322
:102D6000394B20331A60704739B1374A2432126820
:102D70000243354B24331A6006E0334A243212688A
:102D80008243314B24331A60704739B12E4A2C32BA
:102D9000126802432C4B2C331A6006E02A4A2C326C
:102DA00012688243284B2C331A60704739B1264A87
:102DB000303212680243244B30331A6006E0224A54
:102DC000303212688243204B30331A60704701283A
:102DD00008D11D493C31096841F008011A4A3C32CA
:102DE000116007E018493C31096821F00801164AD2
:102DF0003C321160704739B1134A273A12780243C6
:102E0000114B273B1A7006E00F4A273A127882438B
:102E10000D4B273B1A7070470B484030006840F05C
:102E20008070094940310860704701460020064A19
:102E3000283A12680A400AB1012000E000207047D9
:102E400001492639087070473438024010B50446ED
:102E5000FA48844208D101211020FFF752FF0021D7
:102E60001020FFF74EFF57E0F548844209D10121B9
:102E70004804FFF735FF00214FF40030FFF730FF23
:102E80004AE0F048844209D101218804FFF728FF75
:102E900000214FF48020FFF723FF3DE0EA48844201
:102EA00009D10121C804FFF71BFF00214FF40020C6
:102EB000FFF716FF30E0E548844209D101210805FB
:102EC000FFF70EFF00214FF48010FFF709FF23E00A
:102ED000DF48844208D101212020FFF712FF0021A2
:102EE0002020FFF70EFF17E0DA48844209D10121C4
:102EF0008807FFF7F5FE00214FF08040FFF7F0FE56
:102F00000AE0D548844207D101214005FFF7E8FED9
:102F100000216005FFF7E4FE10BD2DE9FF470546DF
:102F20000E460024A14600BFA046B08900B100BFF4
:102F30002C8A24F44054F08804432C82AC8941F25A
:102F40000C608443B0883189084371890843044385
:102F5000AC81AC8A24F44074B0890443AC826846E6
:102F6000FFF74FFDB548854202D0B948854202D1EE
:102F7000DDF80C9001E0DDF80890A88900F400402D
:102F800040B109EBC90000EB091031684900B0FB02
:102F9000F1F707E009EBC90000EB0910316889007F
:102FA000B0FBF1F76420B7FBF0F0040120096421C5
:102FB00001FB1078A88900F4004040B1322000EBFA
:102FC000C800B0FBF1F000F00700044308E0322035
:102FD00000EB08106421B0FBF1F000F00F00044397
:102FE0002C81BDE8FF874FF41651016000218180DC
:102FF000C18001810C21418100218181704710B580
:1030000002460020108A20F470600B884C8823430D
:103010008C882343CC8823431843108210BD0021A1
:10302000018041808180C180704721B1828942F452
:103030000052828104E082894DF6FF731A4082813A
:103040007047028B02F47F420283028B0A430283A1
:10305000704721B1828942F40042828103E0828973
:10306000C2F30E028281704721B1828A42F400626B
:10307000828204E0828A4FF2FF731A408282704794
:10308000C1F308028280704701468888C0F30800B7
:103090007047028A4FF6F0731A400282028A0A438E
:1030A0000282704721B1828942F00202828104E0EB
:1030B00082894FF6FD731A408281704782894FF2F0
:1030C000FF731A40828182890A4382817047028A93
:1030D0004FF6DF731A400282028A0A430282704767
:1030E00021B1028A42F48042028204E0028A4BF655
:1030F000FF731A4002827047818941F0010181818A
:10310000704721B1828A42F00802828204E0828AFA
:103110004FF6F7731A4082827047028BD2B2028355
:10312000028B42EA01220283704721B1828A42F077
:103130002002828204E0828A4FF6DF731A40828284
:10314000704721B1828A42F01002828204E0828AB2
:103150004FF6EF731A4082827047828A4FF6FB73F4
:103160001A408282828A0A438282704721B1828A0F
:1031700042F00202828204E0828A4FF6FD731A4016
:10318000828270471AB1838A0B43838202E0838A6A
:103190008B4383827047F0B5034600240026002548
:1031A000002040F66A17B94200D100BF1846C1F3AB
:1031B000421401F01F06012707FA06F5012C01D180
:1031C0000C3004E0022C01D1103000E014301AB1B0
:1031D00007682F43076002E00768AF430760F0BD50
:1031E00002460020B1F5007F00D100BF13880B40DC
:1031F0000BB1012000E00020704701F40072B2F52D
:10320000007F00D100BFCA430280704770B50246FC
:10321000002400230025002040F66A16B14200D1A8
:1032200000BFC1F3421501F01F03012606FA03F3A4
:10323000012D13D19689334017E0000000100140A2
:103240000044004000480040004C00400050004056
:103250000014014000780040007C0040022D02D1A3
:10326000168A334001E0968A33400C12012606FA92
:1032700004F41688344013B10CB1012000E00020A2
:1032800070BD10B50022002340F66A14A14200D19F
:1032900000BF0A1201249440A3B2DC43048010BD95
:1032A00010B50446FE48844209D101214806FFF7C3
:1032B00017FD00214FF00070FFF712FD08E001211B
:1032C0008806FFF70DFD00214FF08060FFF708FD35
:1032D00010BD30B5024600200023146824F002041B
:1032E0001460146844F00104146000E05B1C54682E
:1032F00004F001041CB94FF6FF74A342F6D15468E0
:1033000004F001040CB900206CE08C79012C04D18C
:10331000146844F08004146003E0146824F080040E
:103320001460CC79012C04D1146844F0400414607A
:1033300003E0146824F0400414600C7A012C04D1DA
:10334000146844F02004146003E0146824F020049E
:1033500014604C7A012C04D1146844F010041460F9
:1033600003E0146824F0100414608C7A012C04D15A
:10337000146844F00804146003E0146824F008049E
:103380001460CC7A012C04D1146844F00404146055
:1033900003E0146824F0040414608C78A407CD784A
:1033A00044EA05640D7944EA05444D7944EA05543C
:1033B0000D886D1E2C43D461146824F00104146040
:1033C000002300E05B1C546804F001041CB14FF6BC
:1033D000FF74A342F6D1546804F001040CB100203C
:1033E00000E0012030BD10B50021837A012202FAED
:1033F00003F1AC4A126842F00102AA4B1A60A94AD2
:103400001C3212688A43A74B1C331A60027BCAB96C
:10341000A44A0C3212688A43A24B0C331A604288C9
:10342000C38842EA03439F4A4032847A42F83430E8
:103430000288838842EA03439A4A4032847A02EB44
:10344000C4025360027B012A19D1964A0C321268D9
:103450000A43944B0C331A604288038842EA0343C0
:10346000904A4032847A42F83430C288838842EAF3
:1034700003438C4A4032847A02EBC4025360C27A1E
:103480003AB9884A121D12688A43864B1B1D1A607E
:1034900006E0844A121D12680A43824B1B1D1A6003
:1034A000028932B97F4A143212688A437D4B143341
:1034B0001A600289012A06D17A4A143212680A4334
:1034C000784B14331A60427B012A06D1754A1C32AC
:1034D00012680A43734B1C331A60724A126822F056
:1034E0000102704B1A6010BD00218171C17101721F
:1034F00041728172C1728170C17003210171022118
:1035000041710121018070476649096841F001015C
:10351000644A11601146096843F60E729143614A8C
:1035200011601146096841EA0021116011460968DD
:1035300021F001011160704721B1026842F480322C
:10354000026003E0026822F4803202607047E1B159
:10355000026842F0800202604FF4C272125842F4D4
:1035600080734FF4C27213504FF4CA72125842F46F
:1035700080734FF4CA7213504FF4D272125842F44F
:1035800080734FF4D27213501BE0026822F0800265
:1035900002604FF4C272125822F480734FF4C27268
:1035A00013504FF4CA72125822F480734FF4CA7247
:1035B00013504FF4D272125822F480734FF4D27227
:1035C0001350704710B502460020936803F08063E3
:1035D000B3F1806F00D110E0936803F00063B3F1A2
:1035E000006F01D1012008E0936803F08053B3F12C
:1035F000805F01D1022000E00420042879D002F588
:10360000C07303EB00131B6803F0010402F5C073E1
:1036100003EB00131C600B7A7BB94B7A0C8843EAEE
:10362000445302F5C07404EB00142468234302F5EC
:10363000C07404EB0014236010E00B7A4C6843EA7A
:10364000C4034C7A234302F5C07404EB00142468CD
:10365000234302F5C07404EB001423608B7A03F05B
:103660000F038B7202F5C07303EB00135B6823F04A
:103670000F0402F5C07303EB00135C6002F5C07326
:1036800003EB00135B688C7A234302F5C07404EBF0
:10369000001463608B7B1C064B7B44EA034403E00D
:1036A00000640040006600400B7B44EA0323CC7AB0
:1036B000234302F5C07404EB0014A3608B7C1C064A
:1036C0004B7C44EA03440B7C44EA0323CC7B234336
:1036D00002F5C07404EB0014E36002F5C07303EB61
:1036E00000131B6843F0010402F5C07303EB0013E1
:1036F0001C6010BD10B50246002321B1012907D07E
:1037000002290FD109E09068F94C00EA04030BE0AC
:103710009068F84C00EA040306E09068F64C00EA72
:10372000040301E0002300BF00BFF44C181BA342B8
:1037300016D007DC83B16FF08060184470B10228A6
:1037400018D111E0B0F5007F10D0ED4C204448B105
:10375000B0F5003F0ED10BE002230DE000230BE09B
:10376000002309E0002307E0012305E0012303E033
:10377000012301E0002300BF00BFD8B210BD21B17A
:10378000012907D002290FD109E0826842F08002A6
:1037900082600AE0826842F40042826005E082684A
:1037A00042F40002826000E000BF00BF704710B525
:1037B00000F5D87303EB01131B6803F004031372C5
:1037C000137A53B900F5D87303EB01131B6840F269
:1037D000FF7404EA5353136009E000F5D87303EB58
:1037E00001131B686FF0604404EAD303536000F5D3
:1037F000D87303EB01131B6803F00203537200F547
:10380000D87303EB01135B6803F00F03937200F5A9
:10381000D87303EB01135B681B0AD37400F5D873EC
:1038200003EB01139B68D37200F5D87303EB01130C
:103830009B681C0A147300F5D87303EB01139B6893
:103840001C0C547300F5D87303EB01139B681B0E1B
:10385000937300F5D87303EB0113DB68D37300F5A2
:10386000D87303EB0113DB681C0A147400F5D873DA
:1038700003EB0113DB681C0C547400F5D87303EBE5
:103880000113DB681B0E937421B9C36843F0200356
:10389000C36003E0036943F02003036110BD21B955
:1038A000C26842F02002C26003E0026942F02002D6
:1038B000026170470246002019B9D36803F0030083
:1038C00006E0012903D1136903F0030000E00020A2
:1038D000704710B502460B4600204FF6FF71BBB98A
:1038E000146824F0020444F00104146000E0491E4E
:1038F000546804F00304012C01D00029F7D1546866
:1039000004F00304012C01D0002032E0012030E05B
:10391000012B13D1146824F00304146000E0491E45
:10392000546804F003040CB10029F8D1546804F081
:1039300003040CB100201CE001201AE0022B17D177
:10394000146824F0010444F00204146000E0491EED
:10395000546804F00304022C01D00029F7D1546804
:1039600004F00304022C01D0002002E0012000E05A
:10397000002010BD014600200A6822F0010242F03A
:1039800002020A604A6802F00302022A00D1012002
:10399000704701464FF6FF7200200B6823F00203C8
:1039A0000B6000E0521E4B6803F00203022B01D1B2
:1039B000002AF7D14B6803F00203022B00D001204C
:1039C0007047014600208A6902F070007047014686
:1039D00000208A69100E7047014600208A69C2F3F0
:1039E000074070471AB143690B43436102E04369E2
:1039F0008B434361704710B50246002001F4700309
:103A000043B19369C1F3130423400BB101202DE0AE
:103A100000202BE001F0807343B15368C1F313041D
:103A200023400BB1012021E000201FE001F00063E2
:103A300043B19368C1F3130423400BB1012015E097
:103A4000002013E001F0007343B1D368C1F3130405
:103A500023400BB1012009E0002007E01369C1F306
:103A6000130423400BB1012000E0002010BD002210
:103A7000244B994202D10023836111E0C1F3130268
:103A800001F000730BB1C2600AE001F080630BB17A
:103A9000026105E001F000630BB1826000E042606A
:103AA00070470246002002EA01030BB1012000E04A
:103AB0000020704770B504460D4600266069284016
:103AC000002872D0B5F5807F69D01DDC082D42D06A
:103AD00006DC012D2DD0022D31D0042D7FD134E014
:103AE000102D3ED0202D42D0402D78D145E0000051
:103AF0000300000400030008000003100001000898
:103B00000001FFF77000F030B5F5004F61D009DC1F
:103B1000B5F5007F4AD0B5F5806F4DD0B5F5006F93
:103B20005DD150E0B5F5803F2DD0B5F5003F56D1C1
:103B30002FE0A0685549FFF7B4FF064651E0E06862
:103B40000321FFF7AEFF06464BE0E0680821FFF7D0
:103B5000A8FF064645E0E0681021FFF7A2FF0646F1
:103B60003FE020690321FFF79CFF064639E020690A
:103B70000821FFF796FF064633E020691021FFF782
:103B800090FF06462DE060680821FFF78AFF064691
:103B900027E060681021FFF784FF064621E0A06956
:103BA0000121FFF77EFF06461BE01BE0A069022112
:103BB000FFF777FF064614E0A0690421FFF771FFC5
:103BC00006460EE00BE0A0697021FFF76AFF06468B
:103BD00007E060680421FFF764FF064601E0002665
:103BE00000BF00E00026304670BDB1F5007F3AD03E
:103BF0000FDC202928D006DC01291CD004291DD087
:103C0000082940D11DE0402921D0B1F5807F3AD16B
:103C100026E0B1F5004F31D006DCB1F5806F25D03C
:103C2000B1F5006F2FD124E0B1F5803F12D0B1F58E
:103C3000003F28D111E0154A826025E00822C260C9
:103C400022E01022C2601FE0082202611CE0102264
:103C5000026119E00822426016E01022426013E07F
:103C60000422426010E0042242600DE0042242601F
:103C70000AE0002282610422426005E000228261A3
:103C80000422426000E000BF00BF70470101010054
:103C900010B50446FE48844208D101210846FFF7CA
:103CA00030F800210120FFF72CF89DE0B4F1804F9F
:103CB00008D101210846FFF713F800210120FFF782
:103CC0000FF891E0F348844208D101210220FFF768
:103CD00007F800210220FFF703F885E0EE48844250
:103CE00008D101210420FEF7FBFF00210420FEF78C
:103CF000F7FF79E0E948844208D101210820FEF766
:103D0000EFFF00210820FEF7EBFF6DE0E44884425E
:103D100008D101211020FEF7E3FF00211020FEF75B
:103D2000DFFF61E0DF48844208D101212020FEF757
:103D3000D7FF00212020FEF7D3FF55E0DA48844268
:103D400008D101210220FEF7DCFF00210220FEF74E
:103D5000D8FF49E0D548844209D101210804FEF783
:103D6000D0FF00214FF48030FEF7CBFF3CE0D0487D
:103D7000844209D101214804FEF7C3FF00214FF41A
:103D80000030FEF7BEFF2FE0CA48844209D101216E
:103D90008804FEF7B6FF00214FF48020FEF7B1FF44
:103DA00022E0C548844208D101214020FEF798FF57
:103DB00000214020FEF794FF16E0C048844208D15D
:103DC00001218020FEF78CFF00218020FEF788FF74
:103DD0000AE0BB48844207D101218015FEF780FF2D
:103DE0000021A015FEF77CFF10BD00220288A84B21
:103DF00098420ED0AC4B98420BD0B0F1804F08D017
:103E0000A44B984205D0A44B984202D0A34B9842B1
:103E100004D14FF68F731A404B881A43A04B984237
:103E200007D0A04B984204D04FF6FF431A400B89AD
:103E30001A4302804B68C3620B880385944B9842F7
:103E400002D0994B984201D18B7A03860123838259
:103E500070474FF0FF3141600021018001814180B6
:103E6000817270470185828270470A46002101886D
:103E70004FF68F73194011430180704741627047BC
:103E8000C16270470146486A70470146088D704715
:103E900021B1028842F00202028004E002884FF65B
:103EA000FD731A400280704721B1028842F004027B
:103EB000028004E002884FF6FB731A4002807047CC
:103EC00021B1028842F08002028004E002884FF6AD
:103ED0007F731A400280704702884FF6F7731A40CA
:103EE000028002880A430280704702884FF6FF432F
:103EF0001A40028002880A430280704721B102887A
:103F000042F00102028004E002884FF6FE731A407C
:103F10000280704770B5002400220023058C4FF604
:103F2000FE7635400584028C8388048B4FF68F75AE
:103F30002C40B51E2C400D882C43751E2A408D89BF
:103F40002A434D882A43524DA84202D0564DA842DA
:103F500013D14FF6F7752A40CD892A434FF6FB75EA
:103F60002A408D882A434FF6FF652B404FF6FF55B8
:103F70002B400D8A2B434D8A2B43838004838D680D
:103F80004563028470BD70B5002400220023058CB7
:103F90004FF6EF7635400584028C8388048B48F613
:103FA000FF752C404FF6FF452C400D884FF6FF76ED
:103FB00006EA05252C434FF6DF752A408D8906EA6F
:103FC00005152A434D8806EA05152A43304DA842B7
:103FD00002D0354DA8421DD14FF67F752A40CD89BC
:103FE0004FF6FF7606EA05152A434FF6BF752A40BD
:103FF0008D8806EA05152A434FF6FF352B404FF210
:10400000FF752B400D8A06EA85052B434D8A06EA8B
:1040100085052B43838004838D688563028470BD8E
:1040200070B5002400220023058C4FF6FF66354052
:104030000584028C8388848B4FF68F752C404FF655
:10404000FC752C400D882C434FF6FF552A408D8976
:104050004FF6FF7606EA05252A434D8806EA052530
:104060002A430B4DA84202D00F4DA84238D14FF23F
:10407000FF752A40CD894FF6FF7606EA05252A43CB
:104080004FF6FF352A408D8806EA05252A4319E0B8
:10409000000001400004004000080040000C004007
:1040A00000100040001400400004014000400140A6
:1040B000004401400048014000180040001C00403E
:1040C000002000404EF6FF752B404DF6FF752B404B
:1040D0000D8A06EA05152B434D8A06EA05152B4382
:1040E000838084838D68C563028470BD70B50022AF
:1040F00000230024058C4EF6FF7635400584038CA2
:104100008488828B48F6FF752A404FF6FF452A4087
:104110000D884FF6FF7606EA05252A434DF6FF7512
:104120002B408D8906EA05352B434D8806EA053577
:104130002B43FE4DA84202D0FD4DA84208D14BF6BC
:10414000FF752C400D8A4FF6FF7606EA85152C4345
:10415000848082838D680564038470BD00210180A2
:104160004180818081608181C1810182418270476B
:1041700070B50346002000241846183001258D40F4
:10418000ACB21D8CA5431D8409B108290AD100EBEE
:10419000610005684FF68F76354005600568154368
:1041A00005600FE00D1FC5F34E052844056848F66D
:1041B000FF763540056005684FF6FF7606EA022671
:1041C0003543056070BD4163704781637047C163CB
:1041D0007047016470470A460021018B4FF68F73C8
:1041E00019401143018370470A460021018B48F6AC
:1041F000FF7319404FF6FF7303EA0223194301834B
:1042000070470A460021818B4FF68F731940114386
:10421000818370470A460021818B48F6FF7319405D
:104220004FF6FF7303EA02231943818370470A465E
:104230000021018B4FF6F77319401143018370473A
:104240000A460021018B4FF2FF7319404FF6FF73AE
:1042500003EA02231943018370470A460021818B38
:104260004FF6F77319401143818370470A460021C6
:10427000818B4FF2FF7319404FF6FF7303EA02235D
:104280001943818370470A460021018B4FF6FB7367
:1042900019401143018370470A460021018B4FF6F4
:1042A000FF3319404FF6FF7303EA022319430183DA
:1042B00070470A460021818B4FF6FB73194011436A
:1042C000818370470A460021818B4FF6FF331940E6
:1042D0004FF6FF7303EA02231943818370470A46AE
:1042E0000021018B4FF67F73194011430183704702
:1042F0000A460021018BC1F30E014FF6FF7303EA5A
:1043000002231943018370470A460021818B4FF62F
:104310007F7319401143818370470A460021818BC6
:10432000C1F30E014FF6FF7303EA022319438183A1
:1043300070470A460021018C4FF6FD731940114366
:10434000018470470A460021018C4FF6F77319402B
:104350001143018470470A460021018C4FF6DF7338
:1043600019404FF6FF7303EA0213194301847047A3
:104370000A460021018C4FF67F7319404FF6FF73F8
:1043800003EA02131943018470470A460021018C95
:104390004FF6FF5319404FF6FF7303EA0223194308
:1043A000018470470A460021018C4FF2FF731940C7
:1043B0004FF6FF7303EA02231943018470470A464C
:1043C0000021018C4DF6FF7319404FF6FF7303EA8D
:1043D000023319430184704730B5002301248C4017
:1043E000A3B2048C9C430484048C02FA01F5ADB2A0
:1043F0002C43048430BD30B5002304248C40A3B288
:10440000048C9C430484048C02FA01F5ADB22C4365
:10441000048430BD828B4FF2FF331A408283828B3B
:104420004FF6FF7303EA01231A4382837047F0B506
:104430000C461546002100220026078C4EF6FF7C14
:1044400007EA0C070784818B028C4FF6FF7707EA97
:10445000043640F6FF4739404FF6FF7707EA052755
:1044600039434FF6FF7707EA0337394345F6FF77BD
:104470003A4046F480573A4381830284F0BD828BF0
:104480004FF6F3731A408283828B0A43828370470C
:10449000F0B50C461546002100220026078C4FF689
:1044A000FF6C07EA0C070784818B028C4FF6FF77BD
:1044B00007EA04264FF60C7739404FF6FF7707EAF4
:1044C00003172F4339434FF2FF573A4046F48077A2
:1044D0003A4381830284F0BD028B4FF2FF331A40CE
:1044E0000283028B4FF6FF7303EA01231A43028310
:1044F0007047F0B50C461546002100220026078CB7
:104500004FF6EF7C07EA0C070784018B028C4FF60D
:10451000FF7707EA041640F6FF4739404FF6FF776A
:1045200007EA033739434FF6FF7703E00000014005
:104530000004014007EA052739434FF65F773A4008
:1045400046F010073A4301830284F0BD028B4FF618
:10455000F3731A400283028B0A4302837047F0B55B
:104560000C46154600210022068C4FF6FE773E4091
:104570000684018B028C4FF60C7631407E1C06EAD5
:1045800003162E4331434FF6F576324044F00106D0
:10459000324301830284F0BD70B505460C46208885
:1045A00050B92389A28861882846FFF7D8FFE1889F
:1045B0002846FFF7CBFF25E0208804280AD123896D
:1045C000A28861882846FFF794FFE1882846FFF714
:1045D00083FF17E0208808280AD12389A2886188F0
:1045E0002846FFF755FFE1882846FFF748FF09E016
:1045F0002389A28861882846FFF719FFE1882846A9
:10460000FFF708FF70BD00210180418001218180FA
:104610000021C180018170472DE9F04105460C461B
:1046200000260127608808B9022600E00026A0883D
:10463000012801D1022700E001272088A0B92389A1
:10464000A28861882846FFF78AFFE1882846FFF79D
:104650007DFF23893A4631462846FFF74AFFE18825
:104660002846FFF739FF13E02389A288618828468E
:10467000FFF73FFFE1882846FFF72EFF23893A46E0
:1046800031462846FFF76BFFE1882846FFF75EFFBB
:10469000BDE8F0810146486B70470146886B704762
:1046A0000146C86B70470146086C70470A884B8802
:1046B0001A438B881A43CB881A430B891A434B89B8
:1046C0001A438B891A43A0F84420704700210180C7
:1046D00041808180C180018141818181704731B1F8
:1046E000B0F8442042F40042A0F8442005E0B0F8BD
:1046F0004420C2F30E02A0F84420704721B1828802
:1047000042F00402828004E082884FF6FB731A4074
:104710008280704721B1828842F00102828004E0E9
:1047200082884FF6FE731A40828070471AB18389DF
:104730000B43838102E083898B43838170478182AD
:10474000704702460020138A0B400BB1012000E0A5
:1047500000207047CA430282704730B502460020ED
:1047600000230024158A05EA0103958905EA01045E
:1047700013B10CB1012000E0002030BDCA43028219
:10478000704741EA0203A0F8483070471AB18389A4
:104790000B43838102E083898B438381704721B17E
:1047A000828842F00802828004E082884FF6F77324
:1047B0001A408280704701894FF6F87211400181DA
:1047C00070470A46002101894FF68F731940114343
:1047D0000181704730B504460D4629462046FFF753
:1047E000F0FF208940F00700208130BD2DE9F04125
:1047F00004460D4616461F46602D06D13B46012253
:1048000031462046FFF775FE05E03B460122314662
:104810002046FFF7A4FE29462046FFF7D2FF208955
:1048200040F007002081BDE8F08130B50C46002142
:104830000189C9B24FF6FF7505EA032515432543E3
:104840002943018130BD2DE9F04105460E4617464A
:104850009846002443463A4631462846FFF7E5FF8E
:104860002C894FF6F870044044F007044FF68F701F
:10487000044044F070042C81BDE8F081F0B504469A
:104880000D4616461F463B46324629462046FFF750
:10489000CCFF208940F480402081F0BD82884FF613
:1048A0008F731A40828082880A438280704702890F
:1048B0004FF6F8731A40028102890A430281704759
:1048C00002894FF67F731A40028102890A430281EE
:1048D0007047F0B50C4615461E4600210022002305
:1048E0000189028B038C4FF6F877394021434FF64C
:1048F000FC473A4040F201173A434FF6DD773B4020
:104900004FF6FF7707EA06172F433B4301810283E7
:104910000384F0BD21B1828842F08002828004E0ED
:1049200082884FF67F731A4082807047A0F850103B
:104930007047000030B503460C46D3F80C020078EF
:1049400060B9002106E00020D3F8105245F821009C
:10495000481CC1B293F809028842F4DC002030BD43
:1049600010B50446AFF23303002241F203012046A2
:1049700001F0CDF80020D4F80C12087010BD70477B
:10498000F0B585B004460D4617461E460020B4A17A
:1049900043F251036E22CDE90010B4A1B9A009F091
:1049A00065FBD4F81802008880B2ADF8080000203A
:1049B0008DF80A0008208DF80B00E8B28DF80C0085
:1049C000290A8DF80D108DF80E702EB90021CDF842
:1049D0000F108DF8131005E03168CDF80F10317904
:1049E0008DF8131002A9D4F8E40109F0CDF905B04F
:1049F000F0BD2DE9FC4704460E4690469946002539
:104A000022E004F5077030F82500B0421AD104F511
:104A1000077000EB8500C07868B100209FA143F2C9
:104A200052039322CDE9001090A196A009F01EFB3D
:104A30000020BDE8FC87012104F5077000EB85002C
:104A4000C17003E0681CC5B2082DDADB00BF082D79
:104A50000DD1002508E004F5077000EB8500C07853
:104A600000B903E0681CC5B2082DF4DB00BF082DB7
:104A70000CD1002090A143F253039F22CDE90010F6
:104A80007AA180A009F0F2FA0120D2E704F50770BC
:104A900020F8256000EB850080F80280012104F5F4
:104AA000077000EB8500C170012084F80802002522
:104AB00000270EE004F5077000EB8500C0780128A0
:104AC00005D104F5077000EB850080780743681C6A
:104AD000C5B2082DEEDBD4F81402077094F8090271
:104AE000401EC5B20BE0D4F8100200EB850050F870
:104AF000040CD4F8101241F82500681EC5B2002D30
:104B0000F1DC46EA0940D4F810120860D4F80C022F
:104B1000007894F80912884206DAD4F80C0200787A
:104B2000401CD4F80C1208707F20005D40B1D4F80E
:104B300014020278002331462046FFF721FF78E770
:104B4000012076E72DE9FC4105460F464FF00008AD
:104B5000002408E005F5077030F82400B84200D1C1
:104B600003E0601CC4B2082CF4DB00BF082C34D076
:104B700005F5077000EB8400C07801282DD10021D5
:104B800005F5077000EB8400C170002400260FE0DB
:104B900005F5077000EB8400C078012806D1804637
:104BA00005F5077000EB840080780643601CC4B2F2
:104BB000082CEDDBB8F1000F0BD1002085F80802BE
:104BC0007F20405D28B100231A4619462846FFF78A
:104BD000D7FED5F8140206700AE000203AA143F28D
:104BE0005403E222CDE9001020A126A009F03EFAEC
:104BF000BDE8FC812DE9FC4105460C4600203AA1A8
:104C000043F25503F422CDE9001018A11DA009F0CC
:104C10002DFAE07808280CD020883AA141F25603FA
:104C2000F822CDE9001011A116A009F01FFABDE885
:104C3000FC81207800F07F062179607941EA002725
:104C400094F80680E01D009043463A4631462846D7
:104C5000D5F83CC2E04700BFE9E710B5029C10BDA3
:104C600073656E64454D4359000000002E2E5C4371
:104C7000414E6F70656E5C7372635C656D63792E17
:104C80006300000025732C2564203A2030582578D5
:104C90002025732030582578200D0A00454D4359B2
:104CA000206D65737361676520616C7265616479FD
:104CB0002073656E740000006572726F725F6461CC
:104CC00074612066756C6C007265636F76657265E1
:104CD00064206572726F7220776173206E6F74202A
:104CE0006163746976650000454D435920726563C0
:104CF00065697665642E2050726F636565642E2049
:104D0000000000004572726F722073697A65204559
:104D10004D43592E20436F62496420203A20000001
:104D200002460F20802902DA02F1B403585C704772
:104D300070B504460D46D4F8A00050F82500C0F325
:104D400007464FF0FF30D4F8A41021F815000121D8
:104D500004F1B400815531462046D4F8B020904784
:104D600070BD2DE9F04786B004460F46387800F054
:104D70007F05B878012835D120680078A84230D165
:104D80002068007800F5E066ADF80C6001208DF831
:104D90000F0000208DF80E0094F87C008DF81000B4
:104DA00094F8E00148B19DF8100040F080008DF8C3
:104DB0001000002084F8E00102E0012084F8E00106
:104DC00094F87C00EFA143F230137222CDE9001079
:104DD000F7A1FEA009F04AF903A9D4F8E40108F00C
:104DE000D3FF67E0387900F07F08FEA043F210138C
:104DF0007A22EFA1CDE90005F4A009F037F9D4F843
:104E00004001017804F5A27041559038405D40455D
:104E100009D0424629462046D4F8DC31984704F1AF
:104E2000B40000F8058004F1B400405D70B9F3A04F
:104E30004FF444539022DEA1CDE90005E3A009F030
:104E400015F929462046D4F8D821904704F1B4003A
:104E5000405D0F282DD0002625E0D4F8A00050F8A2
:104E60002600C0F307494D451BD1D4F8A00030F807
:104E700026001FFA80FAD4F8A41031F9160008F0C1
:104E80001AFE0020009064200AFB00F3AFF25F12CC
:104E90003146204608F0BAFDD4F8A41021F81600D7
:104EA00000BF701CC6B2D4F89C000078B042D4DCBD
:104EB00000BF00BF06B0BDE8F08770B586B00446FD
:104EC0000E46D4F8A8000088002821D02068007879
:104ED00000F5E065ADF80C5001208DF80F000020C2
:104EE0008DF80E0094F87C008DF8100094F87C008A
:104EF000CBA143F23013BE22CDE90010ACA1B3A088
:104F000009F0B4F803A9D4F8E40108F03DFF05E086
:104F1000B4F9AC0008F0CFFDA4F8AC0006B070BD49
:104F20007CB504460E46D4F83C01008800283FD0EA
:104F30000020C1A10346D922CDE900109CA1A3A065
:104F400009F094F8002530E004F1B400405D0F282A
:104F500029D020680078A84225D004F5A270405DD1
:104F6000002814DCBCA00023E62291A1CDE90005B5
:104F700096A009F07BF8D4F8380120B129462046E4
:104F8000D4F838219047012104F1B400415504F5CB
:104F9000A270405D401EC1B204F5A2704155294681
:104FA000204600F0CDF9681CC5B2802DCCDB05E0B1
:104FB000B4F9340108F07FFDA4F834017CBD7CB560
:104FC0000446AD4B002241F20C01204600F09FFD4B
:104FD000A94B002241F20D01204600F098FDD4F8C3
:104FE0003C010088002840D0D4F840010078002817
:104FF0003BD0D4F83C010688642106FB01F006FB97
:1050000001F3AFF2E30200210090204608F0FEFC1D
:10501000A4F8340199A000234FF4A77264A1CDE94C
:1050200000066AA009F022F8002510E004F1B4009F
:10503000405D0F2809D020680078A84205D0D4F838
:105040004001017804F5A2704155681CC5B2802D5D
:10505000ECDB00208CA1034640F25712CDE9001092
:1050600053A15AA009F002F800BF7CBD10B5044658
:10507000B4F9340108F01FFDA4F8340110BD70B577
:1050800004460D4616462046FFF7F0FF2046FFF780
:1050900096FF002070BDF8B504460E461746A834AA
:1050A000B4F9040008F007FDA08054F8A8090088AE
:1050B00080B1D4F8A8000588642105FB01F0002325
:1050C000AFF2092219460090204608F09FFCA4F890
:1050D000AC0000BF0020F8BDF8B50446AFF24903AC
:1050E000002241F21701204600F011FD002084F853
:1050F000E001002516E0D4F8A00030F8250086B2C3
:1051000076B100200090642006FB00F3AFF2DF329E
:105110002946204608F07AFCD4F8A41021F815009E
:10512000681CC5B2D4F89C000078A842E3DCD4F82F
:10513000A800008888B1D4F8A8000688642106FB7E
:1051400001F006FB01F3AFF28D2200210090204612
:1051500008F05CFCA4F8AC0000BFF8BD70B50446D4
:1051600000250BE0D4F8A41031F9150008F0A3FCD9
:10517000D4F8A41021F81500681CC5B2D4F89C001E
:10518000007891E053656E64696E67204E4D54203F
:105190004E6F6465677561726420746F206D617312
:1051A0007465722C2073746174653A2000000000ED
:1051B0002E2E5C43414E6F70656E5C7372635C6C47
:1051C0006966656772642E630000000025732C25F4
:1051D00064203A20305825782025732030582578CF
:1051E000200D0A005265636569766564204E4D5452
:1051F000206E6F64654964203A2000005468652081
:105200004E4D54206973206120626F6F7475702059
:1052100066726F6D206E6F6465203A20000000009A
:1052200050726F647563696E67206865617274623D
:105230006561743A2000000050726F647563696E96
:1052400067206E6F646567756172642D7265717534
:10525000657374733A2000004E6F64652047756172
:10526000726420616C61726D20666F72206E6F6473
:10527000654964203A2000007F500008477561723C
:105280006454696D653A200054696D657220666FDB
:1052900072206E6F64652D6775617264696E672038
:1052A0007374617274657400A8423FF75BAFB4F920
:1052B000AC0008F000FCA4F8AC0070BD10B50446CA
:1052C0002046FFF709FF2046FFF779FE10BD10B515
:1052D00004462046FFF742FF2046FFF7C7FE10BDF9
:1052E000704770477047704770B586B006460C46E9
:1052F00015462FA043F20153322231A1CDE900051A
:1053000036A008F0B3FE3BA043F2025333222CA197
:10531000CDE9000431A008F0A9FE0020ADF80C0092
:105320008DF80E0002208DF80F008DF810508DF8CA
:10533000114003A9D6F8E40108F026FD06B070BDBF
:1053400070B586B005460C4644F4E066ADF80C60D6
:1053500001208DF80E0000208DF80F0029A043F2E7
:105360000353512216A1CDE900041CA008F07EFED3
:1053700003A9D5F8E40108F007FD06B070BD70B5CB
:1053800004460D460F2104F1B40041555DB90020DB
:1053900000BF05E00F2204F1B4010A54411CC8B259
:1053A0008028F7DB00BF29462046FFF7C9FF70BD04
:1053B00053656E645F4E4D54206373203A200000A5
:1053C0002E2E5C43414E6F70656E5C7372635C6E33
:1053D0006D744D61737465722E63000025732C2506
:1053E00064203A20305825782025732030582578BD
:1053F000200D0A0020202020746F206E6F6465202D
:105400003A20000053656E645F4E4F44455F475538
:1054100041524420746F206E6F6465203A20000072
:105420007CB504460D4694F87C007F2807D094F89C
:105430007C00052803D094F87C0004286AD16879A0
:1054400047A14FF450533222CDE900104BA152A096
:1054500008F00CFE687920B16879216809788842E3
:1054600058D12879802824D004DC012807D00228CC
:105470004FD111E0812829D082284AD132E094F816
:105480007C007F2803D094F87C00042803D10521F8
:10549000204608F00CF83CE094F87C007F2803D00C
:1054A00094F87C00052803D10421204607F0FFFF73
:1054B0002FE094F87C00052803D094F87C000428A1
:1054C00003D17F21204607F0F2FF22E0D4F89400B8
:1054D00018B12046D4F8941088470021204607F0E0
:1054E000E6FF16E0204608F046F80646D4F8980095
:1054F00018B12046D4F898108847FF20216808701A
:105500003146204608F03BF80021204607F0CFFF47
:1055100000BF00BF7CBD10B586B00446002024A1AA
:1055200043F207437E22CDE9001014A11AA008F02F
:105530009DFD2168097841F4E060ADF80C00002081
:105540008DF80E0001208DF80F0000208DF810005E
:1055500003A9D4F8E40108F017FC06B010BD000060
:105560004E4D542072656365697665642E20666FC2
:1055700072206E6F6465203A202000002E2E5C435E
:10558000414E6F70656E5C7372635C6E6D74536CCC
:105590006176652E6300000025732C2564203A2077
:1055A000305825782025732030582578200D0A00A2
:1055B00053656E64206120426F6F742D5570206DAD
:1055C000736720002DE9FC4104460E4617469846B5
:1055D000089DD8A042F609333122DBA1CDE90004B1
:1055E000E0A008F043FDE5A042F610333222D6A138
:1055F000CDE90006DBA008F039FDE649681A8D42C6
:1056000038D00DDCE4482844002828D0A0F57F409D
:10561000FE3870B1A0F500304138002860D13EE07E
:105620006FF40031084478B1202843D0212857D1A5
:105630004BE0DAA042F611333522C3A1CDE90004D4
:10564000C8A008F013FD56E0D9A042F61233382264
:10565000BDA1CDE90006C3A008F008FD4BE0D9A02C
:1056600042F613333B22B8A1CDE90004BDA008F0F7
:10567000FDFC40E0DDA042F614333E22B2A1CDE9AC
:105680000007B8A008F0F2FCE3A042F615333F2271
:10569000ADA1CDE90008B3A008F0E8FC2BE0E6A03E
:1056A00042F616334222A8A1CDE90004ADA008F0CD
:1056B000DDFC20E0EBA042F617334522A2A1CDE9A4
:1056C0000005A8A008F0D2FC15E0F2A042F61833BD
:1056D00048229DA1CDE90005A2A008F0C7FC0AE080
:1056E000F8A042F620334B2297A1CDE900059DA0FA
:1056F00008F0BCFC00BF00BF0020BDE8FC812DE924
:10570000FE4F81468A4614469846DDE90C6B02AA94
:1057100051464846D9F8E83198470546029810B1F5
:105720000298BDE8FE8F2879A04209DCEB480023EF
:105730001A46214600905046FFF744FFE748F0E73D
:105740000E9800B3286800EB0410007800F0010008
:10575000C8B1286800EB04100078E1A142F63033AC
:105760006C22CDE9001078A17EA008F07FFC8A4869
:10577000C04300231A46214600905046FFF722FFFF
:105780008548C043CDE7B8F1000F02D14FF000606B
:10579000C7E7286800EB041040683168884206D9E2
:1057A000286800EB041040683060D148B9E72868E9
:1057B00000EB041040788BF80000286800EB041020
:1057C0004768286800EB04103A468168404608F0B4
:1057D00001FE9BF80000092801D037600DE0286821
:1057E00000EB041040683168884205D2002008F8B8
:1057F0000700781C306000E03760002091E72DE959
:10580000FF4F83B080468B461446109D02AA59462E
:105810004046D8F8E83198470646029818B10298F1
:1058200007B0BDE8F08F3079A04209DCAB480090AA
:105830000022214658462B68FFF7C4FEA748EFE731
:105840001198F8B1306800EB04100078022819D1E3
:10585000306800EB04100078A1A142F62533BD2288
:10586000CDE9001038A13FA008F000FC4A484042B2
:1058700000900022214658462B68FFF7A3FE4648B9
:105880004042CDE7306800EB041090F8019030689A
:1058900000EB04104768306800EB0410D0F80CA04F
:1058A000286810B12868B84242D8D8F82420484661
:1058B000069990470290029848B1029800903A46A3
:1058C000214658462B68FFF77DFE0298A8E731680D
:1058D00001EB041188682A68069908F07BFDB9F18C
:1058E000090F09D12868B84206D20020316801EBBF
:1058F000041189682A6888542F60BAF1000F08D013
:10590000224631464046D0470290029808B102989C
:1059100086E7306800EB0410007800F0040030B136
:10592000224659464046D8F8EC31984778E7E1E0FE
:10593000E2E0000044696374696F6E617279206906
:105940006E646578203A20002E2E5C43414E6F70C5
:10595000656E5C7372635C6F626A61636365732E0C
:105960006300000025732C2564203A2030582578E8
:105970002025732030582578200D0A002020202073
:1059800020202020202020737562696E64657820B5
:105990003A20000010000706FEFFFEF9496E64651C
:1059A00078206E6F7420666F756E642000000000B2
:1059B000537562496E646578206E6F7420666F75EA
:1059C0006E6420005772697465206E6F7420616C7C
:1059D0006C6F7765642C2064617461206973207238
:1059E000656164206F6E6C7920000000436F6E6605
:1059F0006C6963742073697A6520646174612E2018
:105A000053686F756C6420626520286279746573D1
:105A10002920203A2000000042757420796F7520FB
:105A20006861766520676976656E207468652073A5
:105A3000697A6520203A20004E6F74206D61707085
:105A400061626C65206461746120696E2061205020
:105A5000444F20617420696E646578202020203ACC
:105A60002000000056616C75652072616E676520CC
:105A70006572726F72203A2076616C756520746F62
:105A80006F206C6F772E2053444F61626F727420C9
:105A90003A20000056616C75652072616E67652062
:105AA0006572726F72203A2076616C756520746F32
:105AB0006F20686967682E2053444F61626F72746B
:105AC000203A2000556E6B6E6F776E206572726F94
:105AD0007220636F6465203A2000000011000906FF
